{
  "contractName": "RUCMarket",
  "abi": [
    {
      "constant": true,
      "inputs": [],
      "name": "tokensSold",
      "outputs": [
        {
          "name": "",
          "type": "uint256"
        }
      ],
      "payable": false,
      "stateMutability": "view",
      "type": "function"
    },
    {
      "constant": true,
      "inputs": [
        {
          "name": "",
          "type": "uint256"
        }
      ],
      "name": "products",
      "outputs": [
        {
          "name": "id",
          "type": "uint256"
        },
        {
          "name": "name",
          "type": "string"
        },
        {
          "name": "price",
          "type": "uint256"
        },
        {
          "name": "number",
          "type": "uint256"
        },
        {
          "name": "seller",
          "type": "address"
        },
        {
          "name": "url",
          "type": "string"
        }
      ],
      "payable": false,
      "stateMutability": "view",
      "type": "function"
    },
    {
      "constant": true,
      "inputs": [],
      "name": "tokenPrice",
      "outputs": [
        {
          "name": "",
          "type": "uint256"
        }
      ],
      "payable": false,
      "stateMutability": "view",
      "type": "function"
    },
    {
      "constant": true,
      "inputs": [
        {
          "name": "",
          "type": "uint256"
        }
      ],
      "name": "orders",
      "outputs": [
        {
          "name": "id",
          "type": "uint256"
        },
        {
          "name": "productId",
          "type": "uint256"
        },
        {
          "name": "productValue",
          "type": "uint256"
        },
        {
          "name": "deliverFee",
          "type": "uint256"
        },
        {
          "name": "number",
          "type": "uint256"
        },
        {
          "name": "seller",
          "type": "address"
        },
        {
          "name": "sellerAddress",
          "type": "string"
        },
        {
          "name": "buyer",
          "type": "address"
        },
        {
          "name": "buyerAddress",
          "type": "string"
        },
        {
          "name": "courierId",
          "type": "uint256"
        },
        {
          "name": "state",
          "type": "uint8"
        },
        {
          "name": "deliverTime",
          "type": "uint256"
        }
      ],
      "payable": false,
      "stateMutability": "view",
      "type": "function"
    },
    {
      "constant": true,
      "inputs": [
        {
          "name": "",
          "type": "uint256"
        }
      ],
      "name": "couriers",
      "outputs": [
        {
          "name": "id",
          "type": "uint256"
        },
        {
          "name": "accountAddress",
          "type": "address"
        },
        {
          "name": "companyName",
          "type": "string"
        },
        {
          "name": "publicKey",
          "type": "string"
        },
        {
          "name": "fee",
          "type": "uint256"
        }
      ],
      "payable": false,
      "stateMutability": "view",
      "type": "function"
    },
    {
      "inputs": [
        {
          "name": "_tokenContract",
          "type": "address"
        },
        {
          "name": "_tokenPrice",
          "type": "uint256"
        }
      ],
      "payable": false,
      "stateMutability": "nonpayable",
      "type": "constructor"
    },
    {
      "anonymous": false,
      "inputs": [
        {
          "indexed": false,
          "name": "_productId",
          "type": "uint256"
        },
        {
          "indexed": false,
          "name": "_price",
          "type": "uint256"
        },
        {
          "indexed": false,
          "name": "_number",
          "type": "uint256"
        },
        {
          "indexed": false,
          "name": "_seller",
          "type": "address"
        },
        {
          "indexed": false,
          "name": "_buyer",
          "type": "address"
        }
      ],
      "name": "Purchase",
      "type": "event"
    },
    {
      "anonymous": false,
      "inputs": [
        {
          "indexed": false,
          "name": "_buyer",
          "type": "address"
        },
        {
          "indexed": false,
          "name": "_amount",
          "type": "uint256"
        }
      ],
      "name": "TokenSell",
      "type": "event"
    },
    {
      "constant": false,
      "inputs": [
        {
          "name": "_numberOfTokens",
          "type": "uint256"
        }
      ],
      "name": "buyTokens",
      "outputs": [],
      "payable": true,
      "stateMutability": "payable",
      "type": "function"
    },
    {
      "constant": false,
      "inputs": [
        {
          "name": "_courierAddress",
          "type": "address"
        }
      ],
      "name": "addCourier",
      "outputs": [],
      "payable": false,
      "stateMutability": "nonpayable",
      "type": "function"
    },
    {
      "constant": false,
      "inputs": [
        {
          "name": "_companyName",
          "type": "string"
        },
        {
          "name": "_publicKey",
          "type": "string"
        },
        {
          "name": "_fee",
          "type": "uint256"
        }
      ],
      "name": "courierRegister",
      "outputs": [],
      "payable": false,
      "stateMutability": "nonpayable",
      "type": "function"
    },
    {
      "constant": false,
      "inputs": [
        {
          "name": "_name",
          "type": "string"
        },
        {
          "name": "_price",
          "type": "uint256"
        },
        {
          "name": "_number",
          "type": "uint256"
        },
        {
          "name": "_url",
          "type": "string"
        }
      ],
      "name": "addProduct",
      "outputs": [],
      "payable": false,
      "stateMutability": "nonpayable",
      "type": "function"
    },
    {
      "constant": false,
      "inputs": [
        {
          "name": "_productId",
          "type": "uint256"
        },
        {
          "name": "_requestNumber",
          "type": "uint256"
        },
        {
          "name": "_courierId",
          "type": "uint256"
        }
      ],
      "name": "purchaseRequest",
      "outputs": [],
      "payable": false,
      "stateMutability": "nonpayable",
      "type": "function"
    },
    {
      "constant": false,
      "inputs": [
        {
          "name": "_orderId",
          "type": "uint256"
        },
        {
          "name": "_buyerAddress",
          "type": "string"
        }
      ],
      "name": "buyerPayOrder",
      "outputs": [],
      "payable": false,
      "stateMutability": "nonpayable",
      "type": "function"
    },
    {
      "constant": false,
      "inputs": [
        {
          "name": "_orderId",
          "type": "uint256"
        },
        {
          "name": "_sellerAddress",
          "type": "string"
        }
      ],
      "name": "sellerConfirmOrder",
      "outputs": [],
      "payable": false,
      "stateMutability": "nonpayable",
      "type": "function"
    },
    {
      "constant": false,
      "inputs": [
        {
          "name": "_orderId",
          "type": "uint256"
        },
        {
          "name": "_hash",
          "type": "bytes32"
        },
        {
          "name": "_sig",
          "type": "bytes"
        }
      ],
      "name": "sellerSendProduct",
      "outputs": [],
      "payable": false,
      "stateMutability": "nonpayable",
      "type": "function"
    },
    {
      "constant": false,
      "inputs": [
        {
          "name": "_orderId",
          "type": "uint256"
        },
        {
          "name": "_hash",
          "type": "bytes32"
        },
        {
          "name": "_sig",
          "type": "bytes"
        }
      ],
      "name": "productDeliveredToBuyer",
      "outputs": [],
      "payable": false,
      "stateMutability": "nonpayable",
      "type": "function"
    },
    {
      "constant": false,
      "inputs": [
        {
          "name": "_orderId",
          "type": "uint256"
        }
      ],
      "name": "buyerConfirm",
      "outputs": [],
      "payable": false,
      "stateMutability": "nonpayable",
      "type": "function"
    },
    {
      "constant": false,
      "inputs": [
        {
          "name": "_orderId",
          "type": "uint256"
        }
      ],
      "name": "sellerGetMoneyFromOrder",
      "outputs": [],
      "payable": false,
      "stateMutability": "nonpayable",
      "type": "function"
    },
    {
      "constant": false,
      "inputs": [
        {
          "name": "_orderId",
          "type": "uint256"
        }
      ],
      "name": "buyerWillRuturnProduct",
      "outputs": [],
      "payable": false,
      "stateMutability": "nonpayable",
      "type": "function"
    },
    {
      "constant": false,
      "inputs": [
        {
          "name": "_orderId",
          "type": "uint256"
        },
        {
          "name": "_hash",
          "type": "bytes32"
        },
        {
          "name": "_sig",
          "type": "bytes"
        }
      ],
      "name": "buyerSendProduct",
      "outputs": [],
      "payable": false,
      "stateMutability": "nonpayable",
      "type": "function"
    },
    {
      "constant": false,
      "inputs": [
        {
          "name": "_orderId",
          "type": "uint256"
        },
        {
          "name": "_hash",
          "type": "bytes32"
        },
        {
          "name": "_sig",
          "type": "bytes"
        }
      ],
      "name": "productDeliveredToSeller",
      "outputs": [],
      "payable": false,
      "stateMutability": "nonpayable",
      "type": "function"
    },
    {
      "constant": false,
      "inputs": [
        {
          "name": "_orderId",
          "type": "uint256"
        }
      ],
      "name": "cancleByBuyer",
      "outputs": [],
      "payable": false,
      "stateMutability": "nonpayable",
      "type": "function"
    },
    {
      "constant": false,
      "inputs": [
        {
          "name": "_orderId",
          "type": "uint256"
        }
      ],
      "name": "cancleByCourier",
      "outputs": [],
      "payable": false,
      "stateMutability": "nonpayable",
      "type": "function"
    },
    {
      "constant": true,
      "inputs": [],
      "name": "productsNumber",
      "outputs": [
        {
          "name": "",
          "type": "uint256"
        }
      ],
      "payable": false,
      "stateMutability": "view",
      "type": "function"
    },
    {
      "constant": true,
      "inputs": [],
      "name": "couriersNumber",
      "outputs": [
        {
          "name": "",
          "type": "uint256"
        }
      ],
      "payable": false,
      "stateMutability": "view",
      "type": "function"
    },
    {
      "constant": true,
      "inputs": [],
      "name": "ordersNumber",
      "outputs": [
        {
          "name": "",
          "type": "uint256"
        }
      ],
      "payable": false,
      "stateMutability": "view",
      "type": "function"
    },
    {
      "constant": true,
      "inputs": [
        {
          "name": "_seller",
          "type": "address"
        }
      ],
      "name": "findOrdersBySeller",
      "outputs": [
        {
          "components": [
            {
              "name": "id",
              "type": "uint256"
            },
            {
              "name": "productId",
              "type": "uint256"
            },
            {
              "name": "productValue",
              "type": "uint256"
            },
            {
              "name": "deliverFee",
              "type": "uint256"
            },
            {
              "name": "number",
              "type": "uint256"
            },
            {
              "name": "seller",
              "type": "address"
            },
            {
              "name": "sellerAddress",
              "type": "string"
            },
            {
              "name": "buyer",
              "type": "address"
            },
            {
              "name": "buyerAddress",
              "type": "string"
            },
            {
              "name": "courierId",
              "type": "uint256"
            },
            {
              "name": "state",
              "type": "uint8"
            },
            {
              "name": "deliverTime",
              "type": "uint256"
            }
          ],
          "name": "",
          "type": "tuple[]"
        }
      ],
      "payable": false,
      "stateMutability": "view",
      "type": "function"
    },
    {
      "constant": true,
      "inputs": [
        {
          "name": "_buyer",
          "type": "address"
        }
      ],
      "name": "findOrdersByBuyer",
      "outputs": [
        {
          "components": [
            {
              "name": "id",
              "type": "uint256"
            },
            {
              "name": "productId",
              "type": "uint256"
            },
            {
              "name": "productValue",
              "type": "uint256"
            },
            {
              "name": "deliverFee",
              "type": "uint256"
            },
            {
              "name": "number",
              "type": "uint256"
            },
            {
              "name": "seller",
              "type": "address"
            },
            {
              "name": "sellerAddress",
              "type": "string"
            },
            {
              "name": "buyer",
              "type": "address"
            },
            {
              "name": "buyerAddress",
              "type": "string"
            },
            {
              "name": "courierId",
              "type": "uint256"
            },
            {
              "name": "state",
              "type": "uint8"
            },
            {
              "name": "deliverTime",
              "type": "uint256"
            }
          ],
          "name": "",
          "type": "tuple[]"
        }
      ],
      "payable": false,
      "stateMutability": "view",
      "type": "function"
    },
    {
      "constant": true,
      "inputs": [
        {
          "name": "_courierId",
          "type": "uint256"
        }
      ],
      "name": "findOrdersBycourierId",
      "outputs": [
        {
          "components": [
            {
              "name": "id",
              "type": "uint256"
            },
            {
              "name": "productId",
              "type": "uint256"
            },
            {
              "name": "productValue",
              "type": "uint256"
            },
            {
              "name": "deliverFee",
              "type": "uint256"
            },
            {
              "name": "number",
              "type": "uint256"
            },
            {
              "name": "seller",
              "type": "address"
            },
            {
              "name": "sellerAddress",
              "type": "string"
            },
            {
              "name": "buyer",
              "type": "address"
            },
            {
              "name": "buyerAddress",
              "type": "string"
            },
            {
              "name": "courierId",
              "type": "uint256"
            },
            {
              "name": "state",
              "type": "uint8"
            },
            {
              "name": "deliverTime",
              "type": "uint256"
            }
          ],
          "name": "",
          "type": "tuple[]"
        }
      ],
      "payable": false,
      "stateMutability": "view",
      "type": "function"
    },
    {
      "constant": true,
      "inputs": [
        {
          "name": "_productId",
          "type": "uint256"
        }
      ],
      "name": "findProductById",
      "outputs": [
        {
          "components": [
            {
              "name": "id",
              "type": "uint256"
            },
            {
              "name": "name",
              "type": "string"
            },
            {
              "name": "price",
              "type": "uint256"
            },
            {
              "name": "number",
              "type": "uint256"
            },
            {
              "name": "seller",
              "type": "address"
            },
            {
              "name": "url",
              "type": "string"
            }
          ],
          "name": "",
          "type": "tuple"
        }
      ],
      "payable": false,
      "stateMutability": "view",
      "type": "function"
    },
    {
      "constant": true,
      "inputs": [
        {
          "name": "_courierId",
          "type": "uint256"
        }
      ],
      "name": "findCourierById",
      "outputs": [
        {
          "components": [
            {
              "name": "id",
              "type": "uint256"
            },
            {
              "name": "accountAddress",
              "type": "address"
            },
            {
              "name": "companyName",
              "type": "string"
            },
            {
              "name": "publicKey",
              "type": "string"
            },
            {
              "name": "fee",
              "type": "uint256"
            }
          ],
          "name": "",
          "type": "tuple"
        }
      ],
      "payable": false,
      "stateMutability": "view",
      "type": "function"
    },
    {
      "constant": true,
      "inputs": [
        {
          "name": "hash",
          "type": "bytes32"
        },
        {
          "name": "signature",
          "type": "bytes"
        }
      ],
      "name": "recover",
      "outputs": [
        {
          "name": "",
          "type": "address"
        }
      ],
      "payable": false,
      "stateMutability": "pure",
      "type": "function"
    }
  ],
  "bytecode": "0x60806040526000600455600060055560006006553480156200002057600080fd5b5060405160408062005bbc8339810180604052620000429190810190620000fe565b81600760006101000a81548173ffffffffffffffffffffffffffffffffffffffff021916908373ffffffffffffffffffffffffffffffffffffffff160217905550336000806101000a81548173ffffffffffffffffffffffffffffffffffffffff021916908373ffffffffffffffffffffffffffffffffffffffff16021790555080600181905550505062000191565b6000620000e0825162000173565b905092915050565b6000620000f6825162000187565b905092915050565b600080604083850312156200011257600080fd5b60006200012285828601620000d2565b92505060206200013585828601620000e8565b9150509250929050565b60006200014c8262000153565b9050919050565b600073ffffffffffffffffffffffffffffffffffffffff82169050919050565b600062000180826200013f565b9050919050565b6000819050919050565b615a1b80620001a16000396000f3fe608060405260043610610180576000357c0100000000000000000000000000000000000000000000000000000000900463ffffffff168063090867581461018557806314082cd2146101ae57806319045a25146101eb578063234142f8146102285780632445d6d7146102515780633610724e1461027a57806338789d3a146102965780634090d5d2146102bf57806341c10b1b146102fc5780634eae589b14610325578063518ab2a81461034e57806367bd9eea14610379578063705862e0146103a25780637acc0b20146103cb5780637ff9b5961461040d578063875fc626146104385780638784b39e14610475578063888487cd1461049e5780639d80c2dd146104c75780639e0125e3146104f2578063a76f776e1461052f578063a85c38ef1461055a578063b8aff60f146105a2578063cb18794a146105cd578063cd828eb2146105f6578063ddf6949f1461061f578063e2da36101461065c578063ef8536fb1461069d578063f1a2376e146106c6578063f8747894146106ef575b600080fd5b34801561019157600080fd5b506101ac60048036036101a7919081019061511a565b610718565b005b3480156101ba57600080fd5b506101d560048036036101d0919081019061505c565b610ac7565b6040516101e291906155e5565b60405180910390f35b3480156101f757600080fd5b50610212600480360361020d9190810190614ef6565b610d13565b60405161021f91906154b9565b60405180910390f35b34801561023457600080fd5b5061024f600480360361024a919081019061505c565b610df7565b005b34801561025d57600080fd5b5061027860048036036102739190810190614ea4565b610fe4565b005b610294600480360361028f919081019061505c565b61109a565b005b3480156102a257600080fd5b506102bd60048036036102b89190810190614fc9565b6112b3565b005b3480156102cb57600080fd5b506102e660048036036102e1919081019061505c565b611436565b6040516102f391906155c3565b60405180910390f35b34801561030857600080fd5b50610323600480360361031e91908101906150ae565b611678565b005b34801561033157600080fd5b5061034c600480360361034791908101906150ae565b6118dd565b005b34801561035a57600080fd5b50610363611b42565b6040516103709190615607565b60405180910390f35b34801561038557600080fd5b506103a0600480360361039b919081019061505c565b611b48565b005b3480156103ae57600080fd5b506103c960048036036103c49190810190614f4a565b611d2c565b005b3480156103d757600080fd5b506103f260048036036103ed919081019061505c565b611f85565b60405161040496959493929190615683565b60405180910390f35b34801561041957600080fd5b50610422612120565b60405161042f9190615607565b60405180910390f35b34801561044457600080fd5b5061045f600480360361045a919081019061505c565b612126565b60405161046c91906155a1565b60405180910390f35b34801561048157600080fd5b5061049c6004803603610497919081019061505c565b6124c5565b005b3480156104aa57600080fd5b506104c560048036036104c0919081019061505c565b612855565b005b3480156104d357600080fd5b506104dc612a13565b6040516104e99190615607565b60405180910390f35b3480156104fe57600080fd5b5061051960048036036105149190810190614ea4565b612a20565b60405161052691906155a1565b60405180910390f35b34801561053b57600080fd5b50610544612e57565b6040516105519190615607565b60405180910390f35b34801561056657600080fd5b50610581600480360361057c919081019061505c565b612e64565b6040516105999c9b9a99989796959493929190615745565b60405180910390f35b3480156105ae57600080fd5b506105b7613050565b6040516105c49190615607565b60405180910390f35b3480156105d957600080fd5b506105f460048036036105ef919081019061511a565b61305d565b005b34801561060257600080fd5b5061061d6004803603610618919081019061505c565b61325b565b005b34801561062b57600080fd5b5061064660048036036106419190810190614ea4565b613566565b60405161065391906155a1565b60405180910390f35b34801561066857600080fd5b50610683600480360361067e919081019061505c565b61399d565b604051610694959493929190615622565b60405180910390f35b3480156106a957600080fd5b506106c460048036036106bf9190810190615172565b613b32565b005b3480156106d257600080fd5b506106ed60048036036106e891908101906150ae565b613f5d565b005b3480156106fb57600080fd5b50610716600480360361071191908101906150ae565b614113565b005b6000831415151561072857600080fd5b610730614a12565b600061073b856143e5565b91509150600082600001511415151561075357600080fd5b8160e0015173ffffffffffffffffffffffffffffffffffffffff163373ffffffffffffffffffffffffffffffffffffffff1614151561079157600080fd5b6000600981111561079e57fe5b82610140015160098111156107af57fe5b1415156107bb57600080fd5b60006107d8836060015184604001516146ec90919063ffffffff16565b9050600760009054906101000a900473ffffffffffffffffffffffffffffffffffffffff1673ffffffffffffffffffffffffffffffffffffffff1663e1f21c673330846040518463ffffffff167c010000000000000000000000000000000000000000000000000000000002815260040161085593929190615518565b602060405180830381600087803b15801561086f57600080fd5b505af1158015610883573d6000803e3d6000fd5b505050506040513d601f19601f820116820180604052506108a79190810190614ecd565b5080600760009054906101000a900473ffffffffffffffffffffffffffffffffffffffff1673ffffffffffffffffffffffffffffffffffffffff1663dd62ed3e33306040518363ffffffff167c01000000000000000000000000000000000000000000000000000000000281526004016109229291906154ef565b60206040518083038186803b15801561093a57600080fd5b505afa15801561094e573d6000803e3d6000fd5b505050506040513d601f19601f820116820180604052506109729190810190615085565b1015151561097f57600080fd5b600760009054906101000a900473ffffffffffffffffffffffffffffffffffffffff1673ffffffffffffffffffffffffffffffffffffffff166323b872dd3330846040518463ffffffff167c01000000000000000000000000000000000000000000000000000000000281526004016109fa93929190615518565b602060405180830381600087803b158015610a1457600080fd5b505af1158015610a28573d6000803e3d6000fd5b505050506040513d601f19601f82011682018060405250610a4c9190810190614ecd565b506001600b83815481101515610a5e57fe5b90600052602060002090600c0201600a0160006101000a81548160ff02191690836009811115610a8a57fe5b02179055508484600b84815481101515610aa057fe5b90600052602060002090600c02016008019190610abe929190614aab565b50505050505050565b610acf614b2b565b60008090505b600a80549050811015610d005782600a82815481101515610af257fe5b9060005260206000209060060201600001541415610cf357600a81815481101515610b1957fe5b906000526020600020906006020160c0604051908101604052908160008201548152602001600182018054600181600116156101000203166002900480601f016020809104026020016040519081016040528092919081815260200182805460018160011615610100020316600290048015610bd65780601f10610bab57610100808354040283529160200191610bd6565b820191906000526020600020905b815481529060010190602001808311610bb957829003601f168201915b5050505050815260200160028201548152602001600382015481526020016004820160009054906101000a900473ffffffffffffffffffffffffffffffffffffffff1673ffffffffffffffffffffffffffffffffffffffff1673ffffffffffffffffffffffffffffffffffffffff168152602001600582018054600181600116156101000203166002900480601f016020809104026020016040519081016040528092919081815260200182805460018160011615610100020316600290048015610ce25780601f10610cb757610100808354040283529160200191610ce2565b820191906000526020600020905b815481529060010190602001808311610cc557829003601f168201915b505050505081525050915050610d0e565b8080600101915050610ad5565b50610d09614b2b565b809150505b919050565b60008060008060418551141515610d305760009350505050610df1565b6020850151925060408501519150606085015160001a9050601b8160ff161015610d5b57601b810190505b601b8160ff1614158015610d735750601c8160ff1614155b15610d845760009350505050610df1565b60018682858560405160008152602001604052604051808581526020018460ff1660ff1681526020018381526020018281526020019450505050506020604051602081039080840390855afa158015610de1573d6000803e3d6000fd5b5050506020604051035193505050505b92915050565b60008114151515610e0757600080fd5b610e0f614a12565b6000610e1a836143e5565b915091506000826000015114151515610e3257600080fd5b610e3a614b78565b610e48836101200151611436565b9050806020015173ffffffffffffffffffffffffffffffffffffffff163373ffffffffffffffffffffffffffffffffffffffff16141515610e8857600080fd5b60066009811115610e9557fe5b8361014001516009811115610ea657fe5b141515610eb257600080fd5b600760009054906101000a900473ffffffffffffffffffffffffffffffffffffffff1673ffffffffffffffffffffffffffffffffffffffff1663a9059cbb8460a00151610f10866060015187604001516146ec90919063ffffffff16565b6040518363ffffffff167c0100000000000000000000000000000000000000000000000000000000028152600401610f49929190615578565b602060405180830381600087803b158015610f6357600080fd5b505af1158015610f77573d6000803e3d6000fd5b505050506040513d601f19601f82011682018060405250610f9b9190810190614ecd565b506005600b83815481101515610fad57fe5b90600052602060002090600c0201600a0160006101000a81548160ff02191690836009811115610fd957fe5b021790555050505050565b6000809054906101000a900473ffffffffffffffffffffffffffffffffffffffff1673ffffffffffffffffffffffffffffffffffffffff163373ffffffffffffffffffffffffffffffffffffffff1614151561103f57600080fd5b6001600860008373ffffffffffffffffffffffffffffffffffffffff1673ffffffffffffffffffffffffffffffffffffffff16815260200190815260200160002060006101000a81548160ff02191690831515021790555050565b6110af6001548261470890919063ffffffff16565b341415156110bc57600080fd5b80600760009054906101000a900473ffffffffffffffffffffffffffffffffffffffff1673ffffffffffffffffffffffffffffffffffffffff166370a08231306040518263ffffffff167c010000000000000000000000000000000000000000000000000000000002815260040161113491906154b9565b60206040518083038186803b15801561114c57600080fd5b505afa158015611160573d6000803e3d6000fd5b505050506040513d601f19601f820116820180604052506111849190810190615085565b1015151561119157600080fd5b600760009054906101000a900473ffffffffffffffffffffffffffffffffffffffff1673ffffffffffffffffffffffffffffffffffffffff1663a9059cbb33836040518363ffffffff167c010000000000000000000000000000000000000000000000000000000002815260040161120a92919061554f565b602060405180830381600087803b15801561122457600080fd5b505af1158015611238573d6000803e3d6000fd5b505050506040513d601f19601f8201168201806040525061125c9190810190614ecd565b151561126757600080fd5b806002600082825401925050819055507fce63ca7dc8dfc0313cea1035f873e3706e0161f9895f670682c0dab3969e362033826040516112a892919061554f565b60405180910390a150565b6000831115156112c257600080fd5b6000821115156112d157600080fd5b6112d9614b2b565b6112ef60016005546146ec90919063ffffffff16565b600581905550600554816000018181525050848160200181905250838160400181815250508281606001818152505033816080019073ffffffffffffffffffffffffffffffffffffffff16908173ffffffffffffffffffffffffffffffffffffffff1681525050818160a00181905250600a81908060018154018082558091505090600182039060005260206000209060060201600090919290919091506000820151816000015560208201518160010190805190602001906113b3929190614bbe565b50604082015181600201556060820151816003015560808201518160040160006101000a81548173ffffffffffffffffffffffffffffffffffffffff021916908373ffffffffffffffffffffffffffffffffffffffff16021790555060a082015181600501908051906020019061142b929190614bbe565b505050505050505050565b61143e614b78565b60008090505b600c805490508110156116655782600c8281548110151561146157fe5b906000526020600020906005020160000154141561165857600c8181548110151561148857fe5b906000526020600020906005020160a06040519081016040529081600082015481526020016001820160009054906101000a900473ffffffffffffffffffffffffffffffffffffffff1673ffffffffffffffffffffffffffffffffffffffff1673ffffffffffffffffffffffffffffffffffffffff168152602001600282018054600181600116156101000203166002900480601f01602080910402602001604051908101604052809291908181526020018280546001816001161561010002031660029004801561159b5780601f106115705761010080835404028352916020019161159b565b820191906000526020600020905b81548152906001019060200180831161157e57829003601f168201915b50505050508152602001600382018054600181600116156101000203166002900480601f01602080910402602001604051908101604052809291908181526020018280546001816001161561010002031660029004801561163d5780601f106116125761010080835404028352916020019161163d565b820191906000526020600020905b81548152906001019060200180831161162057829003601f168201915b50505050508152602001600482015481525050915050611673565b8080600101915050611444565b5061166e614b78565b809150505b919050565b6000841415151561168857600080fd5b611690614a12565b600061169b866143e5565b9150915060008260000151141515156116b357600080fd5b8160e0015173ffffffffffffffffffffffffffffffffffffffff163373ffffffffffffffffffffffffffffffffffffffff161415156116f157600080fd5b6116f9614b78565b611707836101200151611436565b9050806020015173ffffffffffffffffffffffffffffffffffffffff166117728787878080601f016020809104026020016040519081016040528093929190818152602001838380828437600081840152601f19601f82011690508083019250505050505050610d13565b73ffffffffffffffffffffffffffffffffffffffff1614151561179457600080fd5b600660098111156117a157fe5b83610140015160098111156117b257fe5b1415156117be57600080fd5b600760009054906101000a900473ffffffffffffffffffffffffffffffffffffffff1673ffffffffffffffffffffffffffffffffffffffff1663a9059cbb826020015185606001516040518363ffffffff167c010000000000000000000000000000000000000000000000000000000002815260040161183f929190615578565b602060405180830381600087803b15801561185957600080fd5b505af115801561186d573d6000803e3d6000fd5b505050506040513d601f19601f820116820180604052506118919190810190614ecd565b506007600b838154811015156118a357fe5b90600052602060002090600c0201600a0160006101000a81548160ff021916908360098111156118cf57fe5b021790555050505050505050565b600084141515156118ed57600080fd5b6118f5614a12565b6000611900866143e5565b91509150600082600001511415151561191857600080fd5b8160a0015173ffffffffffffffffffffffffffffffffffffffff163373ffffffffffffffffffffffffffffffffffffffff1614151561195657600080fd5b61195e614b78565b61196c836101200151611436565b9050806020015173ffffffffffffffffffffffffffffffffffffffff166119d78787878080601f016020809104026020016040519081016040528093929190818152602001838380828437600081840152601f19601f82011690508083019250505050505050610d13565b73ffffffffffffffffffffffffffffffffffffffff161415156119f957600080fd5b60026009811115611a0657fe5b8361014001516009811115611a1757fe5b141515611a2357600080fd5b600760009054906101000a900473ffffffffffffffffffffffffffffffffffffffff1673ffffffffffffffffffffffffffffffffffffffff1663a9059cbb826020015185606001516040518363ffffffff167c0100000000000000000000000000000000000000000000000000000000028152600401611aa4929190615578565b602060405180830381600087803b158015611abe57600080fd5b505af1158015611ad2573d6000803e3d6000fd5b505050506040513d601f19601f82011682018060405250611af69190810190614ecd565b506003600b83815481101515611b0857fe5b90600052602060002090600c0201600a0160006101000a81548160ff02191690836009811115611b3457fe5b021790555050505050505050565b60025481565b60008114151515611b5857600080fd5b611b60614a12565b6000611b6b836143e5565b915091506000826000015114151515611b8357600080fd5b8160a0015173ffffffffffffffffffffffffffffffffffffffff163373ffffffffffffffffffffffffffffffffffffffff16141515611bc157600080fd5b611bda603c8361016001516146ec90919063ffffffff16565b42111515611be757600080fd5b60046009811115611bf457fe5b8261014001516009811115611c0557fe5b141515611c1157600080fd5b600760009054906101000a900473ffffffffffffffffffffffffffffffffffffffff1673ffffffffffffffffffffffffffffffffffffffff1663a9059cbb8360a0015184604001516040518363ffffffff167c0100000000000000000000000000000000000000000000000000000000028152600401611c92929190615578565b602060405180830381600087803b158015611cac57600080fd5b505af1158015611cc0573d6000803e3d6000fd5b505050506040513d601f19601f82011682018060405250611ce49190810190614ecd565b506005600b82815481101515611cf657fe5b90600052602060002090600c0201600a0160006101000a81548160ff02191690836009811115611d2257fe5b0217905550505050565b600860003373ffffffffffffffffffffffffffffffffffffffff1673ffffffffffffffffffffffffffffffffffffffff16815260200190815260200160002060009054906101000a900460ff161515611d8457600080fd5b600960003373ffffffffffffffffffffffffffffffffffffffff1673ffffffffffffffffffffffffffffffffffffffff16815260200190815260200160002060009054906101000a900460ff16151515611ddd57600080fd5b611de5614b78565b611dfb60016006546146ec90919063ffffffff16565b60068190555060065481600001818152505033816020019073ffffffffffffffffffffffffffffffffffffffff16908173ffffffffffffffffffffffffffffffffffffffff168152505083816040018190525082816060018190525081816080018181525050600c81908060018154018082558091505090600182039060005260206000209060050201600090919290919091506000820151816000015560208201518160010160006101000a81548173ffffffffffffffffffffffffffffffffffffffff021916908373ffffffffffffffffffffffffffffffffffffffff1602179055506040820151816002019080519060200190611efc929190614bbe565b506060820151816003019080519060200190611f19929190614bbe565b50608082015181600401555050506001600960003373ffffffffffffffffffffffffffffffffffffffff1673ffffffffffffffffffffffffffffffffffffffff16815260200190815260200160002060006101000a81548160ff02191690831515021790555050505050565b600a81815481101515611f9457fe5b9060005260206000209060060201600091509050806000015490806001018054600181600116156101000203166002900480601f0160208091040260200160405190810160405280929190818152602001828054600181600116156101000203166002900480156120465780601f1061201b57610100808354040283529160200191612046565b820191906000526020600020905b81548152906001019060200180831161202957829003601f168201915b5050505050908060020154908060030154908060040160009054906101000a900473ffffffffffffffffffffffffffffffffffffffff1690806005018054600181600116156101000203166002900480601f0160208091040260200160405190810160405280929190818152602001828054600181600116156101000203166002900480156121165780601f106120eb57610100808354040283529160200191612116565b820191906000526020600020905b8154815290600101906020018083116120f957829003601f168201915b5050505050905086565b60015481565b6060600080905060008060009050600091505b600b805490508210156121845784600b8381548110151561215657fe5b90600052602060002090600c02016009015414156121775782806001019350505b8180600101925050612139565b6060836040519080825280602002602001820160405280156121c057816020015b6121ad614c3e565b8152602001906001900390816121a55790505b509050600092505b600b805490508310156124b95785600b848154811015156121e557fe5b90600052602060002090600c02016009015414156124ac57600b8381548110151561220c57fe5b90600052602060002090600c0201610180604051908101604052908160008201548152602001600182015481526020016002820154815260200160038201548152602001600482015481526020016005820160009054906101000a900473ffffffffffffffffffffffffffffffffffffffff1673ffffffffffffffffffffffffffffffffffffffff1673ffffffffffffffffffffffffffffffffffffffff168152602001600682018054600181600116156101000203166002900480601f0160208091040260200160405190810160405280929190818152602001828054600181600116156101000203166002900480156123485780601f1061231d57610100808354040283529160200191612348565b820191906000526020600020905b81548152906001019060200180831161232b57829003601f168201915b505050505081526020016007820160009054906101000a900473ffffffffffffffffffffffffffffffffffffffff1673ffffffffffffffffffffffffffffffffffffffff1673ffffffffffffffffffffffffffffffffffffffff168152602001600882018054600181600116156101000203166002900480601f0160208091040260200160405190810160405280929190818152602001828054600181600116156101000203166002900480156124405780601f1061241557610100808354040283529160200191612440565b820191906000526020600020905b81548152906001019060200180831161242357829003601f168201915b5050505050815260200160098201548152602001600a820160009054906101000a900460ff16600981111561247157fe5b600981111561247c57fe5b8152602001600b82015481525050818380600101945081518110151561249e57fe5b906020019060200201819052505b82806001019350506121c8565b80945050505050919050565b600081141515156124d557600080fd5b6124dd614a12565b60006124e8836143e5565b91509150600082600001511415151561250057600080fd5b8160e0015173ffffffffffffffffffffffffffffffffffffffff163373ffffffffffffffffffffffffffffffffffffffff1614151561253e57600080fd5b6004600981111561254b57fe5b826101400151600981111561255c57fe5b14151561256857600080fd5b612581603c8361016001516146ec90919063ffffffff16565b421115151561258f57600080fd5b600760009054906101000a900473ffffffffffffffffffffffffffffffffffffffff1673ffffffffffffffffffffffffffffffffffffffff1663e1f21c67333085606001516040518463ffffffff167c010000000000000000000000000000000000000000000000000000000002815260040161260e93929190615518565b602060405180830381600087803b15801561262857600080fd5b505af115801561263c573d6000803e3d6000fd5b505050506040513d601f19601f820116820180604052506126609190810190614ecd565b508160600151600760009054906101000a900473ffffffffffffffffffffffffffffffffffffffff1673ffffffffffffffffffffffffffffffffffffffff1663dd62ed3e33306040518363ffffffff167c01000000000000000000000000000000000000000000000000000000000281526004016126df9291906154ef565b60206040518083038186803b1580156126f757600080fd5b505afa15801561270b573d6000803e3d6000fd5b505050506040513d601f19601f8201168201806040525061272f9190810190615085565b1015151561273c57600080fd5b600760009054906101000a900473ffffffffffffffffffffffffffffffffffffffff1673ffffffffffffffffffffffffffffffffffffffff166323b872dd333085606001516040518463ffffffff167c01000000000000000000000000000000000000000000000000000000000281526004016127bb93929190615518565b602060405180830381600087803b1580156127d557600080fd5b505af11580156127e9573d6000803e3d6000fd5b505050506040513d601f19601f8201168201806040525061280d9190810190614ecd565b506006600b8281548110151561281f57fe5b90600052602060002090600c0201600a0160006101000a81548160ff0219169083600981111561284b57fe5b0217905550505050565b6000811415151561286557600080fd5b61286d614a12565b6000612878836143e5565b91509150600082600001511415151561289057600080fd5b8160e0015173ffffffffffffffffffffffffffffffffffffffff163373ffffffffffffffffffffffffffffffffffffffff161415156128ce57600080fd5b600460098111156128db57fe5b82610140015160098111156128ec57fe5b1415156128f857600080fd5b600760009054906101000a900473ffffffffffffffffffffffffffffffffffffffff1673ffffffffffffffffffffffffffffffffffffffff1663a9059cbb8360a0015184604001516040518363ffffffff167c0100000000000000000000000000000000000000000000000000000000028152600401612979929190615578565b602060405180830381600087803b15801561299357600080fd5b505af11580156129a7573d6000803e3d6000fd5b505050506040513d601f19601f820116820180604052506129cb9190810190614ecd565b506005600b828154811015156129dd57fe5b90600052602060002090600c0201600a0160006101000a81548160ff02191690836009811115612a0957fe5b0217905550505050565b6000600b80549050905090565b6060600080905060008060009050600091505b600b80549050821015612aca578473ffffffffffffffffffffffffffffffffffffffff16600b83815481101515612a6657fe5b90600052602060002090600c020160050160009054906101000a900473ffffffffffffffffffffffffffffffffffffffff1673ffffffffffffffffffffffffffffffffffffffff161415612abd5782806001019350505b8180600101925050612a33565b606083604051908082528060200260200182016040528015612b0657816020015b612af3614c3e565b815260200190600190039081612aeb5790505b509050600092505b600b80549050831015612e4b578573ffffffffffffffffffffffffffffffffffffffff16600b84815481101515612b4157fe5b90600052602060002090600c020160050160009054906101000a900473ffffffffffffffffffffffffffffffffffffffff1673ffffffffffffffffffffffffffffffffffffffff161415612e3e57600b83815481101515612b9e57fe5b90600052602060002090600c0201610180604051908101604052908160008201548152602001600182015481526020016002820154815260200160038201548152602001600482015481526020016005820160009054906101000a900473ffffffffffffffffffffffffffffffffffffffff1673ffffffffffffffffffffffffffffffffffffffff1673ffffffffffffffffffffffffffffffffffffffff168152602001600682018054600181600116156101000203166002900480601f016020809104026020016040519081016040528092919081815260200182805460018160011615610100020316600290048015612cda5780601f10612caf57610100808354040283529160200191612cda565b820191906000526020600020905b815481529060010190602001808311612cbd57829003601f168201915b505050505081526020016007820160009054906101000a900473ffffffffffffffffffffffffffffffffffffffff1673ffffffffffffffffffffffffffffffffffffffff1673ffffffffffffffffffffffffffffffffffffffff168152602001600882018054600181600116156101000203166002900480601f016020809104026020016040519081016040528092919081815260200182805460018160011615610100020316600290048015612dd25780601f10612da757610100808354040283529160200191612dd2565b820191906000526020600020905b815481529060010190602001808311612db557829003601f168201915b5050505050815260200160098201548152602001600a820160009054906101000a900460ff166009811115612e0357fe5b6009811115612e0e57fe5b8152602001600b820154815250508183806001019450815181101515612e3057fe5b906020019060200201819052505b8280600101935050612b0e565b80945050505050919050565b6000600c80549050905090565b600b81815481101515612e7357fe5b90600052602060002090600c02016000915090508060000154908060010154908060020154908060030154908060040154908060050160009054906101000a900473ffffffffffffffffffffffffffffffffffffffff1690806006018054600181600116156101000203166002900480601f016020809104026020016040519081016040528092919081815260200182805460018160011615610100020316600290048015612f635780601f10612f3857610100808354040283529160200191612f63565b820191906000526020600020905b815481529060010190602001808311612f4657829003601f168201915b5050505050908060070160009054906101000a900473ffffffffffffffffffffffffffffffffffffffff1690806008018054600181600116156101000203166002900480601f0160208091040260200160405190810160405280929190818152602001828054600181600116156101000203166002900480156130275780601f10612ffc57610100808354040283529160200191613027565b820191906000526020600020905b81548152906001019060200180831161300a57829003601f168201915b50505050509080600901549080600a0160009054906101000a900460ff169080600b015490508c565b6000600a80549050905090565b6000831415151561306d57600080fd5b613075614a12565b6000613080856143e5565b91509150600082600001511415151561309857600080fd5b8160a0015173ffffffffffffffffffffffffffffffffffffffff163373ffffffffffffffffffffffffffffffffffffffff161415156130d657600080fd5b600160098111156130e357fe5b82610140015160098111156130f457fe5b14151561310057600080fd5b613108614b2b565b60006131178460200151614740565b91509150816060015184608001511115151561313257600080fd5b6002600b8481548110151561314357fe5b90600052602060002090600c0201600a0160006101000a81548160ff0219169083600981111561316f57fe5b02179055506131ab8460800151600a8381548110151561318b57fe5b90600052602060002090600602016003015461499b90919063ffffffff16565b600a828154811015156131ba57fe5b9060005260206000209060060201600301819055508585600b858154811015156131e057fe5b90600052602060002090600c020160060191906131fe929190614aab565b507fff4fa69114c0677f6a88bfc157c0874ccb1d721fa92a870e1d262dc197face508460200151836040015186608001518760a001518860e0015160405161324a9594939291906156f2565b60405180910390a150505050505050565b6000811415151561326b57600080fd5b613273614a12565b600061327e836143e5565b91509150600082600001511415151561329657600080fd5b8160e0015173ffffffffffffffffffffffffffffffffffffffff163373ffffffffffffffffffffffffffffffffffffffff161415156132d457600080fd5b600360098111156132e157fe5b82610140015160098111156132f257fe5b1015613425576009600b8281548110151561330957fe5b90600052602060002090600c0201600a0160006101000a81548160ff0219169083600981111561333557fe5b0217905550600760009054906101000a900473ffffffffffffffffffffffffffffffffffffffff1673ffffffffffffffffffffffffffffffffffffffff1663a9059cbb33613394856060015186604001516146ec90919063ffffffff16565b6040518363ffffffff167c01000000000000000000000000000000000000000000000000000000000281526004016133cd92919061554f565b602060405180830381600087803b1580156133e757600080fd5b505af11580156133fb573d6000803e3d6000fd5b505050506040513d601f19601f8201168201806040525061341f9190810190614ecd565b50613561565b6006600981111561343257fe5b826101400151600981111561344357fe5b141561356057600760009054906101000a900473ffffffffffffffffffffffffffffffffffffffff1673ffffffffffffffffffffffffffffffffffffffff1663a9059cbb8360a0015184604001516040518363ffffffff167c01000000000000000000000000000000000000000000000000000000000281526004016134ca929190615578565b602060405180830381600087803b1580156134e457600080fd5b505af11580156134f8573d6000803e3d6000fd5b505050506040513d601f19601f8201168201806040525061351c9190810190614ecd565b506005600b8281548110151561352e57fe5b90600052602060002090600c0201600a0160006101000a81548160ff0219169083600981111561355a57fe5b02179055505b5b505050565b6060600080905060008060009050600091505b600b80549050821015613610578473ffffffffffffffffffffffffffffffffffffffff16600b838154811015156135ac57fe5b90600052602060002090600c020160070160009054906101000a900473ffffffffffffffffffffffffffffffffffffffff1673ffffffffffffffffffffffffffffffffffffffff1614156136035782806001019350505b8180600101925050613579565b60608360405190808252806020026020018201604052801561364c57816020015b613639614c3e565b8152602001906001900390816136315790505b509050600092505b600b80549050831015613991578573ffffffffffffffffffffffffffffffffffffffff16600b8481548110151561368757fe5b90600052602060002090600c020160070160009054906101000a900473ffffffffffffffffffffffffffffffffffffffff1673ffffffffffffffffffffffffffffffffffffffff16141561398457600b838154811015156136e457fe5b90600052602060002090600c0201610180604051908101604052908160008201548152602001600182015481526020016002820154815260200160038201548152602001600482015481526020016005820160009054906101000a900473ffffffffffffffffffffffffffffffffffffffff1673ffffffffffffffffffffffffffffffffffffffff1673ffffffffffffffffffffffffffffffffffffffff168152602001600682018054600181600116156101000203166002900480601f0160208091040260200160405190810160405280929190818152602001828054600181600116156101000203166002900480156138205780601f106137f557610100808354040283529160200191613820565b820191906000526020600020905b81548152906001019060200180831161380357829003601f168201915b505050505081526020016007820160009054906101000a900473ffffffffffffffffffffffffffffffffffffffff1673ffffffffffffffffffffffffffffffffffffffff1673ffffffffffffffffffffffffffffffffffffffff168152602001600882018054600181600116156101000203166002900480601f0160208091040260200160405190810160405280929190818152602001828054600181600116156101000203166002900480156139185780601f106138ed57610100808354040283529160200191613918565b820191906000526020600020905b8154815290600101906020018083116138fb57829003601f168201915b5050505050815260200160098201548152602001600a820160009054906101000a900460ff16600981111561394957fe5b600981111561395457fe5b8152602001600b82015481525050818380600101945081518110151561397657fe5b906020019060200201819052505b8280600101935050613654565b80945050505050919050565b600c818154811015156139ac57fe5b90600052602060002090600502016000915090508060000154908060010160009054906101000a900473ffffffffffffffffffffffffffffffffffffffff1690806002018054600181600116156101000203166002900480601f016020809104026020016040519081016040528092919081815260200182805460018160011615610100020316600290048015613a845780601f10613a5957610100808354040283529160200191613a84565b820191906000526020600020905b815481529060010190602001808311613a6757829003601f168201915b505050505090806003018054600181600116156101000203166002900480601f016020809104026020016040519081016040528092919081815260200182805460018160011615610100020316600290048015613b225780601f10613af757610100808354040283529160200191613b22565b820191906000526020600020905b815481529060010190602001808311613b0557829003601f168201915b5050505050908060040154905085565b60008314151515613b4257600080fd5b613b4a614b2b565b613b5384610ac7565b9050806000015184141515613b6757600080fd5b60008214151515613b7757600080fd5b60008314158015613b8c575080606001518311155b1515613b9757600080fd5b600760009054906101000a900473ffffffffffffffffffffffffffffffffffffffff1673ffffffffffffffffffffffffffffffffffffffff166370a08231336040518263ffffffff167c0100000000000000000000000000000000000000000000000000000000028152600401613c0e91906154d4565b60206040518083038186803b158015613c2657600080fd5b505afa158015613c3a573d6000803e3d6000fd5b505050506040513d601f19601f82011682018060405250613c5e9190810190615085565b613c7584836040015161470890919063ffffffff16565b11151515613c8257600080fd5b3373ffffffffffffffffffffffffffffffffffffffff16816080015173ffffffffffffffffffffffffffffffffffffffff1614151515613cc157600080fd5b613cc9614a12565b613cdf60016004546146ec90919063ffffffff16565b60048190555060045481600001818152505084816020018181525050613d1284836040015161470890919063ffffffff16565b816040018181525050613d23614b78565b613d2c84611436565b905080608001518260600181815250508482608001818152505082608001518260a0019073ffffffffffffffffffffffffffffffffffffffff16908173ffffffffffffffffffffffffffffffffffffffff1681525050338260e0019073ffffffffffffffffffffffffffffffffffffffff16908173ffffffffffffffffffffffffffffffffffffffff1681525050838261012001818152505060008261014001906009811115613dd857fe5b90816009811115613de557fe5b81525050600b829080600181540180825580915050906001820390600052602060002090600c020160009091929091909150600082015181600001556020820151816001015560408201518160020155606082015181600301556080820151816004015560a08201518160050160006101000a81548173ffffffffffffffffffffffffffffffffffffffff021916908373ffffffffffffffffffffffffffffffffffffffff16021790555060c0820151816006019080519060200190613eac929190614bbe565b5060e08201518160070160006101000a81548173ffffffffffffffffffffffffffffffffffffffff021916908373ffffffffffffffffffffffffffffffffffffffff160217905550610100820151816008019080519060200190613f11929190614bbe565b50610120820151816009015561014082015181600a0160006101000a81548160ff02191690836009811115613f4257fe5b021790555061016082015181600b0155505050505050505050565b60008414151515613f6d57600080fd5b613f75614a12565b6000613f80866143e5565b915091506000826000015114151515613f9857600080fd5b8160e0015173ffffffffffffffffffffffffffffffffffffffff166140018686868080601f016020809104026020016040519081016040528093929190818152602001838380828437600081840152601f19601f82011690508083019250505050505050610d13565b73ffffffffffffffffffffffffffffffffffffffff1614151561402357600080fd5b61402b614b78565b614039836101200151611436565b9050806020015173ffffffffffffffffffffffffffffffffffffffff163373ffffffffffffffffffffffffffffffffffffffff1614151561407957600080fd5b6003600981111561408657fe5b836101400151600981111561409757fe5b1415156140a357600080fd5b6004600b838154811015156140b457fe5b90600052602060002090600c0201600a0160006101000a81548160ff021916908360098111156140e057fe5b021790555042600b838154811015156140f557fe5b90600052602060002090600c0201600b018190555050505050505050565b6000841415151561412357600080fd5b61412b614a12565b6000614136866143e5565b91509150600082600001511415151561414e57600080fd5b8160a0015173ffffffffffffffffffffffffffffffffffffffff166141b78686868080601f016020809104026020016040519081016040528093929190818152602001838380828437600081840152601f19601f82011690508083019250505050505050610d13565b73ffffffffffffffffffffffffffffffffffffffff161415156141d957600080fd5b6141e1614b78565b6141ef836101200151611436565b9050806020015173ffffffffffffffffffffffffffffffffffffffff163373ffffffffffffffffffffffffffffffffffffffff1614151561422f57600080fd5b6007600981111561423c57fe5b836101400151600981111561424d57fe5b14151561425957600080fd5b6008600b8381548110151561426a57fe5b90600052602060002090600c0201600a0160006101000a81548160ff0219169083600981111561429657fe5b021790555060006142aa84602001516149b4565b90506142e38460800151600a838154811015156142c357fe5b9060005260206000209060060201600301546146ec90919063ffffffff16565b600a828154811015156142f257fe5b906000526020600020906006020160030181905550600760009054906101000a900473ffffffffffffffffffffffffffffffffffffffff1673ffffffffffffffffffffffffffffffffffffffff1663a9059cbb8560e0015186604001516040518363ffffffff167c0100000000000000000000000000000000000000000000000000000000028152600401614388929190615578565b602060405180830381600087803b1580156143a257600080fd5b505af11580156143b6573d6000803e3d6000fd5b505050506040513d601f19601f820116820180604052506143da9190810190614ecd565b505050505050505050565b6143ed614a12565b600080600090505b600b805490508110156146d25783600b8281548110151561441257fe5b90600052602060002090600c02016000015414156146c557600b8181548110151561443957fe5b90600052602060002090600c02018181610180604051908101604052908160008201548152602001600182015481526020016002820154815260200160038201548152602001600482015481526020016005820160009054906101000a900473ffffffffffffffffffffffffffffffffffffffff1673ffffffffffffffffffffffffffffffffffffffff1673ffffffffffffffffffffffffffffffffffffffff168152602001600682018054600181600116156101000203166002900480601f0160208091040260200160405190810160405280929190818152602001828054600181600116156101000203166002900480156145775780601f1061454c57610100808354040283529160200191614577565b820191906000526020600020905b81548152906001019060200180831161455a57829003601f168201915b505050505081526020016007820160009054906101000a900473ffffffffffffffffffffffffffffffffffffffff1673ffffffffffffffffffffffffffffffffffffffff1673ffffffffffffffffffffffffffffffffffffffff168152602001600882018054600181600116156101000203166002900480601f01602080910402602001604051908101604052809291908181526020018280546001816001161561010002031660029004801561466f5780601f106146445761010080835404028352916020019161466f565b820191906000526020600020905b81548152906001019060200180831161465257829003601f168201915b5050505050815260200160098201548152602001600a820160009054906101000a900460ff1660098111156146a057fe5b60098111156146ab57fe5b8152602001600b82015481525050915092509250506146e7565b80806001019150506143f5565b506146db614a12565b80600080905092509250505b915091565b600081830190508281101515156146ff57fe5b80905092915050565b60008083141561471b576000905061473a565b818302905081838281151561472c57fe5b0414151561473657fe5b8090505b92915050565b614748614b2b565b600080600090505b600a805490508110156149815783600a8281548110151561476d57fe5b906000526020600020906006020160000154141561497457600a8181548110151561479457fe5b9060005260206000209060060201818160c0604051908101604052908160008201548152602001600182018054600181600116156101000203166002900480601f0160208091040260200160405190810160405280929190818152602001828054600181600116156101000203166002900480156148535780601f1061482857610100808354040283529160200191614853565b820191906000526020600020905b81548152906001019060200180831161483657829003601f168201915b5050505050815260200160028201548152602001600382015481526020016004820160009054906101000a900473ffffffffffffffffffffffffffffffffffffffff1673ffffffffffffffffffffffffffffffffffffffff1673ffffffffffffffffffffffffffffffffffffffff168152602001600582018054600181600116156101000203166002900480601f01602080910402602001604051908101604052809291908181526020018280546001816001161561010002031660029004801561495f5780601f106149345761010080835404028352916020019161495f565b820191906000526020600020905b81548152906001019060200180831161494257829003601f168201915b50505050508152505091509250925050614996565b8080600101915050614750565b5061498a614b2b565b80600080905092509250505b915091565b60008282111515156149a957fe5b818303905092915050565b600080600090505b600a80549050811015614a075782600a828154811015156149d957fe5b90600052602060002090600602016000015414156149fa5780915050614a0d565b80806001019150506149bc565b50600090505b919050565b610180604051908101604052806000815260200160008152602001600081526020016000815260200160008152602001600073ffffffffffffffffffffffffffffffffffffffff16815260200160608152602001600073ffffffffffffffffffffffffffffffffffffffff168152602001606081526020016000815260200160006009811115614a9e57fe5b8152602001600081525090565b828054600181600116156101000203166002900490600052602060002090601f016020900481019282601f10614aec57803560ff1916838001178555614b1a565b82800160010185558215614b1a579182015b82811115614b19578235825591602001919060010190614afe565b5b509050614b279190614cd7565b5090565b60c06040519081016040528060008152602001606081526020016000815260200160008152602001600073ffffffffffffffffffffffffffffffffffffffff168152602001606081525090565b60a06040519081016040528060008152602001600073ffffffffffffffffffffffffffffffffffffffff1681526020016060815260200160608152602001600081525090565b828054600181600116156101000203166002900490600052602060002090601f016020900481019282601f10614bff57805160ff1916838001178555614c2d565b82800160010185558215614c2d579182015b82811115614c2c578251825591602001919060010190614c11565b5b509050614c3a9190614cd7565b5090565b610180604051908101604052806000815260200160008152602001600081526020016000815260200160008152602001600073ffffffffffffffffffffffffffffffffffffffff16815260200160608152602001600073ffffffffffffffffffffffffffffffffffffffff168152602001606081526020016000815260200160006009811115614cca57fe5b8152602001600081525090565b614cf991905b80821115614cf5576000816000905550600101614cdd565b5090565b90565b6000614d088235615914565b905092915050565b6000614d1c8251615926565b905092915050565b6000614d308235615932565b905092915050565b60008083601f8401121515614d4c57600080fd5b8235905067ffffffffffffffff811115614d6557600080fd5b602083019150836001820283011115614d7d57600080fd5b9250929050565b600082601f8301121515614d9757600080fd5b8135614daa614da58261583a565b61580d565b91508082526020830160208301858383011115614dc657600080fd5b614dd183828461598e565b50505092915050565b60008083601f8401121515614dee57600080fd5b8235905067ffffffffffffffff811115614e0757600080fd5b602083019150836001820283011115614e1f57600080fd5b9250929050565b600082601f8301121515614e3957600080fd5b8135614e4c614e4782615866565b61580d565b91508082526020830160208301858383011115614e6857600080fd5b614e7383828461598e565b50505092915050565b6000614e88823561593c565b905092915050565b6000614e9c825161593c565b905092915050565b600060208284031215614eb657600080fd5b6000614ec484828501614cfc565b91505092915050565b600060208284031215614edf57600080fd5b6000614eed84828501614d10565b91505092915050565b60008060408385031215614f0957600080fd5b6000614f1785828601614d24565b925050602083013567ffffffffffffffff811115614f3457600080fd5b614f4085828601614d84565b9150509250929050565b600080600060608486031215614f5f57600080fd5b600084013567ffffffffffffffff811115614f7957600080fd5b614f8586828701614e26565b935050602084013567ffffffffffffffff811115614fa257600080fd5b614fae86828701614e26565b9250506040614fbf86828701614e7c565b9150509250925092565b60008060008060808587031215614fdf57600080fd5b600085013567ffffffffffffffff811115614ff957600080fd5b61500587828801614e26565b945050602061501687828801614e7c565b935050604061502787828801614e7c565b925050606085013567ffffffffffffffff81111561504457600080fd5b61505087828801614e26565b91505092959194509250565b60006020828403121561506e57600080fd5b600061507c84828501614e7c565b91505092915050565b60006020828403121561509757600080fd5b60006150a584828501614e90565b91505092915050565b600080600080606085870312156150c457600080fd5b60006150d287828801614e7c565b94505060206150e387828801614d24565b935050604085013567ffffffffffffffff81111561510057600080fd5b61510c87828801614d38565b925092505092959194509250565b60008060006040848603121561512f57600080fd5b600061513d86828701614e7c565b935050602084013567ffffffffffffffff81111561515a57600080fd5b61516686828701614dda565b92509250509250925092565b60008060006060848603121561518757600080fd5b600061519586828701614e7c565b93505060206151a686828701614e7c565b92505060406151b786828701614e7c565b9150509250925092565b6151ca81615946565b82525050565b6151d9816158c2565b82525050565b60006151ea8261589f565b8084526020840193508360208202850161520385615892565b60005b8481101561523c57838303885261521e83835161530f565b9250615229826158b5565b9150602088019750600181019050615206565b508196508694505050505092915050565b61525681615958565b82525050565b6000615267826158aa565b80845261527b81602086016020860161599d565b615284816159d0565b602085010191505092915050565b600060a0830160008301516152aa60008601826154aa565b5060208301516152bd60208601826151d0565b50604083015184820360408601526152d5828261525c565b915050606083015184820360608601526152ef828261525c565b915050608083015161530460808601826154aa565b508091505092915050565b60006101808301600083015161532860008601826154aa565b50602083015161533b60208601826154aa565b50604083015161534e60408601826154aa565b50606083015161536160608601826154aa565b50608083015161537460808601826154aa565b5060a083015161538760a08601826151d0565b5060c083015184820360c086015261539f828261525c565b91505060e08301516153b460e08601826151d0565b506101008301518482036101008601526153ce828261525c565b9150506101208301516153e56101208601826154aa565b506101408301516153fa61014086018261524d565b5061016083015161540f6101608601826154aa565b508091505092915050565b600060c08301600083015161543260008601826154aa565b506020830151848203602086015261544a828261525c565b915050604083015161545f60408601826154aa565b50606083015161547260608601826154aa565b50608083015161548560808601826151d0565b5060a083015184820360a086015261549d828261525c565b9150508091505092915050565b6154b38161590a565b82525050565b60006020820190506154ce60008301846151d0565b92915050565b60006020820190506154e960008301846151c1565b92915050565b600060408201905061550460008301856151c1565b61551160208301846151d0565b9392505050565b600060608201905061552d60008301866151c1565b61553a60208301856151d0565b61554760408301846154aa565b949350505050565b600060408201905061556460008301856151c1565b61557160208301846154aa565b9392505050565b600060408201905061558d60008301856151d0565b61559a60208301846154aa565b9392505050565b600060208201905081810360008301526155bb81846151df565b905092915050565b600060208201905081810360008301526155dd8184615292565b905092915050565b600060208201905081810360008301526155ff818461541a565b905092915050565b600060208201905061561c60008301846154aa565b92915050565b600060a08201905061563760008301886154aa565b61564460208301876151d0565b8181036040830152615656818661525c565b9050818103606083015261566a818561525c565b905061567960808301846154aa565b9695505050505050565b600060c08201905061569860008301896154aa565b81810360208301526156aa818861525c565b90506156b960408301876154aa565b6156c660608301866154aa565b6156d360808301856151d0565b81810360a08301526156e5818461525c565b9050979650505050505050565b600060a08201905061570760008301886154aa565b61571460208301876154aa565b61572160408301866154aa565b61572e60608301856151d0565b61573b60808301846151d0565b9695505050505050565b60006101808201905061575b600083018f6154aa565b615768602083018e6154aa565b615775604083018d6154aa565b615782606083018c6154aa565b61578f608083018b6154aa565b61579c60a083018a6151d0565b81810360c08301526157ae818961525c565b90506157bd60e08301886151d0565b8181036101008301526157d0818761525c565b90506157e06101208301866154aa565b6157ee61014083018561524d565b6157fc6101608301846154aa565b9d9c50505050505050505050505050565b6000604051905081810181811067ffffffffffffffff8211171561583057600080fd5b8060405250919050565b600067ffffffffffffffff82111561585157600080fd5b601f19601f8301169050602081019050919050565b600067ffffffffffffffff82111561587d57600080fd5b601f19601f8301169050602081019050919050565b6000602082019050919050565b600081519050919050565b600081519050919050565b6000602082019050919050565b60006158cd826158ea565b9050919050565b6000600a821015156158e257fe5b819050919050565b600073ffffffffffffffffffffffffffffffffffffffff82169050919050565b6000819050919050565b600061591f826158ea565b9050919050565b60008115159050919050565b6000819050919050565b6000819050919050565b60006159518261596a565b9050919050565b6000615963826158d4565b9050919050565b60006159758261597c565b9050919050565b6000615987826158ea565b9050919050565b82818337600083830152505050565b60005b838110156159bb5780820151818401526020810190506159a0565b838111156159ca576000848401525b50505050565b6000601f19601f830116905091905056fea265627a7a72305820a3ad788ea446a79db0edd1722e6d2eb27f2cbfaa48bd45410ce76d230eb0a6c76c6578706572696d656e74616cf50037",
  "source": "pragma solidity ^0.5.0;\npragma experimental ABIEncoderV2;\n\nimport \"./RUCToken.sol\";\n//import \"./SafeMath.sol\";\n\ncontract RUCMarket {\n    \n  using SafeMath for uint256;\n\n  address payable admin;\n  uint256 public tokenPrice;\n  uint256 public tokensSold;\n\n  uint requestedProducts;\n  uint totalOrderNumber = 0;\n  uint totalProductNumber = 0;\n  uint totalCourierNumber = 0;\n  \n\n  RUCToken token;\n\n  enum State {REQUESTED, PAYED, SELLER_COMFIRMED, SELLER_SENT, \n  BUYER_GOT, COMPLETED, WILL_RETURN, BUYER_SENT, SELLER_GOT, CANCLED}\n\n  struct Order {\n    uint id;\n    uint productId;\n    uint productValue;\n    uint deliverFee;\n    uint number;\n    address seller;\n    string sellerAddress;\n    address buyer;\n    string buyerAddress;\n    uint courierId;\n    State state;\n    uint deliverTime; \n  }\n  \n  struct Product {\n    uint id;\n    string name;\n    uint price;\n    uint number;\n    //uint unconfirmedRequests;\n    address seller;\n    string url;\n  }\n  \n  \n  struct Courier {\n      uint id;\n      address accountAddress;\n      string companyName;\n      string publicKey;\n      uint fee;\n  }\n  \n  //mapping (address => AddressInfo) addressTable;\n  //mapping (address => bool) registerTable;\n  mapping (address => bool) certifiedCourier; // for admin to certify courier\n  mapping (address => bool) isCourier;  // for check if a courier double registers\n\n  Product[] public products;\n  Order[] public orders;\n  Courier[] public couriers;\n  \n \n  event Purchase(uint _productId, uint _price, uint _number, address _seller, address _buyer);\n  event TokenSell(address _buyer, uint256 _amount);\n  \n  constructor(RUCToken _tokenContract, uint256 _tokenPrice) public {\n    token = _tokenContract;\n    admin = msg.sender;\n    tokenPrice = _tokenPrice;\n  }\n  \n\n/************************ Token Part **************************************************************/\n\n  function buyTokens(uint256 _numberOfTokens) public payable {\n\n    // Require that value is equal to tokens\n    require(msg.value == _numberOfTokens.mul(tokenPrice));\n\n    // Require that the contract has enough tokens\n    require(token.balanceOf(address(this))>= _numberOfTokens);\n\n    // Require that a transfer is successful\n    require(token.transfer(msg.sender, _numberOfTokens));\n\n    // Keep track of tokensSold\n    tokensSold += _numberOfTokens;\n\n    // Trigger Sell Event\n    emit TokenSell(msg.sender, _numberOfTokens);\n  }\n  \n  \n  /************************ Purchase Part **************************************************************/\n  \n  function addCourier(address _courierAddress) public{\n    require(msg.sender == admin);         // only by admin\n    certifiedCourier[_courierAddress] = true;\n  }\n\n  function courierRegister(string memory _companyName, string memory _publicKey, uint _fee) public {\n      require(certifiedCourier[msg.sender]); // require msg.sender to be already certified\n      require(!isCourier[msg.sender]); // prevent double register\n      \n      Courier memory _courier;\n      totalCourierNumber = totalCourierNumber.add(1);\n      _courier.id = totalCourierNumber; //id = totalCourierNumber \n      _courier.accountAddress = msg.sender;\n      _courier.companyName = _companyName;\n      _courier.publicKey = _publicKey;\n      _courier.fee = _fee;\n      \n      couriers.push(_courier);\n      isCourier[msg.sender] = true;\n  }\n  \n  function addProduct(string memory _name, uint _price, uint _number, string memory _url) public {\n    require(_price > 0);\n    require(_number > 0);\n    \n    Product memory _product;\n    totalProductNumber = totalProductNumber.add(1);\n    _product.id = totalProductNumber; //id = totalProductNumber\n    _product.name = _name;\n    _product.price = _price;\n    _product.number = _number;\n    _product.seller = msg.sender;\n    _product.url = _url;\n    products.push(_product);\n  }\n\n  \n  function purchaseRequest(uint _productId, uint _requestNumber, uint _courierId) external {\n    require(_productId != 0);\n    \n    //(Product memory _product, uint _productIndex) = findProductAndIndexById(_productId);\n    Product memory _product = findProductById(_productId);\n    require(_productId == _product.id); //_product does exist\n    //require(_courierId > 0 && _courierId <= couriers.length);\n    require(_courierId !=0);\n    require(_requestNumber != 0 && _requestNumber <= _product.number);\n    require((_product.price.mul(_requestNumber)) <= token.balanceOf(msg.sender));\n    require(_product.seller != msg.sender); // can not buy things from one himself\n    \n    Order memory _order;\n    totalOrderNumber = totalOrderNumber.add(1);\n    _order.id = totalOrderNumber; // order id = totalOrderNumber\n    _order.productId = _productId;\n    _order.productValue = _product.price.mul(_requestNumber); // number * price \n    Courier memory _courier = findCourierById(_courierId);\n    _order.deliverFee = _courier.fee; //deliver fee\n    _order.number = _requestNumber;\n    _order.seller = _product.seller;\n    _order.buyer = msg.sender;\n    _order.courierId = _courierId;\n    _order.state = State.REQUESTED;\n\n    orders.push(_order);\n    \n  }\n  \n  \n  function buyerPayOrder(uint _orderId, string calldata _buyerAddress) external {\n      require(_orderId !=0);\n      \n      (Order memory _order,uint _orderIndex) = findOrderAndIndexById(_orderId);\n      require(_order.id != 0); // order exist\n      \n      require(msg.sender == _order.buyer);\n      require(_order.state == State.REQUESTED);\n      \n      uint totalValue = _order.productValue.add(_order.deliverFee); //totalValue = productValue + deliverFee\n      token.approve(msg.sender, address(this), totalValue);\n      require(token.allowance(msg.sender, address(this)) >= totalValue);\n      token.transferFrom(msg.sender, address(this), totalValue);\n      orders[_orderIndex].state = State.PAYED;\n      orders[_orderIndex].buyerAddress = _buyerAddress;\n      \n  }\n  \n  function sellerConfirmOrder(uint _orderId, string calldata _sellerAddress) external {\n      require(_orderId != 0);\n      (Order memory _order,uint _orderIndex) = findOrderAndIndexById(_orderId);\n      require(_order.id != 0); // order exist\n      \n      require(msg.sender == _order.seller );\n      require(_order.state == State.PAYED);  // require preious state\n      (Product memory _product,uint _productIndex) = findProductAndIndexById(_order.productId);\n      require(_order.number <= _product.number);\n      \n      \n      \n      orders[_orderIndex].state = State.SELLER_COMFIRMED; //change state to \"...\"\n      products[_productIndex].number = products[_productIndex].number.sub(_order.number); // update product number\n      orders[_orderIndex].sellerAddress = _sellerAddress;\n      emit Purchase( _order.productId, _product.price, _order.number, _order.seller, _order.buyer);\n  }\n  \n  function sellerSendProduct(uint _orderId, bytes32 _hash, bytes calldata _sig) external {\n      require(_orderId != 0);\n      (Order memory _order,uint _orderIndex) = findOrderAndIndexById(_orderId);\n      require(_order.id != 0); // order exist\n      require(msg.sender == _order.seller); //msg.sender == order's seller\n      \n      Courier memory _courier = findCourierById(_order.courierId);\n      require(recover(_hash,_sig) == _courier.accountAddress); // verify signature from courier\n      \n      require(_order.state == State.SELLER_COMFIRMED); // state == SELLER_COMFIRMED\n      \n      token.transfer(_courier.accountAddress, _order.deliverFee); // pay deliver fee\n      orders[_orderIndex].state = State.SELLER_SENT; //change state to \"SELLER_SENT\"\n  }\n  \n  function productDeliveredToBuyer(uint _orderId, bytes32 _hash, bytes calldata _sig) external {\n      require(_orderId != 0);\n      (Order memory _order,uint _orderIndex) = findOrderAndIndexById(_orderId);\n      require(_order.id != 0); // order exist\n      \n      require(recover(_hash,_sig) == _order.buyer); // verify signature from buyer\n      \n      Courier memory _courier = findCourierById(_order.courierId);\n      require(msg.sender == _courier.accountAddress); //msg.sender == order's courier\n      \n      require(_order.state == State.SELLER_SENT); // require previous state\n      \n      //token.transferFrom(address(this), _order.seller, _order.productValue);\n      orders[_orderIndex].state = State.BUYER_GOT;\n      orders[_orderIndex].deliverTime = now; // set the deliverTime as 'now'\n  }\n  \n  function buyerConfirm(uint _orderId) external {\n      require(_orderId != 0);\n      (Order memory _order,uint _orderIndex) = findOrderAndIndexById(_orderId);\n      require(_order.id != 0); // order exist\n      \n      require(msg.sender == _order.buyer); // msg.sender == buyer\n      require(_order.state == State.BUYER_GOT); // require previous state\n      \n      //token.transferFrom(address(this), _order.seller, _order.productValue);\n      token.transfer(_order.seller, _order.productValue);\n      orders[_orderIndex].state = State.COMPLETED;\n  }\n  \n  function sellerGetMoneyFromOrder(uint _orderId) external {\n      require(_orderId != 0);\n      (Order memory _order,uint _orderIndex) = findOrderAndIndexById(_orderId);\n      require(_order.id != 0); // order exist\n      \n      require(msg.sender == _order.seller); //msg.sender == seller\n      require(now > _order.deliverTime.add(1 minutes)); // consideration time is over\n      require(_order.state == State.BUYER_GOT); // Has't been confirmed\n      \n      //token.transferFrom(address(this), _order.seller, _order.productValue);\n      token.transfer(_order.seller, _order.productValue);\n      orders[_orderIndex].state = State.COMPLETED;\n  }\n  \n  function buyerWillRuturnProduct(uint _orderId) external {\n      require(_orderId !=0);\n      \n      (Order memory _order,uint _orderIndex) = findOrderAndIndexById(_orderId);\n      require(_order.id != 0); // order exist\n      \n      require(msg.sender == _order.buyer);\n      require(_order.state == State.BUYER_GOT); // state == BUYER_GOT\n      require(now <= _order.deliverTime.add(1 minutes)); // within the consideration time limit\n      \n      token.approve(msg.sender, address(this), _order.deliverFee);\n      require(token.allowance(msg.sender, address(this)) >= _order.deliverFee);\n      token.transferFrom(msg.sender, address(this), _order.deliverFee);\n      orders[_orderIndex].state = State.WILL_RETURN;\n      \n  }\n  \n  function buyerSendProduct(uint _orderId, bytes32 _hash, bytes calldata _sig) external {\n      require(_orderId != 0);\n      (Order memory _order,uint _orderIndex) = findOrderAndIndexById(_orderId);\n      require(_order.id != 0); // order exist\n      require(msg.sender == _order.buyer); //msg.sender == order's buyer\n      \n      Courier memory _courier = findCourierById(_order.courierId);\n      require(recover(_hash,_sig) == _courier.accountAddress); // verify signature\n      \n      require(_order.state == State.WILL_RETURN); // state == WILL_RETURN\n      \n      token.transfer(_courier.accountAddress, _order.deliverFee); // pay deliver fee\n      orders[_orderIndex].state = State.BUYER_SENT; //change state to \"SELLER_SENT\"\n  }\n  \n  function productDeliveredToSeller(uint _orderId, bytes32 _hash, bytes calldata _sig) external {\n      require(_orderId != 0);\n      (Order memory _order,uint _orderIndex) = findOrderAndIndexById(_orderId);\n      require(_order.id != 0); // order exist\n      \n      require(recover(_hash,_sig) == _order.seller); // verify signature from seller\n      \n      Courier memory _courier = findCourierById(_order.courierId);\n      require(msg.sender == _courier.accountAddress); //msg.sender == order's courier\n\n      require(_order.state == State.BUYER_SENT); // require previous state\n      \n      //token.transferFrom(address(this), _order.seller, _order.productValue);\n      orders[_orderIndex].state = State.SELLER_GOT;\n      //orders[_orderIndex].deliverTime = now; // reset the deliverTime as 'now'\n      \n      //add product number\n      uint _productIndex = findProductIndexById(_order.productId);\n      products[_productIndex].number = products[_productIndex].number.add(_order.number);\n      \n      token.transfer(_order.buyer, _order.productValue); // return the money back to buyer\n  }\n  \n  function cancleByBuyer(uint _orderId) external {\n      require(_orderId != 0);\n      (Order memory _order,uint _orderIndex) = findOrderAndIndexById(_orderId);\n      require(_order.id != 0); // order exist\n      \n      require(msg.sender == _order.buyer); // only buyer call this cancle  \n      \n      /*two cases:\n        1. before seller send products: buyer can get all the money (token) back\n        2. after buyer got the products, before he sends \n        (which is state WILL_RETURN): similer to buyerConfirm()*/\n      if(_order.state < State.SELLER_SENT) { // 1. before seller sent\n          orders[_orderIndex].state = State.CANCLED; // set state as CANCLED\n          token.transfer(msg.sender, _order.productValue.add(_order.deliverFee)); // transfer token back\n      }\n      else if(_order.state == State.WILL_RETURN){\n          token.transfer(_order.seller, _order.productValue);\n          orders[_orderIndex].state = State.COMPLETED;\n      }\n  }\n  \n  function cancleByCourier(uint _orderId) external {\n      /* Situation: \n      courier help qulify the product, and the returning products don't match the requirement.\n      */\n      \n      require(_orderId != 0);\n      (Order memory _order,uint _orderIndex) = findOrderAndIndexById(_orderId);\n      require(_order.id != 0); // order exist\n      \n      Courier memory _courier = findCourierById(_order.courierId);\n      require(msg.sender == _courier.accountAddress); // only courier call this cancle  \n      require(_order.state == State.WILL_RETURN);\n      \n      token.transfer(_order.seller, _order.productValue.add(_order.deliverFee));\n      orders[_orderIndex].state = State.COMPLETED;\n  }\n\n  /****************************** Find and Get methods***********************************/\n    \n  function productsNumber() external view returns(uint){\n    return products.length;\n  }\n\n  function couriersNumber() external view returns(uint){\n    return couriers.length;\n  }\n  function ordersNumber() external view returns(uint){\n    return orders.length;\n  }\n  function findOrderAndIndexById(uint _orderId) internal view returns(Order memory, uint) {\n    for(uint i = 0; i < orders.length; i++) {\n       if(orders[i].id == _orderId){\n         return (orders[i], i);\n       }\n    }\n    \n    Order memory order;\n    \n    return (order, 0);\n  }\n  \n  function findOrderById(uint _orderid) internal view returns(Order memory){\n      for(uint i = 0; i < orders.length; i++){\n          if(orders[i].id == _orderid)\n            return orders[i];\n      }\n      \n      Order memory order;\n      return order;\n  }\n\n  function findOrdersBySeller(address _seller) external view returns(Order[] memory) {\n    uint count = 0;\n    uint i;\n    uint j = 0;\n    for(i = 0; i < orders.length; i++){\n      if(orders[i].seller == _seller){\n        count ++;\n      }\n    }\n\n    Order[] memory results = new Order[](count);\n\n    for(i = 0; i < orders.length; i++){\n      if(orders[i].seller == _seller){\n        results[j++] = orders[i];\n      }\n    }\n\n    return results;\n  }\n  \n  function findOrdersByBuyer(address _buyer) external view returns(Order[] memory) {\n    uint count = 0;\n    uint i;\n    uint j = 0;\n    for(i = 0; i < orders.length; i++){\n      if(orders[i].buyer == _buyer){\n        count ++;\n      }\n    }\n\n    Order[] memory results = new Order[](count);\n\n    for(i = 0; i < orders.length; i++){\n      if(orders[i].buyer == _buyer){\n        results[j++] = orders[i];\n      }\n    }\n      return results;\n  }\n  \n  function findOrdersBycourierId(uint _courierId) external view returns(Order[] memory) {\n    uint count = 0;\n    uint i;\n    uint j = 0;\n    for(i = 0; i < orders.length; i++){\n      if(orders[i].courierId == _courierId){\n        count ++;\n      }\n    }\n\n    Order[] memory results = new Order[](count);\n\n    for(i = 0; i < orders.length; i++){\n      if(orders[i].courierId == _courierId){\n        results[j++] = orders[i];\n      }\n    }\n\n    return results;\n  }\n\n\n\n  function findProductAndIndexById(uint _productId) internal view returns(Product memory, uint) {\n    for(uint i = 0; i < products.length; i++) {\n       if(products[i].id == _productId){\n         return (products[i], i);\n       }\n    }\n    \n    Product memory product;\n    \n    return (product, 0);\n  }\n  \n  function findProductIndexById(uint _productId) internal view returns(uint) {\n    for(uint i = 0; i < products.length; i++) {\n       if(products[i].id == _productId){\n         return i;\n       }\n    }\n    \n    return 0;\n  }\n  \n  function findProductById(uint _productId) public view returns(Product memory) {\n    for(uint i = 0; i < products.length; i++) {\n       if(products[i].id == _productId){\n         return products[i];\n       }\n    }\n    \n    Product memory product;\n    \n    return product;\n  }\n  \n  function findCourierById(uint _courierId) public view returns(Courier memory) {\n    for(uint i = 0; i < couriers.length; i++) {\n       if(couriers[i].id == _courierId){\n         return couriers[i];\n       }\n    }\n    \n    Courier memory courier;\n    \n    return courier;\n  }\n/*********************************Verify Signature*****************************************/\n  function recover(bytes32 hash, bytes memory signature)\n      public\n      pure\n      returns (address)\n    {\n      bytes32 r;\n      bytes32 s;\n      uint8 v;\n\n      // Check the signature length\n      if (signature.length != 65) {\n        return (address(0));\n      }\n\n      // Divide the signature in r, s and v variables\n      // ecrecover takes the signature parameters, and the only way to get them\n      // currently is to use assembly.\n      // solium-disable-next-line security/no-inline-assembly\n      assembly {\n        r := mload(add(signature, 0x20))\n        s := mload(add(signature, 0x40))\n        v := byte(0, mload(add(signature, 0x60)))\n      }\n\n      // Version of signature should be 27 or 28, but 0 and 1 are also possible versions\n      if (v < 27) {\n        v += 27;\n      }\n\n      // If the version is correct return the signer address\n      if (v != 27 && v != 28) {\n        return (address(0));\n      } else {\n        // solium-disable-next-line arg-overflow\n        return ecrecover(hash, v, r, s);\n      }\n    }\n\n}",
  "sourcePath": "/home/elaine/RUCMarket/contracts/RUCMarket.sol",
  "compiler": {
    "name": "solc",
    "version": "0.5.0+commit.1d4f565a.Emscripten.clang"
  },
  "schemaVersion": "3.0.1",
  "updatedAt": "2019-04-20T23:08:01.462Z",
  "devdoc": {
    "methods": {}
  },
  "userdoc": {
    "methods": {
      "addCourier(address)": {
        "notice": "********************** Purchase Part *************************************************************"
      },
      "buyTokens(uint256)": {
        "notice": "********************** Token Part *************************************************************"
      },
      "productsNumber()": {
        "notice": "**************************** Find and Get methods**********************************"
      },
      "recover(bytes32,bytes)": {
        "notice": "*******************************Verify Signature****************************************"
      }
    }
  }
}