{
  "contractName": "RUCMarket",
  "abi": [
    {
      "constant": true,
      "inputs": [],
      "name": "tokensSold",
      "outputs": [
        {
          "name": "",
          "type": "uint256"
        }
      ],
      "payable": false,
      "stateMutability": "view",
      "type": "function",
      "signature": "0x518ab2a8"
    },
    {
      "constant": true,
      "inputs": [
        {
          "name": "",
          "type": "uint256"
        }
      ],
      "name": "products",
      "outputs": [
        {
          "name": "id",
          "type": "uint256"
        },
        {
          "name": "name",
          "type": "string"
        },
        {
          "name": "price",
          "type": "uint256"
        },
        {
          "name": "number",
          "type": "uint256"
        },
        {
          "name": "seller",
          "type": "address"
        },
        {
          "name": "url",
          "type": "string"
        }
      ],
      "payable": false,
      "stateMutability": "view",
      "type": "function",
      "signature": "0x7acc0b20"
    },
    {
      "constant": true,
      "inputs": [],
      "name": "tokenPrice",
      "outputs": [
        {
          "name": "",
          "type": "uint256"
        }
      ],
      "payable": false,
      "stateMutability": "view",
      "type": "function",
      "signature": "0x7ff9b596"
    },
    {
      "constant": true,
      "inputs": [
        {
          "name": "",
          "type": "uint256"
        }
      ],
      "name": "orders",
      "outputs": [
        {
          "name": "id",
          "type": "uint256"
        },
        {
          "name": "productId",
          "type": "uint256"
        },
        {
          "name": "productValue",
          "type": "uint256"
        },
        {
          "name": "deliverFee",
          "type": "uint256"
        },
        {
          "name": "number",
          "type": "uint256"
        },
        {
          "name": "seller",
          "type": "address"
        },
        {
          "name": "sellAddress",
          "type": "string"
        },
        {
          "name": "buyer",
          "type": "address"
        },
        {
          "name": "buyerAddress",
          "type": "string"
        },
        {
          "name": "courierId",
          "type": "uint256"
        },
        {
          "name": "state",
          "type": "uint8"
        },
        {
          "name": "deliverTime",
          "type": "uint256"
        }
      ],
      "payable": false,
      "stateMutability": "view",
      "type": "function",
      "signature": "0xa85c38ef"
    },
    {
      "constant": true,
      "inputs": [
        {
          "name": "",
          "type": "uint256"
        }
      ],
      "name": "couriers",
      "outputs": [
        {
          "name": "id",
          "type": "uint256"
        },
        {
          "name": "accountAddress",
          "type": "address"
        },
        {
          "name": "companyName",
          "type": "string"
        },
        {
          "name": "publicKey",
          "type": "string"
        },
        {
          "name": "fee",
          "type": "uint256"
        }
      ],
      "payable": false,
      "stateMutability": "view",
      "type": "function",
      "signature": "0xe2da3610"
    },
    {
      "inputs": [
        {
          "name": "_tokenContract",
          "type": "address"
        },
        {
          "name": "_tokenPrice",
          "type": "uint256"
        }
      ],
      "payable": false,
      "stateMutability": "nonpayable",
      "type": "constructor",
      "signature": "constructor"
    },
    {
      "anonymous": false,
      "inputs": [
        {
          "indexed": false,
          "name": "_productId",
          "type": "uint256"
        },
        {
          "indexed": false,
          "name": "_price",
          "type": "uint256"
        },
        {
          "indexed": false,
          "name": "_number",
          "type": "uint256"
        },
        {
          "indexed": false,
          "name": "_seller",
          "type": "address"
        },
        {
          "indexed": false,
          "name": "_buyer",
          "type": "address"
        }
      ],
      "name": "Purchase",
      "type": "event",
      "signature": "0xff4fa69114c0677f6a88bfc157c0874ccb1d721fa92a870e1d262dc197face50"
    },
    {
      "anonymous": false,
      "inputs": [
        {
          "indexed": false,
          "name": "_buyer",
          "type": "address"
        },
        {
          "indexed": false,
          "name": "_amount",
          "type": "uint256"
        }
      ],
      "name": "TokenSell",
      "type": "event",
      "signature": "0xce63ca7dc8dfc0313cea1035f873e3706e0161f9895f670682c0dab3969e3620"
    },
    {
      "constant": false,
      "inputs": [
        {
          "name": "_numberOfTokens",
          "type": "uint256"
        }
      ],
      "name": "buyTokens",
      "outputs": [],
      "payable": true,
      "stateMutability": "payable",
      "type": "function",
      "signature": "0x3610724e"
    },
    {
      "constant": false,
      "inputs": [
        {
          "name": "_courierAddress",
          "type": "address"
        }
      ],
      "name": "addCourier",
      "outputs": [],
      "payable": false,
      "stateMutability": "nonpayable",
      "type": "function",
      "signature": "0x2445d6d7"
    },
    {
      "constant": false,
      "inputs": [
        {
          "name": "_companyName",
          "type": "string"
        },
        {
          "name": "_publicKey",
          "type": "string"
        },
        {
          "name": "_fee",
          "type": "uint256"
        }
      ],
      "name": "courierRegister",
      "outputs": [],
      "payable": false,
      "stateMutability": "nonpayable",
      "type": "function",
      "signature": "0x705862e0"
    },
    {
      "constant": false,
      "inputs": [
        {
          "name": "_name",
          "type": "string"
        },
        {
          "name": "_price",
          "type": "uint256"
        },
        {
          "name": "_number",
          "type": "uint256"
        },
        {
          "name": "_url",
          "type": "string"
        }
      ],
      "name": "addProduct",
      "outputs": [],
      "payable": false,
      "stateMutability": "nonpayable",
      "type": "function",
      "signature": "0x38789d3a"
    },
    {
      "constant": false,
      "inputs": [
        {
          "name": "_productId",
          "type": "uint256"
        },
        {
          "name": "_requestNumber",
          "type": "uint256"
        },
        {
          "name": "_courierId",
          "type": "uint256"
        }
      ],
      "name": "purchaseRequest",
      "outputs": [],
      "payable": false,
      "stateMutability": "nonpayable",
      "type": "function",
      "signature": "0xef8536fb"
    },
    {
      "constant": false,
      "inputs": [
        {
          "name": "_orderId",
          "type": "uint256"
        }
      ],
      "name": "buyerPayOrder",
      "outputs": [],
      "payable": false,
      "stateMutability": "nonpayable",
      "type": "function",
      "signature": "0x3cb80eb0"
    },
    {
      "constant": false,
      "inputs": [
        {
          "name": "_orderId",
          "type": "uint256"
        }
      ],
      "name": "sellerComfirmOrder",
      "outputs": [],
      "payable": false,
      "stateMutability": "nonpayable",
      "type": "function",
      "signature": "0x374b93c8"
    },
    {
      "constant": false,
      "inputs": [
        {
          "name": "_orderId",
          "type": "uint256"
        },
        {
          "name": "_hash",
          "type": "bytes32"
        },
        {
          "name": "_sig",
          "type": "bytes"
        }
      ],
      "name": "sellerSendProduct",
      "outputs": [],
      "payable": false,
      "stateMutability": "nonpayable",
      "type": "function",
      "signature": "0x4eae589b"
    },
    {
      "constant": false,
      "inputs": [
        {
          "name": "_orderId",
          "type": "uint256"
        },
        {
          "name": "_hash",
          "type": "bytes32"
        },
        {
          "name": "_sig",
          "type": "bytes"
        }
      ],
      "name": "productDeliveredToBuyer",
      "outputs": [],
      "payable": false,
      "stateMutability": "nonpayable",
      "type": "function",
      "signature": "0xf1a2376e"
    },
    {
      "constant": false,
      "inputs": [
        {
          "name": "_orderId",
          "type": "uint256"
        }
      ],
      "name": "buyerConfirm",
      "outputs": [],
      "payable": false,
      "stateMutability": "nonpayable",
      "type": "function",
      "signature": "0x888487cd"
    },
    {
      "constant": false,
      "inputs": [
        {
          "name": "_orderId",
          "type": "uint256"
        }
      ],
      "name": "sellerGetMoneyFromOrder",
      "outputs": [],
      "payable": false,
      "stateMutability": "nonpayable",
      "type": "function",
      "signature": "0x67bd9eea"
    },
    {
      "constant": false,
      "inputs": [
        {
          "name": "_orderId",
          "type": "uint256"
        }
      ],
      "name": "buyerWillRuturnProduct",
      "outputs": [],
      "payable": false,
      "stateMutability": "nonpayable",
      "type": "function",
      "signature": "0x8784b39e"
    },
    {
      "constant": false,
      "inputs": [
        {
          "name": "_orderId",
          "type": "uint256"
        },
        {
          "name": "_hash",
          "type": "bytes32"
        },
        {
          "name": "_sig",
          "type": "bytes"
        }
      ],
      "name": "buyerSendProduct",
      "outputs": [],
      "payable": false,
      "stateMutability": "nonpayable",
      "type": "function",
      "signature": "0x41c10b1b"
    },
    {
      "constant": false,
      "inputs": [
        {
          "name": "_orderId",
          "type": "uint256"
        },
        {
          "name": "_hash",
          "type": "bytes32"
        },
        {
          "name": "_sig",
          "type": "bytes"
        }
      ],
      "name": "productDeliveredToSeller",
      "outputs": [],
      "payable": false,
      "stateMutability": "nonpayable",
      "type": "function",
      "signature": "0xf8747894"
    },
    {
      "constant": false,
      "inputs": [
        {
          "name": "_orderId",
          "type": "uint256"
        }
      ],
      "name": "cancleByBuyer",
      "outputs": [],
      "payable": false,
      "stateMutability": "nonpayable",
      "type": "function",
      "signature": "0xcd828eb2"
    },
    {
      "constant": false,
      "inputs": [
        {
          "name": "_orderId",
          "type": "uint256"
        }
      ],
      "name": "cancleByCourier",
      "outputs": [],
      "payable": false,
      "stateMutability": "nonpayable",
      "type": "function",
      "signature": "0x234142f8"
    },
    {
      "constant": true,
      "inputs": [],
      "name": "productsNumber",
      "outputs": [
        {
          "name": "",
          "type": "uint256"
        }
      ],
      "payable": false,
      "stateMutability": "view",
      "type": "function",
      "signature": "0xb8aff60f"
    },
    {
      "constant": true,
      "inputs": [],
      "name": "couriersNumber",
      "outputs": [
        {
          "name": "",
          "type": "uint256"
        }
      ],
      "payable": false,
      "stateMutability": "view",
      "type": "function",
      "signature": "0xa76f776e"
    },
    {
      "constant": true,
      "inputs": [],
      "name": "ordresNumber",
      "outputs": [
        {
          "name": "",
          "type": "uint256"
        }
      ],
      "payable": false,
      "stateMutability": "view",
      "type": "function",
      "signature": "0xde8d0d28"
    },
    {
      "constant": true,
      "inputs": [
        {
          "name": "_seller",
          "type": "address"
        }
      ],
      "name": "findOrdersBySeller",
      "outputs": [
        {
          "components": [
            {
              "name": "id",
              "type": "uint256"
            },
            {
              "name": "productId",
              "type": "uint256"
            },
            {
              "name": "productValue",
              "type": "uint256"
            },
            {
              "name": "deliverFee",
              "type": "uint256"
            },
            {
              "name": "number",
              "type": "uint256"
            },
            {
              "name": "seller",
              "type": "address"
            },
            {
              "name": "sellAddress",
              "type": "string"
            },
            {
              "name": "buyer",
              "type": "address"
            },
            {
              "name": "buyerAddress",
              "type": "string"
            },
            {
              "name": "courierId",
              "type": "uint256"
            },
            {
              "name": "state",
              "type": "uint8"
            },
            {
              "name": "deliverTime",
              "type": "uint256"
            }
          ],
          "name": "",
          "type": "tuple[]"
        }
      ],
      "payable": false,
      "stateMutability": "view",
      "type": "function",
      "signature": "0x9e0125e3"
    },
    {
      "constant": true,
      "inputs": [
        {
          "name": "_buyer",
          "type": "address"
        }
      ],
      "name": "findOrdersByBuyer",
      "outputs": [
        {
          "components": [
            {
              "name": "id",
              "type": "uint256"
            },
            {
              "name": "productId",
              "type": "uint256"
            },
            {
              "name": "productValue",
              "type": "uint256"
            },
            {
              "name": "deliverFee",
              "type": "uint256"
            },
            {
              "name": "number",
              "type": "uint256"
            },
            {
              "name": "seller",
              "type": "address"
            },
            {
              "name": "sellAddress",
              "type": "string"
            },
            {
              "name": "buyer",
              "type": "address"
            },
            {
              "name": "buyerAddress",
              "type": "string"
            },
            {
              "name": "courierId",
              "type": "uint256"
            },
            {
              "name": "state",
              "type": "uint8"
            },
            {
              "name": "deliverTime",
              "type": "uint256"
            }
          ],
          "name": "",
          "type": "tuple[]"
        }
      ],
      "payable": false,
      "stateMutability": "view",
      "type": "function",
      "signature": "0xddf6949f"
    },
    {
      "constant": true,
      "inputs": [
        {
          "name": "_courierId",
          "type": "uint256"
        }
      ],
      "name": "findOrdersBycourierId",
      "outputs": [
        {
          "components": [
            {
              "name": "id",
              "type": "uint256"
            },
            {
              "name": "productId",
              "type": "uint256"
            },
            {
              "name": "productValue",
              "type": "uint256"
            },
            {
              "name": "deliverFee",
              "type": "uint256"
            },
            {
              "name": "number",
              "type": "uint256"
            },
            {
              "name": "seller",
              "type": "address"
            },
            {
              "name": "sellAddress",
              "type": "string"
            },
            {
              "name": "buyer",
              "type": "address"
            },
            {
              "name": "buyerAddress",
              "type": "string"
            },
            {
              "name": "courierId",
              "type": "uint256"
            },
            {
              "name": "state",
              "type": "uint8"
            },
            {
              "name": "deliverTime",
              "type": "uint256"
            }
          ],
          "name": "",
          "type": "tuple[]"
        }
      ],
      "payable": false,
      "stateMutability": "view",
      "type": "function",
      "signature": "0x875fc626"
    },
    {
      "constant": true,
      "inputs": [
        {
          "name": "_productId",
          "type": "uint256"
        }
      ],
      "name": "findProductById",
      "outputs": [
        {
          "components": [
            {
              "name": "id",
              "type": "uint256"
            },
            {
              "name": "name",
              "type": "string"
            },
            {
              "name": "price",
              "type": "uint256"
            },
            {
              "name": "number",
              "type": "uint256"
            },
            {
              "name": "seller",
              "type": "address"
            },
            {
              "name": "url",
              "type": "string"
            }
          ],
          "name": "",
          "type": "tuple"
        }
      ],
      "payable": false,
      "stateMutability": "view",
      "type": "function",
      "signature": "0x14082cd2"
    },
    {
      "constant": true,
      "inputs": [
        {
          "name": "_courierId",
          "type": "uint256"
        }
      ],
      "name": "findCourierById",
      "outputs": [
        {
          "components": [
            {
              "name": "id",
              "type": "uint256"
            },
            {
              "name": "accountAddress",
              "type": "address"
            },
            {
              "name": "companyName",
              "type": "string"
            },
            {
              "name": "publicKey",
              "type": "string"
            },
            {
              "name": "fee",
              "type": "uint256"
            }
          ],
          "name": "",
          "type": "tuple"
        }
      ],
      "payable": false,
      "stateMutability": "view",
      "type": "function",
      "signature": "0x4090d5d2"
    },
    {
      "constant": true,
      "inputs": [
        {
          "name": "hash",
          "type": "bytes32"
        },
        {
          "name": "signature",
          "type": "bytes"
        }
      ],
      "name": "recover",
      "outputs": [
        {
          "name": "",
          "type": "address"
        }
      ],
      "payable": false,
      "stateMutability": "pure",
      "type": "function",
      "signature": "0x19045a25"
    }
  ],
  "bytecode": "0x60806040526000600455600060055560006006553480156200002057600080fd5b5060405160408062005a348339810180604052620000429190810190620000fe565b81600760006101000a81548173ffffffffffffffffffffffffffffffffffffffff021916908373ffffffffffffffffffffffffffffffffffffffff160217905550336000806101000a81548173ffffffffffffffffffffffffffffffffffffffff021916908373ffffffffffffffffffffffffffffffffffffffff16021790555080600181905550505062000191565b6000620000e0825162000173565b905092915050565b6000620000f6825162000187565b905092915050565b600080604083850312156200011257600080fd5b60006200012285828601620000d2565b92505060206200013585828601620000e8565b9150509250929050565b60006200014c8262000153565b9050919050565b600073ffffffffffffffffffffffffffffffffffffffff82169050919050565b600062000180826200013f565b9050919050565b6000819050919050565b61589380620001a16000396000f3fe608060405260043610610180576000357c0100000000000000000000000000000000000000000000000000000000900463ffffffff16806314082cd21461018557806319045a25146101c2578063234142f8146101ff5780632445d6d7146102285780633610724e14610251578063374b93c81461026d57806338789d3a146102965780633cb80eb0146102bf5780634090d5d2146102e857806341c10b1b146103255780634eae589b1461034e578063518ab2a81461037757806367bd9eea146103a2578063705862e0146103cb5780637acc0b20146103f45780637ff9b59614610436578063875fc626146104615780638784b39e1461049e578063888487cd146104c75780639e0125e3146104f0578063a76f776e1461052d578063a85c38ef14610558578063b8aff60f146105a0578063cd828eb2146105cb578063ddf6949f146105f4578063de8d0d2814610631578063e2da36101461065c578063ef8536fb1461069d578063f1a2376e146106c6578063f8747894146106ef575b600080fd5b34801561019157600080fd5b506101ac60048036036101a79190810190614f2c565b610718565b6040516101b9919061545d565b60405180910390f35b3480156101ce57600080fd5b506101e960048036036101e49190810190614dc6565b610964565b6040516101f69190615331565b60405180910390f35b34801561020b57600080fd5b5061022660048036036102219190810190614f2c565b610a48565b005b34801561023457600080fd5b5061024f600480360361024a9190810190614d74565b610c35565b005b61026b60048036036102669190810190614f2c565b610ceb565b005b34801561027957600080fd5b50610294600480360361028f9190810190614f2c565b610f04565b005b3480156102a257600080fd5b506102bd60048036036102b89190810190614e99565b6110d0565b005b3480156102cb57600080fd5b506102e660048036036102e19190810190614f2c565b611253565b005b3480156102f457600080fd5b5061030f600480360361030a9190810190614f2c565b6115d0565b60405161031c919061543b565b60405180910390f35b34801561033157600080fd5b5061034c60048036036103479190810190614f7e565b611812565b005b34801561035a57600080fd5b5061037560048036036103709190810190614f7e565b611a77565b005b34801561038357600080fd5b5061038c611cdc565b604051610399919061547f565b60405180910390f35b3480156103ae57600080fd5b506103c960048036036103c49190810190614f2c565b611ce2565b005b3480156103d757600080fd5b506103f260048036036103ed9190810190614e1a565b611ec6565b005b34801561040057600080fd5b5061041b60048036036104169190810190614f2c565b61211f565b60405161042d969594939291906154fb565b60405180910390f35b34801561044257600080fd5b5061044b6122ba565b604051610458919061547f565b60405180910390f35b34801561046d57600080fd5b5061048860048036036104839190810190614f2c565b6122c0565b6040516104959190615419565b60405180910390f35b3480156104aa57600080fd5b506104c560048036036104c09190810190614f2c565b61265f565b005b3480156104d357600080fd5b506104ee60048036036104e99190810190614f2c565b6129ef565b005b3480156104fc57600080fd5b5061051760048036036105129190810190614d74565b612bad565b6040516105249190615419565b60405180910390f35b34801561053957600080fd5b50610542612fe4565b60405161054f919061547f565b60405180910390f35b34801561056457600080fd5b5061057f600480360361057a9190810190614f2c565b612ff1565b6040516105979c9b9a999897969594939291906155bd565b60405180910390f35b3480156105ac57600080fd5b506105b56131dd565b6040516105c2919061547f565b60405180910390f35b3480156105d757600080fd5b506105f260048036036105ed9190810190614f2c565b6131ea565b005b34801561060057600080fd5b5061061b60048036036106169190810190614d74565b6134f5565b6040516106289190615419565b60405180910390f35b34801561063d57600080fd5b5061064661392c565b604051610653919061547f565b60405180910390f35b34801561066857600080fd5b50610683600480360361067e9190810190614f2c565b613939565b60405161069495949392919061549a565b60405180910390f35b3480156106a957600080fd5b506106c460048036036106bf9190810190614fea565b613ace565b005b3480156106d257600080fd5b506106ed60048036036106e89190810190614f7e565b613ef9565b005b3480156106fb57600080fd5b5061071660048036036107119190810190614f7e565b6140af565b005b6107206149ae565b60008090505b600a805490508110156109515782600a8281548110151561074357fe5b906000526020600020906006020160000154141561094457600a8181548110151561076a57fe5b906000526020600020906006020160c0604051908101604052908160008201548152602001600182018054600181600116156101000203166002900480601f0160208091040260200160405190810160405280929190818152602001828054600181600116156101000203166002900480156108275780601f106107fc57610100808354040283529160200191610827565b820191906000526020600020905b81548152906001019060200180831161080a57829003601f168201915b5050505050815260200160028201548152602001600382015481526020016004820160009054906101000a900473ffffffffffffffffffffffffffffffffffffffff1673ffffffffffffffffffffffffffffffffffffffff1673ffffffffffffffffffffffffffffffffffffffff168152602001600582018054600181600116156101000203166002900480601f0160208091040260200160405190810160405280929190818152602001828054600181600116156101000203166002900480156109335780601f1061090857610100808354040283529160200191610933565b820191906000526020600020905b81548152906001019060200180831161091657829003601f168201915b50505050508152505091505061095f565b8080600101915050610726565b5061095a6149ae565b809150505b919050565b600080600080604185511415156109815760009350505050610a42565b6020850151925060408501519150606085015160001a9050601b8160ff1610156109ac57601b810190505b601b8160ff16141580156109c45750601c8160ff1614155b156109d55760009350505050610a42565b60018682858560405160008152602001604052604051808581526020018460ff1660ff1681526020018381526020018281526020019450505050506020604051602081039080840390855afa158015610a32573d6000803e3d6000fd5b5050506020604051035193505050505b92915050565b60008114151515610a5857600080fd5b610a606149fb565b6000610a6b83614381565b915091506000826000015114151515610a8357600080fd5b610a8b614a94565b610a998361012001516115d0565b9050806020015173ffffffffffffffffffffffffffffffffffffffff163373ffffffffffffffffffffffffffffffffffffffff16141515610ad957600080fd5b60066009811115610ae657fe5b8361014001516009811115610af757fe5b141515610b0357600080fd5b600760009054906101000a900473ffffffffffffffffffffffffffffffffffffffff1673ffffffffffffffffffffffffffffffffffffffff1663a9059cbb8460a00151610b618660600151876040015161468890919063ffffffff16565b6040518363ffffffff167c0100000000000000000000000000000000000000000000000000000000028152600401610b9a9291906153f0565b602060405180830381600087803b158015610bb457600080fd5b505af1158015610bc8573d6000803e3d6000fd5b505050506040513d601f19601f82011682018060405250610bec9190810190614d9d565b506005600b83815481101515610bfe57fe5b90600052602060002090600c0201600a0160006101000a81548160ff02191690836009811115610c2a57fe5b021790555050505050565b6000809054906101000a900473ffffffffffffffffffffffffffffffffffffffff1673ffffffffffffffffffffffffffffffffffffffff163373ffffffffffffffffffffffffffffffffffffffff16141515610c9057600080fd5b6001600860008373ffffffffffffffffffffffffffffffffffffffff1673ffffffffffffffffffffffffffffffffffffffff16815260200190815260200160002060006101000a81548160ff02191690831515021790555050565b610d00600154826146a490919063ffffffff16565b34141515610d0d57600080fd5b80600760009054906101000a900473ffffffffffffffffffffffffffffffffffffffff1673ffffffffffffffffffffffffffffffffffffffff166370a08231306040518263ffffffff167c0100000000000000000000000000000000000000000000000000000000028152600401610d859190615331565b60206040518083038186803b158015610d9d57600080fd5b505afa158015610db1573d6000803e3d6000fd5b505050506040513d601f19601f82011682018060405250610dd59190810190614f55565b10151515610de257600080fd5b600760009054906101000a900473ffffffffffffffffffffffffffffffffffffffff1673ffffffffffffffffffffffffffffffffffffffff1663a9059cbb33836040518363ffffffff167c0100000000000000000000000000000000000000000000000000000000028152600401610e5b9291906153c7565b602060405180830381600087803b158015610e7557600080fd5b505af1158015610e89573d6000803e3d6000fd5b505050506040513d601f19601f82011682018060405250610ead9190810190614d9d565b1515610eb857600080fd5b806002600082825401925050819055507fce63ca7dc8dfc0313cea1035f873e3706e0161f9895f670682c0dab3969e36203382604051610ef99291906153c7565b60405180910390a150565b60008114151515610f1457600080fd5b610f1c6149fb565b6000610f2783614381565b915091506000826000015114151515610f3f57600080fd5b8160a0015173ffffffffffffffffffffffffffffffffffffffff163373ffffffffffffffffffffffffffffffffffffffff16141515610f7d57600080fd5b60016009811115610f8a57fe5b8261014001516009811115610f9b57fe5b141515610fa757600080fd5b610faf6149ae565b6000610fbe84602001516146dc565b915091508160600151846080015111151515610fd957600080fd5b6002600b84815481101515610fea57fe5b90600052602060002090600c0201600a0160006101000a81548160ff0219169083600981111561101657fe5b02179055506110528460800151600a8381548110151561103257fe5b90600052602060002090600602016003015461493790919063ffffffff16565b600a8281548110151561106157fe5b9060005260206000209060060201600301819055507fff4fa69114c0677f6a88bfc157c0874ccb1d721fa92a870e1d262dc197face508460200151836040015186608001518760a001518860e001516040516110c195949392919061556a565b60405180910390a15050505050565b6000831115156110df57600080fd5b6000821115156110ee57600080fd5b6110f66149ae565b61110c600160055461468890919063ffffffff16565b600581905550600554816000018181525050848160200181905250838160400181815250508281606001818152505033816080019073ffffffffffffffffffffffffffffffffffffffff16908173ffffffffffffffffffffffffffffffffffffffff1681525050818160a00181905250600a81908060018154018082558091505090600182039060005260206000209060060201600090919290919091506000820151816000015560208201518160010190805190602001906111d0929190614ada565b50604082015181600201556060820151816003015560808201518160040160006101000a81548173ffffffffffffffffffffffffffffffffffffffff021916908373ffffffffffffffffffffffffffffffffffffffff16021790555060a0820151816005019080519060200190611248929190614ada565b505050505050505050565b6000811415151561126357600080fd5b61126b6149fb565b600061127683614381565b91509150600082600001511415151561128e57600080fd5b8160e0015173ffffffffffffffffffffffffffffffffffffffff163373ffffffffffffffffffffffffffffffffffffffff161415156112cc57600080fd5b600060098111156112d957fe5b82610140015160098111156112ea57fe5b1415156112f657600080fd5b60006113138360600151846040015161468890919063ffffffff16565b9050600760009054906101000a900473ffffffffffffffffffffffffffffffffffffffff1673ffffffffffffffffffffffffffffffffffffffff1663e1f21c673330846040518463ffffffff167c010000000000000000000000000000000000000000000000000000000002815260040161139093929190615390565b602060405180830381600087803b1580156113aa57600080fd5b505af11580156113be573d6000803e3d6000fd5b505050506040513d601f19601f820116820180604052506113e29190810190614d9d565b5080600760009054906101000a900473ffffffffffffffffffffffffffffffffffffffff1673ffffffffffffffffffffffffffffffffffffffff1663dd62ed3e33306040518363ffffffff167c010000000000000000000000000000000000000000000000000000000002815260040161145d929190615367565b60206040518083038186803b15801561147557600080fd5b505afa158015611489573d6000803e3d6000fd5b505050506040513d601f19601f820116820180604052506114ad9190810190614f55565b101515156114ba57600080fd5b600760009054906101000a900473ffffffffffffffffffffffffffffffffffffffff1673ffffffffffffffffffffffffffffffffffffffff166323b872dd3330846040518463ffffffff167c010000000000000000000000000000000000000000000000000000000002815260040161153593929190615390565b602060405180830381600087803b15801561154f57600080fd5b505af1158015611563573d6000803e3d6000fd5b505050506040513d601f19601f820116820180604052506115879190810190614d9d565b506001600b8381548110151561159957fe5b90600052602060002090600c0201600a0160006101000a81548160ff021916908360098111156115c557fe5b021790555050505050565b6115d8614a94565b60008090505b600c805490508110156117ff5782600c828154811015156115fb57fe5b90600052602060002090600502016000015414156117f257600c8181548110151561162257fe5b906000526020600020906005020160a06040519081016040529081600082015481526020016001820160009054906101000a900473ffffffffffffffffffffffffffffffffffffffff1673ffffffffffffffffffffffffffffffffffffffff1673ffffffffffffffffffffffffffffffffffffffff168152602001600282018054600181600116156101000203166002900480601f0160208091040260200160405190810160405280929190818152602001828054600181600116156101000203166002900480156117355780601f1061170a57610100808354040283529160200191611735565b820191906000526020600020905b81548152906001019060200180831161171857829003601f168201915b50505050508152602001600382018054600181600116156101000203166002900480601f0160208091040260200160405190810160405280929190818152602001828054600181600116156101000203166002900480156117d75780601f106117ac576101008083540402835291602001916117d7565b820191906000526020600020905b8154815290600101906020018083116117ba57829003601f168201915b5050505050815260200160048201548152505091505061180d565b80806001019150506115de565b50611808614a94565b809150505b919050565b6000841415151561182257600080fd5b61182a6149fb565b600061183586614381565b91509150600082600001511415151561184d57600080fd5b8160e0015173ffffffffffffffffffffffffffffffffffffffff163373ffffffffffffffffffffffffffffffffffffffff1614151561188b57600080fd5b611893614a94565b6118a18361012001516115d0565b9050806020015173ffffffffffffffffffffffffffffffffffffffff1661190c8787878080601f016020809104026020016040519081016040528093929190818152602001838380828437600081840152601f19601f82011690508083019250505050505050610964565b73ffffffffffffffffffffffffffffffffffffffff1614151561192e57600080fd5b6006600981111561193b57fe5b836101400151600981111561194c57fe5b14151561195857600080fd5b600760009054906101000a900473ffffffffffffffffffffffffffffffffffffffff1673ffffffffffffffffffffffffffffffffffffffff1663a9059cbb826020015185606001516040518363ffffffff167c01000000000000000000000000000000000000000000000000000000000281526004016119d99291906153f0565b602060405180830381600087803b1580156119f357600080fd5b505af1158015611a07573d6000803e3d6000fd5b505050506040513d601f19601f82011682018060405250611a2b9190810190614d9d565b506007600b83815481101515611a3d57fe5b90600052602060002090600c0201600a0160006101000a81548160ff02191690836009811115611a6957fe5b021790555050505050505050565b60008414151515611a8757600080fd5b611a8f6149fb565b6000611a9a86614381565b915091506000826000015114151515611ab257600080fd5b8160a0015173ffffffffffffffffffffffffffffffffffffffff163373ffffffffffffffffffffffffffffffffffffffff16141515611af057600080fd5b611af8614a94565b611b068361012001516115d0565b9050806020015173ffffffffffffffffffffffffffffffffffffffff16611b718787878080601f016020809104026020016040519081016040528093929190818152602001838380828437600081840152601f19601f82011690508083019250505050505050610964565b73ffffffffffffffffffffffffffffffffffffffff16141515611b9357600080fd5b60026009811115611ba057fe5b8361014001516009811115611bb157fe5b141515611bbd57600080fd5b600760009054906101000a900473ffffffffffffffffffffffffffffffffffffffff1673ffffffffffffffffffffffffffffffffffffffff1663a9059cbb826020015185606001516040518363ffffffff167c0100000000000000000000000000000000000000000000000000000000028152600401611c3e9291906153f0565b602060405180830381600087803b158015611c5857600080fd5b505af1158015611c6c573d6000803e3d6000fd5b505050506040513d601f19601f82011682018060405250611c909190810190614d9d565b506003600b83815481101515611ca257fe5b90600052602060002090600c0201600a0160006101000a81548160ff02191690836009811115611cce57fe5b021790555050505050505050565b60025481565b60008114151515611cf257600080fd5b611cfa6149fb565b6000611d0583614381565b915091506000826000015114151515611d1d57600080fd5b8160a0015173ffffffffffffffffffffffffffffffffffffffff163373ffffffffffffffffffffffffffffffffffffffff16141515611d5b57600080fd5b611d74603c83610160015161468890919063ffffffff16565b42111515611d8157600080fd5b60046009811115611d8e57fe5b8261014001516009811115611d9f57fe5b141515611dab57600080fd5b600760009054906101000a900473ffffffffffffffffffffffffffffffffffffffff1673ffffffffffffffffffffffffffffffffffffffff1663a9059cbb8360a0015184604001516040518363ffffffff167c0100000000000000000000000000000000000000000000000000000000028152600401611e2c9291906153f0565b602060405180830381600087803b158015611e4657600080fd5b505af1158015611e5a573d6000803e3d6000fd5b505050506040513d601f19601f82011682018060405250611e7e9190810190614d9d565b506005600b82815481101515611e9057fe5b90600052602060002090600c0201600a0160006101000a81548160ff02191690836009811115611ebc57fe5b0217905550505050565b600860003373ffffffffffffffffffffffffffffffffffffffff1673ffffffffffffffffffffffffffffffffffffffff16815260200190815260200160002060009054906101000a900460ff161515611f1e57600080fd5b600960003373ffffffffffffffffffffffffffffffffffffffff1673ffffffffffffffffffffffffffffffffffffffff16815260200190815260200160002060009054906101000a900460ff16151515611f7757600080fd5b611f7f614a94565b611f95600160065461468890919063ffffffff16565b60068190555060065481600001818152505033816020019073ffffffffffffffffffffffffffffffffffffffff16908173ffffffffffffffffffffffffffffffffffffffff168152505083816040018190525082816060018190525081816080018181525050600c81908060018154018082558091505090600182039060005260206000209060050201600090919290919091506000820151816000015560208201518160010160006101000a81548173ffffffffffffffffffffffffffffffffffffffff021916908373ffffffffffffffffffffffffffffffffffffffff1602179055506040820151816002019080519060200190612096929190614ada565b5060608201518160030190805190602001906120b3929190614ada565b50608082015181600401555050506001600960003373ffffffffffffffffffffffffffffffffffffffff1673ffffffffffffffffffffffffffffffffffffffff16815260200190815260200160002060006101000a81548160ff02191690831515021790555050505050565b600a8181548110151561212e57fe5b9060005260206000209060060201600091509050806000015490806001018054600181600116156101000203166002900480601f0160208091040260200160405190810160405280929190818152602001828054600181600116156101000203166002900480156121e05780601f106121b5576101008083540402835291602001916121e0565b820191906000526020600020905b8154815290600101906020018083116121c357829003601f168201915b5050505050908060020154908060030154908060040160009054906101000a900473ffffffffffffffffffffffffffffffffffffffff1690806005018054600181600116156101000203166002900480601f0160208091040260200160405190810160405280929190818152602001828054600181600116156101000203166002900480156122b05780601f10612285576101008083540402835291602001916122b0565b820191906000526020600020905b81548152906001019060200180831161229357829003601f168201915b5050505050905086565b60015481565b6060600080905060008060009050600091505b600b8054905082101561231e5784600b838154811015156122f057fe5b90600052602060002090600c02016009015414156123115782806001019350505b81806001019250506122d3565b60608360405190808252806020026020018201604052801561235a57816020015b612347614b5a565b81526020019060019003908161233f5790505b509050600092505b600b805490508310156126535785600b8481548110151561237f57fe5b90600052602060002090600c020160090154141561264657600b838154811015156123a657fe5b90600052602060002090600c0201610180604051908101604052908160008201548152602001600182015481526020016002820154815260200160038201548152602001600482015481526020016005820160009054906101000a900473ffffffffffffffffffffffffffffffffffffffff1673ffffffffffffffffffffffffffffffffffffffff1673ffffffffffffffffffffffffffffffffffffffff168152602001600682018054600181600116156101000203166002900480601f0160208091040260200160405190810160405280929190818152602001828054600181600116156101000203166002900480156124e25780601f106124b7576101008083540402835291602001916124e2565b820191906000526020600020905b8154815290600101906020018083116124c557829003601f168201915b505050505081526020016007820160009054906101000a900473ffffffffffffffffffffffffffffffffffffffff1673ffffffffffffffffffffffffffffffffffffffff1673ffffffffffffffffffffffffffffffffffffffff168152602001600882018054600181600116156101000203166002900480601f0160208091040260200160405190810160405280929190818152602001828054600181600116156101000203166002900480156125da5780601f106125af576101008083540402835291602001916125da565b820191906000526020600020905b8154815290600101906020018083116125bd57829003601f168201915b5050505050815260200160098201548152602001600a820160009054906101000a900460ff16600981111561260b57fe5b600981111561261657fe5b8152602001600b82015481525050818380600101945081518110151561263857fe5b906020019060200201819052505b8280600101935050612362565b80945050505050919050565b6000811415151561266f57600080fd5b6126776149fb565b600061268283614381565b91509150600082600001511415151561269a57600080fd5b8160e0015173ffffffffffffffffffffffffffffffffffffffff163373ffffffffffffffffffffffffffffffffffffffff161415156126d857600080fd5b600460098111156126e557fe5b82610140015160098111156126f657fe5b14151561270257600080fd5b61271b603c83610160015161468890919063ffffffff16565b421115151561272957600080fd5b600760009054906101000a900473ffffffffffffffffffffffffffffffffffffffff1673ffffffffffffffffffffffffffffffffffffffff1663e1f21c67333085606001516040518463ffffffff167c01000000000000000000000000000000000000000000000000000000000281526004016127a893929190615390565b602060405180830381600087803b1580156127c257600080fd5b505af11580156127d6573d6000803e3d6000fd5b505050506040513d601f19601f820116820180604052506127fa9190810190614d9d565b508160600151600760009054906101000a900473ffffffffffffffffffffffffffffffffffffffff1673ffffffffffffffffffffffffffffffffffffffff1663dd62ed3e33306040518363ffffffff167c0100000000000000000000000000000000000000000000000000000000028152600401612879929190615367565b60206040518083038186803b15801561289157600080fd5b505afa1580156128a5573d6000803e3d6000fd5b505050506040513d601f19601f820116820180604052506128c99190810190614f55565b101515156128d657600080fd5b600760009054906101000a900473ffffffffffffffffffffffffffffffffffffffff1673ffffffffffffffffffffffffffffffffffffffff166323b872dd333085606001516040518463ffffffff167c010000000000000000000000000000000000000000000000000000000002815260040161295593929190615390565b602060405180830381600087803b15801561296f57600080fd5b505af1158015612983573d6000803e3d6000fd5b505050506040513d601f19601f820116820180604052506129a79190810190614d9d565b506006600b828154811015156129b957fe5b90600052602060002090600c0201600a0160006101000a81548160ff021916908360098111156129e557fe5b0217905550505050565b600081141515156129ff57600080fd5b612a076149fb565b6000612a1283614381565b915091506000826000015114151515612a2a57600080fd5b8160e0015173ffffffffffffffffffffffffffffffffffffffff163373ffffffffffffffffffffffffffffffffffffffff16141515612a6857600080fd5b60046009811115612a7557fe5b8261014001516009811115612a8657fe5b141515612a9257600080fd5b600760009054906101000a900473ffffffffffffffffffffffffffffffffffffffff1673ffffffffffffffffffffffffffffffffffffffff1663a9059cbb8360a0015184604001516040518363ffffffff167c0100000000000000000000000000000000000000000000000000000000028152600401612b139291906153f0565b602060405180830381600087803b158015612b2d57600080fd5b505af1158015612b41573d6000803e3d6000fd5b505050506040513d601f19601f82011682018060405250612b659190810190614d9d565b506005600b82815481101515612b7757fe5b90600052602060002090600c0201600a0160006101000a81548160ff02191690836009811115612ba357fe5b0217905550505050565b6060600080905060008060009050600091505b600b80549050821015612c57578473ffffffffffffffffffffffffffffffffffffffff16600b83815481101515612bf357fe5b90600052602060002090600c020160050160009054906101000a900473ffffffffffffffffffffffffffffffffffffffff1673ffffffffffffffffffffffffffffffffffffffff161415612c4a5782806001019350505b8180600101925050612bc0565b606083604051908082528060200260200182016040528015612c9357816020015b612c80614b5a565b815260200190600190039081612c785790505b509050600092505b600b80549050831015612fd8578573ffffffffffffffffffffffffffffffffffffffff16600b84815481101515612cce57fe5b90600052602060002090600c020160050160009054906101000a900473ffffffffffffffffffffffffffffffffffffffff1673ffffffffffffffffffffffffffffffffffffffff161415612fcb57600b83815481101515612d2b57fe5b90600052602060002090600c0201610180604051908101604052908160008201548152602001600182015481526020016002820154815260200160038201548152602001600482015481526020016005820160009054906101000a900473ffffffffffffffffffffffffffffffffffffffff1673ffffffffffffffffffffffffffffffffffffffff1673ffffffffffffffffffffffffffffffffffffffff168152602001600682018054600181600116156101000203166002900480601f016020809104026020016040519081016040528092919081815260200182805460018160011615610100020316600290048015612e675780601f10612e3c57610100808354040283529160200191612e67565b820191906000526020600020905b815481529060010190602001808311612e4a57829003601f168201915b505050505081526020016007820160009054906101000a900473ffffffffffffffffffffffffffffffffffffffff1673ffffffffffffffffffffffffffffffffffffffff1673ffffffffffffffffffffffffffffffffffffffff168152602001600882018054600181600116156101000203166002900480601f016020809104026020016040519081016040528092919081815260200182805460018160011615610100020316600290048015612f5f5780601f10612f3457610100808354040283529160200191612f5f565b820191906000526020600020905b815481529060010190602001808311612f4257829003601f168201915b5050505050815260200160098201548152602001600a820160009054906101000a900460ff166009811115612f9057fe5b6009811115612f9b57fe5b8152602001600b820154815250508183806001019450815181101515612fbd57fe5b906020019060200201819052505b8280600101935050612c9b565b80945050505050919050565b6000600c80549050905090565b600b8181548110151561300057fe5b90600052602060002090600c02016000915090508060000154908060010154908060020154908060030154908060040154908060050160009054906101000a900473ffffffffffffffffffffffffffffffffffffffff1690806006018054600181600116156101000203166002900480601f0160208091040260200160405190810160405280929190818152602001828054600181600116156101000203166002900480156130f05780601f106130c5576101008083540402835291602001916130f0565b820191906000526020600020905b8154815290600101906020018083116130d357829003601f168201915b5050505050908060070160009054906101000a900473ffffffffffffffffffffffffffffffffffffffff1690806008018054600181600116156101000203166002900480601f0160208091040260200160405190810160405280929190818152602001828054600181600116156101000203166002900480156131b45780601f10613189576101008083540402835291602001916131b4565b820191906000526020600020905b81548152906001019060200180831161319757829003601f168201915b50505050509080600901549080600a0160009054906101000a900460ff169080600b015490508c565b6000600a80549050905090565b600081141515156131fa57600080fd5b6132026149fb565b600061320d83614381565b91509150600082600001511415151561322557600080fd5b8160e0015173ffffffffffffffffffffffffffffffffffffffff163373ffffffffffffffffffffffffffffffffffffffff1614151561326357600080fd5b6003600981111561327057fe5b826101400151600981111561328157fe5b10156133b4576009600b8281548110151561329857fe5b90600052602060002090600c0201600a0160006101000a81548160ff021916908360098111156132c457fe5b0217905550600760009054906101000a900473ffffffffffffffffffffffffffffffffffffffff1673ffffffffffffffffffffffffffffffffffffffff1663a9059cbb336133238560600151866040015161468890919063ffffffff16565b6040518363ffffffff167c010000000000000000000000000000000000000000000000000000000002815260040161335c9291906153c7565b602060405180830381600087803b15801561337657600080fd5b505af115801561338a573d6000803e3d6000fd5b505050506040513d601f19601f820116820180604052506133ae9190810190614d9d565b506134f0565b600660098111156133c157fe5b82610140015160098111156133d257fe5b14156134ef57600760009054906101000a900473ffffffffffffffffffffffffffffffffffffffff1673ffffffffffffffffffffffffffffffffffffffff1663a9059cbb8360a0015184604001516040518363ffffffff167c01000000000000000000000000000000000000000000000000000000000281526004016134599291906153f0565b602060405180830381600087803b15801561347357600080fd5b505af1158015613487573d6000803e3d6000fd5b505050506040513d601f19601f820116820180604052506134ab9190810190614d9d565b506005600b828154811015156134bd57fe5b90600052602060002090600c0201600a0160006101000a81548160ff021916908360098111156134e957fe5b02179055505b5b505050565b6060600080905060008060009050600091505b600b8054905082101561359f578473ffffffffffffffffffffffffffffffffffffffff16600b8381548110151561353b57fe5b90600052602060002090600c020160070160009054906101000a900473ffffffffffffffffffffffffffffffffffffffff1673ffffffffffffffffffffffffffffffffffffffff1614156135925782806001019350505b8180600101925050613508565b6060836040519080825280602002602001820160405280156135db57816020015b6135c8614b5a565b8152602001906001900390816135c05790505b509050600092505b600b80549050831015613920578573ffffffffffffffffffffffffffffffffffffffff16600b8481548110151561361657fe5b90600052602060002090600c020160070160009054906101000a900473ffffffffffffffffffffffffffffffffffffffff1673ffffffffffffffffffffffffffffffffffffffff16141561391357600b8381548110151561367357fe5b90600052602060002090600c0201610180604051908101604052908160008201548152602001600182015481526020016002820154815260200160038201548152602001600482015481526020016005820160009054906101000a900473ffffffffffffffffffffffffffffffffffffffff1673ffffffffffffffffffffffffffffffffffffffff1673ffffffffffffffffffffffffffffffffffffffff168152602001600682018054600181600116156101000203166002900480601f0160208091040260200160405190810160405280929190818152602001828054600181600116156101000203166002900480156137af5780601f10613784576101008083540402835291602001916137af565b820191906000526020600020905b81548152906001019060200180831161379257829003601f168201915b505050505081526020016007820160009054906101000a900473ffffffffffffffffffffffffffffffffffffffff1673ffffffffffffffffffffffffffffffffffffffff1673ffffffffffffffffffffffffffffffffffffffff168152602001600882018054600181600116156101000203166002900480601f0160208091040260200160405190810160405280929190818152602001828054600181600116156101000203166002900480156138a75780601f1061387c576101008083540402835291602001916138a7565b820191906000526020600020905b81548152906001019060200180831161388a57829003601f168201915b5050505050815260200160098201548152602001600a820160009054906101000a900460ff1660098111156138d857fe5b60098111156138e357fe5b8152602001600b82015481525050818380600101945081518110151561390557fe5b906020019060200201819052505b82806001019350506135e3565b80945050505050919050565b6000600b80549050905090565b600c8181548110151561394857fe5b90600052602060002090600502016000915090508060000154908060010160009054906101000a900473ffffffffffffffffffffffffffffffffffffffff1690806002018054600181600116156101000203166002900480601f016020809104026020016040519081016040528092919081815260200182805460018160011615610100020316600290048015613a205780601f106139f557610100808354040283529160200191613a20565b820191906000526020600020905b815481529060010190602001808311613a0357829003601f168201915b505050505090806003018054600181600116156101000203166002900480601f016020809104026020016040519081016040528092919081815260200182805460018160011615610100020316600290048015613abe5780601f10613a9357610100808354040283529160200191613abe565b820191906000526020600020905b815481529060010190602001808311613aa157829003601f168201915b5050505050908060040154905085565b60008314151515613ade57600080fd5b613ae66149ae565b613aef84610718565b9050806000015184141515613b0357600080fd5b60008214151515613b1357600080fd5b60008314158015613b28575080606001518311155b1515613b3357600080fd5b600760009054906101000a900473ffffffffffffffffffffffffffffffffffffffff1673ffffffffffffffffffffffffffffffffffffffff166370a08231336040518263ffffffff167c0100000000000000000000000000000000000000000000000000000000028152600401613baa919061534c565b60206040518083038186803b158015613bc257600080fd5b505afa158015613bd6573d6000803e3d6000fd5b505050506040513d601f19601f82011682018060405250613bfa9190810190614f55565b613c118483604001516146a490919063ffffffff16565b11151515613c1e57600080fd5b3373ffffffffffffffffffffffffffffffffffffffff16816080015173ffffffffffffffffffffffffffffffffffffffff1614151515613c5d57600080fd5b613c656149fb565b613c7b600160045461468890919063ffffffff16565b60048190555060045481600001818152505084816020018181525050613cae8483604001516146a490919063ffffffff16565b816040018181525050613cbf614a94565b613cc8846115d0565b905080608001518260600181815250508482608001818152505082608001518260a0019073ffffffffffffffffffffffffffffffffffffffff16908173ffffffffffffffffffffffffffffffffffffffff1681525050338260e0019073ffffffffffffffffffffffffffffffffffffffff16908173ffffffffffffffffffffffffffffffffffffffff1681525050838261012001818152505060008261014001906009811115613d7457fe5b90816009811115613d8157fe5b81525050600b829080600181540180825580915050906001820390600052602060002090600c020160009091929091909150600082015181600001556020820151816001015560408201518160020155606082015181600301556080820151816004015560a08201518160050160006101000a81548173ffffffffffffffffffffffffffffffffffffffff021916908373ffffffffffffffffffffffffffffffffffffffff16021790555060c0820151816006019080519060200190613e48929190614ada565b5060e08201518160070160006101000a81548173ffffffffffffffffffffffffffffffffffffffff021916908373ffffffffffffffffffffffffffffffffffffffff160217905550610100820151816008019080519060200190613ead929190614ada565b50610120820151816009015561014082015181600a0160006101000a81548160ff02191690836009811115613ede57fe5b021790555061016082015181600b0155505050505050505050565b60008414151515613f0957600080fd5b613f116149fb565b6000613f1c86614381565b915091506000826000015114151515613f3457600080fd5b8160e0015173ffffffffffffffffffffffffffffffffffffffff16613f9d8686868080601f016020809104026020016040519081016040528093929190818152602001838380828437600081840152601f19601f82011690508083019250505050505050610964565b73ffffffffffffffffffffffffffffffffffffffff16141515613fbf57600080fd5b613fc7614a94565b613fd58361012001516115d0565b9050806020015173ffffffffffffffffffffffffffffffffffffffff163373ffffffffffffffffffffffffffffffffffffffff1614151561401557600080fd5b6003600981111561402257fe5b836101400151600981111561403357fe5b14151561403f57600080fd5b6004600b8381548110151561405057fe5b90600052602060002090600c0201600a0160006101000a81548160ff0219169083600981111561407c57fe5b021790555042600b8381548110151561409157fe5b90600052602060002090600c0201600b018190555050505050505050565b600084141515156140bf57600080fd5b6140c76149fb565b60006140d286614381565b9150915060008260000151141515156140ea57600080fd5b8160a0015173ffffffffffffffffffffffffffffffffffffffff166141538686868080601f016020809104026020016040519081016040528093929190818152602001838380828437600081840152601f19601f82011690508083019250505050505050610964565b73ffffffffffffffffffffffffffffffffffffffff1614151561417557600080fd5b61417d614a94565b61418b8361012001516115d0565b9050806020015173ffffffffffffffffffffffffffffffffffffffff163373ffffffffffffffffffffffffffffffffffffffff161415156141cb57600080fd5b600760098111156141d857fe5b83610140015160098111156141e957fe5b1415156141f557600080fd5b6008600b8381548110151561420657fe5b90600052602060002090600c0201600a0160006101000a81548160ff0219169083600981111561423257fe5b021790555060006142468460200151614950565b905061427f8460800151600a8381548110151561425f57fe5b90600052602060002090600602016003015461468890919063ffffffff16565b600a8281548110151561428e57fe5b906000526020600020906006020160030181905550600760009054906101000a900473ffffffffffffffffffffffffffffffffffffffff1673ffffffffffffffffffffffffffffffffffffffff1663a9059cbb8560e0015186604001516040518363ffffffff167c01000000000000000000000000000000000000000000000000000000000281526004016143249291906153f0565b602060405180830381600087803b15801561433e57600080fd5b505af1158015614352573d6000803e3d6000fd5b505050506040513d601f19601f820116820180604052506143769190810190614d9d565b505050505050505050565b6143896149fb565b600080600090505b600b8054905081101561466e5783600b828154811015156143ae57fe5b90600052602060002090600c020160000154141561466157600b818154811015156143d557fe5b90600052602060002090600c02018181610180604051908101604052908160008201548152602001600182015481526020016002820154815260200160038201548152602001600482015481526020016005820160009054906101000a900473ffffffffffffffffffffffffffffffffffffffff1673ffffffffffffffffffffffffffffffffffffffff1673ffffffffffffffffffffffffffffffffffffffff168152602001600682018054600181600116156101000203166002900480601f0160208091040260200160405190810160405280929190818152602001828054600181600116156101000203166002900480156145135780601f106144e857610100808354040283529160200191614513565b820191906000526020600020905b8154815290600101906020018083116144f657829003601f168201915b505050505081526020016007820160009054906101000a900473ffffffffffffffffffffffffffffffffffffffff1673ffffffffffffffffffffffffffffffffffffffff1673ffffffffffffffffffffffffffffffffffffffff168152602001600882018054600181600116156101000203166002900480601f01602080910402602001604051908101604052809291908181526020018280546001816001161561010002031660029004801561460b5780601f106145e05761010080835404028352916020019161460b565b820191906000526020600020905b8154815290600101906020018083116145ee57829003601f168201915b5050505050815260200160098201548152602001600a820160009054906101000a900460ff16600981111561463c57fe5b600981111561464757fe5b8152602001600b8201548152505091509250925050614683565b8080600101915050614391565b506146776149fb565b80600080905092509250505b915091565b6000818301905082811015151561469b57fe5b80905092915050565b6000808314156146b757600090506146d6565b81830290508183828115156146c857fe5b041415156146d257fe5b8090505b92915050565b6146e46149ae565b600080600090505b600a8054905081101561491d5783600a8281548110151561470957fe5b906000526020600020906006020160000154141561491057600a8181548110151561473057fe5b9060005260206000209060060201818160c0604051908101604052908160008201548152602001600182018054600181600116156101000203166002900480601f0160208091040260200160405190810160405280929190818152602001828054600181600116156101000203166002900480156147ef5780601f106147c4576101008083540402835291602001916147ef565b820191906000526020600020905b8154815290600101906020018083116147d257829003601f168201915b5050505050815260200160028201548152602001600382015481526020016004820160009054906101000a900473ffffffffffffffffffffffffffffffffffffffff1673ffffffffffffffffffffffffffffffffffffffff1673ffffffffffffffffffffffffffffffffffffffff168152602001600582018054600181600116156101000203166002900480601f0160208091040260200160405190810160405280929190818152602001828054600181600116156101000203166002900480156148fb5780601f106148d0576101008083540402835291602001916148fb565b820191906000526020600020905b8154815290600101906020018083116148de57829003601f168201915b50505050508152505091509250925050614932565b80806001019150506146ec565b506149266149ae565b80600080905092509250505b915091565b600082821115151561494557fe5b818303905092915050565b600080600090505b600a805490508110156149a35782600a8281548110151561497557fe5b906000526020600020906006020160000154141561499657809150506149a9565b8080600101915050614958565b50600090505b919050565b60c06040519081016040528060008152602001606081526020016000815260200160008152602001600073ffffffffffffffffffffffffffffffffffffffff168152602001606081525090565b610180604051908101604052806000815260200160008152602001600081526020016000815260200160008152602001600073ffffffffffffffffffffffffffffffffffffffff16815260200160608152602001600073ffffffffffffffffffffffffffffffffffffffff168152602001606081526020016000815260200160006009811115614a8757fe5b8152602001600081525090565b60a06040519081016040528060008152602001600073ffffffffffffffffffffffffffffffffffffffff1681526020016060815260200160608152602001600081525090565b828054600181600116156101000203166002900490600052602060002090601f016020900481019282601f10614b1b57805160ff1916838001178555614b49565b82800160010185558215614b49579182015b82811115614b48578251825591602001919060010190614b2d565b5b509050614b569190614bf3565b5090565b610180604051908101604052806000815260200160008152602001600081526020016000815260200160008152602001600073ffffffffffffffffffffffffffffffffffffffff16815260200160608152602001600073ffffffffffffffffffffffffffffffffffffffff168152602001606081526020016000815260200160006009811115614be657fe5b8152602001600081525090565b614c1591905b80821115614c11576000816000905550600101614bf9565b5090565b90565b6000614c24823561578c565b905092915050565b6000614c38825161579e565b905092915050565b6000614c4c82356157aa565b905092915050565b60008083601f8401121515614c6857600080fd5b8235905067ffffffffffffffff811115614c8157600080fd5b602083019150836001820283011115614c9957600080fd5b9250929050565b600082601f8301121515614cb357600080fd5b8135614cc6614cc1826156b2565b615685565b91508082526020830160208301858383011115614ce257600080fd5b614ced838284615806565b50505092915050565b600082601f8301121515614d0957600080fd5b8135614d1c614d17826156de565b615685565b91508082526020830160208301858383011115614d3857600080fd5b614d43838284615806565b50505092915050565b6000614d5882356157b4565b905092915050565b6000614d6c82516157b4565b905092915050565b600060208284031215614d8657600080fd5b6000614d9484828501614c18565b91505092915050565b600060208284031215614daf57600080fd5b6000614dbd84828501614c2c565b91505092915050565b60008060408385031215614dd957600080fd5b6000614de785828601614c40565b925050602083013567ffffffffffffffff811115614e0457600080fd5b614e1085828601614ca0565b9150509250929050565b600080600060608486031215614e2f57600080fd5b600084013567ffffffffffffffff811115614e4957600080fd5b614e5586828701614cf6565b935050602084013567ffffffffffffffff811115614e7257600080fd5b614e7e86828701614cf6565b9250506040614e8f86828701614d4c565b9150509250925092565b60008060008060808587031215614eaf57600080fd5b600085013567ffffffffffffffff811115614ec957600080fd5b614ed587828801614cf6565b9450506020614ee687828801614d4c565b9350506040614ef787828801614d4c565b925050606085013567ffffffffffffffff811115614f1457600080fd5b614f2087828801614cf6565b91505092959194509250565b600060208284031215614f3e57600080fd5b6000614f4c84828501614d4c565b91505092915050565b600060208284031215614f6757600080fd5b6000614f7584828501614d60565b91505092915050565b60008060008060608587031215614f9457600080fd5b6000614fa287828801614d4c565b9450506020614fb387828801614c40565b935050604085013567ffffffffffffffff811115614fd057600080fd5b614fdc87828801614c54565b925092505092959194509250565b600080600060608486031215614fff57600080fd5b600061500d86828701614d4c565b935050602061501e86828701614d4c565b925050604061502f86828701614d4c565b9150509250925092565b615042816157be565b82525050565b6150518161573a565b82525050565b600061506282615717565b8084526020840193508360208202850161507b8561570a565b60005b848110156150b4578383038852615096838351615187565b92506150a18261572d565b915060208801975060018101905061507e565b508196508694505050505092915050565b6150ce816157d0565b82525050565b60006150df82615722565b8084526150f3816020860160208601615815565b6150fc81615848565b602085010191505092915050565b600060a0830160008301516151226000860182615322565b5060208301516151356020860182615048565b506040830151848203604086015261514d82826150d4565b9150506060830151848203606086015261516782826150d4565b915050608083015161517c6080860182615322565b508091505092915050565b6000610180830160008301516151a06000860182615322565b5060208301516151b36020860182615322565b5060408301516151c66040860182615322565b5060608301516151d96060860182615322565b5060808301516151ec6080860182615322565b5060a08301516151ff60a0860182615048565b5060c083015184820360c086015261521782826150d4565b91505060e083015161522c60e0860182615048565b5061010083015184820361010086015261524682826150d4565b91505061012083015161525d610120860182615322565b506101408301516152726101408601826150c5565b50610160830151615287610160860182615322565b508091505092915050565b600060c0830160008301516152aa6000860182615322565b50602083015184820360208601526152c282826150d4565b91505060408301516152d76040860182615322565b5060608301516152ea6060860182615322565b5060808301516152fd6080860182615048565b5060a083015184820360a086015261531582826150d4565b9150508091505092915050565b61532b81615782565b82525050565b60006020820190506153466000830184615048565b92915050565b60006020820190506153616000830184615039565b92915050565b600060408201905061537c6000830185615039565b6153896020830184615048565b9392505050565b60006060820190506153a56000830186615039565b6153b26020830185615048565b6153bf6040830184615322565b949350505050565b60006040820190506153dc6000830185615039565b6153e96020830184615322565b9392505050565b60006040820190506154056000830185615048565b6154126020830184615322565b9392505050565b600060208201905081810360008301526154338184615057565b905092915050565b60006020820190508181036000830152615455818461510a565b905092915050565b600060208201905081810360008301526154778184615292565b905092915050565b60006020820190506154946000830184615322565b92915050565b600060a0820190506154af6000830188615322565b6154bc6020830187615048565b81810360408301526154ce81866150d4565b905081810360608301526154e281856150d4565b90506154f16080830184615322565b9695505050505050565b600060c0820190506155106000830189615322565b818103602083015261552281886150d4565b90506155316040830187615322565b61553e6060830186615322565b61554b6080830185615048565b81810360a083015261555d81846150d4565b9050979650505050505050565b600060a08201905061557f6000830188615322565b61558c6020830187615322565b6155996040830186615322565b6155a66060830185615048565b6155b36080830184615048565b9695505050505050565b6000610180820190506155d3600083018f615322565b6155e0602083018e615322565b6155ed604083018d615322565b6155fa606083018c615322565b615607608083018b615322565b61561460a083018a615048565b81810360c083015261562681896150d4565b905061563560e0830188615048565b81810361010083015261564881876150d4565b9050615658610120830186615322565b6156666101408301856150c5565b615674610160830184615322565b9d9c50505050505050505050505050565b6000604051905081810181811067ffffffffffffffff821117156156a857600080fd5b8060405250919050565b600067ffffffffffffffff8211156156c957600080fd5b601f19601f8301169050602081019050919050565b600067ffffffffffffffff8211156156f557600080fd5b601f19601f8301169050602081019050919050565b6000602082019050919050565b600081519050919050565b600081519050919050565b6000602082019050919050565b600061574582615762565b9050919050565b6000600a8210151561575a57fe5b819050919050565b600073ffffffffffffffffffffffffffffffffffffffff82169050919050565b6000819050919050565b600061579782615762565b9050919050565b60008115159050919050565b6000819050919050565b6000819050919050565b60006157c9826157e2565b9050919050565b60006157db8261574c565b9050919050565b60006157ed826157f4565b9050919050565b60006157ff82615762565b9050919050565b82818337600083830152505050565b60005b83811015615833578082015181840152602081019050615818565b83811115615842576000848401525b50505050565b6000601f19601f830116905091905056fea265627a7a723058200c4fda050298bfa8df6ba5357c6d0e2236447732378882bce7e18fefcde324876c6578706572696d656e74616cf50037",
  "source": "pragma solidity ^0.5.0;\npragma experimental ABIEncoderV2;\n\nimport \"./RUCToken.sol\";\n//import \"./SafeMath.sol\";\n\ncontract RUCMarket {\n    \n  using SafeMath for uint256;\n\n  address payable admin;\n  uint256 public tokenPrice;\n  uint256 public tokensSold;\n\n  uint requestedProducts;\n  uint totalOrderNumber = 0;\n  uint totalProductNumber = 0;\n  uint totalCourierNumber = 0;\n  \n\n  RUCToken token;\n\n  enum State {REQUESTED, PAYED, SELLER_COMFIRMED, SELLER_SENT, \n  BUYER_GOT, COMPLETED, WILL_RETURN, BUYER_SENT, SELLER_GOT, CANCLED}\n\n  struct Order {\n    uint id;\n    uint productId;\n    uint productValue;\n    uint deliverFee;\n    uint number;\n    address seller;\n    string sellAddress;\n    address buyer;\n    string buyerAddress;\n    uint courierId;\n    State state;\n    uint deliverTime; \n  }\n  \n  struct Product {\n    uint id;\n    string name;\n    uint price;\n    uint number;\n    //uint unconfirmedRequests;\n    address seller;\n    string url;\n  }\n  \n  \n  struct Courier {\n      uint id;\n      address accountAddress;\n      string companyName;\n      string publicKey;\n      uint fee;\n  }\n  \n  //mapping (address => AddressInfo) addressTable;\n  //mapping (address => bool) registerTable;\n  mapping (address => bool) certifiedCourier; // for admin to certify courier\n  mapping (address => bool) isCourier;  // for check if a courier double registers\n\n  Product[] public products;\n  Order[] public orders;\n  Courier[] public couriers;\n  \n \n  event Purchase(uint _productId, uint _price, uint _number, address _seller, address _buyer);\n  event TokenSell(address _buyer, uint256 _amount);\n  \n  constructor(RUCToken _tokenContract, uint256 _tokenPrice) public {\n    token = _tokenContract;\n    admin = msg.sender;\n    tokenPrice = _tokenPrice;\n  }\n  \n\n/************************ Token Part **************************************************************/\n\n  function buyTokens(uint256 _numberOfTokens) public payable {\n\n    // Require that value is equal to tokens\n    require(msg.value == _numberOfTokens.mul(tokenPrice));\n\n    // Require that the contract has enough tokens\n    require(token.balanceOf(address(this))>= _numberOfTokens);\n\n    // Require that a transfer is successful\n    require(token.transfer(msg.sender, _numberOfTokens));\n\n    // Keep track of tokensSold\n    tokensSold += _numberOfTokens;\n\n    // Trigger Sell Event\n    emit TokenSell(msg.sender, _numberOfTokens);\n  }\n  \n  \n  /************************ Purchase Part **************************************************************/\n  \n  function addCourier(address _courierAddress) public{\n    require(msg.sender == admin);         // only by admin\n    certifiedCourier[_courierAddress] = true;\n  }\n\n  function courierRegister(string memory _companyName, string memory _publicKey, uint _fee) public {\n      require(certifiedCourier[msg.sender]); // require msg.sender to be already certified\n      require(!isCourier[msg.sender]); // prevent double register\n      \n      Courier memory _courier;\n      totalCourierNumber = totalCourierNumber.add(1);\n      _courier.id = totalCourierNumber; //id = totalCourierNumber \n      _courier.accountAddress = msg.sender;\n      _courier.companyName = _companyName;\n      _courier.publicKey = _publicKey;\n      _courier.fee = _fee;\n      \n      couriers.push(_courier);\n      isCourier[msg.sender] = true;\n  }\n  \n  function addProduct(string memory _name, uint _price, uint _number, string memory _url) public {\n    require(_price > 0);\n    require(_number > 0);\n    \n    Product memory _product;\n    totalProductNumber = totalProductNumber.add(1);\n    _product.id = totalProductNumber; //id = totalProductNumber\n    _product.name = _name;\n    _product.price = _price;\n    _product.number = _number;\n    _product.seller = msg.sender;\n    _product.url = _url;\n    products.push(_product);\n  }\n\n  \n  function purchaseRequest(uint _productId, uint _requestNumber, uint _courierId) external {\n    require(_productId != 0);\n    \n    //(Product memory _product, uint _productIndex) = findProductAndIndexById(_productId);\n    Product memory _product = findProductById(_productId);\n    require(_productId == _product.id); //_product does exist\n    //require(_courierId > 0 && _courierId <= couriers.length);\n    require(_courierId !=0);\n    require(_requestNumber != 0 && _requestNumber <= _product.number);\n    require((_product.price.mul(_requestNumber)) <= token.balanceOf(msg.sender));\n    require(_product.seller != msg.sender); // can not buy things from one himself\n    \n    Order memory _order;\n    totalOrderNumber = totalOrderNumber.add(1);\n    _order.id = totalOrderNumber; // order id = totalOrderNumber\n    _order.productId = _productId;\n    _order.productValue = _product.price.mul(_requestNumber); // number * price \n    Courier memory _courier = findCourierById(_courierId);\n    _order.deliverFee = _courier.fee; //deliver fee\n    _order.number = _requestNumber;\n    _order.seller = _product.seller;\n    _order.buyer = msg.sender;\n    _order.courierId = _courierId;\n    _order.state = State.REQUESTED;\n\n    orders.push(_order);\n    \n  }\n  \n  \n  function buyerPayOrder(uint _orderId) external {\n      require(_orderId !=0);\n      \n      (Order memory _order,uint _orderIndex) = findOrderAndIndexById(_orderId);\n      require(_order.id != 0); // order exist\n      \n      require(msg.sender == _order.buyer);\n      require(_order.state == State.REQUESTED);\n      \n      uint totalValue = _order.productValue.add(_order.deliverFee); //totalValue = productValue + deliverFee\n      token.approve(msg.sender, address(this), totalValue);\n      require(token.allowance(msg.sender, address(this)) >= totalValue);\n      token.transferFrom(msg.sender, address(this), totalValue);\n      orders[_orderIndex].state = State.PAYED;\n      \n  }\n  \n  function sellerComfirmOrder(uint _orderId) external {\n      require(_orderId != 0);\n      (Order memory _order,uint _orderIndex) = findOrderAndIndexById(_orderId);\n      require(_order.id != 0); // order exist\n      \n      require(msg.sender == _order.seller );\n      require(_order.state == State.PAYED);  // require preious state\n      (Product memory _product,uint _productIndex) = findProductAndIndexById(_order.productId);\n      require(_order.number <= _product.number);\n      \n      \n      \n      orders[_orderIndex].state = State.SELLER_COMFIRMED; //change state to \"...\"\n      products[_productIndex].number = products[_productIndex].number.sub(_order.number); // update product number\n      \n      emit Purchase( _order.productId, _product.price, _order.number, _order.seller, _order.buyer);\n  }\n  \n  function sellerSendProduct(uint _orderId, bytes32 _hash, bytes calldata _sig) external {\n      require(_orderId != 0);\n      (Order memory _order,uint _orderIndex) = findOrderAndIndexById(_orderId);\n      require(_order.id != 0); // order exist\n      require(msg.sender == _order.seller); //msg.sender == order's seller\n      \n      Courier memory _courier = findCourierById(_order.courierId);\n      require(recover(_hash,_sig) == _courier.accountAddress); // verify signature from courier\n      \n      require(_order.state == State.SELLER_COMFIRMED); // state == SELLER_COMFIRMED\n      \n      token.transfer(_courier.accountAddress, _order.deliverFee); // pay deliver fee\n      orders[_orderIndex].state = State.SELLER_SENT; //change state to \"SELLER_SENT\"\n  }\n  \n  function productDeliveredToBuyer(uint _orderId, bytes32 _hash, bytes calldata _sig) external {\n      require(_orderId != 0);\n      (Order memory _order,uint _orderIndex) = findOrderAndIndexById(_orderId);\n      require(_order.id != 0); // order exist\n      \n      require(recover(_hash,_sig) == _order.buyer); // verify signature from buyer\n      \n      Courier memory _courier = findCourierById(_order.courierId);\n      require(msg.sender == _courier.accountAddress); //msg.sender == order's courier\n      \n      require(_order.state == State.SELLER_SENT); // require previous state\n      \n      //token.transferFrom(address(this), _order.seller, _order.productValue);\n      orders[_orderIndex].state = State.BUYER_GOT;\n      orders[_orderIndex].deliverTime = now; // set the deliverTime as 'now'\n  }\n  \n  function buyerConfirm(uint _orderId) external {\n      require(_orderId != 0);\n      (Order memory _order,uint _orderIndex) = findOrderAndIndexById(_orderId);\n      require(_order.id != 0); // order exist\n      \n      require(msg.sender == _order.buyer); // msg.sender == buyer\n      require(_order.state == State.BUYER_GOT); // require previous state\n      \n      //token.transferFrom(address(this), _order.seller, _order.productValue);\n      token.transfer(_order.seller, _order.productValue);\n      orders[_orderIndex].state = State.COMPLETED;\n  }\n  \n  function sellerGetMoneyFromOrder(uint _orderId) external {\n      require(_orderId != 0);\n      (Order memory _order,uint _orderIndex) = findOrderAndIndexById(_orderId);\n      require(_order.id != 0); // order exist\n      \n      require(msg.sender == _order.seller); //msg.sender == seller\n      require(now > _order.deliverTime.add(1 minutes)); // consideration time is over\n      require(_order.state == State.BUYER_GOT); // Has't been confirmed\n      \n      //token.transferFrom(address(this), _order.seller, _order.productValue);\n      token.transfer(_order.seller, _order.productValue);\n      orders[_orderIndex].state = State.COMPLETED;\n  }\n  \n  function buyerWillRuturnProduct(uint _orderId) external {\n      require(_orderId !=0);\n      \n      (Order memory _order,uint _orderIndex) = findOrderAndIndexById(_orderId);\n      require(_order.id != 0); // order exist\n      \n      require(msg.sender == _order.buyer);\n      require(_order.state == State.BUYER_GOT); // state == BUYER_GOT\n      require(now <= _order.deliverTime.add(1 minutes)); // within the consideration time limit\n      \n      token.approve(msg.sender, address(this), _order.deliverFee);\n      require(token.allowance(msg.sender, address(this)) >= _order.deliverFee);\n      token.transferFrom(msg.sender, address(this), _order.deliverFee);\n      orders[_orderIndex].state = State.WILL_RETURN;\n      \n  }\n  \n  function buyerSendProduct(uint _orderId, bytes32 _hash, bytes calldata _sig) external {\n      require(_orderId != 0);\n      (Order memory _order,uint _orderIndex) = findOrderAndIndexById(_orderId);\n      require(_order.id != 0); // order exist\n      require(msg.sender == _order.buyer); //msg.sender == order's buyer\n      \n      Courier memory _courier = findCourierById(_order.courierId);\n      require(recover(_hash,_sig) == _courier.accountAddress); // verify signature\n      \n      require(_order.state == State.WILL_RETURN); // state == WILL_RETURN\n      \n      token.transfer(_courier.accountAddress, _order.deliverFee); // pay deliver fee\n      orders[_orderIndex].state = State.BUYER_SENT; //change state to \"SELLER_SENT\"\n  }\n  \n  function productDeliveredToSeller(uint _orderId, bytes32 _hash, bytes calldata _sig) external {\n      require(_orderId != 0);\n      (Order memory _order,uint _orderIndex) = findOrderAndIndexById(_orderId);\n      require(_order.id != 0); // order exist\n      \n      require(recover(_hash,_sig) == _order.seller); // verify signature from seller\n      \n      Courier memory _courier = findCourierById(_order.courierId);\n      require(msg.sender == _courier.accountAddress); //msg.sender == order's courier\n\n      require(_order.state == State.BUYER_SENT); // require previous state\n      \n      //token.transferFrom(address(this), _order.seller, _order.productValue);\n      orders[_orderIndex].state = State.SELLER_GOT;\n      //orders[_orderIndex].deliverTime = now; // reset the deliverTime as 'now'\n      \n      //add product number\n      uint _productIndex = findProductIndexById(_order.productId);\n      products[_productIndex].number = products[_productIndex].number.add(_order.number);\n      \n      token.transfer(_order.buyer, _order.productValue); // return the money back to buyer\n  }\n  \n  function cancleByBuyer(uint _orderId) external {\n      require(_orderId != 0);\n      (Order memory _order,uint _orderIndex) = findOrderAndIndexById(_orderId);\n      require(_order.id != 0); // order exist\n      \n      require(msg.sender == _order.buyer); // only buyer call this cancle  \n      \n      /*two cases:\n        1. before seller send products: buyer can get all the money (token) back\n        2. after buyer got the products, before he sends \n        (which is state WILL_RETURN): similer to buyerConfirm()*/\n      if(_order.state < State.SELLER_SENT) { // 1. before seller sent\n          orders[_orderIndex].state = State.CANCLED; // set state as CANCLED\n          token.transfer(msg.sender, _order.productValue.add(_order.deliverFee)); // transfer token back\n      }\n      else if(_order.state == State.WILL_RETURN){\n          token.transfer(_order.seller, _order.productValue);\n          orders[_orderIndex].state = State.COMPLETED;\n      }\n  }\n  \n  function cancleByCourier(uint _orderId) external {\n      /* Situation: \n      courier help qulify the product, and the returning products don't match the requirement.\n      */\n      \n      require(_orderId != 0);\n      (Order memory _order,uint _orderIndex) = findOrderAndIndexById(_orderId);\n      require(_order.id != 0); // order exist\n      \n      Courier memory _courier = findCourierById(_order.courierId);\n      require(msg.sender == _courier.accountAddress); // only courier call this cancle  \n      require(_order.state == State.WILL_RETURN);\n      \n      token.transfer(_order.seller, _order.productValue.add(_order.deliverFee));\n      orders[_orderIndex].state = State.COMPLETED;\n  }\n\n  /****************************** Find and Get methods***********************************/\n    \n  function productsNumber() external view returns(uint){\n    return products.length;\n  }\n\n  function couriersNumber() external view returns(uint){\n    return couriers.length;\n  }\n  function ordresNumber() external view returns(uint){\n    return orders.length;\n  }\n  function findOrderAndIndexById(uint _orderId) internal view returns(Order memory, uint) {\n    for(uint i = 0; i < orders.length; i++) {\n       if(orders[i].id == _orderId){\n         return (orders[i], i);\n       }\n    }\n    \n    Order memory order;\n    \n    return (order, 0);\n  }\n  \n  function findOrderById(uint _orderid) internal view returns(Order memory){\n      for(uint i = 0; i < orders.length; i++){\n          if(orders[i].id == _orderid)\n            return orders[i];\n      }\n      \n      Order memory order;\n      return order;\n  }\n\n  function findOrdersBySeller(address _seller) external view returns(Order[] memory) {\n    uint count = 0;\n    uint i;\n    uint j = 0;\n    for(i = 0; i < orders.length; i++){\n      if(orders[i].seller == _seller){\n        count ++;\n      }\n    }\n\n    Order[] memory results = new Order[](count);\n\n    for(i = 0; i < orders.length; i++){\n      if(orders[i].seller == _seller){\n        results[j++] = orders[i];\n      }\n    }\n\n    return results;\n  }\n  \n  function findOrdersByBuyer(address _buyer) external view returns(Order[] memory) {\n    uint count = 0;\n    uint i;\n    uint j = 0;\n    for(i = 0; i < orders.length; i++){\n      if(orders[i].buyer == _buyer){\n        count ++;\n      }\n    }\n\n    Order[] memory results = new Order[](count);\n\n    for(i = 0; i < orders.length; i++){\n      if(orders[i].buyer == _buyer){\n        results[j++] = orders[i];\n      }\n    }\n      return results;\n  }\n  \n  function findOrdersBycourierId(uint _courierId) external view returns(Order[] memory) {\n    uint count = 0;\n    uint i;\n    uint j = 0;\n    for(i = 0; i < orders.length; i++){\n      if(orders[i].courierId == _courierId){\n        count ++;\n      }\n    }\n\n    Order[] memory results = new Order[](count);\n\n    for(i = 0; i < orders.length; i++){\n      if(orders[i].courierId == _courierId){\n        results[j++] = orders[i];\n      }\n    }\n\n    return results;\n  }\n\n\n\n  function findProductAndIndexById(uint _productId) internal view returns(Product memory, uint) {\n    for(uint i = 0; i < products.length; i++) {\n       if(products[i].id == _productId){\n         return (products[i], i);\n       }\n    }\n    \n    Product memory product;\n    \n    return (product, 0);\n  }\n  \n  function findProductIndexById(uint _productId) internal view returns(uint) {\n    for(uint i = 0; i < products.length; i++) {\n       if(products[i].id == _productId){\n         return i;\n       }\n    }\n    \n    return 0;\n  }\n  \n  function findProductById(uint _productId) public view returns(Product memory) {\n    for(uint i = 0; i < products.length; i++) {\n       if(products[i].id == _productId){\n         return products[i];\n       }\n    }\n    \n    Product memory product;\n    \n    return product;\n  }\n  \n  function findCourierById(uint _courierId) public view returns(Courier memory) {\n    for(uint i = 0; i < couriers.length; i++) {\n       if(couriers[i].id == _courierId){\n         return couriers[i];\n       }\n    }\n    \n    Courier memory courier;\n    \n    return courier;\n  }\n/*********************************Verify Signature*****************************************/\n  function recover(bytes32 hash, bytes memory signature)\n      public\n      pure\n      returns (address)\n    {\n      bytes32 r;\n      bytes32 s;\n      uint8 v;\n\n      // Check the signature length\n      if (signature.length != 65) {\n        return (address(0));\n      }\n\n      // Divide the signature in r, s and v variables\n      // ecrecover takes the signature parameters, and the only way to get them\n      // currently is to use assembly.\n      // solium-disable-next-line security/no-inline-assembly\n      assembly {\n        r := mload(add(signature, 0x20))\n        s := mload(add(signature, 0x40))\n        v := byte(0, mload(add(signature, 0x60)))\n      }\n\n      // Version of signature should be 27 or 28, but 0 and 1 are also possible versions\n      if (v < 27) {\n        v += 27;\n      }\n\n      // If the version is correct return the signer address\n      if (v != 27 && v != 28) {\n        return (address(0));\n      } else {\n        // solium-disable-next-line arg-overflow\n        return ecrecover(hash, v, r, s);\n      }\n    }\n\n}",
  "sourcePath": "/home/elaine/RUCMarket/contracts/RUCMarket.sol",
  "compiler": {
    "name": "solc",
    "version": "0.5.0+commit.1d4f565a.Emscripten.clang"
  },
  "schemaVersion": "3.0.1",
  "updatedAt": "2019-04-20T04:28:20.814Z",
  "devdoc": {
    "methods": {}
  },
  "userdoc": {
    "methods": {
      "addCourier(address)": {
        "notice": "********************** Purchase Part *************************************************************"
      },
      "buyTokens(uint256)": {
        "notice": "********************** Token Part *************************************************************"
      },
      "productsNumber()": {
        "notice": "**************************** Find and Get methods**********************************"
      },
      "recover(bytes32,bytes)": {
        "notice": "*******************************Verify Signature****************************************"
      }
    }
  }
}