{
  "contractName": "RUCMarket",
  "abi": [
    {
      "constant": true,
      "inputs": [],
      "name": "tokensSold",
      "outputs": [
        {
          "name": "",
          "type": "uint256"
        }
      ],
      "payable": false,
      "stateMutability": "view",
      "type": "function"
    },
    {
      "constant": true,
      "inputs": [],
      "name": "tokenPrice",
      "outputs": [
        {
          "name": "",
          "type": "uint256"
        }
      ],
      "payable": false,
      "stateMutability": "view",
      "type": "function"
    },
    {
      "constant": true,
      "inputs": [
        {
          "name": "",
          "type": "uint256"
        }
      ],
      "name": "couriers",
      "outputs": [
        {
          "name": "id",
          "type": "uint256"
        },
        {
          "name": "accountAddress",
          "type": "address"
        },
        {
          "name": "companyName",
          "type": "string"
        },
        {
          "name": "publicKey",
          "type": "string"
        },
        {
          "name": "fee",
          "type": "uint256"
        }
      ],
      "payable": false,
      "stateMutability": "view",
      "type": "function"
    },
    {
      "inputs": [
        {
          "name": "_tokenContract",
          "type": "address"
        },
        {
          "name": "_tokenPrice",
          "type": "uint256"
        }
      ],
      "payable": false,
      "stateMutability": "nonpayable",
      "type": "constructor"
    },
    {
      "anonymous": false,
      "inputs": [
        {
          "indexed": false,
          "name": "_productId",
          "type": "uint256"
        },
        {
          "indexed": false,
          "name": "_price",
          "type": "uint256"
        },
        {
          "indexed": false,
          "name": "_number",
          "type": "uint256"
        },
        {
          "indexed": false,
          "name": "_seller",
          "type": "address"
        },
        {
          "indexed": false,
          "name": "_buyer",
          "type": "address"
        }
      ],
      "name": "Purchase",
      "type": "event"
    },
    {
      "anonymous": false,
      "inputs": [
        {
          "indexed": false,
          "name": "_buyer",
          "type": "address"
        },
        {
          "indexed": false,
          "name": "_amount",
          "type": "uint256"
        }
      ],
      "name": "TokenSell",
      "type": "event"
    },
    {
      "constant": false,
      "inputs": [
        {
          "name": "_numberOfTokens",
          "type": "uint256"
        }
      ],
      "name": "buyTokens",
      "outputs": [],
      "payable": true,
      "stateMutability": "payable",
      "type": "function"
    },
    {
      "constant": false,
      "inputs": [
        {
          "name": "_courierAddress",
          "type": "address"
        }
      ],
      "name": "addCourier",
      "outputs": [],
      "payable": false,
      "stateMutability": "nonpayable",
      "type": "function"
    },
    {
      "constant": false,
      "inputs": [
        {
          "name": "_companyName",
          "type": "string"
        },
        {
          "name": "_publicKey",
          "type": "string"
        },
        {
          "name": "_fee",
          "type": "uint256"
        }
      ],
      "name": "courierRegister",
      "outputs": [],
      "payable": false,
      "stateMutability": "nonpayable",
      "type": "function"
    },
    {
      "constant": false,
      "inputs": [
        {
          "name": "_name",
          "type": "string"
        },
        {
          "name": "_price",
          "type": "uint256"
        },
        {
          "name": "_number",
          "type": "uint256"
        },
        {
          "name": "_url",
          "type": "string"
        }
      ],
      "name": "addProduct",
      "outputs": [],
      "payable": false,
      "stateMutability": "nonpayable",
      "type": "function"
    },
    {
      "constant": false,
      "inputs": [
        {
          "name": "_productId",
          "type": "uint256"
        },
        {
          "name": "_requestNumber",
          "type": "uint256"
        },
        {
          "name": "_courierId",
          "type": "uint256"
        }
      ],
      "name": "purchaseRequest",
      "outputs": [],
      "payable": false,
      "stateMutability": "nonpayable",
      "type": "function"
    },
    {
      "constant": false,
      "inputs": [
        {
          "name": "_orderId",
          "type": "uint256"
        }
      ],
      "name": "buyerPayOrder",
      "outputs": [],
      "payable": false,
      "stateMutability": "nonpayable",
      "type": "function"
    },
    {
      "constant": false,
      "inputs": [
        {
          "name": "_orderId",
          "type": "uint256"
        }
      ],
      "name": "sellerComfirmOrder",
      "outputs": [],
      "payable": false,
      "stateMutability": "nonpayable",
      "type": "function"
    },
    {
      "constant": false,
      "inputs": [
        {
          "name": "_orderId",
          "type": "uint256"
        },
        {
          "name": "_hash",
          "type": "bytes32"
        },
        {
          "name": "_sig",
          "type": "bytes"
        }
      ],
      "name": "sellerSendProduct",
      "outputs": [],
      "payable": false,
      "stateMutability": "nonpayable",
      "type": "function"
    },
    {
      "constant": false,
      "inputs": [
        {
          "name": "_orderId",
          "type": "uint256"
        },
        {
          "name": "_hash",
          "type": "bytes32"
        },
        {
          "name": "_sig",
          "type": "bytes"
        }
      ],
      "name": "productDeliveredToBuyer",
      "outputs": [],
      "payable": false,
      "stateMutability": "nonpayable",
      "type": "function"
    },
    {
      "constant": false,
      "inputs": [
        {
          "name": "_orderId",
          "type": "uint256"
        }
      ],
      "name": "buyerConfirm",
      "outputs": [],
      "payable": false,
      "stateMutability": "nonpayable",
      "type": "function"
    },
    {
      "constant": false,
      "inputs": [
        {
          "name": "_orderId",
          "type": "uint256"
        }
      ],
      "name": "sellerGetMoneyFromOrder",
      "outputs": [],
      "payable": false,
      "stateMutability": "nonpayable",
      "type": "function"
    },
    {
      "constant": false,
      "inputs": [
        {
          "name": "_orderId",
          "type": "uint256"
        }
      ],
      "name": "buyerWillRuturnProduct",
      "outputs": [],
      "payable": false,
      "stateMutability": "nonpayable",
      "type": "function"
    },
    {
      "constant": false,
      "inputs": [
        {
          "name": "_orderId",
          "type": "uint256"
        },
        {
          "name": "_hash",
          "type": "bytes32"
        },
        {
          "name": "_sig",
          "type": "bytes"
        }
      ],
      "name": "buyerSendProduct",
      "outputs": [],
      "payable": false,
      "stateMutability": "nonpayable",
      "type": "function"
    },
    {
      "constant": false,
      "inputs": [
        {
          "name": "_orderId",
          "type": "uint256"
        },
        {
          "name": "_hash",
          "type": "bytes32"
        },
        {
          "name": "_sig",
          "type": "bytes"
        }
      ],
      "name": "productDeliveredToSeller",
      "outputs": [],
      "payable": false,
      "stateMutability": "nonpayable",
      "type": "function"
    },
    {
      "constant": false,
      "inputs": [
        {
          "name": "_orderId",
          "type": "uint256"
        }
      ],
      "name": "cancleByBuyer",
      "outputs": [],
      "payable": false,
      "stateMutability": "nonpayable",
      "type": "function"
    },
    {
      "constant": false,
      "inputs": [
        {
          "name": "_orderId",
          "type": "uint256"
        }
      ],
      "name": "cancleByCourier",
      "outputs": [],
      "payable": false,
      "stateMutability": "nonpayable",
      "type": "function"
    },
    {
      "constant": true,
      "inputs": [
        {
          "name": "_seller",
          "type": "address"
        }
      ],
      "name": "findOrdersBySeller",
      "outputs": [
        {
          "components": [
            {
              "name": "id",
              "type": "uint256"
            },
            {
              "name": "productId",
              "type": "uint256"
            },
            {
              "name": "productValue",
              "type": "uint256"
            },
            {
              "name": "deliverFee",
              "type": "uint256"
            },
            {
              "name": "number",
              "type": "uint256"
            },
            {
              "name": "seller",
              "type": "address"
            },
            {
              "name": "sellAddress",
              "type": "string"
            },
            {
              "name": "buyer",
              "type": "address"
            },
            {
              "name": "buyerAddress",
              "type": "string"
            },
            {
              "name": "courierId",
              "type": "uint256"
            },
            {
              "name": "state",
              "type": "uint8"
            },
            {
              "name": "deliverTime",
              "type": "uint256"
            }
          ],
          "name": "",
          "type": "tuple[]"
        }
      ],
      "payable": false,
      "stateMutability": "view",
      "type": "function"
    },
    {
      "constant": true,
      "inputs": [
        {
          "name": "_buyer",
          "type": "address"
        }
      ],
      "name": "findOrdersByBuyer",
      "outputs": [
        {
          "components": [
            {
              "name": "id",
              "type": "uint256"
            },
            {
              "name": "productId",
              "type": "uint256"
            },
            {
              "name": "productValue",
              "type": "uint256"
            },
            {
              "name": "deliverFee",
              "type": "uint256"
            },
            {
              "name": "number",
              "type": "uint256"
            },
            {
              "name": "seller",
              "type": "address"
            },
            {
              "name": "sellAddress",
              "type": "string"
            },
            {
              "name": "buyer",
              "type": "address"
            },
            {
              "name": "buyerAddress",
              "type": "string"
            },
            {
              "name": "courierId",
              "type": "uint256"
            },
            {
              "name": "state",
              "type": "uint8"
            },
            {
              "name": "deliverTime",
              "type": "uint256"
            }
          ],
          "name": "",
          "type": "tuple[]"
        }
      ],
      "payable": false,
      "stateMutability": "view",
      "type": "function"
    },
    {
      "constant": true,
      "inputs": [
        {
          "name": "_courierId",
          "type": "uint256"
        }
      ],
      "name": "findOrdersBycourierId",
      "outputs": [
        {
          "components": [
            {
              "name": "id",
              "type": "uint256"
            },
            {
              "name": "productId",
              "type": "uint256"
            },
            {
              "name": "productValue",
              "type": "uint256"
            },
            {
              "name": "deliverFee",
              "type": "uint256"
            },
            {
              "name": "number",
              "type": "uint256"
            },
            {
              "name": "seller",
              "type": "address"
            },
            {
              "name": "sellAddress",
              "type": "string"
            },
            {
              "name": "buyer",
              "type": "address"
            },
            {
              "name": "buyerAddress",
              "type": "string"
            },
            {
              "name": "courierId",
              "type": "uint256"
            },
            {
              "name": "state",
              "type": "uint8"
            },
            {
              "name": "deliverTime",
              "type": "uint256"
            }
          ],
          "name": "",
          "type": "tuple[]"
        }
      ],
      "payable": false,
      "stateMutability": "view",
      "type": "function"
    },
    {
      "constant": true,
      "inputs": [
        {
          "name": "_productId",
          "type": "uint256"
        }
      ],
      "name": "findProductById",
      "outputs": [
        {
          "components": [
            {
              "name": "id",
              "type": "uint256"
            },
            {
              "name": "name",
              "type": "string"
            },
            {
              "name": "price",
              "type": "uint256"
            },
            {
              "name": "number",
              "type": "uint256"
            },
            {
              "name": "unconfirmedRequests",
              "type": "uint256"
            },
            {
              "name": "seller",
              "type": "address"
            },
            {
              "name": "url",
              "type": "string"
            }
          ],
          "name": "",
          "type": "tuple"
        }
      ],
      "payable": false,
      "stateMutability": "view",
      "type": "function"
    },
    {
      "constant": true,
      "inputs": [
        {
          "name": "_courierId",
          "type": "uint256"
        }
      ],
      "name": "findCourierById",
      "outputs": [
        {
          "components": [
            {
              "name": "id",
              "type": "uint256"
            },
            {
              "name": "accountAddress",
              "type": "address"
            },
            {
              "name": "companyName",
              "type": "string"
            },
            {
              "name": "publicKey",
              "type": "string"
            },
            {
              "name": "fee",
              "type": "uint256"
            }
          ],
          "name": "",
          "type": "tuple"
        }
      ],
      "payable": false,
      "stateMutability": "view",
      "type": "function"
    },
    {
      "constant": true,
      "inputs": [
        {
          "name": "hash",
          "type": "bytes32"
        },
        {
          "name": "signature",
          "type": "bytes"
        }
      ],
      "name": "recover",
      "outputs": [
        {
          "name": "",
          "type": "address"
        }
      ],
      "payable": false,
      "stateMutability": "pure",
      "type": "function"
    }
  ],
  "bytecode": "0x60806040526000600455600060055560006006553480156200002057600080fd5b50604051604080620054458339810180604052620000429190810190620000fe565b81600760006101000a81548173ffffffffffffffffffffffffffffffffffffffff021916908373ffffffffffffffffffffffffffffffffffffffff160217905550336000806101000a81548173ffffffffffffffffffffffffffffffffffffffff021916908373ffffffffffffffffffffffffffffffffffffffff16021790555080600181905550505062000191565b6000620000e0825162000173565b905092915050565b6000620000f6825162000187565b905092915050565b600080604083850312156200011257600080fd5b60006200012285828601620000d2565b92505060206200013585828601620000e8565b9150509250929050565b60006200014c8262000153565b9050919050565b600073ffffffffffffffffffffffffffffffffffffffff82169050919050565b600062000180826200013f565b9050919050565b6000819050919050565b6152a480620001a16000396000f3fe608060405260043610610149576000357c0100000000000000000000000000000000000000000000000000000000900463ffffffff16806314082cd21461014e57806319045a251461018b578063234142f8146101c85780632445d6d7146101f15780633610724e1461021a578063374b93c81461023657806338789d3a1461025f5780633cb80eb0146102885780634090d5d2146102b157806341c10b1b146102ee5780634eae589b14610317578063518ab2a81461034057806367bd9eea1461036b578063705862e0146103945780637ff9b596146103bd578063875fc626146103e85780638784b39e14610425578063888487cd1461044e5780639e0125e314610477578063cd828eb2146104b4578063ddf6949f146104dd578063e2da36101461051a578063ef8536fb1461055b578063f1a2376e14610584578063f8747894146105ad575b600080fd5b34801561015a57600080fd5b5061017560048036036101709190810190614a61565b6105d6565b6040516101829190614fa5565b60405180910390f35b34801561019757600080fd5b506101b260048036036101ad91908101906148fb565b61082c565b6040516101bf9190614e79565b60405180910390f35b3480156101d457600080fd5b506101ef60048036036101ea9190810190614a61565b610910565b005b3480156101fd57600080fd5b50610218600480360361021391908101906148a9565b610afd565b005b610234600480360361022f9190810190614a61565b610bb3565b005b34801561024257600080fd5b5061025d60048036036102589190810190614a61565b610dcc565b005b34801561026b57600080fd5b50610286600480360361028191908101906149ce565b610f98565b005b34801561029457600080fd5b506102af60048036036102aa9190810190614a61565b611125565b005b3480156102bd57600080fd5b506102d860048036036102d39190810190614a61565b6114a2565b6040516102e59190614f83565b60405180910390f35b3480156102fa57600080fd5b5061031560048036036103109190810190614ab3565b6116e4565b005b34801561032357600080fd5b5061033e60048036036103399190810190614ab3565b611949565b005b34801561034c57600080fd5b50610355611bae565b6040516103629190614fc7565b60405180910390f35b34801561037757600080fd5b50610392600480360361038d9190810190614a61565b611bb4565b005b3480156103a057600080fd5b506103bb60048036036103b6919081019061494f565b611d98565b005b3480156103c957600080fd5b506103d2611ff1565b6040516103df9190614fc7565b60405180910390f35b3480156103f457600080fd5b5061040f600480360361040a9190810190614a61565b611ff7565b60405161041c9190614f61565b60405180910390f35b34801561043157600080fd5b5061044c60048036036104479190810190614a61565b612396565b005b34801561045a57600080fd5b5061047560048036036104709190810190614a61565b612726565b005b34801561048357600080fd5b5061049e600480360361049991908101906148a9565b6128e4565b6040516104ab9190614f61565b60405180910390f35b3480156104c057600080fd5b506104db60048036036104d69190810190614a61565b612d1b565b005b3480156104e957600080fd5b5061050460048036036104ff91908101906148a9565b613026565b6040516105119190614f61565b60405180910390f35b34801561052657600080fd5b50610541600480360361053c9190810190614a61565b61345d565b604051610552959493929190614fe2565b60405180910390f35b34801561056757600080fd5b50610582600480360361057d9190810190614b1f565b6135f2565b005b34801561059057600080fd5b506105ab60048036036105a69190810190614ab3565b613a1d565b005b3480156105b957600080fd5b506105d460048036036105cf9190810190614ab3565b613bd3565b005b6105de6144dc565b60008090505b600a805490508110156108195782600a8281548110151561060157fe5b906000526020600020906007020160000154141561080c57600a8181548110151561062857fe5b906000526020600020906007020160e0604051908101604052908160008201548152602001600182018054600181600116156101000203166002900480601f0160208091040260200160405190810160405280929190818152602001828054600181600116156101000203166002900480156106e55780601f106106ba576101008083540402835291602001916106e5565b820191906000526020600020905b8154815290600101906020018083116106c857829003601f168201915b505050505081526020016002820154815260200160038201548152602001600482015481526020016005820160009054906101000a900473ffffffffffffffffffffffffffffffffffffffff1673ffffffffffffffffffffffffffffffffffffffff1673ffffffffffffffffffffffffffffffffffffffff168152602001600682018054600181600116156101000203166002900480601f0160208091040260200160405190810160405280929190818152602001828054600181600116156101000203166002900480156107fb5780601f106107d0576101008083540402835291602001916107fb565b820191906000526020600020905b8154815290600101906020018083116107de57829003601f168201915b505050505081525050915050610827565b80806001019150506105e4565b506108226144dc565b809150505b919050565b60008060008060418551141515610849576000935050505061090a565b6020850151925060408501519150606085015160001a9050601b8160ff16101561087457601b810190505b601b8160ff161415801561088c5750601c8160ff1614155b1561089d576000935050505061090a565b60018682858560405160008152602001604052604051808581526020018460ff1660ff1681526020018381526020018281526020019450505050506020604051602081039080840390855afa1580156108fa573d6000803e3d6000fd5b5050506020604051035193505050505b92915050565b6000811415151561092057600080fd5b610928614530565b600061093383613ea5565b91509150600082600001511415151561094b57600080fd5b6109536145c9565b6109618361012001516114a2565b9050806020015173ffffffffffffffffffffffffffffffffffffffff163373ffffffffffffffffffffffffffffffffffffffff161415156109a157600080fd5b600660098111156109ae57fe5b83610140015160098111156109bf57fe5b1415156109cb57600080fd5b600760009054906101000a900473ffffffffffffffffffffffffffffffffffffffff1673ffffffffffffffffffffffffffffffffffffffff1663a9059cbb8460a00151610a29866060015187604001516141ac90919063ffffffff16565b6040518363ffffffff167c0100000000000000000000000000000000000000000000000000000000028152600401610a62929190614f38565b602060405180830381600087803b158015610a7c57600080fd5b505af1158015610a90573d6000803e3d6000fd5b505050506040513d601f19601f82011682018060405250610ab491908101906148d2565b506005600b83815481101515610ac657fe5b90600052602060002090600c0201600a0160006101000a81548160ff02191690836009811115610af257fe5b021790555050505050565b6000809054906101000a900473ffffffffffffffffffffffffffffffffffffffff1673ffffffffffffffffffffffffffffffffffffffff163373ffffffffffffffffffffffffffffffffffffffff16141515610b5857600080fd5b6001600860008373ffffffffffffffffffffffffffffffffffffffff1673ffffffffffffffffffffffffffffffffffffffff16815260200190815260200160002060006101000a81548160ff02191690831515021790555050565b610bc8600154826141c890919063ffffffff16565b34141515610bd557600080fd5b80600760009054906101000a900473ffffffffffffffffffffffffffffffffffffffff1673ffffffffffffffffffffffffffffffffffffffff166370a08231306040518263ffffffff167c0100000000000000000000000000000000000000000000000000000000028152600401610c4d9190614e79565b60206040518083038186803b158015610c6557600080fd5b505afa158015610c79573d6000803e3d6000fd5b505050506040513d601f19601f82011682018060405250610c9d9190810190614a8a565b10151515610caa57600080fd5b600760009054906101000a900473ffffffffffffffffffffffffffffffffffffffff1673ffffffffffffffffffffffffffffffffffffffff1663a9059cbb33836040518363ffffffff167c0100000000000000000000000000000000000000000000000000000000028152600401610d23929190614f0f565b602060405180830381600087803b158015610d3d57600080fd5b505af1158015610d51573d6000803e3d6000fd5b505050506040513d601f19601f82011682018060405250610d7591908101906148d2565b1515610d8057600080fd5b806002600082825401925050819055507fce63ca7dc8dfc0313cea1035f873e3706e0161f9895f670682c0dab3969e36203382604051610dc1929190614f0f565b60405180910390a150565b60008114151515610ddc57600080fd5b610de4614530565b6000610def83613ea5565b915091506000826000015114151515610e0757600080fd5b8160a0015173ffffffffffffffffffffffffffffffffffffffff163373ffffffffffffffffffffffffffffffffffffffff16141515610e4557600080fd5b60016009811115610e5257fe5b8261014001516009811115610e6357fe5b141515610e6f57600080fd5b610e776144dc565b6000610e868460200151614200565b915091508160600151846080015111151515610ea157600080fd5b6002600b84815481101515610eb257fe5b90600052602060002090600c0201600a0160006101000a81548160ff02191690836009811115610ede57fe5b0217905550610f1a8460800151600a83815481101515610efa57fe5b90600052602060002090600702016003015461446590919063ffffffff16565b600a82815481101515610f2957fe5b9060005260206000209060070201600301819055507fff4fa69114c0677f6a88bfc157c0874ccb1d721fa92a870e1d262dc197face508460200151836040015186608001518760a001518860e00151604051610f89959493929190615043565b60405180910390a15050505050565b600083111515610fa757600080fd5b600082111515610fb657600080fd5b610fbe6144dc565b610fd460016005546141ac90919063ffffffff16565b6005819055506005548160000181815250508481602001819052508381604001818152505082816060018181525050338160a0019073ffffffffffffffffffffffffffffffffffffffff16908173ffffffffffffffffffffffffffffffffffffffff1681525050818160c00181905250600a819080600181540180825580915050906001820390600052602060002090600702016000909192909190915060008201518160000155602082015181600101908051906020019061109892919061460f565b5060408201518160020155606082015181600301556080820151816004015560a08201518160050160006101000a81548173ffffffffffffffffffffffffffffffffffffffff021916908373ffffffffffffffffffffffffffffffffffffffff16021790555060c082015181600601908051906020019061111a92919061460f565b505050505050505050565b6000811415151561113557600080fd5b61113d614530565b600061114883613ea5565b91509150600082600001511415151561116057600080fd5b8160e0015173ffffffffffffffffffffffffffffffffffffffff163373ffffffffffffffffffffffffffffffffffffffff1614151561119e57600080fd5b600060098111156111ab57fe5b82610140015160098111156111bc57fe5b1415156111c857600080fd5b60006111e5836060015184604001516141ac90919063ffffffff16565b9050600760009054906101000a900473ffffffffffffffffffffffffffffffffffffffff1673ffffffffffffffffffffffffffffffffffffffff1663e1f21c673330846040518463ffffffff167c010000000000000000000000000000000000000000000000000000000002815260040161126293929190614ed8565b602060405180830381600087803b15801561127c57600080fd5b505af1158015611290573d6000803e3d6000fd5b505050506040513d601f19601f820116820180604052506112b491908101906148d2565b5080600760009054906101000a900473ffffffffffffffffffffffffffffffffffffffff1673ffffffffffffffffffffffffffffffffffffffff1663dd62ed3e33306040518363ffffffff167c010000000000000000000000000000000000000000000000000000000002815260040161132f929190614eaf565b60206040518083038186803b15801561134757600080fd5b505afa15801561135b573d6000803e3d6000fd5b505050506040513d601f19601f8201168201806040525061137f9190810190614a8a565b1015151561138c57600080fd5b600760009054906101000a900473ffffffffffffffffffffffffffffffffffffffff1673ffffffffffffffffffffffffffffffffffffffff166323b872dd3330846040518463ffffffff167c010000000000000000000000000000000000000000000000000000000002815260040161140793929190614ed8565b602060405180830381600087803b15801561142157600080fd5b505af1158015611435573d6000803e3d6000fd5b505050506040513d601f19601f8201168201806040525061145991908101906148d2565b506001600b8381548110151561146b57fe5b90600052602060002090600c0201600a0160006101000a81548160ff0219169083600981111561149757fe5b021790555050505050565b6114aa6145c9565b60008090505b600c805490508110156116d15782600c828154811015156114cd57fe5b90600052602060002090600502016000015414156116c457600c818154811015156114f457fe5b906000526020600020906005020160a06040519081016040529081600082015481526020016001820160009054906101000a900473ffffffffffffffffffffffffffffffffffffffff1673ffffffffffffffffffffffffffffffffffffffff1673ffffffffffffffffffffffffffffffffffffffff168152602001600282018054600181600116156101000203166002900480601f0160208091040260200160405190810160405280929190818152602001828054600181600116156101000203166002900480156116075780601f106115dc57610100808354040283529160200191611607565b820191906000526020600020905b8154815290600101906020018083116115ea57829003601f168201915b50505050508152602001600382018054600181600116156101000203166002900480601f0160208091040260200160405190810160405280929190818152602001828054600181600116156101000203166002900480156116a95780601f1061167e576101008083540402835291602001916116a9565b820191906000526020600020905b81548152906001019060200180831161168c57829003601f168201915b505050505081526020016004820154815250509150506116df565b80806001019150506114b0565b506116da6145c9565b809150505b919050565b600084141515156116f457600080fd5b6116fc614530565b600061170786613ea5565b91509150600082600001511415151561171f57600080fd5b8160e0015173ffffffffffffffffffffffffffffffffffffffff163373ffffffffffffffffffffffffffffffffffffffff1614151561175d57600080fd5b6117656145c9565b6117738361012001516114a2565b9050806020015173ffffffffffffffffffffffffffffffffffffffff166117de8787878080601f016020809104026020016040519081016040528093929190818152602001838380828437600081840152601f19601f8201169050808301925050505050505061082c565b73ffffffffffffffffffffffffffffffffffffffff1614151561180057600080fd5b6006600981111561180d57fe5b836101400151600981111561181e57fe5b14151561182a57600080fd5b600760009054906101000a900473ffffffffffffffffffffffffffffffffffffffff1673ffffffffffffffffffffffffffffffffffffffff1663a9059cbb826020015185606001516040518363ffffffff167c01000000000000000000000000000000000000000000000000000000000281526004016118ab929190614f38565b602060405180830381600087803b1580156118c557600080fd5b505af11580156118d9573d6000803e3d6000fd5b505050506040513d601f19601f820116820180604052506118fd91908101906148d2565b506007600b8381548110151561190f57fe5b90600052602060002090600c0201600a0160006101000a81548160ff0219169083600981111561193b57fe5b021790555050505050505050565b6000841415151561195957600080fd5b611961614530565b600061196c86613ea5565b91509150600082600001511415151561198457600080fd5b8160a0015173ffffffffffffffffffffffffffffffffffffffff163373ffffffffffffffffffffffffffffffffffffffff161415156119c257600080fd5b6119ca6145c9565b6119d88361012001516114a2565b9050806020015173ffffffffffffffffffffffffffffffffffffffff16611a438787878080601f016020809104026020016040519081016040528093929190818152602001838380828437600081840152601f19601f8201169050808301925050505050505061082c565b73ffffffffffffffffffffffffffffffffffffffff16141515611a6557600080fd5b60026009811115611a7257fe5b8361014001516009811115611a8357fe5b141515611a8f57600080fd5b600760009054906101000a900473ffffffffffffffffffffffffffffffffffffffff1673ffffffffffffffffffffffffffffffffffffffff1663a9059cbb826020015185606001516040518363ffffffff167c0100000000000000000000000000000000000000000000000000000000028152600401611b10929190614f38565b602060405180830381600087803b158015611b2a57600080fd5b505af1158015611b3e573d6000803e3d6000fd5b505050506040513d601f19601f82011682018060405250611b6291908101906148d2565b506003600b83815481101515611b7457fe5b90600052602060002090600c0201600a0160006101000a81548160ff02191690836009811115611ba057fe5b021790555050505050505050565b60025481565b60008114151515611bc457600080fd5b611bcc614530565b6000611bd783613ea5565b915091506000826000015114151515611bef57600080fd5b8160a0015173ffffffffffffffffffffffffffffffffffffffff163373ffffffffffffffffffffffffffffffffffffffff16141515611c2d57600080fd5b611c46603c8361016001516141ac90919063ffffffff16565b42111515611c5357600080fd5b60046009811115611c6057fe5b8261014001516009811115611c7157fe5b141515611c7d57600080fd5b600760009054906101000a900473ffffffffffffffffffffffffffffffffffffffff1673ffffffffffffffffffffffffffffffffffffffff1663a9059cbb8360a0015184604001516040518363ffffffff167c0100000000000000000000000000000000000000000000000000000000028152600401611cfe929190614f38565b602060405180830381600087803b158015611d1857600080fd5b505af1158015611d2c573d6000803e3d6000fd5b505050506040513d601f19601f82011682018060405250611d5091908101906148d2565b506005600b82815481101515611d6257fe5b90600052602060002090600c0201600a0160006101000a81548160ff02191690836009811115611d8e57fe5b0217905550505050565b600860003373ffffffffffffffffffffffffffffffffffffffff1673ffffffffffffffffffffffffffffffffffffffff16815260200190815260200160002060009054906101000a900460ff161515611df057600080fd5b600960003373ffffffffffffffffffffffffffffffffffffffff1673ffffffffffffffffffffffffffffffffffffffff16815260200190815260200160002060009054906101000a900460ff16151515611e4957600080fd5b611e516145c9565b611e6760016006546141ac90919063ffffffff16565b60068190555060065481600001818152505033816020019073ffffffffffffffffffffffffffffffffffffffff16908173ffffffffffffffffffffffffffffffffffffffff168152505083816040018190525082816060018190525081816080018181525050600c81908060018154018082558091505090600182039060005260206000209060050201600090919290919091506000820151816000015560208201518160010160006101000a81548173ffffffffffffffffffffffffffffffffffffffff021916908373ffffffffffffffffffffffffffffffffffffffff1602179055506040820151816002019080519060200190611f6892919061460f565b506060820151816003019080519060200190611f8592919061460f565b50608082015181600401555050506001600960003373ffffffffffffffffffffffffffffffffffffffff1673ffffffffffffffffffffffffffffffffffffffff16815260200190815260200160002060006101000a81548160ff02191690831515021790555050505050565b60015481565b6060600080905060008060009050600091505b600b805490508210156120555784600b8381548110151561202757fe5b90600052602060002090600c02016009015414156120485782806001019350505b818060010192505061200a565b60608360405190808252806020026020018201604052801561209157816020015b61207e61468f565b8152602001906001900390816120765790505b509050600092505b600b8054905083101561238a5785600b848154811015156120b657fe5b90600052602060002090600c020160090154141561237d57600b838154811015156120dd57fe5b90600052602060002090600c0201610180604051908101604052908160008201548152602001600182015481526020016002820154815260200160038201548152602001600482015481526020016005820160009054906101000a900473ffffffffffffffffffffffffffffffffffffffff1673ffffffffffffffffffffffffffffffffffffffff1673ffffffffffffffffffffffffffffffffffffffff168152602001600682018054600181600116156101000203166002900480601f0160208091040260200160405190810160405280929190818152602001828054600181600116156101000203166002900480156122195780601f106121ee57610100808354040283529160200191612219565b820191906000526020600020905b8154815290600101906020018083116121fc57829003601f168201915b505050505081526020016007820160009054906101000a900473ffffffffffffffffffffffffffffffffffffffff1673ffffffffffffffffffffffffffffffffffffffff1673ffffffffffffffffffffffffffffffffffffffff168152602001600882018054600181600116156101000203166002900480601f0160208091040260200160405190810160405280929190818152602001828054600181600116156101000203166002900480156123115780601f106122e657610100808354040283529160200191612311565b820191906000526020600020905b8154815290600101906020018083116122f457829003601f168201915b5050505050815260200160098201548152602001600a820160009054906101000a900460ff16600981111561234257fe5b600981111561234d57fe5b8152602001600b82015481525050818380600101945081518110151561236f57fe5b906020019060200201819052505b8280600101935050612099565b80945050505050919050565b600081141515156123a657600080fd5b6123ae614530565b60006123b983613ea5565b9150915060008260000151141515156123d157600080fd5b8160e0015173ffffffffffffffffffffffffffffffffffffffff163373ffffffffffffffffffffffffffffffffffffffff1614151561240f57600080fd5b6004600981111561241c57fe5b826101400151600981111561242d57fe5b14151561243957600080fd5b612452603c8361016001516141ac90919063ffffffff16565b421115151561246057600080fd5b600760009054906101000a900473ffffffffffffffffffffffffffffffffffffffff1673ffffffffffffffffffffffffffffffffffffffff1663e1f21c67333085606001516040518463ffffffff167c01000000000000000000000000000000000000000000000000000000000281526004016124df93929190614ed8565b602060405180830381600087803b1580156124f957600080fd5b505af115801561250d573d6000803e3d6000fd5b505050506040513d601f19601f8201168201806040525061253191908101906148d2565b508160600151600760009054906101000a900473ffffffffffffffffffffffffffffffffffffffff1673ffffffffffffffffffffffffffffffffffffffff1663dd62ed3e33306040518363ffffffff167c01000000000000000000000000000000000000000000000000000000000281526004016125b0929190614eaf565b60206040518083038186803b1580156125c857600080fd5b505afa1580156125dc573d6000803e3d6000fd5b505050506040513d601f19601f820116820180604052506126009190810190614a8a565b1015151561260d57600080fd5b600760009054906101000a900473ffffffffffffffffffffffffffffffffffffffff1673ffffffffffffffffffffffffffffffffffffffff166323b872dd333085606001516040518463ffffffff167c010000000000000000000000000000000000000000000000000000000002815260040161268c93929190614ed8565b602060405180830381600087803b1580156126a657600080fd5b505af11580156126ba573d6000803e3d6000fd5b505050506040513d601f19601f820116820180604052506126de91908101906148d2565b506006600b828154811015156126f057fe5b90600052602060002090600c0201600a0160006101000a81548160ff0219169083600981111561271c57fe5b0217905550505050565b6000811415151561273657600080fd5b61273e614530565b600061274983613ea5565b91509150600082600001511415151561276157600080fd5b8160e0015173ffffffffffffffffffffffffffffffffffffffff163373ffffffffffffffffffffffffffffffffffffffff1614151561279f57600080fd5b600460098111156127ac57fe5b82610140015160098111156127bd57fe5b1415156127c957600080fd5b600760009054906101000a900473ffffffffffffffffffffffffffffffffffffffff1673ffffffffffffffffffffffffffffffffffffffff1663a9059cbb8360a0015184604001516040518363ffffffff167c010000000000000000000000000000000000000000000000000000000002815260040161284a929190614f38565b602060405180830381600087803b15801561286457600080fd5b505af1158015612878573d6000803e3d6000fd5b505050506040513d601f19601f8201168201806040525061289c91908101906148d2565b506005600b828154811015156128ae57fe5b90600052602060002090600c0201600a0160006101000a81548160ff021916908360098111156128da57fe5b0217905550505050565b6060600080905060008060009050600091505b600b8054905082101561298e578473ffffffffffffffffffffffffffffffffffffffff16600b8381548110151561292a57fe5b90600052602060002090600c020160050160009054906101000a900473ffffffffffffffffffffffffffffffffffffffff1673ffffffffffffffffffffffffffffffffffffffff1614156129815782806001019350505b81806001019250506128f7565b6060836040519080825280602002602001820160405280156129ca57816020015b6129b761468f565b8152602001906001900390816129af5790505b509050600092505b600b80549050831015612d0f578573ffffffffffffffffffffffffffffffffffffffff16600b84815481101515612a0557fe5b90600052602060002090600c020160050160009054906101000a900473ffffffffffffffffffffffffffffffffffffffff1673ffffffffffffffffffffffffffffffffffffffff161415612d0257600b83815481101515612a6257fe5b90600052602060002090600c0201610180604051908101604052908160008201548152602001600182015481526020016002820154815260200160038201548152602001600482015481526020016005820160009054906101000a900473ffffffffffffffffffffffffffffffffffffffff1673ffffffffffffffffffffffffffffffffffffffff1673ffffffffffffffffffffffffffffffffffffffff168152602001600682018054600181600116156101000203166002900480601f016020809104026020016040519081016040528092919081815260200182805460018160011615610100020316600290048015612b9e5780601f10612b7357610100808354040283529160200191612b9e565b820191906000526020600020905b815481529060010190602001808311612b8157829003601f168201915b505050505081526020016007820160009054906101000a900473ffffffffffffffffffffffffffffffffffffffff1673ffffffffffffffffffffffffffffffffffffffff1673ffffffffffffffffffffffffffffffffffffffff168152602001600882018054600181600116156101000203166002900480601f016020809104026020016040519081016040528092919081815260200182805460018160011615610100020316600290048015612c965780601f10612c6b57610100808354040283529160200191612c96565b820191906000526020600020905b815481529060010190602001808311612c7957829003601f168201915b5050505050815260200160098201548152602001600a820160009054906101000a900460ff166009811115612cc757fe5b6009811115612cd257fe5b8152602001600b820154815250508183806001019450815181101515612cf457fe5b906020019060200201819052505b82806001019350506129d2565b80945050505050919050565b60008114151515612d2b57600080fd5b612d33614530565b6000612d3e83613ea5565b915091506000826000015114151515612d5657600080fd5b8160e0015173ffffffffffffffffffffffffffffffffffffffff163373ffffffffffffffffffffffffffffffffffffffff16141515612d9457600080fd5b60036009811115612da157fe5b8261014001516009811115612db257fe5b1015612ee5576009600b82815481101515612dc957fe5b90600052602060002090600c0201600a0160006101000a81548160ff02191690836009811115612df557fe5b0217905550600760009054906101000a900473ffffffffffffffffffffffffffffffffffffffff1673ffffffffffffffffffffffffffffffffffffffff1663a9059cbb33612e54856060015186604001516141ac90919063ffffffff16565b6040518363ffffffff167c0100000000000000000000000000000000000000000000000000000000028152600401612e8d929190614f0f565b602060405180830381600087803b158015612ea757600080fd5b505af1158015612ebb573d6000803e3d6000fd5b505050506040513d601f19601f82011682018060405250612edf91908101906148d2565b50613021565b60066009811115612ef257fe5b8261014001516009811115612f0357fe5b141561302057600760009054906101000a900473ffffffffffffffffffffffffffffffffffffffff1673ffffffffffffffffffffffffffffffffffffffff1663a9059cbb8360a0015184604001516040518363ffffffff167c0100000000000000000000000000000000000000000000000000000000028152600401612f8a929190614f38565b602060405180830381600087803b158015612fa457600080fd5b505af1158015612fb8573d6000803e3d6000fd5b505050506040513d601f19601f82011682018060405250612fdc91908101906148d2565b506005600b82815481101515612fee57fe5b90600052602060002090600c0201600a0160006101000a81548160ff0219169083600981111561301a57fe5b02179055505b5b505050565b6060600080905060008060009050600091505b600b805490508210156130d0578473ffffffffffffffffffffffffffffffffffffffff16600b8381548110151561306c57fe5b90600052602060002090600c020160070160009054906101000a900473ffffffffffffffffffffffffffffffffffffffff1673ffffffffffffffffffffffffffffffffffffffff1614156130c35782806001019350505b8180600101925050613039565b60608360405190808252806020026020018201604052801561310c57816020015b6130f961468f565b8152602001906001900390816130f15790505b509050600092505b600b80549050831015613451578573ffffffffffffffffffffffffffffffffffffffff16600b8481548110151561314757fe5b90600052602060002090600c020160070160009054906101000a900473ffffffffffffffffffffffffffffffffffffffff1673ffffffffffffffffffffffffffffffffffffffff16141561344457600b838154811015156131a457fe5b90600052602060002090600c0201610180604051908101604052908160008201548152602001600182015481526020016002820154815260200160038201548152602001600482015481526020016005820160009054906101000a900473ffffffffffffffffffffffffffffffffffffffff1673ffffffffffffffffffffffffffffffffffffffff1673ffffffffffffffffffffffffffffffffffffffff168152602001600682018054600181600116156101000203166002900480601f0160208091040260200160405190810160405280929190818152602001828054600181600116156101000203166002900480156132e05780601f106132b5576101008083540402835291602001916132e0565b820191906000526020600020905b8154815290600101906020018083116132c357829003601f168201915b505050505081526020016007820160009054906101000a900473ffffffffffffffffffffffffffffffffffffffff1673ffffffffffffffffffffffffffffffffffffffff1673ffffffffffffffffffffffffffffffffffffffff168152602001600882018054600181600116156101000203166002900480601f0160208091040260200160405190810160405280929190818152602001828054600181600116156101000203166002900480156133d85780601f106133ad576101008083540402835291602001916133d8565b820191906000526020600020905b8154815290600101906020018083116133bb57829003601f168201915b5050505050815260200160098201548152602001600a820160009054906101000a900460ff16600981111561340957fe5b600981111561341457fe5b8152602001600b82015481525050818380600101945081518110151561343657fe5b906020019060200201819052505b8280600101935050613114565b80945050505050919050565b600c8181548110151561346c57fe5b90600052602060002090600502016000915090508060000154908060010160009054906101000a900473ffffffffffffffffffffffffffffffffffffffff1690806002018054600181600116156101000203166002900480601f0160208091040260200160405190810160405280929190818152602001828054600181600116156101000203166002900480156135445780601f1061351957610100808354040283529160200191613544565b820191906000526020600020905b81548152906001019060200180831161352757829003601f168201915b505050505090806003018054600181600116156101000203166002900480601f0160208091040260200160405190810160405280929190818152602001828054600181600116156101000203166002900480156135e25780601f106135b7576101008083540402835291602001916135e2565b820191906000526020600020905b8154815290600101906020018083116135c557829003601f168201915b5050505050908060040154905085565b6000831415151561360257600080fd5b61360a6144dc565b613613846105d6565b905080600001518414151561362757600080fd5b6000821415151561363757600080fd5b6000831415801561364c575080606001518311155b151561365757600080fd5b600760009054906101000a900473ffffffffffffffffffffffffffffffffffffffff1673ffffffffffffffffffffffffffffffffffffffff166370a08231336040518263ffffffff167c01000000000000000000000000000000000000000000000000000000000281526004016136ce9190614e94565b60206040518083038186803b1580156136e657600080fd5b505afa1580156136fa573d6000803e3d6000fd5b505050506040513d601f19601f8201168201806040525061371e9190810190614a8a565b6137358483604001516141c890919063ffffffff16565b1115151561374257600080fd5b3373ffffffffffffffffffffffffffffffffffffffff168160a0015173ffffffffffffffffffffffffffffffffffffffff161415151561378157600080fd5b613789614530565b61379f60016004546141ac90919063ffffffff16565b600481905550600454816000018181525050848160200181815250506137d28483604001516141c890919063ffffffff16565b8160400181815250506137e36145c9565b6137ec846114a2565b90508060800151826060018181525050848260800181815250508260a001518260a0019073ffffffffffffffffffffffffffffffffffffffff16908173ffffffffffffffffffffffffffffffffffffffff1681525050338260e0019073ffffffffffffffffffffffffffffffffffffffff16908173ffffffffffffffffffffffffffffffffffffffff168152505083826101200181815250506000826101400190600981111561389857fe5b908160098111156138a557fe5b81525050600b829080600181540180825580915050906001820390600052602060002090600c020160009091929091909150600082015181600001556020820151816001015560408201518160020155606082015181600301556080820151816004015560a08201518160050160006101000a81548173ffffffffffffffffffffffffffffffffffffffff021916908373ffffffffffffffffffffffffffffffffffffffff16021790555060c082015181600601908051906020019061396c92919061460f565b5060e08201518160070160006101000a81548173ffffffffffffffffffffffffffffffffffffffff021916908373ffffffffffffffffffffffffffffffffffffffff1602179055506101008201518160080190805190602001906139d192919061460f565b50610120820151816009015561014082015181600a0160006101000a81548160ff02191690836009811115613a0257fe5b021790555061016082015181600b0155505050505050505050565b60008414151515613a2d57600080fd5b613a35614530565b6000613a4086613ea5565b915091506000826000015114151515613a5857600080fd5b8160e0015173ffffffffffffffffffffffffffffffffffffffff16613ac18686868080601f016020809104026020016040519081016040528093929190818152602001838380828437600081840152601f19601f8201169050808301925050505050505061082c565b73ffffffffffffffffffffffffffffffffffffffff16141515613ae357600080fd5b613aeb6145c9565b613af98361012001516114a2565b9050806020015173ffffffffffffffffffffffffffffffffffffffff163373ffffffffffffffffffffffffffffffffffffffff16141515613b3957600080fd5b60036009811115613b4657fe5b8361014001516009811115613b5757fe5b141515613b6357600080fd5b6004600b83815481101515613b7457fe5b90600052602060002090600c0201600a0160006101000a81548160ff02191690836009811115613ba057fe5b021790555042600b83815481101515613bb557fe5b90600052602060002090600c0201600b018190555050505050505050565b60008414151515613be357600080fd5b613beb614530565b6000613bf686613ea5565b915091506000826000015114151515613c0e57600080fd5b8160a0015173ffffffffffffffffffffffffffffffffffffffff16613c778686868080601f016020809104026020016040519081016040528093929190818152602001838380828437600081840152601f19601f8201169050808301925050505050505061082c565b73ffffffffffffffffffffffffffffffffffffffff16141515613c9957600080fd5b613ca16145c9565b613caf8361012001516114a2565b9050806020015173ffffffffffffffffffffffffffffffffffffffff163373ffffffffffffffffffffffffffffffffffffffff16141515613cef57600080fd5b60076009811115613cfc57fe5b8361014001516009811115613d0d57fe5b141515613d1957600080fd5b6008600b83815481101515613d2a57fe5b90600052602060002090600c0201600a0160006101000a81548160ff02191690836009811115613d5657fe5b02179055506000613d6a846020015161447e565b9050613da38460800151600a83815481101515613d8357fe5b9060005260206000209060070201600301546141ac90919063ffffffff16565b600a82815481101515613db257fe5b906000526020600020906007020160030181905550600760009054906101000a900473ffffffffffffffffffffffffffffffffffffffff1673ffffffffffffffffffffffffffffffffffffffff1663a9059cbb8560e0015186604001516040518363ffffffff167c0100000000000000000000000000000000000000000000000000000000028152600401613e48929190614f38565b602060405180830381600087803b158015613e6257600080fd5b505af1158015613e76573d6000803e3d6000fd5b505050506040513d601f19601f82011682018060405250613e9a91908101906148d2565b505050505050505050565b613ead614530565b600080600090505b600b805490508110156141925783600b82815481101515613ed257fe5b90600052602060002090600c020160000154141561418557600b81815481101515613ef957fe5b90600052602060002090600c02018181610180604051908101604052908160008201548152602001600182015481526020016002820154815260200160038201548152602001600482015481526020016005820160009054906101000a900473ffffffffffffffffffffffffffffffffffffffff1673ffffffffffffffffffffffffffffffffffffffff1673ffffffffffffffffffffffffffffffffffffffff168152602001600682018054600181600116156101000203166002900480601f0160208091040260200160405190810160405280929190818152602001828054600181600116156101000203166002900480156140375780601f1061400c57610100808354040283529160200191614037565b820191906000526020600020905b81548152906001019060200180831161401a57829003601f168201915b505050505081526020016007820160009054906101000a900473ffffffffffffffffffffffffffffffffffffffff1673ffffffffffffffffffffffffffffffffffffffff1673ffffffffffffffffffffffffffffffffffffffff168152602001600882018054600181600116156101000203166002900480601f01602080910402602001604051908101604052809291908181526020018280546001816001161561010002031660029004801561412f5780601f106141045761010080835404028352916020019161412f565b820191906000526020600020905b81548152906001019060200180831161411257829003601f168201915b5050505050815260200160098201548152602001600a820160009054906101000a900460ff16600981111561416057fe5b600981111561416b57fe5b8152602001600b82015481525050915092509250506141a7565b8080600101915050613eb5565b5061419b614530565b80600080905092509250505b915091565b600081830190508281101515156141bf57fe5b80905092915050565b6000808314156141db57600090506141fa565b81830290508183828115156141ec57fe5b041415156141f657fe5b8090505b92915050565b6142086144dc565b600080600090505b600a8054905081101561444b5783600a8281548110151561422d57fe5b906000526020600020906007020160000154141561443e57600a8181548110151561425457fe5b9060005260206000209060070201818160e0604051908101604052908160008201548152602001600182018054600181600116156101000203166002900480601f0160208091040260200160405190810160405280929190818152602001828054600181600116156101000203166002900480156143135780601f106142e857610100808354040283529160200191614313565b820191906000526020600020905b8154815290600101906020018083116142f657829003601f168201915b505050505081526020016002820154815260200160038201548152602001600482015481526020016005820160009054906101000a900473ffffffffffffffffffffffffffffffffffffffff1673ffffffffffffffffffffffffffffffffffffffff1673ffffffffffffffffffffffffffffffffffffffff168152602001600682018054600181600116156101000203166002900480601f0160208091040260200160405190810160405280929190818152602001828054600181600116156101000203166002900480156144295780601f106143fe57610100808354040283529160200191614429565b820191906000526020600020905b81548152906001019060200180831161440c57829003601f168201915b50505050508152505091509250925050614460565b8080600101915050614210565b506144546144dc565b80600080905092509250505b915091565b600082821115151561447357fe5b818303905092915050565b600080600090505b600a805490508110156144d15782600a828154811015156144a357fe5b90600052602060002090600702016000015414156144c457809150506144d7565b8080600101915050614486565b50600090505b919050565b60e0604051908101604052806000815260200160608152602001600081526020016000815260200160008152602001600073ffffffffffffffffffffffffffffffffffffffff168152602001606081525090565b610180604051908101604052806000815260200160008152602001600081526020016000815260200160008152602001600073ffffffffffffffffffffffffffffffffffffffff16815260200160608152602001600073ffffffffffffffffffffffffffffffffffffffff1681526020016060815260200160008152602001600060098111156145bc57fe5b8152602001600081525090565b60a06040519081016040528060008152602001600073ffffffffffffffffffffffffffffffffffffffff1681526020016060815260200160608152602001600081525090565b828054600181600116156101000203166002900490600052602060002090601f016020900481019282601f1061465057805160ff191683800117855561467e565b8280016001018555821561467e579182015b8281111561467d578251825591602001919060010190614662565b5b50905061468b9190614728565b5090565b610180604051908101604052806000815260200160008152602001600081526020016000815260200160008152602001600073ffffffffffffffffffffffffffffffffffffffff16815260200160608152602001600073ffffffffffffffffffffffffffffffffffffffff16815260200160608152602001600081526020016000600981111561471b57fe5b8152602001600081525090565b61474a91905b8082111561474657600081600090555060010161472e565b5090565b90565b6000614759823561519d565b905092915050565b600061476d82516151af565b905092915050565b600061478182356151bb565b905092915050565b60008083601f840112151561479d57600080fd5b8235905067ffffffffffffffff8111156147b657600080fd5b6020830191508360018202830111156147ce57600080fd5b9250929050565b600082601f83011215156147e857600080fd5b81356147fb6147f6826150c3565b615096565b9150808252602083016020830185838301111561481757600080fd5b614822838284615217565b50505092915050565b600082601f830112151561483e57600080fd5b813561485161484c826150ef565b615096565b9150808252602083016020830185838301111561486d57600080fd5b614878838284615217565b50505092915050565b600061488d82356151c5565b905092915050565b60006148a182516151c5565b905092915050565b6000602082840312156148bb57600080fd5b60006148c98482850161474d565b91505092915050565b6000602082840312156148e457600080fd5b60006148f284828501614761565b91505092915050565b6000806040838503121561490e57600080fd5b600061491c85828601614775565b925050602083013567ffffffffffffffff81111561493957600080fd5b614945858286016147d5565b9150509250929050565b60008060006060848603121561496457600080fd5b600084013567ffffffffffffffff81111561497e57600080fd5b61498a8682870161482b565b935050602084013567ffffffffffffffff8111156149a757600080fd5b6149b38682870161482b565b92505060406149c486828701614881565b9150509250925092565b600080600080608085870312156149e457600080fd5b600085013567ffffffffffffffff8111156149fe57600080fd5b614a0a8782880161482b565b9450506020614a1b87828801614881565b9350506040614a2c87828801614881565b925050606085013567ffffffffffffffff811115614a4957600080fd5b614a558782880161482b565b91505092959194509250565b600060208284031215614a7357600080fd5b6000614a8184828501614881565b91505092915050565b600060208284031215614a9c57600080fd5b6000614aaa84828501614895565b91505092915050565b60008060008060608587031215614ac957600080fd5b6000614ad787828801614881565b9450506020614ae887828801614775565b935050604085013567ffffffffffffffff811115614b0557600080fd5b614b1187828801614789565b925092505092959194509250565b600080600060608486031215614b3457600080fd5b6000614b4286828701614881565b9350506020614b5386828701614881565b9250506040614b6486828701614881565b9150509250925092565b614b77816151cf565b82525050565b614b868161514b565b82525050565b6000614b9782615128565b80845260208401935083602082028501614bb08561511b565b60005b84811015614be9578383038852614bcb838351614cbc565b9250614bd68261513e565b9150602088019750600181019050614bb3565b508196508694505050505092915050565b614c03816151e1565b82525050565b6000614c1482615133565b808452614c28816020860160208601615226565b614c3181615259565b602085010191505092915050565b600060a083016000830151614c576000860182614e6a565b506020830151614c6a6020860182614b7d565b5060408301518482036040860152614c828282614c09565b91505060608301518482036060860152614c9c8282614c09565b9150506080830151614cb16080860182614e6a565b508091505092915050565b600061018083016000830151614cd56000860182614e6a565b506020830151614ce86020860182614e6a565b506040830151614cfb6040860182614e6a565b506060830151614d0e6060860182614e6a565b506080830151614d216080860182614e6a565b5060a0830151614d3460a0860182614b7d565b5060c083015184820360c0860152614d4c8282614c09565b91505060e0830151614d6160e0860182614b7d565b50610100830151848203610100860152614d7b8282614c09565b915050610120830151614d92610120860182614e6a565b50610140830151614da7610140860182614bfa565b50610160830151614dbc610160860182614e6a565b508091505092915050565b600060e083016000830151614ddf6000860182614e6a565b5060208301518482036020860152614df78282614c09565b9150506040830151614e0c6040860182614e6a565b506060830151614e1f6060860182614e6a565b506080830151614e326080860182614e6a565b5060a0830151614e4560a0860182614b7d565b5060c083015184820360c0860152614e5d8282614c09565b9150508091505092915050565b614e7381615193565b82525050565b6000602082019050614e8e6000830184614b7d565b92915050565b6000602082019050614ea96000830184614b6e565b92915050565b6000604082019050614ec46000830185614b6e565b614ed16020830184614b7d565b9392505050565b6000606082019050614eed6000830186614b6e565b614efa6020830185614b7d565b614f076040830184614e6a565b949350505050565b6000604082019050614f246000830185614b6e565b614f316020830184614e6a565b9392505050565b6000604082019050614f4d6000830185614b7d565b614f5a6020830184614e6a565b9392505050565b60006020820190508181036000830152614f7b8184614b8c565b905092915050565b60006020820190508181036000830152614f9d8184614c3f565b905092915050565b60006020820190508181036000830152614fbf8184614dc7565b905092915050565b6000602082019050614fdc6000830184614e6a565b92915050565b600060a082019050614ff76000830188614e6a565b6150046020830187614b7d565b81810360408301526150168186614c09565b9050818103606083015261502a8185614c09565b90506150396080830184614e6a565b9695505050505050565b600060a0820190506150586000830188614e6a565b6150656020830187614e6a565b6150726040830186614e6a565b61507f6060830185614b7d565b61508c6080830184614b7d565b9695505050505050565b6000604051905081810181811067ffffffffffffffff821117156150b957600080fd5b8060405250919050565b600067ffffffffffffffff8211156150da57600080fd5b601f19601f8301169050602081019050919050565b600067ffffffffffffffff82111561510657600080fd5b601f19601f8301169050602081019050919050565b6000602082019050919050565b600081519050919050565b600081519050919050565b6000602082019050919050565b600061515682615173565b9050919050565b6000600a8210151561516b57fe5b819050919050565b600073ffffffffffffffffffffffffffffffffffffffff82169050919050565b6000819050919050565b60006151a882615173565b9050919050565b60008115159050919050565b6000819050919050565b6000819050919050565b60006151da826151f3565b9050919050565b60006151ec8261515d565b9050919050565b60006151fe82615205565b9050919050565b600061521082615173565b9050919050565b82818337600083830152505050565b60005b83811015615244578082015181840152602081019050615229565b83811115615253576000848401525b50505050565b6000601f19601f830116905091905056fea265627a7a72305820086c8f5ad3d34e61e63d0d2811dc74fcd53f3e7a20ef17d68e048780ffc80cb26c6578706572696d656e74616cf50037",
  "source": "pragma solidity ^0.5.0;\npragma experimental ABIEncoderV2;\n\nimport \"./RUCToken.sol\";\n//import \"./SafeMath.sol\";\n\ncontract RUCMarket {\n    \n  using SafeMath for uint256;\n\n  address payable admin;\n  uint256 public tokenPrice;\n  uint256 public tokensSold;\n\n  uint requestedProducts;\n  uint totalOrderNumber = 0;\n  uint totalProductNumber = 0;\n  uint totalCourierNumber = 0;\n  \n\n  RUCToken token;\n\n  enum State {REQUESTED, PAYED, SELLER_COMFIRMED, SELLER_SENT, \n  BUYER_GOT, COMPLETED, WILL_RETURN, BUYER_SENT, SELLER_GOT, CANCLED}\n\n  struct Order {\n    uint id;\n    uint productId;\n    uint productValue;\n    uint deliverFee;\n    uint number;\n    address seller;\n    string sellAddress;\n    address buyer;\n    string buyerAddress;\n    uint courierId;\n    State state;\n    uint deliverTime; \n  }\n  \n  struct Product {\n    uint id;\n    string name;\n    uint price;\n    uint number;\n    uint unconfirmedRequests;\n    address seller;\n    string url;\n  }\n  \n  \n  struct Courier {\n      uint id;\n      address accountAddress;\n      string companyName;\n      string publicKey;\n      uint fee;\n  }\n  \n  //mapping (address => AddressInfo) addressTable;\n  //mapping (address => bool) registerTable;\n  mapping (address => bool) certifiedCourier; // for admin to certify courier\n  mapping (address => bool) isCourier;  // for check if a courier double registers\n\n  Product[] products;\n  Order[] orders;\n  Courier[] public couriers;\n  \n \n  event Purchase(uint _productId, uint _price, uint _number, address _seller, address _buyer);\n  event TokenSell(address _buyer, uint256 _amount);\n  \n  constructor(RUCToken _tokenContract, uint256 _tokenPrice) public {\n    token = _tokenContract;\n    admin = msg.sender;\n    tokenPrice = _tokenPrice;\n  }\n  \n\n/************************ Token Part **************************************************************/\n\n  function buyTokens(uint256 _numberOfTokens) public payable {\n\n    // Require that value is equal to tokens\n    require(msg.value == _numberOfTokens.mul(tokenPrice));\n\n    // Require that the contract has enough tokens\n    require(token.balanceOf(address(this))>= _numberOfTokens);\n\n    // Require that a transfer is successful\n    require(token.transfer(msg.sender, _numberOfTokens));\n\n    // Keep track of tokensSold\n    tokensSold += _numberOfTokens;\n\n    // Trigger Sell Event\n    emit TokenSell(msg.sender, _numberOfTokens);\n  }\n  \n  \n  /************************ Purchase Part **************************************************************/\n  \n  function addCourier(address _courierAddress) public{\n    require(msg.sender == admin);         // only by admin\n    certifiedCourier[_courierAddress] = true;\n  }\n\n  function courierRegister(string memory _companyName, string memory _publicKey, uint _fee) public {\n      require(certifiedCourier[msg.sender]); // require msg.sender to be already certified\n      require(!isCourier[msg.sender]); // prevent double register\n      \n      Courier memory _courier;\n      totalCourierNumber = totalCourierNumber.add(1);\n      _courier.id = totalCourierNumber; //id = totalCourierNumber \n      _courier.accountAddress = msg.sender;\n      _courier.companyName = _companyName;\n      _courier.publicKey = _publicKey;\n      _courier.fee = _fee;\n      \n      couriers.push(_courier);\n      isCourier[msg.sender] = true;\n  }\n  \n  function addProduct(string memory _name, uint _price, uint _number, string memory _url) public {\n    require(_price > 0);\n    require(_number > 0);\n    \n    Product memory _product;\n    totalProductNumber = totalProductNumber.add(1);\n    _product.id = totalProductNumber; //id = totalProductNumber\n    _product.name = _name;\n    _product.price = _price;\n    _product.number = _number;\n    _product.seller = msg.sender;\n    _product.url = _url;\n    products.push(_product);\n  }\n\n  \n  function purchaseRequest(uint _productId, uint _requestNumber, uint _courierId) external {\n    require(_productId != 0);\n    \n    //(Product memory _product, uint _productIndex) = findProductAndIndexById(_productId);\n    Product memory _product = findProductById(_productId);\n    require(_productId == _product.id); //_product does exist\n    //require(_courierId > 0 && _courierId <= couriers.length);\n    require(_courierId !=0);\n    require(_requestNumber != 0 && _requestNumber <= _product.number);\n    require((_product.price.mul(_requestNumber)) <= token.balanceOf(msg.sender));\n    require(_product.seller != msg.sender); // can not buy things from one himself\n    \n    Order memory _order;\n    totalOrderNumber = totalOrderNumber.add(1);\n    _order.id = totalOrderNumber; // order id = totalOrderNumber\n    _order.productId = _productId;\n    _order.productValue = _product.price.mul(_requestNumber); // number * price \n    Courier memory _courier = findCourierById(_courierId);\n    _order.deliverFee = _courier.fee; //deliver fee\n    _order.number = _requestNumber;\n    _order.seller = _product.seller;\n    _order.buyer = msg.sender;\n    _order.courierId = _courierId;\n    _order.state = State.REQUESTED;\n\n    orders.push(_order);\n    \n  }\n  \n  \n  function buyerPayOrder(uint _orderId) external {\n      require(_orderId !=0);\n      \n      (Order memory _order,uint _orderIndex) = findOrderAndIndexById(_orderId);\n      require(_order.id != 0); // order exist\n      \n      require(msg.sender == _order.buyer);\n      require(_order.state == State.REQUESTED);\n      \n      uint totalValue = _order.productValue.add(_order.deliverFee); //totalValue = productValue + deliverFee\n      token.approve(msg.sender, address(this), totalValue);\n      require(token.allowance(msg.sender, address(this)) >= totalValue);\n      token.transferFrom(msg.sender, address(this), totalValue);\n      orders[_orderIndex].state = State.PAYED;\n      \n  }\n  \n  function sellerComfirmOrder(uint _orderId) external {\n      require(_orderId != 0);\n      (Order memory _order,uint _orderIndex) = findOrderAndIndexById(_orderId);\n      require(_order.id != 0); // order exist\n      \n      require(msg.sender == _order.seller );\n      require(_order.state == State.PAYED);  // require preious state\n      (Product memory _product,uint _productIndex) = findProductAndIndexById(_order.productId);\n      require(_order.number <= _product.number);\n      \n      \n      \n      orders[_orderIndex].state = State.SELLER_COMFIRMED; //change state to \"...\"\n      products[_productIndex].number = products[_productIndex].number.sub(_order.number); // update product number\n      \n      emit Purchase( _order.productId, _product.price, _order.number, _order.seller, _order.buyer);\n  }\n  \n  function sellerSendProduct(uint _orderId, bytes32 _hash, bytes calldata _sig) external {\n      require(_orderId != 0);\n      (Order memory _order,uint _orderIndex) = findOrderAndIndexById(_orderId);\n      require(_order.id != 0); // order exist\n      require(msg.sender == _order.seller); //msg.sender == order's seller\n      \n      Courier memory _courier = findCourierById(_order.courierId);\n      require(recover(_hash,_sig) == _courier.accountAddress); // verify signature from courier\n      \n      require(_order.state == State.SELLER_COMFIRMED); // state == SELLER_COMFIRMED\n      \n      token.transfer(_courier.accountAddress, _order.deliverFee); // pay deliver fee\n      orders[_orderIndex].state = State.SELLER_SENT; //change state to \"SELLER_SENT\"\n  }\n  \n  function productDeliveredToBuyer(uint _orderId, bytes32 _hash, bytes calldata _sig) external {\n      require(_orderId != 0);\n      (Order memory _order,uint _orderIndex) = findOrderAndIndexById(_orderId);\n      require(_order.id != 0); // order exist\n      \n      require(recover(_hash,_sig) == _order.buyer); // verify signature from buyer\n      \n      Courier memory _courier = findCourierById(_order.courierId);\n      require(msg.sender == _courier.accountAddress); //msg.sender == order's courier\n      \n      require(_order.state == State.SELLER_SENT); // require previous state\n      \n      //token.transferFrom(address(this), _order.seller, _order.productValue);\n      orders[_orderIndex].state = State.BUYER_GOT;\n      orders[_orderIndex].deliverTime = now; // set the deliverTime as 'now'\n  }\n  \n  function buyerConfirm(uint _orderId) external {\n      require(_orderId != 0);\n      (Order memory _order,uint _orderIndex) = findOrderAndIndexById(_orderId);\n      require(_order.id != 0); // order exist\n      \n      require(msg.sender == _order.buyer); // msg.sender == buyer\n      require(_order.state == State.BUYER_GOT); // require previous state\n      \n      //token.transferFrom(address(this), _order.seller, _order.productValue);\n      token.transfer(_order.seller, _order.productValue);\n      orders[_orderIndex].state = State.COMPLETED;\n  }\n  \n  function sellerGetMoneyFromOrder(uint _orderId) external {\n      require(_orderId != 0);\n      (Order memory _order,uint _orderIndex) = findOrderAndIndexById(_orderId);\n      require(_order.id != 0); // order exist\n      \n      require(msg.sender == _order.seller); //msg.sender == seller\n      require(now > _order.deliverTime.add(1 minutes)); // consideration time is over\n      require(_order.state == State.BUYER_GOT); // Has't been confirmed\n      \n      //token.transferFrom(address(this), _order.seller, _order.productValue);\n      token.transfer(_order.seller, _order.productValue);\n      orders[_orderIndex].state = State.COMPLETED;\n  }\n  \n  function buyerWillRuturnProduct(uint _orderId) external {\n      require(_orderId !=0);\n      \n      (Order memory _order,uint _orderIndex) = findOrderAndIndexById(_orderId);\n      require(_order.id != 0); // order exist\n      \n      require(msg.sender == _order.buyer);\n      require(_order.state == State.BUYER_GOT); // state == BUYER_GOT\n      require(now <= _order.deliverTime.add(1 minutes)); // within the consideration time limit\n      \n      token.approve(msg.sender, address(this), _order.deliverFee);\n      require(token.allowance(msg.sender, address(this)) >= _order.deliverFee);\n      token.transferFrom(msg.sender, address(this), _order.deliverFee);\n      orders[_orderIndex].state = State.WILL_RETURN;\n      \n  }\n  \n  function buyerSendProduct(uint _orderId, bytes32 _hash, bytes calldata _sig) external {\n      require(_orderId != 0);\n      (Order memory _order,uint _orderIndex) = findOrderAndIndexById(_orderId);\n      require(_order.id != 0); // order exist\n      require(msg.sender == _order.buyer); //msg.sender == order's buyer\n      \n      Courier memory _courier = findCourierById(_order.courierId);\n      require(recover(_hash,_sig) == _courier.accountAddress); // verify signature\n      \n      require(_order.state == State.WILL_RETURN); // state == WILL_RETURN\n      \n      token.transfer(_courier.accountAddress, _order.deliverFee); // pay deliver fee\n      orders[_orderIndex].state = State.BUYER_SENT; //change state to \"SELLER_SENT\"\n  }\n  \n  function productDeliveredToSeller(uint _orderId, bytes32 _hash, bytes calldata _sig) external {\n      require(_orderId != 0);\n      (Order memory _order,uint _orderIndex) = findOrderAndIndexById(_orderId);\n      require(_order.id != 0); // order exist\n      \n      require(recover(_hash,_sig) == _order.seller); // verify signature from seller\n      \n      Courier memory _courier = findCourierById(_order.courierId);\n      require(msg.sender == _courier.accountAddress); //msg.sender == order's courier\n\n      require(_order.state == State.BUYER_SENT); // require previous state\n      \n      //token.transferFrom(address(this), _order.seller, _order.productValue);\n      orders[_orderIndex].state = State.SELLER_GOT;\n      //orders[_orderIndex].deliverTime = now; // reset the deliverTime as 'now'\n      \n      //add product number\n      uint _productIndex = findProductIndexById(_order.productId);\n      products[_productIndex].number = products[_productIndex].number.add(_order.number);\n      \n      token.transfer(_order.buyer, _order.productValue); // return the money back to buyer\n  }\n  \n  function cancleByBuyer(uint _orderId) external {\n      require(_orderId != 0);\n      (Order memory _order,uint _orderIndex) = findOrderAndIndexById(_orderId);\n      require(_order.id != 0); // order exist\n      \n      require(msg.sender == _order.buyer); // only buyer call this cancle  \n      \n      /*two cases:\n        1. before seller send products: buyer can get all the money (token) back\n        2. after buyer got the products, before he sends \n        (which is state WILL_RETURN): similer to buyerConfirm()*/\n      if(_order.state < State.SELLER_SENT) { // 1. before seller sent\n          orders[_orderIndex].state = State.CANCLED; // set state as CANCLED\n          token.transfer(msg.sender, _order.productValue.add(_order.deliverFee)); // transfer token back\n      }\n      else if(_order.state == State.WILL_RETURN){\n          token.transfer(_order.seller, _order.productValue);\n          orders[_orderIndex].state = State.COMPLETED;\n      }\n  }\n  \n  function cancleByCourier(uint _orderId) external {\n      /* Situation: \n      courier help qulify the product, and the returning products don't match the requirement.\n      */\n      \n      require(_orderId != 0);\n      (Order memory _order,uint _orderIndex) = findOrderAndIndexById(_orderId);\n      require(_order.id != 0); // order exist\n      \n      Courier memory _courier = findCourierById(_order.courierId);\n      require(msg.sender == _courier.accountAddress); // only courier call this cancle  \n      require(_order.state == State.WILL_RETURN);\n      \n      token.transfer(_order.seller, _order.productValue.add(_order.deliverFee));\n      orders[_orderIndex].state = State.COMPLETED;\n  }\n  /****************************** Find and Get methods***********************************/\n  /*\n  function getProductName(uint _productId) external view returns(string memory) {\n    Product memory _product = findProductById(_productId);\n    return _product.name;\n  }\n\n  function getProductPrice(uint _productId) external view returns(uint) {\n    Product memory _product = findProductById(_productId);\n    return _product.price;\n  }\n\n  function getProductNumber(uint _productId) external view returns(uint) {\n    Product memory _product = findProductById(_productId);\n    return _product.number;\n  }\n\n  function getProductSeller(uint _productId) external view returns(address) {\n    Product memory _product = findProductById(_productId);\n    return _product.seller;\n  }*/\n  \n  function findOrderAndIndexById(uint _orderId) internal view returns(Order memory, uint) {\n    for(uint i = 0; i < orders.length; i++) {\n       if(orders[i].id == _orderId){\n         return (orders[i], i);\n       }\n    }\n    \n    Order memory order;\n    \n    return (order, 0);\n  }\n  \n  function findOrderById(uint _orderid) internal view returns(Order memory){\n      for(uint i = 0; i < orders.length; i++){\n          if(orders[i].id == _orderid)\n            return orders[i];\n      }\n      \n      Order memory order;\n      return order;\n  }\n\n  function findOrdersBySeller(address _seller) external view returns(Order[] memory) {\n    uint count = 0;\n    uint i;\n    uint j = 0;\n    for(i = 0; i < orders.length; i++){\n      if(orders[i].seller == _seller){\n        count ++;\n      }\n    }\n\n    Order[] memory results = new Order[](count);\n\n    for(i = 0; i < orders.length; i++){\n      if(orders[i].seller == _seller){\n        results[j++] = orders[i];\n      }\n    }\n\n    return results;\n  }\n  \n  function findOrdersByBuyer(address _buyer) external view returns(Order[] memory) {\n    uint count = 0;\n    uint i;\n    uint j = 0;\n    for(i = 0; i < orders.length; i++){\n      if(orders[i].buyer == _buyer){\n        count ++;\n      }\n    }\n\n    Order[] memory results = new Order[](count);\n\n    for(i = 0; i < orders.length; i++){\n      if(orders[i].buyer == _buyer){\n        results[j++] = orders[i];\n      }\n    }\n      return results;\n  }\n  \n  function findOrdersBycourierId(uint _courierId) external view returns(Order[] memory) {\n    uint count = 0;\n    uint i;\n    uint j = 0;\n    for(i = 0; i < orders.length; i++){\n      if(orders[i].courierId == _courierId){\n        count ++;\n      }\n    }\n\n    Order[] memory results = new Order[](count);\n\n    for(i = 0; i < orders.length; i++){\n      if(orders[i].courierId == _courierId){\n        results[j++] = orders[i];\n      }\n    }\n\n    return results;\n  }\n\n\n\n  function findProductAndIndexById(uint _productId) internal view returns(Product memory, uint) {\n    for(uint i = 0; i < products.length; i++) {\n       if(products[i].id == _productId){\n         return (products[i], i);\n       }\n    }\n    \n    Product memory product;\n    \n    return (product, 0);\n  }\n  \n  function findProductIndexById(uint _productId) internal view returns(uint) {\n    for(uint i = 0; i < products.length; i++) {\n       if(products[i].id == _productId){\n         return i;\n       }\n    }\n    \n    return 0;\n  }\n  \n  function findProductById(uint _productId) public view returns(Product memory) {\n    for(uint i = 0; i < products.length; i++) {\n       if(products[i].id == _productId){\n         return products[i];\n       }\n    }\n    \n    Product memory product;\n    \n    return product;\n  }\n  \n  function findCourierById(uint _courierId) public view returns(Courier memory) {\n    for(uint i = 0; i < couriers.length; i++) {\n       if(couriers[i].id == _courierId){\n         return couriers[i];\n       }\n    }\n    \n    Courier memory courier;\n    \n    return courier;\n  }\n/*********************************Verify Signature*****************************************/\n  function recover(bytes32 hash, bytes memory signature)\n      public\n      pure\n      returns (address)\n    {\n      bytes32 r;\n      bytes32 s;\n      uint8 v;\n\n      // Check the signature length\n      if (signature.length != 65) {\n        return (address(0));\n      }\n\n      // Divide the signature in r, s and v variables\n      // ecrecover takes the signature parameters, and the only way to get them\n      // currently is to use assembly.\n      // solium-disable-next-line security/no-inline-assembly\n      assembly {\n        r := mload(add(signature, 0x20))\n        s := mload(add(signature, 0x40))\n        v := byte(0, mload(add(signature, 0x60)))\n      }\n\n      // Version of signature should be 27 or 28, but 0 and 1 are also possible versions\n      if (v < 27) {\n        v += 27;\n      }\n\n      // If the version is correct return the signer address\n      if (v != 27 && v != 28) {\n        return (address(0));\n      } else {\n        // solium-disable-next-line arg-overflow\n        return ecrecover(hash, v, r, s);\n      }\n    }\n\n}",
  "sourcePath": "/home/elaine/RUCMarket/contracts/RUCMarket.sol",
  "compiler": {
    "name": "solc",
    "version": "0.5.0+commit.1d4f565a.Emscripten.clang"
  },
  "schemaVersion": "3.0.1",
  "updatedAt": "2019-04-17T02:44:38.335Z",
  "devdoc": {
    "methods": {}
  },
  "userdoc": {
    "methods": {
      "addCourier(address)": {
        "notice": "********************** Purchase Part *************************************************************"
      },
      "buyTokens(uint256)": {
        "notice": "********************** Token Part *************************************************************"
      },
      "recover(bytes32,bytes)": {
        "notice": "*******************************Verify Signature****************************************"
      }
    }
  }
}