{
  "contractName": "RUCMarket",
  "abi": [
    {
      "constant": true,
      "inputs": [],
      "name": "tokensSold",
      "outputs": [
        {
          "name": "",
          "type": "uint256"
        }
      ],
      "payable": false,
      "stateMutability": "view",
      "type": "function",
      "signature": "0x518ab2a8"
    },
    {
      "constant": true,
      "inputs": [
        {
          "name": "",
          "type": "uint256"
        }
      ],
      "name": "products",
      "outputs": [
        {
          "name": "id",
          "type": "uint256"
        },
        {
          "name": "name",
          "type": "string"
        },
        {
          "name": "price",
          "type": "uint256"
        },
        {
          "name": "number",
          "type": "uint256"
        },
        {
          "name": "seller",
          "type": "address"
        },
        {
          "name": "url",
          "type": "string"
        }
      ],
      "payable": false,
      "stateMutability": "view",
      "type": "function",
      "signature": "0x7acc0b20"
    },
    {
      "constant": true,
      "inputs": [],
      "name": "tokenPrice",
      "outputs": [
        {
          "name": "",
          "type": "uint256"
        }
      ],
      "payable": false,
      "stateMutability": "view",
      "type": "function",
      "signature": "0x7ff9b596"
    },
    {
      "constant": true,
      "inputs": [
        {
          "name": "",
          "type": "uint256"
        }
      ],
      "name": "couriers",
      "outputs": [
        {
          "name": "id",
          "type": "uint256"
        },
        {
          "name": "accountAddress",
          "type": "address"
        },
        {
          "name": "companyName",
          "type": "string"
        },
        {
          "name": "publicKey",
          "type": "string"
        },
        {
          "name": "fee",
          "type": "uint256"
        }
      ],
      "payable": false,
      "stateMutability": "view",
      "type": "function",
      "signature": "0xe2da3610"
    },
    {
      "inputs": [
        {
          "name": "_tokenContract",
          "type": "address"
        },
        {
          "name": "_tokenPrice",
          "type": "uint256"
        }
      ],
      "payable": false,
      "stateMutability": "nonpayable",
      "type": "constructor",
      "signature": "constructor"
    },
    {
      "anonymous": false,
      "inputs": [
        {
          "indexed": false,
          "name": "_productId",
          "type": "uint256"
        },
        {
          "indexed": false,
          "name": "_price",
          "type": "uint256"
        },
        {
          "indexed": false,
          "name": "_number",
          "type": "uint256"
        },
        {
          "indexed": false,
          "name": "_seller",
          "type": "address"
        },
        {
          "indexed": false,
          "name": "_buyer",
          "type": "address"
        }
      ],
      "name": "Purchase",
      "type": "event",
      "signature": "0xff4fa69114c0677f6a88bfc157c0874ccb1d721fa92a870e1d262dc197face50"
    },
    {
      "anonymous": false,
      "inputs": [
        {
          "indexed": false,
          "name": "_buyer",
          "type": "address"
        },
        {
          "indexed": false,
          "name": "_amount",
          "type": "uint256"
        }
      ],
      "name": "TokenSell",
      "type": "event",
      "signature": "0xce63ca7dc8dfc0313cea1035f873e3706e0161f9895f670682c0dab3969e3620"
    },
    {
      "constant": false,
      "inputs": [
        {
          "name": "_numberOfTokens",
          "type": "uint256"
        }
      ],
      "name": "buyTokens",
      "outputs": [],
      "payable": true,
      "stateMutability": "payable",
      "type": "function",
      "signature": "0x3610724e"
    },
    {
      "constant": false,
      "inputs": [
        {
          "name": "_courierAddress",
          "type": "address"
        }
      ],
      "name": "addCourier",
      "outputs": [],
      "payable": false,
      "stateMutability": "nonpayable",
      "type": "function",
      "signature": "0x2445d6d7"
    },
    {
      "constant": false,
      "inputs": [
        {
          "name": "_companyName",
          "type": "string"
        },
        {
          "name": "_publicKey",
          "type": "string"
        },
        {
          "name": "_fee",
          "type": "uint256"
        }
      ],
      "name": "courierRegister",
      "outputs": [],
      "payable": false,
      "stateMutability": "nonpayable",
      "type": "function",
      "signature": "0x705862e0"
    },
    {
      "constant": false,
      "inputs": [
        {
          "name": "_name",
          "type": "string"
        },
        {
          "name": "_price",
          "type": "uint256"
        },
        {
          "name": "_number",
          "type": "uint256"
        },
        {
          "name": "_url",
          "type": "string"
        }
      ],
      "name": "addProduct",
      "outputs": [],
      "payable": false,
      "stateMutability": "nonpayable",
      "type": "function",
      "signature": "0x38789d3a"
    },
    {
      "constant": false,
      "inputs": [
        {
          "name": "_productId",
          "type": "uint256"
        },
        {
          "name": "_requestNumber",
          "type": "uint256"
        },
        {
          "name": "_courierId",
          "type": "uint256"
        }
      ],
      "name": "purchaseRequest",
      "outputs": [],
      "payable": false,
      "stateMutability": "nonpayable",
      "type": "function",
      "signature": "0xef8536fb"
    },
    {
      "constant": false,
      "inputs": [
        {
          "name": "_orderId",
          "type": "uint256"
        }
      ],
      "name": "buyerPayOrder",
      "outputs": [],
      "payable": false,
      "stateMutability": "nonpayable",
      "type": "function",
      "signature": "0x3cb80eb0"
    },
    {
      "constant": false,
      "inputs": [
        {
          "name": "_orderId",
          "type": "uint256"
        }
      ],
      "name": "sellerComfirmOrder",
      "outputs": [],
      "payable": false,
      "stateMutability": "nonpayable",
      "type": "function",
      "signature": "0x374b93c8"
    },
    {
      "constant": false,
      "inputs": [
        {
          "name": "_orderId",
          "type": "uint256"
        },
        {
          "name": "_hash",
          "type": "bytes32"
        },
        {
          "name": "_sig",
          "type": "bytes"
        }
      ],
      "name": "sellerSendProduct",
      "outputs": [],
      "payable": false,
      "stateMutability": "nonpayable",
      "type": "function",
      "signature": "0x4eae589b"
    },
    {
      "constant": false,
      "inputs": [
        {
          "name": "_orderId",
          "type": "uint256"
        },
        {
          "name": "_hash",
          "type": "bytes32"
        },
        {
          "name": "_sig",
          "type": "bytes"
        }
      ],
      "name": "productDeliveredToBuyer",
      "outputs": [],
      "payable": false,
      "stateMutability": "nonpayable",
      "type": "function",
      "signature": "0xf1a2376e"
    },
    {
      "constant": false,
      "inputs": [
        {
          "name": "_orderId",
          "type": "uint256"
        }
      ],
      "name": "buyerConfirm",
      "outputs": [],
      "payable": false,
      "stateMutability": "nonpayable",
      "type": "function",
      "signature": "0x888487cd"
    },
    {
      "constant": false,
      "inputs": [
        {
          "name": "_orderId",
          "type": "uint256"
        }
      ],
      "name": "sellerGetMoneyFromOrder",
      "outputs": [],
      "payable": false,
      "stateMutability": "nonpayable",
      "type": "function",
      "signature": "0x67bd9eea"
    },
    {
      "constant": false,
      "inputs": [
        {
          "name": "_orderId",
          "type": "uint256"
        }
      ],
      "name": "buyerWillRuturnProduct",
      "outputs": [],
      "payable": false,
      "stateMutability": "nonpayable",
      "type": "function",
      "signature": "0x8784b39e"
    },
    {
      "constant": false,
      "inputs": [
        {
          "name": "_orderId",
          "type": "uint256"
        },
        {
          "name": "_hash",
          "type": "bytes32"
        },
        {
          "name": "_sig",
          "type": "bytes"
        }
      ],
      "name": "buyerSendProduct",
      "outputs": [],
      "payable": false,
      "stateMutability": "nonpayable",
      "type": "function",
      "signature": "0x41c10b1b"
    },
    {
      "constant": false,
      "inputs": [
        {
          "name": "_orderId",
          "type": "uint256"
        },
        {
          "name": "_hash",
          "type": "bytes32"
        },
        {
          "name": "_sig",
          "type": "bytes"
        }
      ],
      "name": "productDeliveredToSeller",
      "outputs": [],
      "payable": false,
      "stateMutability": "nonpayable",
      "type": "function",
      "signature": "0xf8747894"
    },
    {
      "constant": false,
      "inputs": [
        {
          "name": "_orderId",
          "type": "uint256"
        }
      ],
      "name": "cancleByBuyer",
      "outputs": [],
      "payable": false,
      "stateMutability": "nonpayable",
      "type": "function",
      "signature": "0xcd828eb2"
    },
    {
      "constant": false,
      "inputs": [
        {
          "name": "_orderId",
          "type": "uint256"
        }
      ],
      "name": "cancleByCourier",
      "outputs": [],
      "payable": false,
      "stateMutability": "nonpayable",
      "type": "function",
      "signature": "0x234142f8"
    },
    {
      "constant": true,
      "inputs": [],
      "name": "productsNumber",
      "outputs": [
        {
          "name": "",
          "type": "uint256"
        }
      ],
      "payable": false,
      "stateMutability": "view",
      "type": "function",
      "signature": "0xb8aff60f"
    },
    {
      "constant": true,
      "inputs": [
        {
          "name": "_seller",
          "type": "address"
        }
      ],
      "name": "findOrdersBySeller",
      "outputs": [
        {
          "components": [
            {
              "name": "id",
              "type": "uint256"
            },
            {
              "name": "productId",
              "type": "uint256"
            },
            {
              "name": "productValue",
              "type": "uint256"
            },
            {
              "name": "deliverFee",
              "type": "uint256"
            },
            {
              "name": "number",
              "type": "uint256"
            },
            {
              "name": "seller",
              "type": "address"
            },
            {
              "name": "sellAddress",
              "type": "string"
            },
            {
              "name": "buyer",
              "type": "address"
            },
            {
              "name": "buyerAddress",
              "type": "string"
            },
            {
              "name": "courierId",
              "type": "uint256"
            },
            {
              "name": "state",
              "type": "uint8"
            },
            {
              "name": "deliverTime",
              "type": "uint256"
            }
          ],
          "name": "",
          "type": "tuple[]"
        }
      ],
      "payable": false,
      "stateMutability": "view",
      "type": "function",
      "signature": "0x9e0125e3"
    },
    {
      "constant": true,
      "inputs": [
        {
          "name": "_buyer",
          "type": "address"
        }
      ],
      "name": "findOrdersByBuyer",
      "outputs": [
        {
          "components": [
            {
              "name": "id",
              "type": "uint256"
            },
            {
              "name": "productId",
              "type": "uint256"
            },
            {
              "name": "productValue",
              "type": "uint256"
            },
            {
              "name": "deliverFee",
              "type": "uint256"
            },
            {
              "name": "number",
              "type": "uint256"
            },
            {
              "name": "seller",
              "type": "address"
            },
            {
              "name": "sellAddress",
              "type": "string"
            },
            {
              "name": "buyer",
              "type": "address"
            },
            {
              "name": "buyerAddress",
              "type": "string"
            },
            {
              "name": "courierId",
              "type": "uint256"
            },
            {
              "name": "state",
              "type": "uint8"
            },
            {
              "name": "deliverTime",
              "type": "uint256"
            }
          ],
          "name": "",
          "type": "tuple[]"
        }
      ],
      "payable": false,
      "stateMutability": "view",
      "type": "function",
      "signature": "0xddf6949f"
    },
    {
      "constant": true,
      "inputs": [
        {
          "name": "_courierId",
          "type": "uint256"
        }
      ],
      "name": "findOrdersBycourierId",
      "outputs": [
        {
          "components": [
            {
              "name": "id",
              "type": "uint256"
            },
            {
              "name": "productId",
              "type": "uint256"
            },
            {
              "name": "productValue",
              "type": "uint256"
            },
            {
              "name": "deliverFee",
              "type": "uint256"
            },
            {
              "name": "number",
              "type": "uint256"
            },
            {
              "name": "seller",
              "type": "address"
            },
            {
              "name": "sellAddress",
              "type": "string"
            },
            {
              "name": "buyer",
              "type": "address"
            },
            {
              "name": "buyerAddress",
              "type": "string"
            },
            {
              "name": "courierId",
              "type": "uint256"
            },
            {
              "name": "state",
              "type": "uint8"
            },
            {
              "name": "deliverTime",
              "type": "uint256"
            }
          ],
          "name": "",
          "type": "tuple[]"
        }
      ],
      "payable": false,
      "stateMutability": "view",
      "type": "function",
      "signature": "0x875fc626"
    },
    {
      "constant": true,
      "inputs": [
        {
          "name": "_productId",
          "type": "uint256"
        }
      ],
      "name": "findProductById",
      "outputs": [
        {
          "components": [
            {
              "name": "id",
              "type": "uint256"
            },
            {
              "name": "name",
              "type": "string"
            },
            {
              "name": "price",
              "type": "uint256"
            },
            {
              "name": "number",
              "type": "uint256"
            },
            {
              "name": "seller",
              "type": "address"
            },
            {
              "name": "url",
              "type": "string"
            }
          ],
          "name": "",
          "type": "tuple"
        }
      ],
      "payable": false,
      "stateMutability": "view",
      "type": "function",
      "signature": "0x14082cd2"
    },
    {
      "constant": true,
      "inputs": [
        {
          "name": "_courierId",
          "type": "uint256"
        }
      ],
      "name": "findCourierById",
      "outputs": [
        {
          "components": [
            {
              "name": "id",
              "type": "uint256"
            },
            {
              "name": "accountAddress",
              "type": "address"
            },
            {
              "name": "companyName",
              "type": "string"
            },
            {
              "name": "publicKey",
              "type": "string"
            },
            {
              "name": "fee",
              "type": "uint256"
            }
          ],
          "name": "",
          "type": "tuple"
        }
      ],
      "payable": false,
      "stateMutability": "view",
      "type": "function",
      "signature": "0x4090d5d2"
    },
    {
      "constant": true,
      "inputs": [
        {
          "name": "hash",
          "type": "bytes32"
        },
        {
          "name": "signature",
          "type": "bytes"
        }
      ],
      "name": "recover",
      "outputs": [
        {
          "name": "",
          "type": "address"
        }
      ],
      "payable": false,
      "stateMutability": "pure",
      "type": "function",
      "signature": "0x19045a25"
    }
  ],
  "bytecode": "0x60806040526000600455600060055560006006553480156200002057600080fd5b50604051604080620056a78339810180604052620000429190810190620000fe565b81600760006101000a81548173ffffffffffffffffffffffffffffffffffffffff021916908373ffffffffffffffffffffffffffffffffffffffff160217905550336000806101000a81548173ffffffffffffffffffffffffffffffffffffffff021916908373ffffffffffffffffffffffffffffffffffffffff16021790555080600181905550505062000191565b6000620000e0825162000173565b905092915050565b6000620000f6825162000187565b905092915050565b600080604083850312156200011257600080fd5b60006200012285828601620000d2565b92505060206200013585828601620000e8565b9150509250929050565b60006200014c8262000153565b9050919050565b600073ffffffffffffffffffffffffffffffffffffffff82169050919050565b600062000180826200013f565b9050919050565b6000819050919050565b61550680620001a16000396000f3fe60806040526004361061015f576000357c0100000000000000000000000000000000000000000000000000000000900463ffffffff16806314082cd21461016457806319045a25146101a1578063234142f8146101de5780632445d6d7146102075780633610724e14610230578063374b93c81461024c57806338789d3a146102755780633cb80eb01461029e5780634090d5d2146102c757806341c10b1b146103045780634eae589b1461032d578063518ab2a81461035657806367bd9eea14610381578063705862e0146103aa5780637acc0b20146103d35780637ff9b59614610415578063875fc626146104405780638784b39e1461047d578063888487cd146104a65780639e0125e3146104cf578063b8aff60f1461050c578063cd828eb214610537578063ddf6949f14610560578063e2da36101461059d578063ef8536fb146105de578063f1a2376e14610607578063f874789414610630575b600080fd5b34801561017057600080fd5b5061018b60048036036101869190810190614c67565b610659565b6040516101989190615198565b60405180910390f35b3480156101ad57600080fd5b506101c860048036036101c39190810190614b01565b6108a5565b6040516101d5919061506c565b60405180910390f35b3480156101ea57600080fd5b5061020560048036036102009190810190614c67565b610989565b005b34801561021357600080fd5b5061022e60048036036102299190810190614aaf565b610b76565b005b61024a60048036036102459190810190614c67565b610c2c565b005b34801561025857600080fd5b50610273600480360361026e9190810190614c67565b610e45565b005b34801561028157600080fd5b5061029c60048036036102979190810190614bd4565b611011565b005b3480156102aa57600080fd5b506102c560048036036102c09190810190614c67565b611194565b005b3480156102d357600080fd5b506102ee60048036036102e99190810190614c67565b611511565b6040516102fb9190615176565b60405180910390f35b34801561031057600080fd5b5061032b60048036036103269190810190614cb9565b611753565b005b34801561033957600080fd5b50610354600480360361034f9190810190614cb9565b6119b8565b005b34801561036257600080fd5b5061036b611c1d565b60405161037891906151ba565b60405180910390f35b34801561038d57600080fd5b506103a860048036036103a39190810190614c67565b611c23565b005b3480156103b657600080fd5b506103d160048036036103cc9190810190614b55565b611e07565b005b3480156103df57600080fd5b506103fa60048036036103f59190810190614c67565b612060565b60405161040c96959493929190615236565b60405180910390f35b34801561042157600080fd5b5061042a6121fb565b60405161043791906151ba565b60405180910390f35b34801561044c57600080fd5b5061046760048036036104629190810190614c67565b612201565b6040516104749190615154565b60405180910390f35b34801561048957600080fd5b506104a4600480360361049f9190810190614c67565b6125a0565b005b3480156104b257600080fd5b506104cd60048036036104c89190810190614c67565b612930565b005b3480156104db57600080fd5b506104f660048036036104f19190810190614aaf565b612aee565b6040516105039190615154565b60405180910390f35b34801561051857600080fd5b50610521612f25565b60405161052e91906151ba565b60405180910390f35b34801561054357600080fd5b5061055e60048036036105599190810190614c67565b612f32565b005b34801561056c57600080fd5b5061058760048036036105829190810190614aaf565b61323d565b6040516105949190615154565b60405180910390f35b3480156105a957600080fd5b506105c460048036036105bf9190810190614c67565b613674565b6040516105d59594939291906151d5565b60405180910390f35b3480156105ea57600080fd5b5061060560048036036106009190810190614d25565b613809565b005b34801561061357600080fd5b5061062e60048036036106299190810190614cb9565b613c34565b005b34801561063c57600080fd5b5061065760048036036106529190810190614cb9565b613dea565b005b6106616146e9565b60008090505b600a805490508110156108925782600a8281548110151561068457fe5b906000526020600020906006020160000154141561088557600a818154811015156106ab57fe5b906000526020600020906006020160c0604051908101604052908160008201548152602001600182018054600181600116156101000203166002900480601f0160208091040260200160405190810160405280929190818152602001828054600181600116156101000203166002900480156107685780601f1061073d57610100808354040283529160200191610768565b820191906000526020600020905b81548152906001019060200180831161074b57829003601f168201915b5050505050815260200160028201548152602001600382015481526020016004820160009054906101000a900473ffffffffffffffffffffffffffffffffffffffff1673ffffffffffffffffffffffffffffffffffffffff1673ffffffffffffffffffffffffffffffffffffffff168152602001600582018054600181600116156101000203166002900480601f0160208091040260200160405190810160405280929190818152602001828054600181600116156101000203166002900480156108745780601f1061084957610100808354040283529160200191610874565b820191906000526020600020905b81548152906001019060200180831161085757829003601f168201915b5050505050815250509150506108a0565b8080600101915050610667565b5061089b6146e9565b809150505b919050565b600080600080604185511415156108c25760009350505050610983565b6020850151925060408501519150606085015160001a9050601b8160ff1610156108ed57601b810190505b601b8160ff16141580156109055750601c8160ff1614155b156109165760009350505050610983565b60018682858560405160008152602001604052604051808581526020018460ff1660ff1681526020018381526020018281526020019450505050506020604051602081039080840390855afa158015610973573d6000803e3d6000fd5b5050506020604051035193505050505b92915050565b6000811415151561099957600080fd5b6109a1614736565b60006109ac836140bc565b9150915060008260000151141515156109c457600080fd5b6109cc6147cf565b6109da836101200151611511565b9050806020015173ffffffffffffffffffffffffffffffffffffffff163373ffffffffffffffffffffffffffffffffffffffff16141515610a1a57600080fd5b60066009811115610a2757fe5b8361014001516009811115610a3857fe5b141515610a4457600080fd5b600760009054906101000a900473ffffffffffffffffffffffffffffffffffffffff1673ffffffffffffffffffffffffffffffffffffffff1663a9059cbb8460a00151610aa2866060015187604001516143c390919063ffffffff16565b6040518363ffffffff167c0100000000000000000000000000000000000000000000000000000000028152600401610adb92919061512b565b602060405180830381600087803b158015610af557600080fd5b505af1158015610b09573d6000803e3d6000fd5b505050506040513d601f19601f82011682018060405250610b2d9190810190614ad8565b506005600b83815481101515610b3f57fe5b90600052602060002090600c0201600a0160006101000a81548160ff02191690836009811115610b6b57fe5b021790555050505050565b6000809054906101000a900473ffffffffffffffffffffffffffffffffffffffff1673ffffffffffffffffffffffffffffffffffffffff163373ffffffffffffffffffffffffffffffffffffffff16141515610bd157600080fd5b6001600860008373ffffffffffffffffffffffffffffffffffffffff1673ffffffffffffffffffffffffffffffffffffffff16815260200190815260200160002060006101000a81548160ff02191690831515021790555050565b610c41600154826143df90919063ffffffff16565b34141515610c4e57600080fd5b80600760009054906101000a900473ffffffffffffffffffffffffffffffffffffffff1673ffffffffffffffffffffffffffffffffffffffff166370a08231306040518263ffffffff167c0100000000000000000000000000000000000000000000000000000000028152600401610cc6919061506c565b60206040518083038186803b158015610cde57600080fd5b505afa158015610cf2573d6000803e3d6000fd5b505050506040513d601f19601f82011682018060405250610d169190810190614c90565b10151515610d2357600080fd5b600760009054906101000a900473ffffffffffffffffffffffffffffffffffffffff1673ffffffffffffffffffffffffffffffffffffffff1663a9059cbb33836040518363ffffffff167c0100000000000000000000000000000000000000000000000000000000028152600401610d9c929190615102565b602060405180830381600087803b158015610db657600080fd5b505af1158015610dca573d6000803e3d6000fd5b505050506040513d601f19601f82011682018060405250610dee9190810190614ad8565b1515610df957600080fd5b806002600082825401925050819055507fce63ca7dc8dfc0313cea1035f873e3706e0161f9895f670682c0dab3969e36203382604051610e3a929190615102565b60405180910390a150565b60008114151515610e5557600080fd5b610e5d614736565b6000610e68836140bc565b915091506000826000015114151515610e8057600080fd5b8160a0015173ffffffffffffffffffffffffffffffffffffffff163373ffffffffffffffffffffffffffffffffffffffff16141515610ebe57600080fd5b60016009811115610ecb57fe5b8261014001516009811115610edc57fe5b141515610ee857600080fd5b610ef06146e9565b6000610eff8460200151614417565b915091508160600151846080015111151515610f1a57600080fd5b6002600b84815481101515610f2b57fe5b90600052602060002090600c0201600a0160006101000a81548160ff02191690836009811115610f5757fe5b0217905550610f938460800151600a83815481101515610f7357fe5b90600052602060002090600602016003015461467290919063ffffffff16565b600a82815481101515610fa257fe5b9060005260206000209060060201600301819055507fff4fa69114c0677f6a88bfc157c0874ccb1d721fa92a870e1d262dc197face508460200151836040015186608001518760a001518860e001516040516110029594939291906152a5565b60405180910390a15050505050565b60008311151561102057600080fd5b60008211151561102f57600080fd5b6110376146e9565b61104d60016005546143c390919063ffffffff16565b600581905550600554816000018181525050848160200181905250838160400181815250508281606001818152505033816080019073ffffffffffffffffffffffffffffffffffffffff16908173ffffffffffffffffffffffffffffffffffffffff1681525050818160a00181905250600a8190806001815401808255809150509060018203906000526020600020906006020160009091929091909150600082015181600001556020820151816001019080519060200190611111929190614815565b50604082015181600201556060820151816003015560808201518160040160006101000a81548173ffffffffffffffffffffffffffffffffffffffff021916908373ffffffffffffffffffffffffffffffffffffffff16021790555060a0820151816005019080519060200190611189929190614815565b505050505050505050565b600081141515156111a457600080fd5b6111ac614736565b60006111b7836140bc565b9150915060008260000151141515156111cf57600080fd5b8160e0015173ffffffffffffffffffffffffffffffffffffffff163373ffffffffffffffffffffffffffffffffffffffff1614151561120d57600080fd5b6000600981111561121a57fe5b826101400151600981111561122b57fe5b14151561123757600080fd5b6000611254836060015184604001516143c390919063ffffffff16565b9050600760009054906101000a900473ffffffffffffffffffffffffffffffffffffffff1673ffffffffffffffffffffffffffffffffffffffff1663e1f21c673330846040518463ffffffff167c01000000000000000000000000000000000000000000000000000000000281526004016112d1939291906150cb565b602060405180830381600087803b1580156112eb57600080fd5b505af11580156112ff573d6000803e3d6000fd5b505050506040513d601f19601f820116820180604052506113239190810190614ad8565b5080600760009054906101000a900473ffffffffffffffffffffffffffffffffffffffff1673ffffffffffffffffffffffffffffffffffffffff1663dd62ed3e33306040518363ffffffff167c010000000000000000000000000000000000000000000000000000000002815260040161139e9291906150a2565b60206040518083038186803b1580156113b657600080fd5b505afa1580156113ca573d6000803e3d6000fd5b505050506040513d601f19601f820116820180604052506113ee9190810190614c90565b101515156113fb57600080fd5b600760009054906101000a900473ffffffffffffffffffffffffffffffffffffffff1673ffffffffffffffffffffffffffffffffffffffff166323b872dd3330846040518463ffffffff167c0100000000000000000000000000000000000000000000000000000000028152600401611476939291906150cb565b602060405180830381600087803b15801561149057600080fd5b505af11580156114a4573d6000803e3d6000fd5b505050506040513d601f19601f820116820180604052506114c89190810190614ad8565b506001600b838154811015156114da57fe5b90600052602060002090600c0201600a0160006101000a81548160ff0219169083600981111561150657fe5b021790555050505050565b6115196147cf565b60008090505b600c805490508110156117405782600c8281548110151561153c57fe5b906000526020600020906005020160000154141561173357600c8181548110151561156357fe5b906000526020600020906005020160a06040519081016040529081600082015481526020016001820160009054906101000a900473ffffffffffffffffffffffffffffffffffffffff1673ffffffffffffffffffffffffffffffffffffffff1673ffffffffffffffffffffffffffffffffffffffff168152602001600282018054600181600116156101000203166002900480601f0160208091040260200160405190810160405280929190818152602001828054600181600116156101000203166002900480156116765780601f1061164b57610100808354040283529160200191611676565b820191906000526020600020905b81548152906001019060200180831161165957829003601f168201915b50505050508152602001600382018054600181600116156101000203166002900480601f0160208091040260200160405190810160405280929190818152602001828054600181600116156101000203166002900480156117185780601f106116ed57610100808354040283529160200191611718565b820191906000526020600020905b8154815290600101906020018083116116fb57829003601f168201915b5050505050815260200160048201548152505091505061174e565b808060010191505061151f565b506117496147cf565b809150505b919050565b6000841415151561176357600080fd5b61176b614736565b6000611776866140bc565b91509150600082600001511415151561178e57600080fd5b8160e0015173ffffffffffffffffffffffffffffffffffffffff163373ffffffffffffffffffffffffffffffffffffffff161415156117cc57600080fd5b6117d46147cf565b6117e2836101200151611511565b9050806020015173ffffffffffffffffffffffffffffffffffffffff1661184d8787878080601f016020809104026020016040519081016040528093929190818152602001838380828437600081840152601f19601f820116905080830192505050505050506108a5565b73ffffffffffffffffffffffffffffffffffffffff1614151561186f57600080fd5b6006600981111561187c57fe5b836101400151600981111561188d57fe5b14151561189957600080fd5b600760009054906101000a900473ffffffffffffffffffffffffffffffffffffffff1673ffffffffffffffffffffffffffffffffffffffff1663a9059cbb826020015185606001516040518363ffffffff167c010000000000000000000000000000000000000000000000000000000002815260040161191a92919061512b565b602060405180830381600087803b15801561193457600080fd5b505af1158015611948573d6000803e3d6000fd5b505050506040513d601f19601f8201168201806040525061196c9190810190614ad8565b506007600b8381548110151561197e57fe5b90600052602060002090600c0201600a0160006101000a81548160ff021916908360098111156119aa57fe5b021790555050505050505050565b600084141515156119c857600080fd5b6119d0614736565b60006119db866140bc565b9150915060008260000151141515156119f357600080fd5b8160a0015173ffffffffffffffffffffffffffffffffffffffff163373ffffffffffffffffffffffffffffffffffffffff16141515611a3157600080fd5b611a396147cf565b611a47836101200151611511565b9050806020015173ffffffffffffffffffffffffffffffffffffffff16611ab28787878080601f016020809104026020016040519081016040528093929190818152602001838380828437600081840152601f19601f820116905080830192505050505050506108a5565b73ffffffffffffffffffffffffffffffffffffffff16141515611ad457600080fd5b60026009811115611ae157fe5b8361014001516009811115611af257fe5b141515611afe57600080fd5b600760009054906101000a900473ffffffffffffffffffffffffffffffffffffffff1673ffffffffffffffffffffffffffffffffffffffff1663a9059cbb826020015185606001516040518363ffffffff167c0100000000000000000000000000000000000000000000000000000000028152600401611b7f92919061512b565b602060405180830381600087803b158015611b9957600080fd5b505af1158015611bad573d6000803e3d6000fd5b505050506040513d601f19601f82011682018060405250611bd19190810190614ad8565b506003600b83815481101515611be357fe5b90600052602060002090600c0201600a0160006101000a81548160ff02191690836009811115611c0f57fe5b021790555050505050505050565b60025481565b60008114151515611c3357600080fd5b611c3b614736565b6000611c46836140bc565b915091506000826000015114151515611c5e57600080fd5b8160a0015173ffffffffffffffffffffffffffffffffffffffff163373ffffffffffffffffffffffffffffffffffffffff16141515611c9c57600080fd5b611cb5603c8361016001516143c390919063ffffffff16565b42111515611cc257600080fd5b60046009811115611ccf57fe5b8261014001516009811115611ce057fe5b141515611cec57600080fd5b600760009054906101000a900473ffffffffffffffffffffffffffffffffffffffff1673ffffffffffffffffffffffffffffffffffffffff1663a9059cbb8360a0015184604001516040518363ffffffff167c0100000000000000000000000000000000000000000000000000000000028152600401611d6d92919061512b565b602060405180830381600087803b158015611d8757600080fd5b505af1158015611d9b573d6000803e3d6000fd5b505050506040513d601f19601f82011682018060405250611dbf9190810190614ad8565b506005600b82815481101515611dd157fe5b90600052602060002090600c0201600a0160006101000a81548160ff02191690836009811115611dfd57fe5b0217905550505050565b600860003373ffffffffffffffffffffffffffffffffffffffff1673ffffffffffffffffffffffffffffffffffffffff16815260200190815260200160002060009054906101000a900460ff161515611e5f57600080fd5b600960003373ffffffffffffffffffffffffffffffffffffffff1673ffffffffffffffffffffffffffffffffffffffff16815260200190815260200160002060009054906101000a900460ff16151515611eb857600080fd5b611ec06147cf565b611ed660016006546143c390919063ffffffff16565b60068190555060065481600001818152505033816020019073ffffffffffffffffffffffffffffffffffffffff16908173ffffffffffffffffffffffffffffffffffffffff168152505083816040018190525082816060018190525081816080018181525050600c81908060018154018082558091505090600182039060005260206000209060050201600090919290919091506000820151816000015560208201518160010160006101000a81548173ffffffffffffffffffffffffffffffffffffffff021916908373ffffffffffffffffffffffffffffffffffffffff1602179055506040820151816002019080519060200190611fd7929190614815565b506060820151816003019080519060200190611ff4929190614815565b50608082015181600401555050506001600960003373ffffffffffffffffffffffffffffffffffffffff1673ffffffffffffffffffffffffffffffffffffffff16815260200190815260200160002060006101000a81548160ff02191690831515021790555050505050565b600a8181548110151561206f57fe5b9060005260206000209060060201600091509050806000015490806001018054600181600116156101000203166002900480601f0160208091040260200160405190810160405280929190818152602001828054600181600116156101000203166002900480156121215780601f106120f657610100808354040283529160200191612121565b820191906000526020600020905b81548152906001019060200180831161210457829003601f168201915b5050505050908060020154908060030154908060040160009054906101000a900473ffffffffffffffffffffffffffffffffffffffff1690806005018054600181600116156101000203166002900480601f0160208091040260200160405190810160405280929190818152602001828054600181600116156101000203166002900480156121f15780601f106121c6576101008083540402835291602001916121f1565b820191906000526020600020905b8154815290600101906020018083116121d457829003601f168201915b5050505050905086565b60015481565b6060600080905060008060009050600091505b600b8054905082101561225f5784600b8381548110151561223157fe5b90600052602060002090600c02016009015414156122525782806001019350505b8180600101925050612214565b60608360405190808252806020026020018201604052801561229b57816020015b612288614895565b8152602001906001900390816122805790505b509050600092505b600b805490508310156125945785600b848154811015156122c057fe5b90600052602060002090600c020160090154141561258757600b838154811015156122e757fe5b90600052602060002090600c0201610180604051908101604052908160008201548152602001600182015481526020016002820154815260200160038201548152602001600482015481526020016005820160009054906101000a900473ffffffffffffffffffffffffffffffffffffffff1673ffffffffffffffffffffffffffffffffffffffff1673ffffffffffffffffffffffffffffffffffffffff168152602001600682018054600181600116156101000203166002900480601f0160208091040260200160405190810160405280929190818152602001828054600181600116156101000203166002900480156124235780601f106123f857610100808354040283529160200191612423565b820191906000526020600020905b81548152906001019060200180831161240657829003601f168201915b505050505081526020016007820160009054906101000a900473ffffffffffffffffffffffffffffffffffffffff1673ffffffffffffffffffffffffffffffffffffffff1673ffffffffffffffffffffffffffffffffffffffff168152602001600882018054600181600116156101000203166002900480601f01602080910402602001604051908101604052809291908181526020018280546001816001161561010002031660029004801561251b5780601f106124f05761010080835404028352916020019161251b565b820191906000526020600020905b8154815290600101906020018083116124fe57829003601f168201915b5050505050815260200160098201548152602001600a820160009054906101000a900460ff16600981111561254c57fe5b600981111561255757fe5b8152602001600b82015481525050818380600101945081518110151561257957fe5b906020019060200201819052505b82806001019350506122a3565b80945050505050919050565b600081141515156125b057600080fd5b6125b8614736565b60006125c3836140bc565b9150915060008260000151141515156125db57600080fd5b8160e0015173ffffffffffffffffffffffffffffffffffffffff163373ffffffffffffffffffffffffffffffffffffffff1614151561261957600080fd5b6004600981111561262657fe5b826101400151600981111561263757fe5b14151561264357600080fd5b61265c603c8361016001516143c390919063ffffffff16565b421115151561266a57600080fd5b600760009054906101000a900473ffffffffffffffffffffffffffffffffffffffff1673ffffffffffffffffffffffffffffffffffffffff1663e1f21c67333085606001516040518463ffffffff167c01000000000000000000000000000000000000000000000000000000000281526004016126e9939291906150cb565b602060405180830381600087803b15801561270357600080fd5b505af1158015612717573d6000803e3d6000fd5b505050506040513d601f19601f8201168201806040525061273b9190810190614ad8565b508160600151600760009054906101000a900473ffffffffffffffffffffffffffffffffffffffff1673ffffffffffffffffffffffffffffffffffffffff1663dd62ed3e33306040518363ffffffff167c01000000000000000000000000000000000000000000000000000000000281526004016127ba9291906150a2565b60206040518083038186803b1580156127d257600080fd5b505afa1580156127e6573d6000803e3d6000fd5b505050506040513d601f19601f8201168201806040525061280a9190810190614c90565b1015151561281757600080fd5b600760009054906101000a900473ffffffffffffffffffffffffffffffffffffffff1673ffffffffffffffffffffffffffffffffffffffff166323b872dd333085606001516040518463ffffffff167c0100000000000000000000000000000000000000000000000000000000028152600401612896939291906150cb565b602060405180830381600087803b1580156128b057600080fd5b505af11580156128c4573d6000803e3d6000fd5b505050506040513d601f19601f820116820180604052506128e89190810190614ad8565b506006600b828154811015156128fa57fe5b90600052602060002090600c0201600a0160006101000a81548160ff0219169083600981111561292657fe5b0217905550505050565b6000811415151561294057600080fd5b612948614736565b6000612953836140bc565b91509150600082600001511415151561296b57600080fd5b8160e0015173ffffffffffffffffffffffffffffffffffffffff163373ffffffffffffffffffffffffffffffffffffffff161415156129a957600080fd5b600460098111156129b657fe5b82610140015160098111156129c757fe5b1415156129d357600080fd5b600760009054906101000a900473ffffffffffffffffffffffffffffffffffffffff1673ffffffffffffffffffffffffffffffffffffffff1663a9059cbb8360a0015184604001516040518363ffffffff167c0100000000000000000000000000000000000000000000000000000000028152600401612a5492919061512b565b602060405180830381600087803b158015612a6e57600080fd5b505af1158015612a82573d6000803e3d6000fd5b505050506040513d601f19601f82011682018060405250612aa69190810190614ad8565b506005600b82815481101515612ab857fe5b90600052602060002090600c0201600a0160006101000a81548160ff02191690836009811115612ae457fe5b0217905550505050565b6060600080905060008060009050600091505b600b80549050821015612b98578473ffffffffffffffffffffffffffffffffffffffff16600b83815481101515612b3457fe5b90600052602060002090600c020160050160009054906101000a900473ffffffffffffffffffffffffffffffffffffffff1673ffffffffffffffffffffffffffffffffffffffff161415612b8b5782806001019350505b8180600101925050612b01565b606083604051908082528060200260200182016040528015612bd457816020015b612bc1614895565b815260200190600190039081612bb95790505b509050600092505b600b80549050831015612f19578573ffffffffffffffffffffffffffffffffffffffff16600b84815481101515612c0f57fe5b90600052602060002090600c020160050160009054906101000a900473ffffffffffffffffffffffffffffffffffffffff1673ffffffffffffffffffffffffffffffffffffffff161415612f0c57600b83815481101515612c6c57fe5b90600052602060002090600c0201610180604051908101604052908160008201548152602001600182015481526020016002820154815260200160038201548152602001600482015481526020016005820160009054906101000a900473ffffffffffffffffffffffffffffffffffffffff1673ffffffffffffffffffffffffffffffffffffffff1673ffffffffffffffffffffffffffffffffffffffff168152602001600682018054600181600116156101000203166002900480601f016020809104026020016040519081016040528092919081815260200182805460018160011615610100020316600290048015612da85780601f10612d7d57610100808354040283529160200191612da8565b820191906000526020600020905b815481529060010190602001808311612d8b57829003601f168201915b505050505081526020016007820160009054906101000a900473ffffffffffffffffffffffffffffffffffffffff1673ffffffffffffffffffffffffffffffffffffffff1673ffffffffffffffffffffffffffffffffffffffff168152602001600882018054600181600116156101000203166002900480601f016020809104026020016040519081016040528092919081815260200182805460018160011615610100020316600290048015612ea05780601f10612e7557610100808354040283529160200191612ea0565b820191906000526020600020905b815481529060010190602001808311612e8357829003601f168201915b5050505050815260200160098201548152602001600a820160009054906101000a900460ff166009811115612ed157fe5b6009811115612edc57fe5b8152602001600b820154815250508183806001019450815181101515612efe57fe5b906020019060200201819052505b8280600101935050612bdc565b80945050505050919050565b6000600a80549050905090565b60008114151515612f4257600080fd5b612f4a614736565b6000612f55836140bc565b915091506000826000015114151515612f6d57600080fd5b8160e0015173ffffffffffffffffffffffffffffffffffffffff163373ffffffffffffffffffffffffffffffffffffffff16141515612fab57600080fd5b60036009811115612fb857fe5b8261014001516009811115612fc957fe5b10156130fc576009600b82815481101515612fe057fe5b90600052602060002090600c0201600a0160006101000a81548160ff0219169083600981111561300c57fe5b0217905550600760009054906101000a900473ffffffffffffffffffffffffffffffffffffffff1673ffffffffffffffffffffffffffffffffffffffff1663a9059cbb3361306b856060015186604001516143c390919063ffffffff16565b6040518363ffffffff167c01000000000000000000000000000000000000000000000000000000000281526004016130a4929190615102565b602060405180830381600087803b1580156130be57600080fd5b505af11580156130d2573d6000803e3d6000fd5b505050506040513d601f19601f820116820180604052506130f69190810190614ad8565b50613238565b6006600981111561310957fe5b826101400151600981111561311a57fe5b141561323757600760009054906101000a900473ffffffffffffffffffffffffffffffffffffffff1673ffffffffffffffffffffffffffffffffffffffff1663a9059cbb8360a0015184604001516040518363ffffffff167c01000000000000000000000000000000000000000000000000000000000281526004016131a192919061512b565b602060405180830381600087803b1580156131bb57600080fd5b505af11580156131cf573d6000803e3d6000fd5b505050506040513d601f19601f820116820180604052506131f39190810190614ad8565b506005600b8281548110151561320557fe5b90600052602060002090600c0201600a0160006101000a81548160ff0219169083600981111561323157fe5b02179055505b5b505050565b6060600080905060008060009050600091505b600b805490508210156132e7578473ffffffffffffffffffffffffffffffffffffffff16600b8381548110151561328357fe5b90600052602060002090600c020160070160009054906101000a900473ffffffffffffffffffffffffffffffffffffffff1673ffffffffffffffffffffffffffffffffffffffff1614156132da5782806001019350505b8180600101925050613250565b60608360405190808252806020026020018201604052801561332357816020015b613310614895565b8152602001906001900390816133085790505b509050600092505b600b80549050831015613668578573ffffffffffffffffffffffffffffffffffffffff16600b8481548110151561335e57fe5b90600052602060002090600c020160070160009054906101000a900473ffffffffffffffffffffffffffffffffffffffff1673ffffffffffffffffffffffffffffffffffffffff16141561365b57600b838154811015156133bb57fe5b90600052602060002090600c0201610180604051908101604052908160008201548152602001600182015481526020016002820154815260200160038201548152602001600482015481526020016005820160009054906101000a900473ffffffffffffffffffffffffffffffffffffffff1673ffffffffffffffffffffffffffffffffffffffff1673ffffffffffffffffffffffffffffffffffffffff168152602001600682018054600181600116156101000203166002900480601f0160208091040260200160405190810160405280929190818152602001828054600181600116156101000203166002900480156134f75780601f106134cc576101008083540402835291602001916134f7565b820191906000526020600020905b8154815290600101906020018083116134da57829003601f168201915b505050505081526020016007820160009054906101000a900473ffffffffffffffffffffffffffffffffffffffff1673ffffffffffffffffffffffffffffffffffffffff1673ffffffffffffffffffffffffffffffffffffffff168152602001600882018054600181600116156101000203166002900480601f0160208091040260200160405190810160405280929190818152602001828054600181600116156101000203166002900480156135ef5780601f106135c4576101008083540402835291602001916135ef565b820191906000526020600020905b8154815290600101906020018083116135d257829003601f168201915b5050505050815260200160098201548152602001600a820160009054906101000a900460ff16600981111561362057fe5b600981111561362b57fe5b8152602001600b82015481525050818380600101945081518110151561364d57fe5b906020019060200201819052505b828060010193505061332b565b80945050505050919050565b600c8181548110151561368357fe5b90600052602060002090600502016000915090508060000154908060010160009054906101000a900473ffffffffffffffffffffffffffffffffffffffff1690806002018054600181600116156101000203166002900480601f01602080910402602001604051908101604052809291908181526020018280546001816001161561010002031660029004801561375b5780601f106137305761010080835404028352916020019161375b565b820191906000526020600020905b81548152906001019060200180831161373e57829003601f168201915b505050505090806003018054600181600116156101000203166002900480601f0160208091040260200160405190810160405280929190818152602001828054600181600116156101000203166002900480156137f95780601f106137ce576101008083540402835291602001916137f9565b820191906000526020600020905b8154815290600101906020018083116137dc57829003601f168201915b5050505050908060040154905085565b6000831415151561381957600080fd5b6138216146e9565b61382a84610659565b905080600001518414151561383e57600080fd5b6000821415151561384e57600080fd5b60008314158015613863575080606001518311155b151561386e57600080fd5b600760009054906101000a900473ffffffffffffffffffffffffffffffffffffffff1673ffffffffffffffffffffffffffffffffffffffff166370a08231336040518263ffffffff167c01000000000000000000000000000000000000000000000000000000000281526004016138e59190615087565b60206040518083038186803b1580156138fd57600080fd5b505afa158015613911573d6000803e3d6000fd5b505050506040513d601f19601f820116820180604052506139359190810190614c90565b61394c8483604001516143df90919063ffffffff16565b1115151561395957600080fd5b3373ffffffffffffffffffffffffffffffffffffffff16816080015173ffffffffffffffffffffffffffffffffffffffff161415151561399857600080fd5b6139a0614736565b6139b660016004546143c390919063ffffffff16565b600481905550600454816000018181525050848160200181815250506139e98483604001516143df90919063ffffffff16565b8160400181815250506139fa6147cf565b613a0384611511565b905080608001518260600181815250508482608001818152505082608001518260a0019073ffffffffffffffffffffffffffffffffffffffff16908173ffffffffffffffffffffffffffffffffffffffff1681525050338260e0019073ffffffffffffffffffffffffffffffffffffffff16908173ffffffffffffffffffffffffffffffffffffffff1681525050838261012001818152505060008261014001906009811115613aaf57fe5b90816009811115613abc57fe5b81525050600b829080600181540180825580915050906001820390600052602060002090600c020160009091929091909150600082015181600001556020820151816001015560408201518160020155606082015181600301556080820151816004015560a08201518160050160006101000a81548173ffffffffffffffffffffffffffffffffffffffff021916908373ffffffffffffffffffffffffffffffffffffffff16021790555060c0820151816006019080519060200190613b83929190614815565b5060e08201518160070160006101000a81548173ffffffffffffffffffffffffffffffffffffffff021916908373ffffffffffffffffffffffffffffffffffffffff160217905550610100820151816008019080519060200190613be8929190614815565b50610120820151816009015561014082015181600a0160006101000a81548160ff02191690836009811115613c1957fe5b021790555061016082015181600b0155505050505050505050565b60008414151515613c4457600080fd5b613c4c614736565b6000613c57866140bc565b915091506000826000015114151515613c6f57600080fd5b8160e0015173ffffffffffffffffffffffffffffffffffffffff16613cd88686868080601f016020809104026020016040519081016040528093929190818152602001838380828437600081840152601f19601f820116905080830192505050505050506108a5565b73ffffffffffffffffffffffffffffffffffffffff16141515613cfa57600080fd5b613d026147cf565b613d10836101200151611511565b9050806020015173ffffffffffffffffffffffffffffffffffffffff163373ffffffffffffffffffffffffffffffffffffffff16141515613d5057600080fd5b60036009811115613d5d57fe5b8361014001516009811115613d6e57fe5b141515613d7a57600080fd5b6004600b83815481101515613d8b57fe5b90600052602060002090600c0201600a0160006101000a81548160ff02191690836009811115613db757fe5b021790555042600b83815481101515613dcc57fe5b90600052602060002090600c0201600b018190555050505050505050565b60008414151515613dfa57600080fd5b613e02614736565b6000613e0d866140bc565b915091506000826000015114151515613e2557600080fd5b8160a0015173ffffffffffffffffffffffffffffffffffffffff16613e8e8686868080601f016020809104026020016040519081016040528093929190818152602001838380828437600081840152601f19601f820116905080830192505050505050506108a5565b73ffffffffffffffffffffffffffffffffffffffff16141515613eb057600080fd5b613eb86147cf565b613ec6836101200151611511565b9050806020015173ffffffffffffffffffffffffffffffffffffffff163373ffffffffffffffffffffffffffffffffffffffff16141515613f0657600080fd5b60076009811115613f1357fe5b8361014001516009811115613f2457fe5b141515613f3057600080fd5b6008600b83815481101515613f4157fe5b90600052602060002090600c0201600a0160006101000a81548160ff02191690836009811115613f6d57fe5b02179055506000613f81846020015161468b565b9050613fba8460800151600a83815481101515613f9a57fe5b9060005260206000209060060201600301546143c390919063ffffffff16565b600a82815481101515613fc957fe5b906000526020600020906006020160030181905550600760009054906101000a900473ffffffffffffffffffffffffffffffffffffffff1673ffffffffffffffffffffffffffffffffffffffff1663a9059cbb8560e0015186604001516040518363ffffffff167c010000000000000000000000000000000000000000000000000000000002815260040161405f92919061512b565b602060405180830381600087803b15801561407957600080fd5b505af115801561408d573d6000803e3d6000fd5b505050506040513d601f19601f820116820180604052506140b19190810190614ad8565b505050505050505050565b6140c4614736565b600080600090505b600b805490508110156143a95783600b828154811015156140e957fe5b90600052602060002090600c020160000154141561439c57600b8181548110151561411057fe5b90600052602060002090600c02018181610180604051908101604052908160008201548152602001600182015481526020016002820154815260200160038201548152602001600482015481526020016005820160009054906101000a900473ffffffffffffffffffffffffffffffffffffffff1673ffffffffffffffffffffffffffffffffffffffff1673ffffffffffffffffffffffffffffffffffffffff168152602001600682018054600181600116156101000203166002900480601f01602080910402602001604051908101604052809291908181526020018280546001816001161561010002031660029004801561424e5780601f106142235761010080835404028352916020019161424e565b820191906000526020600020905b81548152906001019060200180831161423157829003601f168201915b505050505081526020016007820160009054906101000a900473ffffffffffffffffffffffffffffffffffffffff1673ffffffffffffffffffffffffffffffffffffffff1673ffffffffffffffffffffffffffffffffffffffff168152602001600882018054600181600116156101000203166002900480601f0160208091040260200160405190810160405280929190818152602001828054600181600116156101000203166002900480156143465780601f1061431b57610100808354040283529160200191614346565b820191906000526020600020905b81548152906001019060200180831161432957829003601f168201915b5050505050815260200160098201548152602001600a820160009054906101000a900460ff16600981111561437757fe5b600981111561438257fe5b8152602001600b82015481525050915092509250506143be565b80806001019150506140cc565b506143b2614736565b80600080905092509250505b915091565b600081830190508281101515156143d657fe5b80905092915050565b6000808314156143f25760009050614411565b818302905081838281151561440357fe5b0414151561440d57fe5b8090505b92915050565b61441f6146e9565b600080600090505b600a805490508110156146585783600a8281548110151561444457fe5b906000526020600020906006020160000154141561464b57600a8181548110151561446b57fe5b9060005260206000209060060201818160c0604051908101604052908160008201548152602001600182018054600181600116156101000203166002900480601f01602080910402602001604051908101604052809291908181526020018280546001816001161561010002031660029004801561452a5780601f106144ff5761010080835404028352916020019161452a565b820191906000526020600020905b81548152906001019060200180831161450d57829003601f168201915b5050505050815260200160028201548152602001600382015481526020016004820160009054906101000a900473ffffffffffffffffffffffffffffffffffffffff1673ffffffffffffffffffffffffffffffffffffffff1673ffffffffffffffffffffffffffffffffffffffff168152602001600582018054600181600116156101000203166002900480601f0160208091040260200160405190810160405280929190818152602001828054600181600116156101000203166002900480156146365780601f1061460b57610100808354040283529160200191614636565b820191906000526020600020905b81548152906001019060200180831161461957829003601f168201915b5050505050815250509150925092505061466d565b8080600101915050614427565b506146616146e9565b80600080905092509250505b915091565b600082821115151561468057fe5b818303905092915050565b600080600090505b600a805490508110156146de5782600a828154811015156146b057fe5b90600052602060002090600602016000015414156146d157809150506146e4565b8080600101915050614693565b50600090505b919050565b60c06040519081016040528060008152602001606081526020016000815260200160008152602001600073ffffffffffffffffffffffffffffffffffffffff168152602001606081525090565b610180604051908101604052806000815260200160008152602001600081526020016000815260200160008152602001600073ffffffffffffffffffffffffffffffffffffffff16815260200160608152602001600073ffffffffffffffffffffffffffffffffffffffff1681526020016060815260200160008152602001600060098111156147c257fe5b8152602001600081525090565b60a06040519081016040528060008152602001600073ffffffffffffffffffffffffffffffffffffffff1681526020016060815260200160608152602001600081525090565b828054600181600116156101000203166002900490600052602060002090601f016020900481019282601f1061485657805160ff1916838001178555614884565b82800160010185558215614884579182015b82811115614883578251825591602001919060010190614868565b5b509050614891919061492e565b5090565b610180604051908101604052806000815260200160008152602001600081526020016000815260200160008152602001600073ffffffffffffffffffffffffffffffffffffffff16815260200160608152602001600073ffffffffffffffffffffffffffffffffffffffff16815260200160608152602001600081526020016000600981111561492157fe5b8152602001600081525090565b61495091905b8082111561494c576000816000905550600101614934565b5090565b90565b600061495f82356153ff565b905092915050565b60006149738251615411565b905092915050565b6000614987823561541d565b905092915050565b60008083601f84011215156149a357600080fd5b8235905067ffffffffffffffff8111156149bc57600080fd5b6020830191508360018202830111156149d457600080fd5b9250929050565b600082601f83011215156149ee57600080fd5b8135614a016149fc82615325565b6152f8565b91508082526020830160208301858383011115614a1d57600080fd5b614a28838284615479565b50505092915050565b600082601f8301121515614a4457600080fd5b8135614a57614a5282615351565b6152f8565b91508082526020830160208301858383011115614a7357600080fd5b614a7e838284615479565b50505092915050565b6000614a938235615427565b905092915050565b6000614aa78251615427565b905092915050565b600060208284031215614ac157600080fd5b6000614acf84828501614953565b91505092915050565b600060208284031215614aea57600080fd5b6000614af884828501614967565b91505092915050565b60008060408385031215614b1457600080fd5b6000614b228582860161497b565b925050602083013567ffffffffffffffff811115614b3f57600080fd5b614b4b858286016149db565b9150509250929050565b600080600060608486031215614b6a57600080fd5b600084013567ffffffffffffffff811115614b8457600080fd5b614b9086828701614a31565b935050602084013567ffffffffffffffff811115614bad57600080fd5b614bb986828701614a31565b9250506040614bca86828701614a87565b9150509250925092565b60008060008060808587031215614bea57600080fd5b600085013567ffffffffffffffff811115614c0457600080fd5b614c1087828801614a31565b9450506020614c2187828801614a87565b9350506040614c3287828801614a87565b925050606085013567ffffffffffffffff811115614c4f57600080fd5b614c5b87828801614a31565b91505092959194509250565b600060208284031215614c7957600080fd5b6000614c8784828501614a87565b91505092915050565b600060208284031215614ca257600080fd5b6000614cb084828501614a9b565b91505092915050565b60008060008060608587031215614ccf57600080fd5b6000614cdd87828801614a87565b9450506020614cee8782880161497b565b935050604085013567ffffffffffffffff811115614d0b57600080fd5b614d178782880161498f565b925092505092959194509250565b600080600060608486031215614d3a57600080fd5b6000614d4886828701614a87565b9350506020614d5986828701614a87565b9250506040614d6a86828701614a87565b9150509250925092565b614d7d81615431565b82525050565b614d8c816153ad565b82525050565b6000614d9d8261538a565b80845260208401935083602082028501614db68561537d565b60005b84811015614def578383038852614dd1838351614ec2565b9250614ddc826153a0565b9150602088019750600181019050614db9565b508196508694505050505092915050565b614e0981615443565b82525050565b6000614e1a82615395565b808452614e2e816020860160208601615488565b614e37816154bb565b602085010191505092915050565b600060a083016000830151614e5d600086018261505d565b506020830151614e706020860182614d83565b5060408301518482036040860152614e888282614e0f565b91505060608301518482036060860152614ea28282614e0f565b9150506080830151614eb7608086018261505d565b508091505092915050565b600061018083016000830151614edb600086018261505d565b506020830151614eee602086018261505d565b506040830151614f01604086018261505d565b506060830151614f14606086018261505d565b506080830151614f27608086018261505d565b5060a0830151614f3a60a0860182614d83565b5060c083015184820360c0860152614f528282614e0f565b91505060e0830151614f6760e0860182614d83565b50610100830151848203610100860152614f818282614e0f565b915050610120830151614f9861012086018261505d565b50610140830151614fad610140860182614e00565b50610160830151614fc261016086018261505d565b508091505092915050565b600060c083016000830151614fe5600086018261505d565b5060208301518482036020860152614ffd8282614e0f565b9150506040830151615012604086018261505d565b506060830151615025606086018261505d565b5060808301516150386080860182614d83565b5060a083015184820360a08601526150508282614e0f565b9150508091505092915050565b615066816153f5565b82525050565b60006020820190506150816000830184614d83565b92915050565b600060208201905061509c6000830184614d74565b92915050565b60006040820190506150b76000830185614d74565b6150c46020830184614d83565b9392505050565b60006060820190506150e06000830186614d74565b6150ed6020830185614d83565b6150fa604083018461505d565b949350505050565b60006040820190506151176000830185614d74565b615124602083018461505d565b9392505050565b60006040820190506151406000830185614d83565b61514d602083018461505d565b9392505050565b6000602082019050818103600083015261516e8184614d92565b905092915050565b600060208201905081810360008301526151908184614e45565b905092915050565b600060208201905081810360008301526151b28184614fcd565b905092915050565b60006020820190506151cf600083018461505d565b92915050565b600060a0820190506151ea600083018861505d565b6151f76020830187614d83565b81810360408301526152098186614e0f565b9050818103606083015261521d8185614e0f565b905061522c608083018461505d565b9695505050505050565b600060c08201905061524b600083018961505d565b818103602083015261525d8188614e0f565b905061526c604083018761505d565b615279606083018661505d565b6152866080830185614d83565b81810360a08301526152988184614e0f565b9050979650505050505050565b600060a0820190506152ba600083018861505d565b6152c7602083018761505d565b6152d4604083018661505d565b6152e16060830185614d83565b6152ee6080830184614d83565b9695505050505050565b6000604051905081810181811067ffffffffffffffff8211171561531b57600080fd5b8060405250919050565b600067ffffffffffffffff82111561533c57600080fd5b601f19601f8301169050602081019050919050565b600067ffffffffffffffff82111561536857600080fd5b601f19601f8301169050602081019050919050565b6000602082019050919050565b600081519050919050565b600081519050919050565b6000602082019050919050565b60006153b8826153d5565b9050919050565b6000600a821015156153cd57fe5b819050919050565b600073ffffffffffffffffffffffffffffffffffffffff82169050919050565b6000819050919050565b600061540a826153d5565b9050919050565b60008115159050919050565b6000819050919050565b6000819050919050565b600061543c82615455565b9050919050565b600061544e826153bf565b9050919050565b600061546082615467565b9050919050565b6000615472826153d5565b9050919050565b82818337600083830152505050565b60005b838110156154a657808201518184015260208101905061548b565b838111156154b5576000848401525b50505050565b6000601f19601f830116905091905056fea265627a7a723058209cbff7d893ff2311b2bc516a0c11bfd662e9def6f6e7b31b1ed232aebb6983ce6c6578706572696d656e74616cf50037",
  "source": "pragma solidity ^0.5.0;\npragma experimental ABIEncoderV2;\n\nimport \"./RUCToken.sol\";\n//import \"./SafeMath.sol\";\n\ncontract RUCMarket {\n    \n  using SafeMath for uint256;\n\n  address payable admin;\n  uint256 public tokenPrice;\n  uint256 public tokensSold;\n\n  uint requestedProducts;\n  uint totalOrderNumber = 0;\n  uint totalProductNumber = 0;\n  uint totalCourierNumber = 0;\n  \n\n  RUCToken token;\n\n  enum State {REQUESTED, PAYED, SELLER_COMFIRMED, SELLER_SENT, \n  BUYER_GOT, COMPLETED, WILL_RETURN, BUYER_SENT, SELLER_GOT, CANCLED}\n\n  struct Order {\n    uint id;\n    uint productId;\n    uint productValue;\n    uint deliverFee;\n    uint number;\n    address seller;\n    string sellAddress;\n    address buyer;\n    string buyerAddress;\n    uint courierId;\n    State state;\n    uint deliverTime; \n  }\n  \n  struct Product {\n    uint id;\n    string name;\n    uint price;\n    uint number;\n    //uint unconfirmedRequests;\n    address seller;\n    string url;\n  }\n  \n  \n  struct Courier {\n      uint id;\n      address accountAddress;\n      string companyName;\n      string publicKey;\n      uint fee;\n  }\n  \n  //mapping (address => AddressInfo) addressTable;\n  //mapping (address => bool) registerTable;\n  mapping (address => bool) certifiedCourier; // for admin to certify courier\n  mapping (address => bool) isCourier;  // for check if a courier double registers\n\n  Product[] public products;\n  Order[] orders;\n  Courier[] public couriers;\n  \n \n  event Purchase(uint _productId, uint _price, uint _number, address _seller, address _buyer);\n  event TokenSell(address _buyer, uint256 _amount);\n  \n  constructor(RUCToken _tokenContract, uint256 _tokenPrice) public {\n    token = _tokenContract;\n    admin = msg.sender;\n    tokenPrice = _tokenPrice;\n  }\n  \n\n/************************ Token Part **************************************************************/\n\n  function buyTokens(uint256 _numberOfTokens) public payable {\n\n    // Require that value is equal to tokens\n    require(msg.value == _numberOfTokens.mul(tokenPrice));\n\n    // Require that the contract has enough tokens\n    require(token.balanceOf(address(this))>= _numberOfTokens);\n\n    // Require that a transfer is successful\n    require(token.transfer(msg.sender, _numberOfTokens));\n\n    // Keep track of tokensSold\n    tokensSold += _numberOfTokens;\n\n    // Trigger Sell Event\n    emit TokenSell(msg.sender, _numberOfTokens);\n  }\n  \n  \n  /************************ Purchase Part **************************************************************/\n  \n  function addCourier(address _courierAddress) public{\n    require(msg.sender == admin);         // only by admin\n    certifiedCourier[_courierAddress] = true;\n  }\n\n  function courierRegister(string memory _companyName, string memory _publicKey, uint _fee) public {\n      require(certifiedCourier[msg.sender]); // require msg.sender to be already certified\n      require(!isCourier[msg.sender]); // prevent double register\n      \n      Courier memory _courier;\n      totalCourierNumber = totalCourierNumber.add(1);\n      _courier.id = totalCourierNumber; //id = totalCourierNumber \n      _courier.accountAddress = msg.sender;\n      _courier.companyName = _companyName;\n      _courier.publicKey = _publicKey;\n      _courier.fee = _fee;\n      \n      couriers.push(_courier);\n      isCourier[msg.sender] = true;\n  }\n  \n  function addProduct(string memory _name, uint _price, uint _number, string memory _url) public {\n    require(_price > 0);\n    require(_number > 0);\n    \n    Product memory _product;\n    totalProductNumber = totalProductNumber.add(1);\n    _product.id = totalProductNumber; //id = totalProductNumber\n    _product.name = _name;\n    _product.price = _price;\n    _product.number = _number;\n    _product.seller = msg.sender;\n    _product.url = _url;\n    products.push(_product);\n  }\n\n  \n  function purchaseRequest(uint _productId, uint _requestNumber, uint _courierId) external {\n    require(_productId != 0);\n    \n    //(Product memory _product, uint _productIndex) = findProductAndIndexById(_productId);\n    Product memory _product = findProductById(_productId);\n    require(_productId == _product.id); //_product does exist\n    //require(_courierId > 0 && _courierId <= couriers.length);\n    require(_courierId !=0);\n    require(_requestNumber != 0 && _requestNumber <= _product.number);\n    require((_product.price.mul(_requestNumber)) <= token.balanceOf(msg.sender));\n    require(_product.seller != msg.sender); // can not buy things from one himself\n    \n    Order memory _order;\n    totalOrderNumber = totalOrderNumber.add(1);\n    _order.id = totalOrderNumber; // order id = totalOrderNumber\n    _order.productId = _productId;\n    _order.productValue = _product.price.mul(_requestNumber); // number * price \n    Courier memory _courier = findCourierById(_courierId);\n    _order.deliverFee = _courier.fee; //deliver fee\n    _order.number = _requestNumber;\n    _order.seller = _product.seller;\n    _order.buyer = msg.sender;\n    _order.courierId = _courierId;\n    _order.state = State.REQUESTED;\n\n    orders.push(_order);\n    \n  }\n  \n  \n  function buyerPayOrder(uint _orderId) external {\n      require(_orderId !=0);\n      \n      (Order memory _order,uint _orderIndex) = findOrderAndIndexById(_orderId);\n      require(_order.id != 0); // order exist\n      \n      require(msg.sender == _order.buyer);\n      require(_order.state == State.REQUESTED);\n      \n      uint totalValue = _order.productValue.add(_order.deliverFee); //totalValue = productValue + deliverFee\n      token.approve(msg.sender, address(this), totalValue);\n      require(token.allowance(msg.sender, address(this)) >= totalValue);\n      token.transferFrom(msg.sender, address(this), totalValue);\n      orders[_orderIndex].state = State.PAYED;\n      \n  }\n  \n  function sellerComfirmOrder(uint _orderId) external {\n      require(_orderId != 0);\n      (Order memory _order,uint _orderIndex) = findOrderAndIndexById(_orderId);\n      require(_order.id != 0); // order exist\n      \n      require(msg.sender == _order.seller );\n      require(_order.state == State.PAYED);  // require preious state\n      (Product memory _product,uint _productIndex) = findProductAndIndexById(_order.productId);\n      require(_order.number <= _product.number);\n      \n      \n      \n      orders[_orderIndex].state = State.SELLER_COMFIRMED; //change state to \"...\"\n      products[_productIndex].number = products[_productIndex].number.sub(_order.number); // update product number\n      \n      emit Purchase( _order.productId, _product.price, _order.number, _order.seller, _order.buyer);\n  }\n  \n  function sellerSendProduct(uint _orderId, bytes32 _hash, bytes calldata _sig) external {\n      require(_orderId != 0);\n      (Order memory _order,uint _orderIndex) = findOrderAndIndexById(_orderId);\n      require(_order.id != 0); // order exist\n      require(msg.sender == _order.seller); //msg.sender == order's seller\n      \n      Courier memory _courier = findCourierById(_order.courierId);\n      require(recover(_hash,_sig) == _courier.accountAddress); // verify signature from courier\n      \n      require(_order.state == State.SELLER_COMFIRMED); // state == SELLER_COMFIRMED\n      \n      token.transfer(_courier.accountAddress, _order.deliverFee); // pay deliver fee\n      orders[_orderIndex].state = State.SELLER_SENT; //change state to \"SELLER_SENT\"\n  }\n  \n  function productDeliveredToBuyer(uint _orderId, bytes32 _hash, bytes calldata _sig) external {\n      require(_orderId != 0);\n      (Order memory _order,uint _orderIndex) = findOrderAndIndexById(_orderId);\n      require(_order.id != 0); // order exist\n      \n      require(recover(_hash,_sig) == _order.buyer); // verify signature from buyer\n      \n      Courier memory _courier = findCourierById(_order.courierId);\n      require(msg.sender == _courier.accountAddress); //msg.sender == order's courier\n      \n      require(_order.state == State.SELLER_SENT); // require previous state\n      \n      //token.transferFrom(address(this), _order.seller, _order.productValue);\n      orders[_orderIndex].state = State.BUYER_GOT;\n      orders[_orderIndex].deliverTime = now; // set the deliverTime as 'now'\n  }\n  \n  function buyerConfirm(uint _orderId) external {\n      require(_orderId != 0);\n      (Order memory _order,uint _orderIndex) = findOrderAndIndexById(_orderId);\n      require(_order.id != 0); // order exist\n      \n      require(msg.sender == _order.buyer); // msg.sender == buyer\n      require(_order.state == State.BUYER_GOT); // require previous state\n      \n      //token.transferFrom(address(this), _order.seller, _order.productValue);\n      token.transfer(_order.seller, _order.productValue);\n      orders[_orderIndex].state = State.COMPLETED;\n  }\n  \n  function sellerGetMoneyFromOrder(uint _orderId) external {\n      require(_orderId != 0);\n      (Order memory _order,uint _orderIndex) = findOrderAndIndexById(_orderId);\n      require(_order.id != 0); // order exist\n      \n      require(msg.sender == _order.seller); //msg.sender == seller\n      require(now > _order.deliverTime.add(1 minutes)); // consideration time is over\n      require(_order.state == State.BUYER_GOT); // Has't been confirmed\n      \n      //token.transferFrom(address(this), _order.seller, _order.productValue);\n      token.transfer(_order.seller, _order.productValue);\n      orders[_orderIndex].state = State.COMPLETED;\n  }\n  \n  function buyerWillRuturnProduct(uint _orderId) external {\n      require(_orderId !=0);\n      \n      (Order memory _order,uint _orderIndex) = findOrderAndIndexById(_orderId);\n      require(_order.id != 0); // order exist\n      \n      require(msg.sender == _order.buyer);\n      require(_order.state == State.BUYER_GOT); // state == BUYER_GOT\n      require(now <= _order.deliverTime.add(1 minutes)); // within the consideration time limit\n      \n      token.approve(msg.sender, address(this), _order.deliverFee);\n      require(token.allowance(msg.sender, address(this)) >= _order.deliverFee);\n      token.transferFrom(msg.sender, address(this), _order.deliverFee);\n      orders[_orderIndex].state = State.WILL_RETURN;\n      \n  }\n  \n  function buyerSendProduct(uint _orderId, bytes32 _hash, bytes calldata _sig) external {\n      require(_orderId != 0);\n      (Order memory _order,uint _orderIndex) = findOrderAndIndexById(_orderId);\n      require(_order.id != 0); // order exist\n      require(msg.sender == _order.buyer); //msg.sender == order's buyer\n      \n      Courier memory _courier = findCourierById(_order.courierId);\n      require(recover(_hash,_sig) == _courier.accountAddress); // verify signature\n      \n      require(_order.state == State.WILL_RETURN); // state == WILL_RETURN\n      \n      token.transfer(_courier.accountAddress, _order.deliverFee); // pay deliver fee\n      orders[_orderIndex].state = State.BUYER_SENT; //change state to \"SELLER_SENT\"\n  }\n  \n  function productDeliveredToSeller(uint _orderId, bytes32 _hash, bytes calldata _sig) external {\n      require(_orderId != 0);\n      (Order memory _order,uint _orderIndex) = findOrderAndIndexById(_orderId);\n      require(_order.id != 0); // order exist\n      \n      require(recover(_hash,_sig) == _order.seller); // verify signature from seller\n      \n      Courier memory _courier = findCourierById(_order.courierId);\n      require(msg.sender == _courier.accountAddress); //msg.sender == order's courier\n\n      require(_order.state == State.BUYER_SENT); // require previous state\n      \n      //token.transferFrom(address(this), _order.seller, _order.productValue);\n      orders[_orderIndex].state = State.SELLER_GOT;\n      //orders[_orderIndex].deliverTime = now; // reset the deliverTime as 'now'\n      \n      //add product number\n      uint _productIndex = findProductIndexById(_order.productId);\n      products[_productIndex].number = products[_productIndex].number.add(_order.number);\n      \n      token.transfer(_order.buyer, _order.productValue); // return the money back to buyer\n  }\n  \n  function cancleByBuyer(uint _orderId) external {\n      require(_orderId != 0);\n      (Order memory _order,uint _orderIndex) = findOrderAndIndexById(_orderId);\n      require(_order.id != 0); // order exist\n      \n      require(msg.sender == _order.buyer); // only buyer call this cancle  \n      \n      /*two cases:\n        1. before seller send products: buyer can get all the money (token) back\n        2. after buyer got the products, before he sends \n        (which is state WILL_RETURN): similer to buyerConfirm()*/\n      if(_order.state < State.SELLER_SENT) { // 1. before seller sent\n          orders[_orderIndex].state = State.CANCLED; // set state as CANCLED\n          token.transfer(msg.sender, _order.productValue.add(_order.deliverFee)); // transfer token back\n      }\n      else if(_order.state == State.WILL_RETURN){\n          token.transfer(_order.seller, _order.productValue);\n          orders[_orderIndex].state = State.COMPLETED;\n      }\n  }\n  \n  function cancleByCourier(uint _orderId) external {\n      /* Situation: \n      courier help qulify the product, and the returning products don't match the requirement.\n      */\n      \n      require(_orderId != 0);\n      (Order memory _order,uint _orderIndex) = findOrderAndIndexById(_orderId);\n      require(_order.id != 0); // order exist\n      \n      Courier memory _courier = findCourierById(_order.courierId);\n      require(msg.sender == _courier.accountAddress); // only courier call this cancle  \n      require(_order.state == State.WILL_RETURN);\n      \n      token.transfer(_order.seller, _order.productValue.add(_order.deliverFee));\n      orders[_orderIndex].state = State.COMPLETED;\n  }\n\n  /****************************** Find and Get methods***********************************/\n    \n  function productsNumber() external view returns(uint){\n    return products.length;\n  }\n\n  function findOrderAndIndexById(uint _orderId) internal view returns(Order memory, uint) {\n    for(uint i = 0; i < orders.length; i++) {\n       if(orders[i].id == _orderId){\n         return (orders[i], i);\n       }\n    }\n    \n    Order memory order;\n    \n    return (order, 0);\n  }\n  \n  function findOrderById(uint _orderid) internal view returns(Order memory){\n      for(uint i = 0; i < orders.length; i++){\n          if(orders[i].id == _orderid)\n            return orders[i];\n      }\n      \n      Order memory order;\n      return order;\n  }\n\n  function findOrdersBySeller(address _seller) external view returns(Order[] memory) {\n    uint count = 0;\n    uint i;\n    uint j = 0;\n    for(i = 0; i < orders.length; i++){\n      if(orders[i].seller == _seller){\n        count ++;\n      }\n    }\n\n    Order[] memory results = new Order[](count);\n\n    for(i = 0; i < orders.length; i++){\n      if(orders[i].seller == _seller){\n        results[j++] = orders[i];\n      }\n    }\n\n    return results;\n  }\n  \n  function findOrdersByBuyer(address _buyer) external view returns(Order[] memory) {\n    uint count = 0;\n    uint i;\n    uint j = 0;\n    for(i = 0; i < orders.length; i++){\n      if(orders[i].buyer == _buyer){\n        count ++;\n      }\n    }\n\n    Order[] memory results = new Order[](count);\n\n    for(i = 0; i < orders.length; i++){\n      if(orders[i].buyer == _buyer){\n        results[j++] = orders[i];\n      }\n    }\n      return results;\n  }\n  \n  function findOrdersBycourierId(uint _courierId) external view returns(Order[] memory) {\n    uint count = 0;\n    uint i;\n    uint j = 0;\n    for(i = 0; i < orders.length; i++){\n      if(orders[i].courierId == _courierId){\n        count ++;\n      }\n    }\n\n    Order[] memory results = new Order[](count);\n\n    for(i = 0; i < orders.length; i++){\n      if(orders[i].courierId == _courierId){\n        results[j++] = orders[i];\n      }\n    }\n\n    return results;\n  }\n\n\n\n  function findProductAndIndexById(uint _productId) internal view returns(Product memory, uint) {\n    for(uint i = 0; i < products.length; i++) {\n       if(products[i].id == _productId){\n         return (products[i], i);\n       }\n    }\n    \n    Product memory product;\n    \n    return (product, 0);\n  }\n  \n  function findProductIndexById(uint _productId) internal view returns(uint) {\n    for(uint i = 0; i < products.length; i++) {\n       if(products[i].id == _productId){\n         return i;\n       }\n    }\n    \n    return 0;\n  }\n  \n  function findProductById(uint _productId) public view returns(Product memory) {\n    for(uint i = 0; i < products.length; i++) {\n       if(products[i].id == _productId){\n         return products[i];\n       }\n    }\n    \n    Product memory product;\n    \n    return product;\n  }\n  \n  function findCourierById(uint _courierId) public view returns(Courier memory) {\n    for(uint i = 0; i < couriers.length; i++) {\n       if(couriers[i].id == _courierId){\n         return couriers[i];\n       }\n    }\n    \n    Courier memory courier;\n    \n    return courier;\n  }\n/*********************************Verify Signature*****************************************/\n  function recover(bytes32 hash, bytes memory signature)\n      public\n      pure\n      returns (address)\n    {\n      bytes32 r;\n      bytes32 s;\n      uint8 v;\n\n      // Check the signature length\n      if (signature.length != 65) {\n        return (address(0));\n      }\n\n      // Divide the signature in r, s and v variables\n      // ecrecover takes the signature parameters, and the only way to get them\n      // currently is to use assembly.\n      // solium-disable-next-line security/no-inline-assembly\n      assembly {\n        r := mload(add(signature, 0x20))\n        s := mload(add(signature, 0x40))\n        v := byte(0, mload(add(signature, 0x60)))\n      }\n\n      // Version of signature should be 27 or 28, but 0 and 1 are also possible versions\n      if (v < 27) {\n        v += 27;\n      }\n\n      // If the version is correct return the signer address\n      if (v != 27 && v != 28) {\n        return (address(0));\n      } else {\n        // solium-disable-next-line arg-overflow\n        return ecrecover(hash, v, r, s);\n      }\n    }\n\n}",
  "sourcePath": "/home/elaine/RUCMarket/contracts/RUCMarket.sol",
  "compiler": {
    "name": "solc",
    "version": "0.5.0+commit.1d4f565a.Emscripten.clang"
  },
  "schemaVersion": "3.0.1",
  "updatedAt": "2019-04-18T01:21:14.886Z",
  "devdoc": {
    "methods": {}
  },
  "userdoc": {
    "methods": {
      "addCourier(address)": {
        "notice": "********************** Purchase Part *************************************************************"
      },
      "buyTokens(uint256)": {
        "notice": "********************** Token Part *************************************************************"
      },
      "productsNumber()": {
        "notice": "**************************** Find and Get methods**********************************"
      },
      "recover(bytes32,bytes)": {
        "notice": "*******************************Verify Signature****************************************"
      }
    }
  }
}