{
  "contractName": "RUCMarket",
  "abi": [
    {
      "constant": true,
      "inputs": [],
      "name": "tokensSold",
      "outputs": [
        {
          "name": "",
          "type": "uint256"
        }
      ],
      "payable": false,
      "stateMutability": "view",
      "type": "function"
    },
    {
      "constant": true,
      "inputs": [],
      "name": "tokenPrice",
      "outputs": [
        {
          "name": "",
          "type": "uint256"
        }
      ],
      "payable": false,
      "stateMutability": "view",
      "type": "function"
    },
    {
      "constant": true,
      "inputs": [
        {
          "name": "",
          "type": "uint256"
        }
      ],
      "name": "couriers",
      "outputs": [
        {
          "name": "id",
          "type": "uint256"
        },
        {
          "name": "accountAddress",
          "type": "address"
        },
        {
          "name": "companyName",
          "type": "string"
        },
        {
          "name": "publicKey",
          "type": "string"
        },
        {
          "name": "fee",
          "type": "uint256"
        }
      ],
      "payable": false,
      "stateMutability": "view",
      "type": "function"
    },
    {
      "inputs": [
        {
          "name": "_tokenContract",
          "type": "address"
        },
        {
          "name": "_tokenPrice",
          "type": "uint256"
        }
      ],
      "payable": false,
      "stateMutability": "nonpayable",
      "type": "constructor"
    },
    {
      "anonymous": false,
      "inputs": [
        {
          "indexed": false,
          "name": "_productId",
          "type": "uint256"
        },
        {
          "indexed": false,
          "name": "_price",
          "type": "uint256"
        },
        {
          "indexed": false,
          "name": "_number",
          "type": "uint256"
        },
        {
          "indexed": false,
          "name": "_seller",
          "type": "address"
        },
        {
          "indexed": false,
          "name": "_buyer",
          "type": "address"
        }
      ],
      "name": "Purchase",
      "type": "event"
    },
    {
      "anonymous": false,
      "inputs": [
        {
          "indexed": false,
          "name": "_buyer",
          "type": "address"
        },
        {
          "indexed": false,
          "name": "_amount",
          "type": "uint256"
        }
      ],
      "name": "TokenSell",
      "type": "event"
    },
    {
      "constant": false,
      "inputs": [
        {
          "name": "_numberOfTokens",
          "type": "uint256"
        }
      ],
      "name": "buyTokens",
      "outputs": [],
      "payable": true,
      "stateMutability": "payable",
      "type": "function"
    },
    {
      "constant": false,
      "inputs": [
        {
          "name": "_courierAddress",
          "type": "address"
        }
      ],
      "name": "addCourier",
      "outputs": [],
      "payable": false,
      "stateMutability": "nonpayable",
      "type": "function"
    },
    {
      "constant": false,
      "inputs": [
        {
          "name": "_companyName",
          "type": "string"
        },
        {
          "name": "_publicKey",
          "type": "string"
        },
        {
          "name": "_fee",
          "type": "uint256"
        }
      ],
      "name": "courierRegister",
      "outputs": [],
      "payable": false,
      "stateMutability": "nonpayable",
      "type": "function"
    },
    {
      "constant": false,
      "inputs": [
        {
          "name": "_name",
          "type": "string"
        },
        {
          "name": "_price",
          "type": "uint256"
        },
        {
          "name": "_number",
          "type": "uint256"
        },
        {
          "name": "_url",
          "type": "string"
        }
      ],
      "name": "addProduct",
      "outputs": [],
      "payable": false,
      "stateMutability": "nonpayable",
      "type": "function"
    },
    {
      "constant": false,
      "inputs": [
        {
          "name": "_productId",
          "type": "uint256"
        },
        {
          "name": "_requestNumber",
          "type": "uint256"
        },
        {
          "name": "_courierId",
          "type": "uint256"
        }
      ],
      "name": "purchaseRequest",
      "outputs": [],
      "payable": false,
      "stateMutability": "nonpayable",
      "type": "function"
    },
    {
      "constant": false,
      "inputs": [
        {
          "name": "_orderId",
          "type": "uint256"
        }
      ],
      "name": "buyerPayOrder",
      "outputs": [],
      "payable": false,
      "stateMutability": "nonpayable",
      "type": "function"
    },
    {
      "constant": false,
      "inputs": [
        {
          "name": "_orderId",
          "type": "uint256"
        }
      ],
      "name": "sellerComfirmOrder",
      "outputs": [],
      "payable": false,
      "stateMutability": "nonpayable",
      "type": "function"
    },
    {
      "constant": false,
      "inputs": [
        {
          "name": "_orderId",
          "type": "uint256"
        }
      ],
      "name": "sellerSendProduct",
      "outputs": [],
      "payable": false,
      "stateMutability": "nonpayable",
      "type": "function"
    },
    {
      "constant": false,
      "inputs": [
        {
          "name": "_orderId",
          "type": "uint256"
        }
      ],
      "name": "buyerGetProduct",
      "outputs": [],
      "payable": false,
      "stateMutability": "nonpayable",
      "type": "function"
    },
    {
      "constant": false,
      "inputs": [
        {
          "name": "_orderId",
          "type": "uint256"
        }
      ],
      "name": "buyerConfirm",
      "outputs": [],
      "payable": false,
      "stateMutability": "nonpayable",
      "type": "function"
    },
    {
      "constant": false,
      "inputs": [
        {
          "name": "_orderId",
          "type": "uint256"
        }
      ],
      "name": "sellerGetMoneyFromOrder",
      "outputs": [],
      "payable": false,
      "stateMutability": "nonpayable",
      "type": "function"
    },
    {
      "constant": false,
      "inputs": [
        {
          "name": "_orderId",
          "type": "uint256"
        }
      ],
      "name": "buyerWillRuturnProduct",
      "outputs": [],
      "payable": false,
      "stateMutability": "nonpayable",
      "type": "function"
    },
    {
      "constant": false,
      "inputs": [
        {
          "name": "_orderId",
          "type": "uint256"
        }
      ],
      "name": "buyerSendProduct",
      "outputs": [],
      "payable": false,
      "stateMutability": "nonpayable",
      "type": "function"
    },
    {
      "constant": false,
      "inputs": [
        {
          "name": "_orderId",
          "type": "uint256"
        }
      ],
      "name": "sellerGetProduct",
      "outputs": [],
      "payable": false,
      "stateMutability": "nonpayable",
      "type": "function"
    },
    {
      "constant": false,
      "inputs": [
        {
          "name": "_orderId",
          "type": "uint256"
        }
      ],
      "name": "cancleByBuyer",
      "outputs": [],
      "payable": false,
      "stateMutability": "nonpayable",
      "type": "function"
    },
    {
      "constant": false,
      "inputs": [
        {
          "name": "_orderId",
          "type": "uint256"
        }
      ],
      "name": "cancleByCourier",
      "outputs": [],
      "payable": false,
      "stateMutability": "nonpayable",
      "type": "function"
    },
    {
      "constant": true,
      "inputs": [
        {
          "name": "_orderid",
          "type": "uint256"
        }
      ],
      "name": "findOrderById",
      "outputs": [
        {
          "components": [
            {
              "name": "id",
              "type": "uint256"
            },
            {
              "name": "productId",
              "type": "uint256"
            },
            {
              "name": "productValue",
              "type": "uint256"
            },
            {
              "name": "deliverFee",
              "type": "uint256"
            },
            {
              "name": "number",
              "type": "uint256"
            },
            {
              "name": "seller",
              "type": "address"
            },
            {
              "name": "sellAddress",
              "type": "string"
            },
            {
              "name": "buyer",
              "type": "address"
            },
            {
              "name": "buyerAddress",
              "type": "string"
            },
            {
              "name": "courierId",
              "type": "uint256"
            },
            {
              "name": "state",
              "type": "uint8"
            },
            {
              "name": "deliverTime",
              "type": "uint256"
            }
          ],
          "name": "",
          "type": "tuple"
        }
      ],
      "payable": false,
      "stateMutability": "view",
      "type": "function"
    },
    {
      "constant": true,
      "inputs": [
        {
          "name": "_seller",
          "type": "address"
        }
      ],
      "name": "findOrdersBySeller",
      "outputs": [
        {
          "components": [
            {
              "name": "id",
              "type": "uint256"
            },
            {
              "name": "productId",
              "type": "uint256"
            },
            {
              "name": "productValue",
              "type": "uint256"
            },
            {
              "name": "deliverFee",
              "type": "uint256"
            },
            {
              "name": "number",
              "type": "uint256"
            },
            {
              "name": "seller",
              "type": "address"
            },
            {
              "name": "sellAddress",
              "type": "string"
            },
            {
              "name": "buyer",
              "type": "address"
            },
            {
              "name": "buyerAddress",
              "type": "string"
            },
            {
              "name": "courierId",
              "type": "uint256"
            },
            {
              "name": "state",
              "type": "uint8"
            },
            {
              "name": "deliverTime",
              "type": "uint256"
            }
          ],
          "name": "",
          "type": "tuple[]"
        }
      ],
      "payable": false,
      "stateMutability": "view",
      "type": "function"
    },
    {
      "constant": true,
      "inputs": [
        {
          "name": "_buyer",
          "type": "address"
        }
      ],
      "name": "findOrdersByBuyer",
      "outputs": [
        {
          "components": [
            {
              "name": "id",
              "type": "uint256"
            },
            {
              "name": "productId",
              "type": "uint256"
            },
            {
              "name": "productValue",
              "type": "uint256"
            },
            {
              "name": "deliverFee",
              "type": "uint256"
            },
            {
              "name": "number",
              "type": "uint256"
            },
            {
              "name": "seller",
              "type": "address"
            },
            {
              "name": "sellAddress",
              "type": "string"
            },
            {
              "name": "buyer",
              "type": "address"
            },
            {
              "name": "buyerAddress",
              "type": "string"
            },
            {
              "name": "courierId",
              "type": "uint256"
            },
            {
              "name": "state",
              "type": "uint8"
            },
            {
              "name": "deliverTime",
              "type": "uint256"
            }
          ],
          "name": "",
          "type": "tuple[]"
        }
      ],
      "payable": false,
      "stateMutability": "view",
      "type": "function"
    },
    {
      "constant": true,
      "inputs": [
        {
          "name": "_courierId",
          "type": "uint256"
        }
      ],
      "name": "findOrdersBycourierId",
      "outputs": [
        {
          "components": [
            {
              "name": "id",
              "type": "uint256"
            },
            {
              "name": "productId",
              "type": "uint256"
            },
            {
              "name": "productValue",
              "type": "uint256"
            },
            {
              "name": "deliverFee",
              "type": "uint256"
            },
            {
              "name": "number",
              "type": "uint256"
            },
            {
              "name": "seller",
              "type": "address"
            },
            {
              "name": "sellAddress",
              "type": "string"
            },
            {
              "name": "buyer",
              "type": "address"
            },
            {
              "name": "buyerAddress",
              "type": "string"
            },
            {
              "name": "courierId",
              "type": "uint256"
            },
            {
              "name": "state",
              "type": "uint8"
            },
            {
              "name": "deliverTime",
              "type": "uint256"
            }
          ],
          "name": "",
          "type": "tuple[]"
        }
      ],
      "payable": false,
      "stateMutability": "view",
      "type": "function"
    },
    {
      "constant": true,
      "inputs": [
        {
          "name": "_productId",
          "type": "uint256"
        }
      ],
      "name": "findProductById",
      "outputs": [
        {
          "components": [
            {
              "name": "id",
              "type": "uint256"
            },
            {
              "name": "name",
              "type": "string"
            },
            {
              "name": "price",
              "type": "uint256"
            },
            {
              "name": "number",
              "type": "uint256"
            },
            {
              "name": "unconfirmedRequests",
              "type": "uint256"
            },
            {
              "name": "seller",
              "type": "address"
            },
            {
              "name": "url",
              "type": "string"
            }
          ],
          "name": "",
          "type": "tuple"
        }
      ],
      "payable": false,
      "stateMutability": "view",
      "type": "function"
    },
    {
      "constant": true,
      "inputs": [
        {
          "name": "_courierId",
          "type": "uint256"
        }
      ],
      "name": "findCourierById",
      "outputs": [
        {
          "components": [
            {
              "name": "id",
              "type": "uint256"
            },
            {
              "name": "accountAddress",
              "type": "address"
            },
            {
              "name": "companyName",
              "type": "string"
            },
            {
              "name": "publicKey",
              "type": "string"
            },
            {
              "name": "fee",
              "type": "uint256"
            }
          ],
          "name": "",
          "type": "tuple"
        }
      ],
      "payable": false,
      "stateMutability": "view",
      "type": "function"
    }
  ],
  "bytecode": "0x60806040526000600455600060055560006006553480156200002057600080fd5b50604051604080620053708339810180604052620000429190810190620000fe565b81600760006101000a81548173ffffffffffffffffffffffffffffffffffffffff021916908373ffffffffffffffffffffffffffffffffffffffff160217905550336000806101000a81548173ffffffffffffffffffffffffffffffffffffffff021916908373ffffffffffffffffffffffffffffffffffffffff16021790555080600181905550505062000191565b6000620000e0825162000173565b905092915050565b6000620000f6825162000187565b905092915050565b600080604083850312156200011257600080fd5b60006200012285828601620000d2565b92505060206200013585828601620000e8565b9150509250929050565b60006200014c8262000153565b9050919050565b600073ffffffffffffffffffffffffffffffffffffffff82169050919050565b600062000180826200013f565b9050919050565b6000819050919050565b6151cf80620001a16000396000f3fe608060405260043610610149576000357c0100000000000000000000000000000000000000000000000000000000900463ffffffff16806314082cd21461014e578063234142f81461018b5780632445d6d7146101b45780633610724e146101dd578063374b93c8146101f957806338789d3a146102225780633cb80eb01461024b5780634090d5d214610274578063518ab2a8146102b157806367bd9eea146102dc57806368ed936e14610305578063705862e01461032e57806375b254bf146103575780637ff9b59614610394578063875fc626146103bf5780638784b39e146103fc578063888487cd146104255780639c3174361461044e5780639e0125e314610477578063cd828eb2146104b4578063d47b8238146104dd578063ddf6949f14610506578063e2da361014610543578063ef8536fb14610584578063f4185bf3146105ad575b600080fd5b34801561015a57600080fd5b5061017560048036036101709190810190614901565b6105d6565b6040516101829190614f06565b60405180910390f35b34801561019757600080fd5b506101b260048036036101ad9190810190614901565b61082c565b005b3480156101c057600080fd5b506101db60048036036101d6919081019061479d565b610a19565b005b6101f760048036036101f29190810190614901565b610acf565b005b34801561020557600080fd5b50610220600480360361021b9190810190614901565b610ce8565b005b34801561022e57600080fd5b506102496004803603610244919081019061486e565b610eb4565b005b34801561025757600080fd5b50610272600480360361026d9190810190614901565b611041565b005b34801561028057600080fd5b5061029b60048036036102969190810190614901565b6113be565b6040516102a89190614ec2565b60405180910390f35b3480156102bd57600080fd5b506102c6611600565b6040516102d39190614f28565b60405180910390f35b3480156102e857600080fd5b5061030360048036036102fe9190810190614901565b611606565b005b34801561031157600080fd5b5061032c60048036036103279190810190614901565b6117ea565b005b34801561033a57600080fd5b50610355600480360361035091908101906147ef565b6119c1565b005b34801561036357600080fd5b5061037e60048036036103799190810190614901565b611c1a565b60405161038b9190614ee4565b60405180910390f35b3480156103a057600080fd5b506103a9611f12565b6040516103b69190614f28565b60405180910390f35b3480156103cb57600080fd5b506103e660048036036103e19190810190614901565b611f18565b6040516103f39190614ea0565b60405180910390f35b34801561040857600080fd5b50610423600480360361041e9190810190614901565b6122b7565b005b34801561043157600080fd5b5061044c60048036036104479190810190614901565b612647565b005b34801561045a57600080fd5b5061047560048036036104709190810190614901565b612805565b005b34801561048357600080fd5b5061049e6004803603610499919081019061479d565b6129dc565b6040516104ab9190614ea0565b60405180910390f35b3480156104c057600080fd5b506104db60048036036104d69190810190614901565b612e13565b005b3480156104e957600080fd5b5061050460048036036104ff9190810190614901565b61311e565b005b34801561051257600080fd5b5061052d6004803603610528919081019061479d565b61322d565b60405161053a9190614ea0565b60405180910390f35b34801561054f57600080fd5b5061056a60048036036105659190810190614901565b613664565b60405161057b959493929190614f43565b60405180910390f35b34801561059057600080fd5b506105ab60048036036105a69190810190614953565b6137f9565b005b3480156105b957600080fd5b506105d460048036036105cf9190810190614901565b613c24565b005b6105de614486565b60008090505b600a805490508110156108195782600a8281548110151561060157fe5b906000526020600020906007020160000154141561080c57600a8181548110151561062857fe5b906000526020600020906007020160e0604051908101604052908160008201548152602001600182018054600181600116156101000203166002900480601f0160208091040260200160405190810160405280929190818152602001828054600181600116156101000203166002900480156106e55780601f106106ba576101008083540402835291602001916106e5565b820191906000526020600020905b8154815290600101906020018083116106c857829003601f168201915b505050505081526020016002820154815260200160038201548152602001600482015481526020016005820160009054906101000a900473ffffffffffffffffffffffffffffffffffffffff1673ffffffffffffffffffffffffffffffffffffffff1673ffffffffffffffffffffffffffffffffffffffff168152602001600682018054600181600116156101000203166002900480601f0160208091040260200160405190810160405280929190818152602001828054600181600116156101000203166002900480156107fb5780601f106107d0576101008083540402835291602001916107fb565b820191906000526020600020905b8154815290600101906020018083116107de57829003601f168201915b505050505081525050915050610827565b80806001019150506105e4565b50610822614486565b809150505b919050565b6000811415151561083c57600080fd5b6108446144da565b600061084f83613e4f565b91509150600082600001511415151561086757600080fd5b61086f614573565b61087d8361012001516113be565b9050806020015173ffffffffffffffffffffffffffffffffffffffff163373ffffffffffffffffffffffffffffffffffffffff161415156108bd57600080fd5b600660098111156108ca57fe5b83610140015160098111156108db57fe5b1415156108e757600080fd5b600760009054906101000a900473ffffffffffffffffffffffffffffffffffffffff1673ffffffffffffffffffffffffffffffffffffffff1663a9059cbb8460a001516109458660600151876040015161415690919063ffffffff16565b6040518363ffffffff167c010000000000000000000000000000000000000000000000000000000002815260040161097e929190614e77565b602060405180830381600087803b15801561099857600080fd5b505af11580156109ac573d6000803e3d6000fd5b505050506040513d601f19601f820116820180604052506109d091908101906147c6565b506005600b838154811015156109e257fe5b90600052602060002090600c0201600a0160006101000a81548160ff02191690836009811115610a0e57fe5b021790555050505050565b6000809054906101000a900473ffffffffffffffffffffffffffffffffffffffff1673ffffffffffffffffffffffffffffffffffffffff163373ffffffffffffffffffffffffffffffffffffffff16141515610a7457600080fd5b6001600860008373ffffffffffffffffffffffffffffffffffffffff1673ffffffffffffffffffffffffffffffffffffffff16815260200190815260200160002060006101000a81548160ff02191690831515021790555050565b610ae46001548261417290919063ffffffff16565b34141515610af157600080fd5b80600760009054906101000a900473ffffffffffffffffffffffffffffffffffffffff1673ffffffffffffffffffffffffffffffffffffffff166370a08231306040518263ffffffff167c0100000000000000000000000000000000000000000000000000000000028152600401610b699190614db8565b60206040518083038186803b158015610b8157600080fd5b505afa158015610b95573d6000803e3d6000fd5b505050506040513d601f19601f82011682018060405250610bb9919081019061492a565b10151515610bc657600080fd5b600760009054906101000a900473ffffffffffffffffffffffffffffffffffffffff1673ffffffffffffffffffffffffffffffffffffffff1663a9059cbb33836040518363ffffffff167c0100000000000000000000000000000000000000000000000000000000028152600401610c3f929190614e4e565b602060405180830381600087803b158015610c5957600080fd5b505af1158015610c6d573d6000803e3d6000fd5b505050506040513d601f19601f82011682018060405250610c9191908101906147c6565b1515610c9c57600080fd5b806002600082825401925050819055507fce63ca7dc8dfc0313cea1035f873e3706e0161f9895f670682c0dab3969e36203382604051610cdd929190614e4e565b60405180910390a150565b60008114151515610cf857600080fd5b610d006144da565b6000610d0b83613e4f565b915091506000826000015114151515610d2357600080fd5b8160a0015173ffffffffffffffffffffffffffffffffffffffff163373ffffffffffffffffffffffffffffffffffffffff16141515610d6157600080fd5b60016009811115610d6e57fe5b8261014001516009811115610d7f57fe5b141515610d8b57600080fd5b610d93614486565b6000610da284602001516141aa565b915091508160600151846080015111151515610dbd57600080fd5b6002600b84815481101515610dce57fe5b90600052602060002090600c0201600a0160006101000a81548160ff02191690836009811115610dfa57fe5b0217905550610e368460800151600a83815481101515610e1657fe5b90600052602060002090600702016003015461440f90919063ffffffff16565b600a82815481101515610e4557fe5b9060005260206000209060070201600301819055507fff4fa69114c0677f6a88bfc157c0874ccb1d721fa92a870e1d262dc197face508460200151836040015186608001518760a001518860e00151604051610ea5959493929190614fa4565b60405180910390a15050505050565b600083111515610ec357600080fd5b600082111515610ed257600080fd5b610eda614486565b610ef0600160055461415690919063ffffffff16565b6005819055506005548160000181815250508481602001819052508381604001818152505082816060018181525050338160a0019073ffffffffffffffffffffffffffffffffffffffff16908173ffffffffffffffffffffffffffffffffffffffff1681525050818160c00181905250600a8190806001815401808255809150509060018203906000526020600020906007020160009091929091909150600082015181600001556020820151816001019080519060200190610fb49291906145b9565b5060408201518160020155606082015181600301556080820151816004015560a08201518160050160006101000a81548173ffffffffffffffffffffffffffffffffffffffff021916908373ffffffffffffffffffffffffffffffffffffffff16021790555060c08201518160060190805190602001906110369291906145b9565b505050505050505050565b6000811415151561105157600080fd5b6110596144da565b600061106483613e4f565b91509150600082600001511415151561107c57600080fd5b8160e0015173ffffffffffffffffffffffffffffffffffffffff163373ffffffffffffffffffffffffffffffffffffffff161415156110ba57600080fd5b600060098111156110c757fe5b82610140015160098111156110d857fe5b1415156110e457600080fd5b60006111018360600151846040015161415690919063ffffffff16565b9050600760009054906101000a900473ffffffffffffffffffffffffffffffffffffffff1673ffffffffffffffffffffffffffffffffffffffff1663e1f21c673330846040518463ffffffff167c010000000000000000000000000000000000000000000000000000000002815260040161117e93929190614e17565b602060405180830381600087803b15801561119857600080fd5b505af11580156111ac573d6000803e3d6000fd5b505050506040513d601f19601f820116820180604052506111d091908101906147c6565b5080600760009054906101000a900473ffffffffffffffffffffffffffffffffffffffff1673ffffffffffffffffffffffffffffffffffffffff1663dd62ed3e33306040518363ffffffff167c010000000000000000000000000000000000000000000000000000000002815260040161124b929190614dee565b60206040518083038186803b15801561126357600080fd5b505afa158015611277573d6000803e3d6000fd5b505050506040513d601f19601f8201168201806040525061129b919081019061492a565b101515156112a857600080fd5b600760009054906101000a900473ffffffffffffffffffffffffffffffffffffffff1673ffffffffffffffffffffffffffffffffffffffff166323b872dd3330846040518463ffffffff167c010000000000000000000000000000000000000000000000000000000002815260040161132393929190614e17565b602060405180830381600087803b15801561133d57600080fd5b505af1158015611351573d6000803e3d6000fd5b505050506040513d601f19601f8201168201806040525061137591908101906147c6565b506001600b8381548110151561138757fe5b90600052602060002090600c0201600a0160006101000a81548160ff021916908360098111156113b357fe5b021790555050505050565b6113c6614573565b60008090505b600c805490508110156115ed5782600c828154811015156113e957fe5b90600052602060002090600502016000015414156115e057600c8181548110151561141057fe5b906000526020600020906005020160a06040519081016040529081600082015481526020016001820160009054906101000a900473ffffffffffffffffffffffffffffffffffffffff1673ffffffffffffffffffffffffffffffffffffffff1673ffffffffffffffffffffffffffffffffffffffff168152602001600282018054600181600116156101000203166002900480601f0160208091040260200160405190810160405280929190818152602001828054600181600116156101000203166002900480156115235780601f106114f857610100808354040283529160200191611523565b820191906000526020600020905b81548152906001019060200180831161150657829003601f168201915b50505050508152602001600382018054600181600116156101000203166002900480601f0160208091040260200160405190810160405280929190818152602001828054600181600116156101000203166002900480156115c55780601f1061159a576101008083540402835291602001916115c5565b820191906000526020600020905b8154815290600101906020018083116115a857829003601f168201915b505050505081526020016004820154815250509150506115fb565b80806001019150506113cc565b506115f6614573565b809150505b919050565b60025481565b6000811415151561161657600080fd5b61161e6144da565b600061162983613e4f565b91509150600082600001511415151561164157600080fd5b8160a0015173ffffffffffffffffffffffffffffffffffffffff163373ffffffffffffffffffffffffffffffffffffffff1614151561167f57600080fd5b611698603c83610160015161415690919063ffffffff16565b421115156116a557600080fd5b600460098111156116b257fe5b82610140015160098111156116c357fe5b1415156116cf57600080fd5b600760009054906101000a900473ffffffffffffffffffffffffffffffffffffffff1673ffffffffffffffffffffffffffffffffffffffff1663a9059cbb8360a0015184604001516040518363ffffffff167c0100000000000000000000000000000000000000000000000000000000028152600401611750929190614e77565b602060405180830381600087803b15801561176a57600080fd5b505af115801561177e573d6000803e3d6000fd5b505050506040513d601f19601f820116820180604052506117a291908101906147c6565b506005600b828154811015156117b457fe5b90600052602060002090600c0201600a0160006101000a81548160ff021916908360098111156117e057fe5b0217905550505050565b600081141515156117fa57600080fd5b6118026144da565b600061180d83613e4f565b91509150600082600001511415151561182557600080fd5b61182d614573565b61183b8361012001516113be565b9050806020015173ffffffffffffffffffffffffffffffffffffffff163373ffffffffffffffffffffffffffffffffffffffff1614151561187b57600080fd5b6006600981111561188857fe5b836101400151600981111561189957fe5b1415156118a557600080fd5b600760009054906101000a900473ffffffffffffffffffffffffffffffffffffffff1673ffffffffffffffffffffffffffffffffffffffff1663a9059cbb826020015185606001516040518363ffffffff167c0100000000000000000000000000000000000000000000000000000000028152600401611926929190614e77565b602060405180830381600087803b15801561194057600080fd5b505af1158015611954573d6000803e3d6000fd5b505050506040513d601f19601f8201168201806040525061197891908101906147c6565b506007600b8381548110151561198a57fe5b90600052602060002090600c0201600a0160006101000a81548160ff021916908360098111156119b657fe5b021790555050505050565b600860003373ffffffffffffffffffffffffffffffffffffffff1673ffffffffffffffffffffffffffffffffffffffff16815260200190815260200160002060009054906101000a900460ff161515611a1957600080fd5b600960003373ffffffffffffffffffffffffffffffffffffffff1673ffffffffffffffffffffffffffffffffffffffff16815260200190815260200160002060009054906101000a900460ff16151515611a7257600080fd5b611a7a614573565b611a90600160065461415690919063ffffffff16565b60068190555060065481600001818152505033816020019073ffffffffffffffffffffffffffffffffffffffff16908173ffffffffffffffffffffffffffffffffffffffff168152505083816040018190525082816060018190525081816080018181525050600c81908060018154018082558091505090600182039060005260206000209060050201600090919290919091506000820151816000015560208201518160010160006101000a81548173ffffffffffffffffffffffffffffffffffffffff021916908373ffffffffffffffffffffffffffffffffffffffff1602179055506040820151816002019080519060200190611b919291906145b9565b506060820151816003019080519060200190611bae9291906145b9565b50608082015181600401555050506001600960003373ffffffffffffffffffffffffffffffffffffffff1673ffffffffffffffffffffffffffffffffffffffff16815260200190815260200160002060006101000a81548160ff02191690831515021790555050505050565b611c226144da565b60008090505b600b80549050811015611eff5782600b82815481101515611c4557fe5b90600052602060002090600c0201600001541415611ef257600b81815481101515611c6c57fe5b90600052602060002090600c0201610180604051908101604052908160008201548152602001600182015481526020016002820154815260200160038201548152602001600482015481526020016005820160009054906101000a900473ffffffffffffffffffffffffffffffffffffffff1673ffffffffffffffffffffffffffffffffffffffff1673ffffffffffffffffffffffffffffffffffffffff168152602001600682018054600181600116156101000203166002900480601f016020809104026020016040519081016040528092919081815260200182805460018160011615610100020316600290048015611da85780601f10611d7d57610100808354040283529160200191611da8565b820191906000526020600020905b815481529060010190602001808311611d8b57829003601f168201915b505050505081526020016007820160009054906101000a900473ffffffffffffffffffffffffffffffffffffffff1673ffffffffffffffffffffffffffffffffffffffff1673ffffffffffffffffffffffffffffffffffffffff168152602001600882018054600181600116156101000203166002900480601f016020809104026020016040519081016040528092919081815260200182805460018160011615610100020316600290048015611ea05780601f10611e7557610100808354040283529160200191611ea0565b820191906000526020600020905b815481529060010190602001808311611e8357829003601f168201915b5050505050815260200160098201548152602001600a820160009054906101000a900460ff166009811115611ed157fe5b6009811115611edc57fe5b8152602001600b82015481525050915050611f0d565b8080600101915050611c28565b50611f086144da565b809150505b919050565b60015481565b6060600080905060008060009050600091505b600b80549050821015611f765784600b83815481101515611f4857fe5b90600052602060002090600c0201600901541415611f695782806001019350505b8180600101925050611f2b565b606083604051908082528060200260200182016040528015611fb257816020015b611f9f614639565b815260200190600190039081611f975790505b509050600092505b600b805490508310156122ab5785600b84815481101515611fd757fe5b90600052602060002090600c020160090154141561229e57600b83815481101515611ffe57fe5b90600052602060002090600c0201610180604051908101604052908160008201548152602001600182015481526020016002820154815260200160038201548152602001600482015481526020016005820160009054906101000a900473ffffffffffffffffffffffffffffffffffffffff1673ffffffffffffffffffffffffffffffffffffffff1673ffffffffffffffffffffffffffffffffffffffff168152602001600682018054600181600116156101000203166002900480601f01602080910402602001604051908101604052809291908181526020018280546001816001161561010002031660029004801561213a5780601f1061210f5761010080835404028352916020019161213a565b820191906000526020600020905b81548152906001019060200180831161211d57829003601f168201915b505050505081526020016007820160009054906101000a900473ffffffffffffffffffffffffffffffffffffffff1673ffffffffffffffffffffffffffffffffffffffff1673ffffffffffffffffffffffffffffffffffffffff168152602001600882018054600181600116156101000203166002900480601f0160208091040260200160405190810160405280929190818152602001828054600181600116156101000203166002900480156122325780601f1061220757610100808354040283529160200191612232565b820191906000526020600020905b81548152906001019060200180831161221557829003601f168201915b5050505050815260200160098201548152602001600a820160009054906101000a900460ff16600981111561226357fe5b600981111561226e57fe5b8152602001600b82015481525050818380600101945081518110151561229057fe5b906020019060200201819052505b8280600101935050611fba565b80945050505050919050565b600081141515156122c757600080fd5b6122cf6144da565b60006122da83613e4f565b9150915060008260000151141515156122f257600080fd5b8160e0015173ffffffffffffffffffffffffffffffffffffffff163373ffffffffffffffffffffffffffffffffffffffff1614151561233057600080fd5b6004600981111561233d57fe5b826101400151600981111561234e57fe5b14151561235a57600080fd5b612373603c83610160015161415690919063ffffffff16565b421115151561238157600080fd5b600760009054906101000a900473ffffffffffffffffffffffffffffffffffffffff1673ffffffffffffffffffffffffffffffffffffffff1663e1f21c67333085606001516040518463ffffffff167c010000000000000000000000000000000000000000000000000000000002815260040161240093929190614e17565b602060405180830381600087803b15801561241a57600080fd5b505af115801561242e573d6000803e3d6000fd5b505050506040513d601f19601f8201168201806040525061245291908101906147c6565b508160600151600760009054906101000a900473ffffffffffffffffffffffffffffffffffffffff1673ffffffffffffffffffffffffffffffffffffffff1663dd62ed3e33306040518363ffffffff167c01000000000000000000000000000000000000000000000000000000000281526004016124d1929190614dee565b60206040518083038186803b1580156124e957600080fd5b505afa1580156124fd573d6000803e3d6000fd5b505050506040513d601f19601f82011682018060405250612521919081019061492a565b1015151561252e57600080fd5b600760009054906101000a900473ffffffffffffffffffffffffffffffffffffffff1673ffffffffffffffffffffffffffffffffffffffff166323b872dd333085606001516040518463ffffffff167c01000000000000000000000000000000000000000000000000000000000281526004016125ad93929190614e17565b602060405180830381600087803b1580156125c757600080fd5b505af11580156125db573d6000803e3d6000fd5b505050506040513d601f19601f820116820180604052506125ff91908101906147c6565b506006600b8281548110151561261157fe5b90600052602060002090600c0201600a0160006101000a81548160ff0219169083600981111561263d57fe5b0217905550505050565b6000811415151561265757600080fd5b61265f6144da565b600061266a83613e4f565b91509150600082600001511415151561268257600080fd5b8160e0015173ffffffffffffffffffffffffffffffffffffffff163373ffffffffffffffffffffffffffffffffffffffff161415156126c057600080fd5b600460098111156126cd57fe5b82610140015160098111156126de57fe5b1415156126ea57600080fd5b600760009054906101000a900473ffffffffffffffffffffffffffffffffffffffff1673ffffffffffffffffffffffffffffffffffffffff1663a9059cbb8360a0015184604001516040518363ffffffff167c010000000000000000000000000000000000000000000000000000000002815260040161276b929190614e77565b602060405180830381600087803b15801561278557600080fd5b505af1158015612799573d6000803e3d6000fd5b505050506040513d601f19601f820116820180604052506127bd91908101906147c6565b506005600b828154811015156127cf57fe5b90600052602060002090600c0201600a0160006101000a81548160ff021916908360098111156127fb57fe5b0217905550505050565b6000811415151561281557600080fd5b61281d6144da565b600061282883613e4f565b91509150600082600001511415151561284057600080fd5b612848614573565b6128568361012001516113be565b9050806020015173ffffffffffffffffffffffffffffffffffffffff163373ffffffffffffffffffffffffffffffffffffffff1614151561289657600080fd5b600260098111156128a357fe5b83610140015160098111156128b457fe5b1415156128c057600080fd5b600760009054906101000a900473ffffffffffffffffffffffffffffffffffffffff1673ffffffffffffffffffffffffffffffffffffffff1663a9059cbb826020015185606001516040518363ffffffff167c0100000000000000000000000000000000000000000000000000000000028152600401612941929190614e77565b602060405180830381600087803b15801561295b57600080fd5b505af115801561296f573d6000803e3d6000fd5b505050506040513d601f19601f8201168201806040525061299391908101906147c6565b506003600b838154811015156129a557fe5b90600052602060002090600c0201600a0160006101000a81548160ff021916908360098111156129d157fe5b021790555050505050565b6060600080905060008060009050600091505b600b80549050821015612a86578473ffffffffffffffffffffffffffffffffffffffff16600b83815481101515612a2257fe5b90600052602060002090600c020160050160009054906101000a900473ffffffffffffffffffffffffffffffffffffffff1673ffffffffffffffffffffffffffffffffffffffff161415612a795782806001019350505b81806001019250506129ef565b606083604051908082528060200260200182016040528015612ac257816020015b612aaf614639565b815260200190600190039081612aa75790505b509050600092505b600b80549050831015612e07578573ffffffffffffffffffffffffffffffffffffffff16600b84815481101515612afd57fe5b90600052602060002090600c020160050160009054906101000a900473ffffffffffffffffffffffffffffffffffffffff1673ffffffffffffffffffffffffffffffffffffffff161415612dfa57600b83815481101515612b5a57fe5b90600052602060002090600c0201610180604051908101604052908160008201548152602001600182015481526020016002820154815260200160038201548152602001600482015481526020016005820160009054906101000a900473ffffffffffffffffffffffffffffffffffffffff1673ffffffffffffffffffffffffffffffffffffffff1673ffffffffffffffffffffffffffffffffffffffff168152602001600682018054600181600116156101000203166002900480601f016020809104026020016040519081016040528092919081815260200182805460018160011615610100020316600290048015612c965780601f10612c6b57610100808354040283529160200191612c96565b820191906000526020600020905b815481529060010190602001808311612c7957829003601f168201915b505050505081526020016007820160009054906101000a900473ffffffffffffffffffffffffffffffffffffffff1673ffffffffffffffffffffffffffffffffffffffff1673ffffffffffffffffffffffffffffffffffffffff168152602001600882018054600181600116156101000203166002900480601f016020809104026020016040519081016040528092919081815260200182805460018160011615610100020316600290048015612d8e5780601f10612d6357610100808354040283529160200191612d8e565b820191906000526020600020905b815481529060010190602001808311612d7157829003601f168201915b5050505050815260200160098201548152602001600a820160009054906101000a900460ff166009811115612dbf57fe5b6009811115612dca57fe5b8152602001600b820154815250508183806001019450815181101515612dec57fe5b906020019060200201819052505b8280600101935050612aca565b80945050505050919050565b60008114151515612e2357600080fd5b612e2b6144da565b6000612e3683613e4f565b915091506000826000015114151515612e4e57600080fd5b8160e0015173ffffffffffffffffffffffffffffffffffffffff163373ffffffffffffffffffffffffffffffffffffffff16141515612e8c57600080fd5b60036009811115612e9957fe5b8261014001516009811115612eaa57fe5b1015612fdd576009600b82815481101515612ec157fe5b90600052602060002090600c0201600a0160006101000a81548160ff02191690836009811115612eed57fe5b0217905550600760009054906101000a900473ffffffffffffffffffffffffffffffffffffffff1673ffffffffffffffffffffffffffffffffffffffff1663a9059cbb33612f4c8560600151866040015161415690919063ffffffff16565b6040518363ffffffff167c0100000000000000000000000000000000000000000000000000000000028152600401612f85929190614e4e565b602060405180830381600087803b158015612f9f57600080fd5b505af1158015612fb3573d6000803e3d6000fd5b505050506040513d601f19601f82011682018060405250612fd791908101906147c6565b50613119565b60066009811115612fea57fe5b8261014001516009811115612ffb57fe5b141561311857600760009054906101000a900473ffffffffffffffffffffffffffffffffffffffff1673ffffffffffffffffffffffffffffffffffffffff1663a9059cbb8360a0015184604001516040518363ffffffff167c0100000000000000000000000000000000000000000000000000000000028152600401613082929190614e77565b602060405180830381600087803b15801561309c57600080fd5b505af11580156130b0573d6000803e3d6000fd5b505050506040513d601f19601f820116820180604052506130d491908101906147c6565b506005600b828154811015156130e657fe5b90600052602060002090600c0201600a0160006101000a81548160ff0219169083600981111561311257fe5b02179055505b5b505050565b6000811415151561312e57600080fd5b6131366144da565b600061314183613e4f565b91509150600082600001511415151561315957600080fd5b8160e0015173ffffffffffffffffffffffffffffffffffffffff163373ffffffffffffffffffffffffffffffffffffffff1614151561319757600080fd5b600360098111156131a457fe5b82610140015160098111156131b557fe5b1415156131c157600080fd5b6004600b828154811015156131d257fe5b90600052602060002090600c0201600a0160006101000a81548160ff021916908360098111156131fe57fe5b021790555042600b8281548110151561321357fe5b90600052602060002090600c0201600b0181905550505050565b6060600080905060008060009050600091505b600b805490508210156132d7578473ffffffffffffffffffffffffffffffffffffffff16600b8381548110151561327357fe5b90600052602060002090600c020160070160009054906101000a900473ffffffffffffffffffffffffffffffffffffffff1673ffffffffffffffffffffffffffffffffffffffff1614156132ca5782806001019350505b8180600101925050613240565b60608360405190808252806020026020018201604052801561331357816020015b613300614639565b8152602001906001900390816132f85790505b509050600092505b600b80549050831015613658578573ffffffffffffffffffffffffffffffffffffffff16600b8481548110151561334e57fe5b90600052602060002090600c020160070160009054906101000a900473ffffffffffffffffffffffffffffffffffffffff1673ffffffffffffffffffffffffffffffffffffffff16141561364b57600b838154811015156133ab57fe5b90600052602060002090600c0201610180604051908101604052908160008201548152602001600182015481526020016002820154815260200160038201548152602001600482015481526020016005820160009054906101000a900473ffffffffffffffffffffffffffffffffffffffff1673ffffffffffffffffffffffffffffffffffffffff1673ffffffffffffffffffffffffffffffffffffffff168152602001600682018054600181600116156101000203166002900480601f0160208091040260200160405190810160405280929190818152602001828054600181600116156101000203166002900480156134e75780601f106134bc576101008083540402835291602001916134e7565b820191906000526020600020905b8154815290600101906020018083116134ca57829003601f168201915b505050505081526020016007820160009054906101000a900473ffffffffffffffffffffffffffffffffffffffff1673ffffffffffffffffffffffffffffffffffffffff1673ffffffffffffffffffffffffffffffffffffffff168152602001600882018054600181600116156101000203166002900480601f0160208091040260200160405190810160405280929190818152602001828054600181600116156101000203166002900480156135df5780601f106135b4576101008083540402835291602001916135df565b820191906000526020600020905b8154815290600101906020018083116135c257829003601f168201915b5050505050815260200160098201548152602001600a820160009054906101000a900460ff16600981111561361057fe5b600981111561361b57fe5b8152602001600b82015481525050818380600101945081518110151561363d57fe5b906020019060200201819052505b828060010193505061331b565b80945050505050919050565b600c8181548110151561367357fe5b90600052602060002090600502016000915090508060000154908060010160009054906101000a900473ffffffffffffffffffffffffffffffffffffffff1690806002018054600181600116156101000203166002900480601f01602080910402602001604051908101604052809291908181526020018280546001816001161561010002031660029004801561374b5780601f106137205761010080835404028352916020019161374b565b820191906000526020600020905b81548152906001019060200180831161372e57829003601f168201915b505050505090806003018054600181600116156101000203166002900480601f0160208091040260200160405190810160405280929190818152602001828054600181600116156101000203166002900480156137e95780601f106137be576101008083540402835291602001916137e9565b820191906000526020600020905b8154815290600101906020018083116137cc57829003601f168201915b5050505050908060040154905085565b6000831415151561380957600080fd5b613811614486565b61381a846105d6565b905080600001518414151561382e57600080fd5b6000821415151561383e57600080fd5b60008314158015613853575080606001518311155b151561385e57600080fd5b600760009054906101000a900473ffffffffffffffffffffffffffffffffffffffff1673ffffffffffffffffffffffffffffffffffffffff166370a08231336040518263ffffffff167c01000000000000000000000000000000000000000000000000000000000281526004016138d59190614dd3565b60206040518083038186803b1580156138ed57600080fd5b505afa158015613901573d6000803e3d6000fd5b505050506040513d601f19601f82011682018060405250613925919081019061492a565b61393c84836040015161417290919063ffffffff16565b1115151561394957600080fd5b3373ffffffffffffffffffffffffffffffffffffffff168160a0015173ffffffffffffffffffffffffffffffffffffffff161415151561398857600080fd5b6139906144da565b6139a6600160045461415690919063ffffffff16565b600481905550600454816000018181525050848160200181815250506139d984836040015161417290919063ffffffff16565b8160400181815250506139ea614573565b6139f3846113be565b90508060800151826060018181525050848260800181815250508260a001518260a0019073ffffffffffffffffffffffffffffffffffffffff16908173ffffffffffffffffffffffffffffffffffffffff1681525050338260e0019073ffffffffffffffffffffffffffffffffffffffff16908173ffffffffffffffffffffffffffffffffffffffff1681525050838261012001818152505060008261014001906009811115613a9f57fe5b90816009811115613aac57fe5b81525050600b829080600181540180825580915050906001820390600052602060002090600c020160009091929091909150600082015181600001556020820151816001015560408201518160020155606082015181600301556080820151816004015560a08201518160050160006101000a81548173ffffffffffffffffffffffffffffffffffffffff021916908373ffffffffffffffffffffffffffffffffffffffff16021790555060c0820151816006019080519060200190613b739291906145b9565b5060e08201518160070160006101000a81548173ffffffffffffffffffffffffffffffffffffffff021916908373ffffffffffffffffffffffffffffffffffffffff160217905550610100820151816008019080519060200190613bd89291906145b9565b50610120820151816009015561014082015181600a0160006101000a81548160ff02191690836009811115613c0957fe5b021790555061016082015181600b0155505050505050505050565b60008114151515613c3457600080fd5b613c3c6144da565b6000613c4783613e4f565b915091506000826000015114151515613c5f57600080fd5b8160a0015173ffffffffffffffffffffffffffffffffffffffff163373ffffffffffffffffffffffffffffffffffffffff16141515613c9d57600080fd5b60076009811115613caa57fe5b8261014001516009811115613cbb57fe5b141515613cc757600080fd5b6008600b82815481101515613cd857fe5b90600052602060002090600c0201600a0160006101000a81548160ff02191690836009811115613d0457fe5b02179055506000613d188360200151614428565b9050613d518360800151600a83815481101515613d3157fe5b90600052602060002090600702016003015461415690919063ffffffff16565b600a82815481101515613d6057fe5b906000526020600020906007020160030181905550600760009054906101000a900473ffffffffffffffffffffffffffffffffffffffff1673ffffffffffffffffffffffffffffffffffffffff1663a9059cbb8460e0015185604001516040518363ffffffff167c0100000000000000000000000000000000000000000000000000000000028152600401613df6929190614e77565b602060405180830381600087803b158015613e1057600080fd5b505af1158015613e24573d6000803e3d6000fd5b505050506040513d601f19601f82011682018060405250613e4891908101906147c6565b5050505050565b613e576144da565b600080600090505b600b8054905081101561413c5783600b82815481101515613e7c57fe5b90600052602060002090600c020160000154141561412f57600b81815481101515613ea357fe5b90600052602060002090600c02018181610180604051908101604052908160008201548152602001600182015481526020016002820154815260200160038201548152602001600482015481526020016005820160009054906101000a900473ffffffffffffffffffffffffffffffffffffffff1673ffffffffffffffffffffffffffffffffffffffff1673ffffffffffffffffffffffffffffffffffffffff168152602001600682018054600181600116156101000203166002900480601f016020809104026020016040519081016040528092919081815260200182805460018160011615610100020316600290048015613fe15780601f10613fb657610100808354040283529160200191613fe1565b820191906000526020600020905b815481529060010190602001808311613fc457829003601f168201915b505050505081526020016007820160009054906101000a900473ffffffffffffffffffffffffffffffffffffffff1673ffffffffffffffffffffffffffffffffffffffff1673ffffffffffffffffffffffffffffffffffffffff168152602001600882018054600181600116156101000203166002900480601f0160208091040260200160405190810160405280929190818152602001828054600181600116156101000203166002900480156140d95780601f106140ae576101008083540402835291602001916140d9565b820191906000526020600020905b8154815290600101906020018083116140bc57829003601f168201915b5050505050815260200160098201548152602001600a820160009054906101000a900460ff16600981111561410a57fe5b600981111561411557fe5b8152602001600b8201548152505091509250925050614151565b8080600101915050613e5f565b506141456144da565b80600080905092509250505b915091565b6000818301905082811015151561416957fe5b80905092915050565b60008083141561418557600090506141a4565b818302905081838281151561419657fe5b041415156141a057fe5b8090505b92915050565b6141b2614486565b600080600090505b600a805490508110156143f55783600a828154811015156141d757fe5b90600052602060002090600702016000015414156143e857600a818154811015156141fe57fe5b9060005260206000209060070201818160e0604051908101604052908160008201548152602001600182018054600181600116156101000203166002900480601f0160208091040260200160405190810160405280929190818152602001828054600181600116156101000203166002900480156142bd5780601f10614292576101008083540402835291602001916142bd565b820191906000526020600020905b8154815290600101906020018083116142a057829003601f168201915b505050505081526020016002820154815260200160038201548152602001600482015481526020016005820160009054906101000a900473ffffffffffffffffffffffffffffffffffffffff1673ffffffffffffffffffffffffffffffffffffffff1673ffffffffffffffffffffffffffffffffffffffff168152602001600682018054600181600116156101000203166002900480601f0160208091040260200160405190810160405280929190818152602001828054600181600116156101000203166002900480156143d35780601f106143a8576101008083540402835291602001916143d3565b820191906000526020600020905b8154815290600101906020018083116143b657829003601f168201915b5050505050815250509150925092505061440a565b80806001019150506141ba565b506143fe614486565b80600080905092509250505b915091565b600082821115151561441d57fe5b818303905092915050565b600080600090505b600a8054905081101561447b5782600a8281548110151561444d57fe5b906000526020600020906007020160000154141561446e5780915050614481565b8080600101915050614430565b50600090505b919050565b60e0604051908101604052806000815260200160608152602001600081526020016000815260200160008152602001600073ffffffffffffffffffffffffffffffffffffffff168152602001606081525090565b610180604051908101604052806000815260200160008152602001600081526020016000815260200160008152602001600073ffffffffffffffffffffffffffffffffffffffff16815260200160608152602001600073ffffffffffffffffffffffffffffffffffffffff16815260200160608152602001600081526020016000600981111561456657fe5b8152602001600081525090565b60a06040519081016040528060008152602001600073ffffffffffffffffffffffffffffffffffffffff1681526020016060815260200160608152602001600081525090565b828054600181600116156101000203166002900490600052602060002090601f016020900481019282601f106145fa57805160ff1916838001178555614628565b82800160010185558215614628579182015b8281111561462757825182559160200191906001019061460c565b5b50905061463591906146d2565b5090565b610180604051908101604052806000815260200160008152602001600081526020016000815260200160008152602001600073ffffffffffffffffffffffffffffffffffffffff16815260200160608152602001600073ffffffffffffffffffffffffffffffffffffffff1681526020016060815260200160008152602001600060098111156146c557fe5b8152602001600081525090565b6146f491905b808211156146f05760008160009055506001016146d8565b5090565b90565b600061470382356150d2565b905092915050565b600061471782516150e4565b905092915050565b600082601f830112151561473257600080fd5b813561474561474082615024565b614ff7565b9150808252602083016020830185838301111561476157600080fd5b61476c838284615142565b50505092915050565b600061478182356150f0565b905092915050565b600061479582516150f0565b905092915050565b6000602082840312156147af57600080fd5b60006147bd848285016146f7565b91505092915050565b6000602082840312156147d857600080fd5b60006147e68482850161470b565b91505092915050565b60008060006060848603121561480457600080fd5b600084013567ffffffffffffffff81111561481e57600080fd5b61482a8682870161471f565b935050602084013567ffffffffffffffff81111561484757600080fd5b6148538682870161471f565b925050604061486486828701614775565b9150509250925092565b6000806000806080858703121561488457600080fd5b600085013567ffffffffffffffff81111561489e57600080fd5b6148aa8782880161471f565b94505060206148bb87828801614775565b93505060406148cc87828801614775565b925050606085013567ffffffffffffffff8111156148e957600080fd5b6148f58782880161471f565b91505092959194509250565b60006020828403121561491357600080fd5b600061492184828501614775565b91505092915050565b60006020828403121561493c57600080fd5b600061494a84828501614789565b91505092915050565b60008060006060848603121561496857600080fd5b600061497686828701614775565b935050602061498786828701614775565b925050604061499886828701614775565b9150509250925092565b6149ab816150fa565b82525050565b6149ba81615080565b82525050565b60006149cb8261505d565b808452602084019350836020820285016149e485615050565b60005b84811015614a1d5783830388526149ff838351614bfb565b9250614a0a82615073565b91506020880197506001810190506149e7565b508196508694505050505092915050565b614a378161510c565b82525050565b6000614a4882615068565b808452614a5c816020860160208601615151565b614a6581615184565b602085010191505092915050565b600060a083016000830151614a8b6000860182614da9565b506020830151614a9e60208601826149b1565b5060408301518482036040860152614ab68282614a3d565b91505060608301518482036060860152614ad08282614a3d565b9150506080830151614ae56080860182614da9565b508091505092915050565b600061018083016000830151614b096000860182614da9565b506020830151614b1c6020860182614da9565b506040830151614b2f6040860182614da9565b506060830151614b426060860182614da9565b506080830151614b556080860182614da9565b5060a0830151614b6860a08601826149b1565b5060c083015184820360c0860152614b808282614a3d565b91505060e0830151614b9560e08601826149b1565b50610100830151848203610100860152614baf8282614a3d565b915050610120830151614bc6610120860182614da9565b50610140830151614bdb610140860182614a2e565b50610160830151614bf0610160860182614da9565b508091505092915050565b600061018083016000830151614c146000860182614da9565b506020830151614c276020860182614da9565b506040830151614c3a6040860182614da9565b506060830151614c4d6060860182614da9565b506080830151614c606080860182614da9565b5060a0830151614c7360a08601826149b1565b5060c083015184820360c0860152614c8b8282614a3d565b91505060e0830151614ca060e08601826149b1565b50610100830151848203610100860152614cba8282614a3d565b915050610120830151614cd1610120860182614da9565b50610140830151614ce6610140860182614a2e565b50610160830151614cfb610160860182614da9565b508091505092915050565b600060e083016000830151614d1e6000860182614da9565b5060208301518482036020860152614d368282614a3d565b9150506040830151614d4b6040860182614da9565b506060830151614d5e6060860182614da9565b506080830151614d716080860182614da9565b5060a0830151614d8460a08601826149b1565b5060c083015184820360c0860152614d9c8282614a3d565b9150508091505092915050565b614db2816150c8565b82525050565b6000602082019050614dcd60008301846149b1565b92915050565b6000602082019050614de860008301846149a2565b92915050565b6000604082019050614e0360008301856149a2565b614e1060208301846149b1565b9392505050565b6000606082019050614e2c60008301866149a2565b614e3960208301856149b1565b614e466040830184614da9565b949350505050565b6000604082019050614e6360008301856149a2565b614e706020830184614da9565b9392505050565b6000604082019050614e8c60008301856149b1565b614e996020830184614da9565b9392505050565b60006020820190508181036000830152614eba81846149c0565b905092915050565b60006020820190508181036000830152614edc8184614a73565b905092915050565b60006020820190508181036000830152614efe8184614af0565b905092915050565b60006020820190508181036000830152614f208184614d06565b905092915050565b6000602082019050614f3d6000830184614da9565b92915050565b600060a082019050614f586000830188614da9565b614f6560208301876149b1565b8181036040830152614f778186614a3d565b90508181036060830152614f8b8185614a3d565b9050614f9a6080830184614da9565b9695505050505050565b600060a082019050614fb96000830188614da9565b614fc66020830187614da9565b614fd36040830186614da9565b614fe060608301856149b1565b614fed60808301846149b1565b9695505050505050565b6000604051905081810181811067ffffffffffffffff8211171561501a57600080fd5b8060405250919050565b600067ffffffffffffffff82111561503b57600080fd5b601f19601f8301169050602081019050919050565b6000602082019050919050565b600081519050919050565b600081519050919050565b6000602082019050919050565b600061508b826150a8565b9050919050565b6000600a821015156150a057fe5b819050919050565b600073ffffffffffffffffffffffffffffffffffffffff82169050919050565b6000819050919050565b60006150dd826150a8565b9050919050565b60008115159050919050565b6000819050919050565b60006151058261511e565b9050919050565b600061511782615092565b9050919050565b600061512982615130565b9050919050565b600061513b826150a8565b9050919050565b82818337600083830152505050565b60005b8381101561516f578082015181840152602081019050615154565b8381111561517e576000848401525b50505050565b6000601f19601f830116905091905056fea265627a7a723058208462d8d987570e8ba724283ddc5019cd719346d5b5417df4ad9346e0ecf473696c6578706572696d656e74616cf50037",
  "source": "pragma solidity ^0.5.0;\npragma experimental ABIEncoderV2;\n\nimport \"./RUCToken.sol\";\n//import \"./SafeMath.sol\";\n\ncontract RUCMarket {\n    \n  using SafeMath for uint256;\n\n  address payable admin;\n  uint256 public tokenPrice;\n  uint256 public tokensSold;\n\n  uint requestedProducts;\n  uint totalOrderNumber = 0;\n  uint totalProductNumber = 0;\n  uint totalCourierNumber = 0;\n  \n\n  RUCToken token;\n\n  enum State {REQUESTED, PAYED, SELLER_COMFIRMED, SELLER_SENT, \n  BUYER_GOT, COMPLETED, WILL_RETURN, BUYER_SENT, SELLER_GOT, CANCLED}\n\n  struct Order {\n    uint id;\n    uint productId;\n    uint productValue;\n    uint deliverFee;\n    uint number;\n    address seller;\n    string sellAddress;\n    address buyer;\n    string buyerAddress;\n    uint courierId;\n    State state;\n    uint deliverTime; \n  }\n  \n  struct Product {\n    uint id;\n    string name;\n    uint price;\n    uint number;\n    uint unconfirmedRequests;\n    address seller;\n    string url;\n  }\n  \n /* struct AddressInfo {\n      string firstName;\n      string lastName;\n      string phoneNumber;\n      string zipCode;\n      string street;\n      string province;\n  }*/\n  \n  struct Courier {\n      uint id;\n      address accountAddress;\n      string companyName;\n      string publicKey;\n      uint fee;\n  }\n  \n  //mapping (address => AddressInfo) addressTable;\n  //mapping (address => bool) registerTable;\n  mapping (address => bool) certifiedCourier; // for admin to certify courier\n  mapping (address => bool) isCourier;  // for check if a courier double registers\n\n  Product[] products;\n  Order[] orders;\n  Courier[] public couriers;\n  \n \n  event Purchase(uint _productId, uint _price, uint _number, address _seller, address _buyer);\n  event TokenSell(address _buyer, uint256 _amount);\n  \n  constructor(RUCToken _tokenContract, uint256 _tokenPrice) public {\n    token = _tokenContract;\n    admin = msg.sender;\n    tokenPrice = _tokenPrice;\n  }\n  \n\n/************************ Token Part **************************************************************/\n\n  function buyTokens(uint256 _numberOfTokens) public payable {\n\n    // Require that value is equal to tokens\n    require(msg.value == _numberOfTokens.mul(tokenPrice));\n\n    // Require that the contract has enough tokens\n    require(token.balanceOf(address(this))>= _numberOfTokens);\n\n    // Require that a transfer is successful\n    require(token.transfer(msg.sender, _numberOfTokens));\n\n    // Keep track of tokensSold\n    tokensSold += _numberOfTokens;\n\n    // Trigger Sell Event\n    emit TokenSell(msg.sender, _numberOfTokens);\n  }\n  \n  /*function showMyBalance() public view returns(uint){\n    return  token.balanceOf(msg.sender); \n  }*/\n  \n  /*function endSale() public {\n    require(msg.sender == admin);\n    require(token.transfer(admin, token.balanceOf(address(this))));\n\n    // Just transfer the balance to admin\n    admin.transfer(address(this).balance);\n  }*/\n  \n  /************************ Purchase Part **************************************************************/\n  \n  /*function register(\n      string memory _firstName, \n      string memory _lastName, \n      string memory _phoneNumber, \n      string memory _zipCode, \n      string memory _street, \n      string memory _province) \n      public{\n          require(!registerTable[msg.sender]);\n          \n          AddressInfo memory addressInfo;\n          \n          addressInfo.firstName = _firstName;\n          addressInfo.lastName = _lastName;\n          addressInfo.phoneNumber = _phoneNumber;\n          addressInfo.zipCode = _zipCode;\n          addressInfo.street = _street;\n          addressInfo.province = _province;\n          \n          addressTable[msg.sender] = addressInfo;\n          \n          registerTable[msg.sender] = true;\n      \n  }*/\n  \n  /*\n  string firstName;\n      string lastName;\n      byte[11] phoneNumber;\n      byte[6] zipCode;\n      string street;\n      string province;\n  */\n  /*function modifyAddressInfo(\n      string memory _firstName, \n      string memory _lastName, \n      string memory _phoneNumber, \n      string memory _zipCode, \n      string memory _street, \n      string memory _province) \n      public {\n          require(registerTable[msg.sender]);\n          \n          AddressInfo memory addressInfo;\n          \n          addressInfo.firstName = _firstName;\n          addressInfo.lastName = _lastName;\n          addressInfo.phoneNumber = _phoneNumber;\n          addressInfo.zipCode = _zipCode;\n          addressInfo.street = _street;\n          addressInfo.province = _province;\n          \n          addressTable[msg.sender] = addressInfo;\n          \n  }*/\n  function addCourier(address _courierAddress) public{\n    require(msg.sender == admin);         // only by admin\n    certifiedCourier[_courierAddress] = true;\n  }\n\n  function courierRegister(string memory _companyName, string memory _publicKey, uint _fee) public {\n      require(certifiedCourier[msg.sender]); // require msg.sender to be already certified\n      require(!isCourier[msg.sender]); // prevent double register\n      \n      Courier memory _courier;\n      totalCourierNumber = totalCourierNumber.add(1);\n      _courier.id = totalCourierNumber; //id = totalCourierNumber \n      _courier.accountAddress = msg.sender;\n      _courier.companyName = _companyName;\n      _courier.publicKey = _publicKey;\n      _courier.fee = _fee;\n      \n      couriers.push(_courier);\n      isCourier[msg.sender] = true;\n  }\n  // how to pass parameter : string? \n  function addProduct(string memory _name, uint _price, uint _number, string memory _url) public {\n    require(_price > 0);\n    require(_number > 0);\n    \n    Product memory _product;\n    totalProductNumber = totalProductNumber.add(1);\n    _product.id = totalProductNumber; //id = totalProductNumber\n    _product.name = _name;\n    _product.price = _price;\n    _product.number = _number;\n    _product.seller = msg.sender;\n    _product.url = _url;\n    products.push(_product);\n  }\n\n  \n  function purchaseRequest(uint _productId, uint _requestNumber, uint _courierId) external {\n    require(_productId != 0);\n    \n    //(Product memory _product, uint _productIndex) = findProductAndIndexById(_productId);\n    Product memory _product = findProductById(_productId);\n    require(_productId == _product.id); //_product does exist\n    //require(_courierId > 0 && _courierId <= couriers.length);\n    require(_courierId !=0);\n    require(_requestNumber != 0 && _requestNumber <= _product.number);\n    require((_product.price.mul(_requestNumber)) <= token.balanceOf(msg.sender));\n    require(_product.seller != msg.sender); // can not buy things from one himself\n    \n    Order memory _order;\n    totalOrderNumber = totalOrderNumber.add(1);\n    _order.id = totalOrderNumber; // order id = totalOrderNumber\n    _order.productId = _productId;\n    _order.productValue = _product.price.mul(_requestNumber); // number * price \n    Courier memory _courier = findCourierById(_courierId);\n    _order.deliverFee = _courier.fee; //deliver fee\n    _order.number = _requestNumber;\n    _order.seller = _product.seller;\n    _order.buyer = msg.sender;\n    _order.courierId = _courierId;\n    _order.state = State.REQUESTED;\n\n    orders.push(_order);\n\n   // products[_productIndex].number = products[_productIndex].number.sub(_requestNumber);\n    \n  }\n  \n  \n  function buyerPayOrder(uint _orderId) external {\n      require(_orderId !=0);\n      \n      (Order memory _order,uint _orderIndex) = findOrderAndIndexById(_orderId);\n      require(_order.id != 0); // order exist\n      \n      require(msg.sender == _order.buyer);\n      require(_order.state == State.REQUESTED);\n      \n      uint totalValue = _order.productValue.add(_order.deliverFee); //totalValue = productValue + deliverFee\n      token.approve(msg.sender, address(this), totalValue);\n      require(token.allowance(msg.sender, address(this)) >= totalValue);\n      token.transferFrom(msg.sender, address(this), totalValue);\n      orders[_orderIndex].state = State.PAYED;\n      \n  }\n  \n  function sellerComfirmOrder(uint _orderId) external {\n      require(_orderId != 0);\n      (Order memory _order,uint _orderIndex) = findOrderAndIndexById(_orderId);\n      require(_order.id != 0); // order exist\n      \n      require(msg.sender == _order.seller );\n      require(_order.state == State.PAYED);  // require preious state\n      (Product memory _product,uint _productIndex) = findProductAndIndexById(_order.productId);\n      require(_order.number <= _product.number);\n      \n      \n      \n      orders[_orderIndex].state = State.SELLER_COMFIRMED; //change state to \"...\"\n      products[_productIndex].number = products[_productIndex].number.sub(_order.number); // update product number\n      \n      emit Purchase( _order.productId, _product.price, _order.number, _order.seller, _order.buyer);\n  }\n  \n  function sellerSendProduct(uint _orderId) external {\n      require(_orderId != 0);\n      (Order memory _order,uint _orderIndex) = findOrderAndIndexById(_orderId);\n      require(_order.id != 0); // order exist\n      \n      Courier memory _courier = findCourierById(_order.courierId);\n      require(msg.sender == _courier.accountAddress); //msg.sender == order's courier\n      require(_order.state == State.SELLER_COMFIRMED); // state == SELLER_COMFIRMED\n      \n      token.transfer(_courier.accountAddress, _order.deliverFee); // pay deliver fee\n      orders[_orderIndex].state = State.SELLER_SENT; //change state to \"SELLER_SENT\"\n  }\n  \n  function buyerGetProduct(uint _orderId) external {\n      require(_orderId != 0);\n      (Order memory _order,uint _orderIndex) = findOrderAndIndexById(_orderId);\n      require(_order.id != 0); // order exist\n      \n      require(msg.sender == _order.buyer); // msg.sender == buyer\n      require(_order.state == State.SELLER_SENT); // require previous state\n      \n      //token.transferFrom(address(this), _order.seller, _order.productValue);\n      orders[_orderIndex].state = State.BUYER_GOT;\n      orders[_orderIndex].deliverTime = now; // set the deliverTime as 'now'\n  }\n  \n  function buyerConfirm(uint _orderId) external {\n      require(_orderId != 0);\n      (Order memory _order,uint _orderIndex) = findOrderAndIndexById(_orderId);\n      require(_order.id != 0); // order exist\n      \n      require(msg.sender == _order.buyer); // msg.sender == buyer\n      require(_order.state == State.BUYER_GOT); // require previous state\n      \n      //token.transferFrom(address(this), _order.seller, _order.productValue);\n      token.transfer(_order.seller, _order.productValue);\n      orders[_orderIndex].state = State.COMPLETED;\n  }\n  \n  function sellerGetMoneyFromOrder(uint _orderId) external {\n      require(_orderId != 0);\n      (Order memory _order,uint _orderIndex) = findOrderAndIndexById(_orderId);\n      require(_order.id != 0); // order exist\n      \n      require(msg.sender == _order.seller); //msg.sender == seller\n      require(now > _order.deliverTime.add(1 minutes)); // consideration time is over\n      require(_order.state == State.BUYER_GOT); // Has't been confirmed\n      \n      //token.transferFrom(address(this), _order.seller, _order.productValue);\n      token.transfer(_order.seller, _order.productValue);\n      orders[_orderIndex].state = State.COMPLETED;\n  }\n  \n  function buyerWillRuturnProduct(uint _orderId) external {\n      require(_orderId !=0);\n      \n      (Order memory _order,uint _orderIndex) = findOrderAndIndexById(_orderId);\n      require(_order.id != 0); // order exist\n      \n      require(msg.sender == _order.buyer);\n      require(_order.state == State.BUYER_GOT); // state == BUYER_GOT\n      require(now <= _order.deliverTime.add(1 minutes)); // within the consideration time limit\n      \n      token.approve(msg.sender, address(this), _order.deliverFee);\n      require(token.allowance(msg.sender, address(this)) >= _order.deliverFee);\n      token.transferFrom(msg.sender, address(this), _order.deliverFee);\n      orders[_orderIndex].state = State.WILL_RETURN;\n      \n  }\n  \n  function buyerSendProduct(uint _orderId) external {\n      require(_orderId != 0);\n      (Order memory _order,uint _orderIndex) = findOrderAndIndexById(_orderId);\n      require(_order.id != 0); // order exist\n      \n      Courier memory _courier = findCourierById(_order.courierId);\n      require(msg.sender == _courier.accountAddress); //msg.sender == order's courier\n      require(_order.state == State.WILL_RETURN); // state == WILL_RETURN\n      \n      token.transfer(_courier.accountAddress, _order.deliverFee); // pay deliver fee\n      orders[_orderIndex].state = State.BUYER_SENT; //change state to \"SELLER_SENT\"\n  }\n  \n  function sellerGetProduct(uint _orderId) external {\n      require(_orderId != 0);\n      (Order memory _order,uint _orderIndex) = findOrderAndIndexById(_orderId);\n      require(_order.id != 0); // order exist\n      \n      require(msg.sender == _order.seller); // msg.sender == seller\n      require(_order.state == State.BUYER_SENT); // require previous state\n      \n      //token.transferFrom(address(this), _order.seller, _order.productValue);\n      orders[_orderIndex].state = State.SELLER_GOT;\n      //orders[_orderIndex].deliverTime = now; // reset the deliverTime as 'now'\n      \n      //add product number\n      uint _productIndex = findProductIndexById(_order.productId);\n      products[_productIndex].number = products[_productIndex].number.add(_order.number);\n      \n      token.transfer(_order.buyer, _order.productValue); // return the money back to buyer\n  }\n  \n  function cancleByBuyer(uint _orderId) external {\n      require(_orderId != 0);\n      (Order memory _order,uint _orderIndex) = findOrderAndIndexById(_orderId);\n      require(_order.id != 0); // order exist\n      \n      require(msg.sender == _order.buyer); // only buyer call this cancle  \n      \n      /*two cases:\n        1. before seller send products: buyer can get all the money (token) back\n        2. after buyer got the products, before he sends \n        (which is state WILL_RETURN): similer to buyerConfirm()*/\n      if(_order.state < State.SELLER_SENT) { // 1. before seller sent\n          orders[_orderIndex].state = State.CANCLED; // set state as CANCLED\n          token.transfer(msg.sender, _order.productValue.add(_order.deliverFee)); // transfer token back\n      }\n      else if(_order.state == State.WILL_RETURN){\n          token.transfer(_order.seller, _order.productValue);\n          orders[_orderIndex].state = State.COMPLETED;\n      }\n  }\n  \n  function cancleByCourier(uint _orderId) external {\n      /* Situation: \n      courier help qulify the product, and the returning products don't match the requirement.\n      */\n      \n      require(_orderId != 0);\n      (Order memory _order,uint _orderIndex) = findOrderAndIndexById(_orderId);\n      require(_order.id != 0); // order exist\n      \n      Courier memory _courier = findCourierById(_order.courierId);\n      require(msg.sender == _courier.accountAddress); // only courier call this cancle  \n      require(_order.state == State.WILL_RETURN);\n      \n      token.transfer(_order.seller, _order.productValue.add(_order.deliverFee));\n      orders[_orderIndex].state = State.COMPLETED;\n  }\n  /****************************** Find and Get methods***********************************/\n  /*\n  function getProductName(uint _productId) external view returns(string memory) {\n    Product memory _product = findProductById(_productId);\n    return _product.name;\n  }\n\n  function getProductPrice(uint _productId) external view returns(uint) {\n    Product memory _product = findProductById(_productId);\n    return _product.price;\n  }\n\n  function getProductNumber(uint _productId) external view returns(uint) {\n    Product memory _product = findProductById(_productId);\n    return _product.number;\n  }\n\n  function getProductSeller(uint _productId) external view returns(address) {\n    Product memory _product = findProductById(_productId);\n    return _product.seller;\n  }*/\n  \n  function findOrderAndIndexById(uint _orderId) internal view returns(Order memory, uint) {\n    for(uint i = 0; i < orders.length; i++) {\n       if(orders[i].id == _orderId){\n         return (orders[i], i);\n       }\n    }\n    \n    Order memory order;\n    \n    return (order, 0);\n  }\n  \n  function findOrderById(uint _orderid) public view returns(Order memory){\n      for(uint i = 0; i < orders.length; i++){\n          if(orders[i].id == _orderid)\n            return orders[i];\n      }\n      \n      Order memory order;\n      return order;\n  }\n\n  function findOrdersBySeller(address _seller) external view returns(Order[] memory) {\n    uint count = 0;\n    uint i;\n    uint j = 0;\n    for(i = 0; i < orders.length; i++){\n      if(orders[i].seller == _seller){\n        count ++;\n      }\n    }\n\n    Order[] memory results = new Order[](count);\n\n    for(i = 0; i < orders.length; i++){\n      if(orders[i].seller == _seller){\n        results[j++] = orders[i];\n      }\n    }\n\n    return results;\n  }\n  \n  function findOrdersByBuyer(address _buyer) external view returns(Order[] memory) {\n    uint count = 0;\n    uint i;\n    uint j = 0;\n    for(i = 0; i < orders.length; i++){\n      if(orders[i].buyer == _buyer){\n        count ++;\n      }\n    }\n\n    Order[] memory results = new Order[](count);\n\n    for(i = 0; i < orders.length; i++){\n      if(orders[i].buyer == _buyer){\n        results[j++] = orders[i];\n      }\n    }\n      return results;\n  }\n  \n  function findOrdersBycourierId(uint _courierId) external view returns(Order[] memory) {\n    uint count = 0;\n    uint i;\n    uint j = 0;\n    for(i = 0; i < orders.length; i++){\n      if(orders[i].courierId == _courierId){\n        count ++;\n      }\n    }\n\n    Order[] memory results = new Order[](count);\n\n    for(i = 0; i < orders.length; i++){\n      if(orders[i].courierId == _courierId){\n        results[j++] = orders[i];\n      }\n    }\n\n    return results;\n  }\n\n\n\n  function findProductAndIndexById(uint _productId) internal view returns(Product memory, uint) {\n    for(uint i = 0; i < products.length; i++) {\n       if(products[i].id == _productId){\n         return (products[i], i);\n       }\n    }\n    \n    Product memory product;\n    \n    return (product, 0);\n  }\n  \n  function findProductIndexById(uint _productId) internal view returns(uint) {\n    for(uint i = 0; i < products.length; i++) {\n       if(products[i].id == _productId){\n         return i;\n       }\n    }\n    \n    return 0;\n  }\n  \n  function findProductById(uint _productId) public view returns(Product memory) {\n    for(uint i = 0; i < products.length; i++) {\n       if(products[i].id == _productId){\n         return products[i];\n       }\n    }\n    \n    Product memory product;\n    \n    return product;\n  }\n  \n  function findCourierById(uint _courierId) public view returns(Courier memory) {\n    for(uint i = 0; i < couriers.length; i++) {\n       if(couriers[i].id == _courierId){\n         return couriers[i];\n       }\n    }\n    \n    Courier memory courier;\n    \n    return courier;\n  }\n \n}",
  "sourcePath": "/home/elaine/RUCMarket/contracts/RUCMarket.sol",
  "compiler": {
    "name": "solc",
    "version": "0.5.0+commit.1d4f565a.Emscripten.clang"
  },
  "schemaVersion": "3.0.1",
  "updatedAt": "2019-04-17T02:31:19.127Z",
  "devdoc": {
    "methods": {}
  },
  "userdoc": {
    "methods": {
      "addCourier(address)": {
        "notice": "********************** Purchase Part *************************************************************"
      },
      "buyTokens(uint256)": {
        "notice": "********************** Token Part *************************************************************"
      }
    }
  }
}