{
  "contractName": "RUCMarket",
  "abi": [
    {
      "constant": true,
      "inputs": [],
      "name": "tokensSold",
      "outputs": [
        {
          "name": "",
          "type": "uint256"
        }
      ],
      "payable": false,
      "stateMutability": "view",
      "type": "function",
      "signature": "0x518ab2a8"
    },
    {
      "constant": true,
      "inputs": [
        {
          "name": "",
          "type": "uint256"
        }
      ],
      "name": "products",
      "outputs": [
        {
          "name": "id",
          "type": "uint256"
        },
        {
          "name": "name",
          "type": "string"
        },
        {
          "name": "price",
          "type": "uint256"
        },
        {
          "name": "number",
          "type": "uint256"
        },
        {
          "name": "seller",
          "type": "address"
        },
        {
          "name": "url",
          "type": "string"
        }
      ],
      "payable": false,
      "stateMutability": "view",
      "type": "function",
      "signature": "0x7acc0b20"
    },
    {
      "constant": true,
      "inputs": [],
      "name": "tokenPrice",
      "outputs": [
        {
          "name": "",
          "type": "uint256"
        }
      ],
      "payable": false,
      "stateMutability": "view",
      "type": "function",
      "signature": "0x7ff9b596"
    },
    {
      "constant": true,
      "inputs": [
        {
          "name": "",
          "type": "uint256"
        }
      ],
      "name": "couriers",
      "outputs": [
        {
          "name": "id",
          "type": "uint256"
        },
        {
          "name": "accountAddress",
          "type": "address"
        },
        {
          "name": "companyName",
          "type": "string"
        },
        {
          "name": "publicKey",
          "type": "string"
        },
        {
          "name": "fee",
          "type": "uint256"
        }
      ],
      "payable": false,
      "stateMutability": "view",
      "type": "function",
      "signature": "0xe2da3610"
    },
    {
      "inputs": [
        {
          "name": "_tokenContract",
          "type": "address"
        },
        {
          "name": "_tokenPrice",
          "type": "uint256"
        }
      ],
      "payable": false,
      "stateMutability": "nonpayable",
      "type": "constructor",
      "signature": "constructor"
    },
    {
      "anonymous": false,
      "inputs": [
        {
          "indexed": false,
          "name": "_productId",
          "type": "uint256"
        },
        {
          "indexed": false,
          "name": "_price",
          "type": "uint256"
        },
        {
          "indexed": false,
          "name": "_number",
          "type": "uint256"
        },
        {
          "indexed": false,
          "name": "_seller",
          "type": "address"
        },
        {
          "indexed": false,
          "name": "_buyer",
          "type": "address"
        }
      ],
      "name": "Purchase",
      "type": "event",
      "signature": "0xff4fa69114c0677f6a88bfc157c0874ccb1d721fa92a870e1d262dc197face50"
    },
    {
      "anonymous": false,
      "inputs": [
        {
          "indexed": false,
          "name": "_buyer",
          "type": "address"
        },
        {
          "indexed": false,
          "name": "_amount",
          "type": "uint256"
        }
      ],
      "name": "TokenSell",
      "type": "event",
      "signature": "0xce63ca7dc8dfc0313cea1035f873e3706e0161f9895f670682c0dab3969e3620"
    },
    {
      "constant": false,
      "inputs": [
        {
          "name": "_numberOfTokens",
          "type": "uint256"
        }
      ],
      "name": "buyTokens",
      "outputs": [],
      "payable": true,
      "stateMutability": "payable",
      "type": "function",
      "signature": "0x3610724e"
    },
    {
      "constant": false,
      "inputs": [
        {
          "name": "_courierAddress",
          "type": "address"
        }
      ],
      "name": "addCourier",
      "outputs": [],
      "payable": false,
      "stateMutability": "nonpayable",
      "type": "function",
      "signature": "0x2445d6d7"
    },
    {
      "constant": false,
      "inputs": [
        {
          "name": "_companyName",
          "type": "string"
        },
        {
          "name": "_publicKey",
          "type": "string"
        },
        {
          "name": "_fee",
          "type": "uint256"
        }
      ],
      "name": "courierRegister",
      "outputs": [],
      "payable": false,
      "stateMutability": "nonpayable",
      "type": "function",
      "signature": "0x705862e0"
    },
    {
      "constant": false,
      "inputs": [
        {
          "name": "_name",
          "type": "string"
        },
        {
          "name": "_price",
          "type": "uint256"
        },
        {
          "name": "_number",
          "type": "uint256"
        },
        {
          "name": "_url",
          "type": "string"
        }
      ],
      "name": "addProduct",
      "outputs": [],
      "payable": false,
      "stateMutability": "nonpayable",
      "type": "function",
      "signature": "0x38789d3a"
    },
    {
      "constant": false,
      "inputs": [
        {
          "name": "_productId",
          "type": "uint256"
        },
        {
          "name": "_requestNumber",
          "type": "uint256"
        },
        {
          "name": "_courierId",
          "type": "uint256"
        }
      ],
      "name": "purchaseRequest",
      "outputs": [],
      "payable": false,
      "stateMutability": "nonpayable",
      "type": "function",
      "signature": "0xef8536fb"
    },
    {
      "constant": false,
      "inputs": [
        {
          "name": "_orderId",
          "type": "uint256"
        }
      ],
      "name": "buyerPayOrder",
      "outputs": [],
      "payable": false,
      "stateMutability": "nonpayable",
      "type": "function",
      "signature": "0x3cb80eb0"
    },
    {
      "constant": false,
      "inputs": [
        {
          "name": "_orderId",
          "type": "uint256"
        }
      ],
      "name": "sellerComfirmOrder",
      "outputs": [],
      "payable": false,
      "stateMutability": "nonpayable",
      "type": "function",
      "signature": "0x374b93c8"
    },
    {
      "constant": false,
      "inputs": [
        {
          "name": "_orderId",
          "type": "uint256"
        },
        {
          "name": "_hash",
          "type": "bytes32"
        },
        {
          "name": "_sig",
          "type": "bytes"
        }
      ],
      "name": "sellerSendProduct",
      "outputs": [],
      "payable": false,
      "stateMutability": "nonpayable",
      "type": "function",
      "signature": "0x4eae589b"
    },
    {
      "constant": false,
      "inputs": [
        {
          "name": "_orderId",
          "type": "uint256"
        },
        {
          "name": "_hash",
          "type": "bytes32"
        },
        {
          "name": "_sig",
          "type": "bytes"
        }
      ],
      "name": "productDeliveredToBuyer",
      "outputs": [],
      "payable": false,
      "stateMutability": "nonpayable",
      "type": "function",
      "signature": "0xf1a2376e"
    },
    {
      "constant": false,
      "inputs": [
        {
          "name": "_orderId",
          "type": "uint256"
        }
      ],
      "name": "buyerConfirm",
      "outputs": [],
      "payable": false,
      "stateMutability": "nonpayable",
      "type": "function",
      "signature": "0x888487cd"
    },
    {
      "constant": false,
      "inputs": [
        {
          "name": "_orderId",
          "type": "uint256"
        }
      ],
      "name": "sellerGetMoneyFromOrder",
      "outputs": [],
      "payable": false,
      "stateMutability": "nonpayable",
      "type": "function",
      "signature": "0x67bd9eea"
    },
    {
      "constant": false,
      "inputs": [
        {
          "name": "_orderId",
          "type": "uint256"
        }
      ],
      "name": "buyerWillRuturnProduct",
      "outputs": [],
      "payable": false,
      "stateMutability": "nonpayable",
      "type": "function",
      "signature": "0x8784b39e"
    },
    {
      "constant": false,
      "inputs": [
        {
          "name": "_orderId",
          "type": "uint256"
        },
        {
          "name": "_hash",
          "type": "bytes32"
        },
        {
          "name": "_sig",
          "type": "bytes"
        }
      ],
      "name": "buyerSendProduct",
      "outputs": [],
      "payable": false,
      "stateMutability": "nonpayable",
      "type": "function",
      "signature": "0x41c10b1b"
    },
    {
      "constant": false,
      "inputs": [
        {
          "name": "_orderId",
          "type": "uint256"
        },
        {
          "name": "_hash",
          "type": "bytes32"
        },
        {
          "name": "_sig",
          "type": "bytes"
        }
      ],
      "name": "productDeliveredToSeller",
      "outputs": [],
      "payable": false,
      "stateMutability": "nonpayable",
      "type": "function",
      "signature": "0xf8747894"
    },
    {
      "constant": false,
      "inputs": [
        {
          "name": "_orderId",
          "type": "uint256"
        }
      ],
      "name": "cancleByBuyer",
      "outputs": [],
      "payable": false,
      "stateMutability": "nonpayable",
      "type": "function",
      "signature": "0xcd828eb2"
    },
    {
      "constant": false,
      "inputs": [
        {
          "name": "_orderId",
          "type": "uint256"
        }
      ],
      "name": "cancleByCourier",
      "outputs": [],
      "payable": false,
      "stateMutability": "nonpayable",
      "type": "function",
      "signature": "0x234142f8"
    },
    {
      "constant": true,
      "inputs": [],
      "name": "productsNumber",
      "outputs": [
        {
          "name": "",
          "type": "uint256"
        }
      ],
      "payable": false,
      "stateMutability": "view",
      "type": "function",
      "signature": "0xb8aff60f"
    },
    {
      "constant": true,
      "inputs": [],
      "name": "couriersNumber",
      "outputs": [
        {
          "name": "",
          "type": "uint256"
        }
      ],
      "payable": false,
      "stateMutability": "view",
      "type": "function",
      "signature": "0xa76f776e"
    },
    {
      "constant": true,
      "inputs": [
        {
          "name": "_seller",
          "type": "address"
        }
      ],
      "name": "findOrdersBySeller",
      "outputs": [
        {
          "components": [
            {
              "name": "id",
              "type": "uint256"
            },
            {
              "name": "productId",
              "type": "uint256"
            },
            {
              "name": "productValue",
              "type": "uint256"
            },
            {
              "name": "deliverFee",
              "type": "uint256"
            },
            {
              "name": "number",
              "type": "uint256"
            },
            {
              "name": "seller",
              "type": "address"
            },
            {
              "name": "sellAddress",
              "type": "string"
            },
            {
              "name": "buyer",
              "type": "address"
            },
            {
              "name": "buyerAddress",
              "type": "string"
            },
            {
              "name": "courierId",
              "type": "uint256"
            },
            {
              "name": "state",
              "type": "uint8"
            },
            {
              "name": "deliverTime",
              "type": "uint256"
            }
          ],
          "name": "",
          "type": "tuple[]"
        }
      ],
      "payable": false,
      "stateMutability": "view",
      "type": "function",
      "signature": "0x9e0125e3"
    },
    {
      "constant": true,
      "inputs": [
        {
          "name": "_buyer",
          "type": "address"
        }
      ],
      "name": "findOrdersByBuyer",
      "outputs": [
        {
          "components": [
            {
              "name": "id",
              "type": "uint256"
            },
            {
              "name": "productId",
              "type": "uint256"
            },
            {
              "name": "productValue",
              "type": "uint256"
            },
            {
              "name": "deliverFee",
              "type": "uint256"
            },
            {
              "name": "number",
              "type": "uint256"
            },
            {
              "name": "seller",
              "type": "address"
            },
            {
              "name": "sellAddress",
              "type": "string"
            },
            {
              "name": "buyer",
              "type": "address"
            },
            {
              "name": "buyerAddress",
              "type": "string"
            },
            {
              "name": "courierId",
              "type": "uint256"
            },
            {
              "name": "state",
              "type": "uint8"
            },
            {
              "name": "deliverTime",
              "type": "uint256"
            }
          ],
          "name": "",
          "type": "tuple[]"
        }
      ],
      "payable": false,
      "stateMutability": "view",
      "type": "function",
      "signature": "0xddf6949f"
    },
    {
      "constant": true,
      "inputs": [
        {
          "name": "_courierId",
          "type": "uint256"
        }
      ],
      "name": "findOrdersBycourierId",
      "outputs": [
        {
          "components": [
            {
              "name": "id",
              "type": "uint256"
            },
            {
              "name": "productId",
              "type": "uint256"
            },
            {
              "name": "productValue",
              "type": "uint256"
            },
            {
              "name": "deliverFee",
              "type": "uint256"
            },
            {
              "name": "number",
              "type": "uint256"
            },
            {
              "name": "seller",
              "type": "address"
            },
            {
              "name": "sellAddress",
              "type": "string"
            },
            {
              "name": "buyer",
              "type": "address"
            },
            {
              "name": "buyerAddress",
              "type": "string"
            },
            {
              "name": "courierId",
              "type": "uint256"
            },
            {
              "name": "state",
              "type": "uint8"
            },
            {
              "name": "deliverTime",
              "type": "uint256"
            }
          ],
          "name": "",
          "type": "tuple[]"
        }
      ],
      "payable": false,
      "stateMutability": "view",
      "type": "function",
      "signature": "0x875fc626"
    },
    {
      "constant": true,
      "inputs": [
        {
          "name": "_productId",
          "type": "uint256"
        }
      ],
      "name": "findProductById",
      "outputs": [
        {
          "components": [
            {
              "name": "id",
              "type": "uint256"
            },
            {
              "name": "name",
              "type": "string"
            },
            {
              "name": "price",
              "type": "uint256"
            },
            {
              "name": "number",
              "type": "uint256"
            },
            {
              "name": "seller",
              "type": "address"
            },
            {
              "name": "url",
              "type": "string"
            }
          ],
          "name": "",
          "type": "tuple"
        }
      ],
      "payable": false,
      "stateMutability": "view",
      "type": "function",
      "signature": "0x14082cd2"
    },
    {
      "constant": true,
      "inputs": [
        {
          "name": "_courierId",
          "type": "uint256"
        }
      ],
      "name": "findCourierById",
      "outputs": [
        {
          "components": [
            {
              "name": "id",
              "type": "uint256"
            },
            {
              "name": "accountAddress",
              "type": "address"
            },
            {
              "name": "companyName",
              "type": "string"
            },
            {
              "name": "publicKey",
              "type": "string"
            },
            {
              "name": "fee",
              "type": "uint256"
            }
          ],
          "name": "",
          "type": "tuple"
        }
      ],
      "payable": false,
      "stateMutability": "view",
      "type": "function",
      "signature": "0x4090d5d2"
    },
    {
      "constant": true,
      "inputs": [
        {
          "name": "hash",
          "type": "bytes32"
        },
        {
          "name": "signature",
          "type": "bytes"
        }
      ],
      "name": "recover",
      "outputs": [
        {
          "name": "",
          "type": "address"
        }
      ],
      "payable": false,
      "stateMutability": "pure",
      "type": "function",
      "signature": "0x19045a25"
    }
  ],
  "bytecode": "0x60806040526000600455600060055560006006553480156200002057600080fd5b50604051604080620056ea8339810180604052620000429190810190620000fe565b81600760006101000a81548173ffffffffffffffffffffffffffffffffffffffff021916908373ffffffffffffffffffffffffffffffffffffffff160217905550336000806101000a81548173ffffffffffffffffffffffffffffffffffffffff021916908373ffffffffffffffffffffffffffffffffffffffff16021790555080600181905550505062000191565b6000620000e0825162000173565b905092915050565b6000620000f6825162000187565b905092915050565b600080604083850312156200011257600080fd5b60006200012285828601620000d2565b92505060206200013585828601620000e8565b9150509250929050565b60006200014c8262000153565b9050919050565b600073ffffffffffffffffffffffffffffffffffffffff82169050919050565b600062000180826200013f565b9050919050565b6000819050919050565b61554980620001a16000396000f3fe60806040526004361061016a576000357c0100000000000000000000000000000000000000000000000000000000900463ffffffff16806314082cd21461016f57806319045a25146101ac578063234142f8146101e95780632445d6d7146102125780633610724e1461023b578063374b93c81461025757806338789d3a146102805780633cb80eb0146102a95780634090d5d2146102d257806341c10b1b1461030f5780634eae589b14610338578063518ab2a81461036157806367bd9eea1461038c578063705862e0146103b55780637acc0b20146103de5780637ff9b59614610420578063875fc6261461044b5780638784b39e14610488578063888487cd146104b15780639e0125e3146104da578063a76f776e14610517578063b8aff60f14610542578063cd828eb21461056d578063ddf6949f14610596578063e2da3610146105d3578063ef8536fb14610614578063f1a2376e1461063d578063f874789414610666575b600080fd5b34801561017b57600080fd5b5061019660048036036101919190810190614caa565b61068f565b6040516101a391906151db565b60405180910390f35b3480156101b857600080fd5b506101d360048036036101ce9190810190614b44565b6108db565b6040516101e091906150af565b60405180910390f35b3480156101f557600080fd5b50610210600480360361020b9190810190614caa565b6109bf565b005b34801561021e57600080fd5b5061023960048036036102349190810190614af2565b610bac565b005b61025560048036036102509190810190614caa565b610c62565b005b34801561026357600080fd5b5061027e60048036036102799190810190614caa565b610e7b565b005b34801561028c57600080fd5b506102a760048036036102a29190810190614c17565b611047565b005b3480156102b557600080fd5b506102d060048036036102cb9190810190614caa565b6111ca565b005b3480156102de57600080fd5b506102f960048036036102f49190810190614caa565b611547565b60405161030691906151b9565b60405180910390f35b34801561031b57600080fd5b5061033660048036036103319190810190614cfc565b611789565b005b34801561034457600080fd5b5061035f600480360361035a9190810190614cfc565b6119ee565b005b34801561036d57600080fd5b50610376611c53565b60405161038391906151fd565b60405180910390f35b34801561039857600080fd5b506103b360048036036103ae9190810190614caa565b611c59565b005b3480156103c157600080fd5b506103dc60048036036103d79190810190614b98565b611e3d565b005b3480156103ea57600080fd5b5061040560048036036104009190810190614caa565b612096565b60405161041796959493929190615279565b60405180910390f35b34801561042c57600080fd5b50610435612231565b60405161044291906151fd565b60405180910390f35b34801561045757600080fd5b50610472600480360361046d9190810190614caa565b612237565b60405161047f9190615197565b60405180910390f35b34801561049457600080fd5b506104af60048036036104aa9190810190614caa565b6125d6565b005b3480156104bd57600080fd5b506104d860048036036104d39190810190614caa565b612966565b005b3480156104e657600080fd5b5061050160048036036104fc9190810190614af2565b612b24565b60405161050e9190615197565b60405180910390f35b34801561052357600080fd5b5061052c612f5b565b60405161053991906151fd565b60405180910390f35b34801561054e57600080fd5b50610557612f68565b60405161056491906151fd565b60405180910390f35b34801561057957600080fd5b50610594600480360361058f9190810190614caa565b612f75565b005b3480156105a257600080fd5b506105bd60048036036105b89190810190614af2565b613280565b6040516105ca9190615197565b60405180910390f35b3480156105df57600080fd5b506105fa60048036036105f59190810190614caa565b6136b7565b60405161060b959493929190615218565b60405180910390f35b34801561062057600080fd5b5061063b60048036036106369190810190614d68565b61384c565b005b34801561064957600080fd5b50610664600480360361065f9190810190614cfc565b613c77565b005b34801561067257600080fd5b5061068d60048036036106889190810190614cfc565b613e2d565b005b61069761472c565b60008090505b600a805490508110156108c85782600a828154811015156106ba57fe5b90600052602060002090600602016000015414156108bb57600a818154811015156106e157fe5b906000526020600020906006020160c0604051908101604052908160008201548152602001600182018054600181600116156101000203166002900480601f01602080910402602001604051908101604052809291908181526020018280546001816001161561010002031660029004801561079e5780601f106107735761010080835404028352916020019161079e565b820191906000526020600020905b81548152906001019060200180831161078157829003601f168201915b5050505050815260200160028201548152602001600382015481526020016004820160009054906101000a900473ffffffffffffffffffffffffffffffffffffffff1673ffffffffffffffffffffffffffffffffffffffff1673ffffffffffffffffffffffffffffffffffffffff168152602001600582018054600181600116156101000203166002900480601f0160208091040260200160405190810160405280929190818152602001828054600181600116156101000203166002900480156108aa5780601f1061087f576101008083540402835291602001916108aa565b820191906000526020600020905b81548152906001019060200180831161088d57829003601f168201915b5050505050815250509150506108d6565b808060010191505061069d565b506108d161472c565b809150505b919050565b600080600080604185511415156108f857600093505050506109b9565b6020850151925060408501519150606085015160001a9050601b8160ff16101561092357601b810190505b601b8160ff161415801561093b5750601c8160ff1614155b1561094c57600093505050506109b9565b60018682858560405160008152602001604052604051808581526020018460ff1660ff1681526020018381526020018281526020019450505050506020604051602081039080840390855afa1580156109a9573d6000803e3d6000fd5b5050506020604051035193505050505b92915050565b600081141515156109cf57600080fd5b6109d7614779565b60006109e2836140ff565b9150915060008260000151141515156109fa57600080fd5b610a02614812565b610a10836101200151611547565b9050806020015173ffffffffffffffffffffffffffffffffffffffff163373ffffffffffffffffffffffffffffffffffffffff16141515610a5057600080fd5b60066009811115610a5d57fe5b8361014001516009811115610a6e57fe5b141515610a7a57600080fd5b600760009054906101000a900473ffffffffffffffffffffffffffffffffffffffff1673ffffffffffffffffffffffffffffffffffffffff1663a9059cbb8460a00151610ad88660600151876040015161440690919063ffffffff16565b6040518363ffffffff167c0100000000000000000000000000000000000000000000000000000000028152600401610b1192919061516e565b602060405180830381600087803b158015610b2b57600080fd5b505af1158015610b3f573d6000803e3d6000fd5b505050506040513d601f19601f82011682018060405250610b639190810190614b1b565b506005600b83815481101515610b7557fe5b90600052602060002090600c0201600a0160006101000a81548160ff02191690836009811115610ba157fe5b021790555050505050565b6000809054906101000a900473ffffffffffffffffffffffffffffffffffffffff1673ffffffffffffffffffffffffffffffffffffffff163373ffffffffffffffffffffffffffffffffffffffff16141515610c0757600080fd5b6001600860008373ffffffffffffffffffffffffffffffffffffffff1673ffffffffffffffffffffffffffffffffffffffff16815260200190815260200160002060006101000a81548160ff02191690831515021790555050565b610c776001548261442290919063ffffffff16565b34141515610c8457600080fd5b80600760009054906101000a900473ffffffffffffffffffffffffffffffffffffffff1673ffffffffffffffffffffffffffffffffffffffff166370a08231306040518263ffffffff167c0100000000000000000000000000000000000000000000000000000000028152600401610cfc91906150af565b60206040518083038186803b158015610d1457600080fd5b505afa158015610d28573d6000803e3d6000fd5b505050506040513d601f19601f82011682018060405250610d4c9190810190614cd3565b10151515610d5957600080fd5b600760009054906101000a900473ffffffffffffffffffffffffffffffffffffffff1673ffffffffffffffffffffffffffffffffffffffff1663a9059cbb33836040518363ffffffff167c0100000000000000000000000000000000000000000000000000000000028152600401610dd2929190615145565b602060405180830381600087803b158015610dec57600080fd5b505af1158015610e00573d6000803e3d6000fd5b505050506040513d601f19601f82011682018060405250610e249190810190614b1b565b1515610e2f57600080fd5b806002600082825401925050819055507fce63ca7dc8dfc0313cea1035f873e3706e0161f9895f670682c0dab3969e36203382604051610e70929190615145565b60405180910390a150565b60008114151515610e8b57600080fd5b610e93614779565b6000610e9e836140ff565b915091506000826000015114151515610eb657600080fd5b8160a0015173ffffffffffffffffffffffffffffffffffffffff163373ffffffffffffffffffffffffffffffffffffffff16141515610ef457600080fd5b60016009811115610f0157fe5b8261014001516009811115610f1257fe5b141515610f1e57600080fd5b610f2661472c565b6000610f35846020015161445a565b915091508160600151846080015111151515610f5057600080fd5b6002600b84815481101515610f6157fe5b90600052602060002090600c0201600a0160006101000a81548160ff02191690836009811115610f8d57fe5b0217905550610fc98460800151600a83815481101515610fa957fe5b9060005260206000209060060201600301546146b590919063ffffffff16565b600a82815481101515610fd857fe5b9060005260206000209060060201600301819055507fff4fa69114c0677f6a88bfc157c0874ccb1d721fa92a870e1d262dc197face508460200151836040015186608001518760a001518860e001516040516110389594939291906152e8565b60405180910390a15050505050565b60008311151561105657600080fd5b60008211151561106557600080fd5b61106d61472c565b611083600160055461440690919063ffffffff16565b600581905550600554816000018181525050848160200181905250838160400181815250508281606001818152505033816080019073ffffffffffffffffffffffffffffffffffffffff16908173ffffffffffffffffffffffffffffffffffffffff1681525050818160a00181905250600a8190806001815401808255809150509060018203906000526020600020906006020160009091929091909150600082015181600001556020820151816001019080519060200190611147929190614858565b50604082015181600201556060820151816003015560808201518160040160006101000a81548173ffffffffffffffffffffffffffffffffffffffff021916908373ffffffffffffffffffffffffffffffffffffffff16021790555060a08201518160050190805190602001906111bf929190614858565b505050505050505050565b600081141515156111da57600080fd5b6111e2614779565b60006111ed836140ff565b91509150600082600001511415151561120557600080fd5b8160e0015173ffffffffffffffffffffffffffffffffffffffff163373ffffffffffffffffffffffffffffffffffffffff1614151561124357600080fd5b6000600981111561125057fe5b826101400151600981111561126157fe5b14151561126d57600080fd5b600061128a8360600151846040015161440690919063ffffffff16565b9050600760009054906101000a900473ffffffffffffffffffffffffffffffffffffffff1673ffffffffffffffffffffffffffffffffffffffff1663e1f21c673330846040518463ffffffff167c01000000000000000000000000000000000000000000000000000000000281526004016113079392919061510e565b602060405180830381600087803b15801561132157600080fd5b505af1158015611335573d6000803e3d6000fd5b505050506040513d601f19601f820116820180604052506113599190810190614b1b565b5080600760009054906101000a900473ffffffffffffffffffffffffffffffffffffffff1673ffffffffffffffffffffffffffffffffffffffff1663dd62ed3e33306040518363ffffffff167c01000000000000000000000000000000000000000000000000000000000281526004016113d49291906150e5565b60206040518083038186803b1580156113ec57600080fd5b505afa158015611400573d6000803e3d6000fd5b505050506040513d601f19601f820116820180604052506114249190810190614cd3565b1015151561143157600080fd5b600760009054906101000a900473ffffffffffffffffffffffffffffffffffffffff1673ffffffffffffffffffffffffffffffffffffffff166323b872dd3330846040518463ffffffff167c01000000000000000000000000000000000000000000000000000000000281526004016114ac9392919061510e565b602060405180830381600087803b1580156114c657600080fd5b505af11580156114da573d6000803e3d6000fd5b505050506040513d601f19601f820116820180604052506114fe9190810190614b1b565b506001600b8381548110151561151057fe5b90600052602060002090600c0201600a0160006101000a81548160ff0219169083600981111561153c57fe5b021790555050505050565b61154f614812565b60008090505b600c805490508110156117765782600c8281548110151561157257fe5b906000526020600020906005020160000154141561176957600c8181548110151561159957fe5b906000526020600020906005020160a06040519081016040529081600082015481526020016001820160009054906101000a900473ffffffffffffffffffffffffffffffffffffffff1673ffffffffffffffffffffffffffffffffffffffff1673ffffffffffffffffffffffffffffffffffffffff168152602001600282018054600181600116156101000203166002900480601f0160208091040260200160405190810160405280929190818152602001828054600181600116156101000203166002900480156116ac5780601f10611681576101008083540402835291602001916116ac565b820191906000526020600020905b81548152906001019060200180831161168f57829003601f168201915b50505050508152602001600382018054600181600116156101000203166002900480601f01602080910402602001604051908101604052809291908181526020018280546001816001161561010002031660029004801561174e5780601f106117235761010080835404028352916020019161174e565b820191906000526020600020905b81548152906001019060200180831161173157829003601f168201915b50505050508152602001600482015481525050915050611784565b8080600101915050611555565b5061177f614812565b809150505b919050565b6000841415151561179957600080fd5b6117a1614779565b60006117ac866140ff565b9150915060008260000151141515156117c457600080fd5b8160e0015173ffffffffffffffffffffffffffffffffffffffff163373ffffffffffffffffffffffffffffffffffffffff1614151561180257600080fd5b61180a614812565b611818836101200151611547565b9050806020015173ffffffffffffffffffffffffffffffffffffffff166118838787878080601f016020809104026020016040519081016040528093929190818152602001838380828437600081840152601f19601f820116905080830192505050505050506108db565b73ffffffffffffffffffffffffffffffffffffffff161415156118a557600080fd5b600660098111156118b257fe5b83610140015160098111156118c357fe5b1415156118cf57600080fd5b600760009054906101000a900473ffffffffffffffffffffffffffffffffffffffff1673ffffffffffffffffffffffffffffffffffffffff1663a9059cbb826020015185606001516040518363ffffffff167c010000000000000000000000000000000000000000000000000000000002815260040161195092919061516e565b602060405180830381600087803b15801561196a57600080fd5b505af115801561197e573d6000803e3d6000fd5b505050506040513d601f19601f820116820180604052506119a29190810190614b1b565b506007600b838154811015156119b457fe5b90600052602060002090600c0201600a0160006101000a81548160ff021916908360098111156119e057fe5b021790555050505050505050565b600084141515156119fe57600080fd5b611a06614779565b6000611a11866140ff565b915091506000826000015114151515611a2957600080fd5b8160a0015173ffffffffffffffffffffffffffffffffffffffff163373ffffffffffffffffffffffffffffffffffffffff16141515611a6757600080fd5b611a6f614812565b611a7d836101200151611547565b9050806020015173ffffffffffffffffffffffffffffffffffffffff16611ae88787878080601f016020809104026020016040519081016040528093929190818152602001838380828437600081840152601f19601f820116905080830192505050505050506108db565b73ffffffffffffffffffffffffffffffffffffffff16141515611b0a57600080fd5b60026009811115611b1757fe5b8361014001516009811115611b2857fe5b141515611b3457600080fd5b600760009054906101000a900473ffffffffffffffffffffffffffffffffffffffff1673ffffffffffffffffffffffffffffffffffffffff1663a9059cbb826020015185606001516040518363ffffffff167c0100000000000000000000000000000000000000000000000000000000028152600401611bb592919061516e565b602060405180830381600087803b158015611bcf57600080fd5b505af1158015611be3573d6000803e3d6000fd5b505050506040513d601f19601f82011682018060405250611c079190810190614b1b565b506003600b83815481101515611c1957fe5b90600052602060002090600c0201600a0160006101000a81548160ff02191690836009811115611c4557fe5b021790555050505050505050565b60025481565b60008114151515611c6957600080fd5b611c71614779565b6000611c7c836140ff565b915091506000826000015114151515611c9457600080fd5b8160a0015173ffffffffffffffffffffffffffffffffffffffff163373ffffffffffffffffffffffffffffffffffffffff16141515611cd257600080fd5b611ceb603c83610160015161440690919063ffffffff16565b42111515611cf857600080fd5b60046009811115611d0557fe5b8261014001516009811115611d1657fe5b141515611d2257600080fd5b600760009054906101000a900473ffffffffffffffffffffffffffffffffffffffff1673ffffffffffffffffffffffffffffffffffffffff1663a9059cbb8360a0015184604001516040518363ffffffff167c0100000000000000000000000000000000000000000000000000000000028152600401611da392919061516e565b602060405180830381600087803b158015611dbd57600080fd5b505af1158015611dd1573d6000803e3d6000fd5b505050506040513d601f19601f82011682018060405250611df59190810190614b1b565b506005600b82815481101515611e0757fe5b90600052602060002090600c0201600a0160006101000a81548160ff02191690836009811115611e3357fe5b0217905550505050565b600860003373ffffffffffffffffffffffffffffffffffffffff1673ffffffffffffffffffffffffffffffffffffffff16815260200190815260200160002060009054906101000a900460ff161515611e9557600080fd5b600960003373ffffffffffffffffffffffffffffffffffffffff1673ffffffffffffffffffffffffffffffffffffffff16815260200190815260200160002060009054906101000a900460ff16151515611eee57600080fd5b611ef6614812565b611f0c600160065461440690919063ffffffff16565b60068190555060065481600001818152505033816020019073ffffffffffffffffffffffffffffffffffffffff16908173ffffffffffffffffffffffffffffffffffffffff168152505083816040018190525082816060018190525081816080018181525050600c81908060018154018082558091505090600182039060005260206000209060050201600090919290919091506000820151816000015560208201518160010160006101000a81548173ffffffffffffffffffffffffffffffffffffffff021916908373ffffffffffffffffffffffffffffffffffffffff160217905550604082015181600201908051906020019061200d929190614858565b50606082015181600301908051906020019061202a929190614858565b50608082015181600401555050506001600960003373ffffffffffffffffffffffffffffffffffffffff1673ffffffffffffffffffffffffffffffffffffffff16815260200190815260200160002060006101000a81548160ff02191690831515021790555050505050565b600a818154811015156120a557fe5b9060005260206000209060060201600091509050806000015490806001018054600181600116156101000203166002900480601f0160208091040260200160405190810160405280929190818152602001828054600181600116156101000203166002900480156121575780601f1061212c57610100808354040283529160200191612157565b820191906000526020600020905b81548152906001019060200180831161213a57829003601f168201915b5050505050908060020154908060030154908060040160009054906101000a900473ffffffffffffffffffffffffffffffffffffffff1690806005018054600181600116156101000203166002900480601f0160208091040260200160405190810160405280929190818152602001828054600181600116156101000203166002900480156122275780601f106121fc57610100808354040283529160200191612227565b820191906000526020600020905b81548152906001019060200180831161220a57829003601f168201915b5050505050905086565b60015481565b6060600080905060008060009050600091505b600b805490508210156122955784600b8381548110151561226757fe5b90600052602060002090600c02016009015414156122885782806001019350505b818060010192505061224a565b6060836040519080825280602002602001820160405280156122d157816020015b6122be6148d8565b8152602001906001900390816122b65790505b509050600092505b600b805490508310156125ca5785600b848154811015156122f657fe5b90600052602060002090600c02016009015414156125bd57600b8381548110151561231d57fe5b90600052602060002090600c0201610180604051908101604052908160008201548152602001600182015481526020016002820154815260200160038201548152602001600482015481526020016005820160009054906101000a900473ffffffffffffffffffffffffffffffffffffffff1673ffffffffffffffffffffffffffffffffffffffff1673ffffffffffffffffffffffffffffffffffffffff168152602001600682018054600181600116156101000203166002900480601f0160208091040260200160405190810160405280929190818152602001828054600181600116156101000203166002900480156124595780601f1061242e57610100808354040283529160200191612459565b820191906000526020600020905b81548152906001019060200180831161243c57829003601f168201915b505050505081526020016007820160009054906101000a900473ffffffffffffffffffffffffffffffffffffffff1673ffffffffffffffffffffffffffffffffffffffff1673ffffffffffffffffffffffffffffffffffffffff168152602001600882018054600181600116156101000203166002900480601f0160208091040260200160405190810160405280929190818152602001828054600181600116156101000203166002900480156125515780601f1061252657610100808354040283529160200191612551565b820191906000526020600020905b81548152906001019060200180831161253457829003601f168201915b5050505050815260200160098201548152602001600a820160009054906101000a900460ff16600981111561258257fe5b600981111561258d57fe5b8152602001600b8201548152505081838060010194508151811015156125af57fe5b906020019060200201819052505b82806001019350506122d9565b80945050505050919050565b600081141515156125e657600080fd5b6125ee614779565b60006125f9836140ff565b91509150600082600001511415151561261157600080fd5b8160e0015173ffffffffffffffffffffffffffffffffffffffff163373ffffffffffffffffffffffffffffffffffffffff1614151561264f57600080fd5b6004600981111561265c57fe5b826101400151600981111561266d57fe5b14151561267957600080fd5b612692603c83610160015161440690919063ffffffff16565b42111515156126a057600080fd5b600760009054906101000a900473ffffffffffffffffffffffffffffffffffffffff1673ffffffffffffffffffffffffffffffffffffffff1663e1f21c67333085606001516040518463ffffffff167c010000000000000000000000000000000000000000000000000000000002815260040161271f9392919061510e565b602060405180830381600087803b15801561273957600080fd5b505af115801561274d573d6000803e3d6000fd5b505050506040513d601f19601f820116820180604052506127719190810190614b1b565b508160600151600760009054906101000a900473ffffffffffffffffffffffffffffffffffffffff1673ffffffffffffffffffffffffffffffffffffffff1663dd62ed3e33306040518363ffffffff167c01000000000000000000000000000000000000000000000000000000000281526004016127f09291906150e5565b60206040518083038186803b15801561280857600080fd5b505afa15801561281c573d6000803e3d6000fd5b505050506040513d601f19601f820116820180604052506128409190810190614cd3565b1015151561284d57600080fd5b600760009054906101000a900473ffffffffffffffffffffffffffffffffffffffff1673ffffffffffffffffffffffffffffffffffffffff166323b872dd333085606001516040518463ffffffff167c01000000000000000000000000000000000000000000000000000000000281526004016128cc9392919061510e565b602060405180830381600087803b1580156128e657600080fd5b505af11580156128fa573d6000803e3d6000fd5b505050506040513d601f19601f8201168201806040525061291e9190810190614b1b565b506006600b8281548110151561293057fe5b90600052602060002090600c0201600a0160006101000a81548160ff0219169083600981111561295c57fe5b0217905550505050565b6000811415151561297657600080fd5b61297e614779565b6000612989836140ff565b9150915060008260000151141515156129a157600080fd5b8160e0015173ffffffffffffffffffffffffffffffffffffffff163373ffffffffffffffffffffffffffffffffffffffff161415156129df57600080fd5b600460098111156129ec57fe5b82610140015160098111156129fd57fe5b141515612a0957600080fd5b600760009054906101000a900473ffffffffffffffffffffffffffffffffffffffff1673ffffffffffffffffffffffffffffffffffffffff1663a9059cbb8360a0015184604001516040518363ffffffff167c0100000000000000000000000000000000000000000000000000000000028152600401612a8a92919061516e565b602060405180830381600087803b158015612aa457600080fd5b505af1158015612ab8573d6000803e3d6000fd5b505050506040513d601f19601f82011682018060405250612adc9190810190614b1b565b506005600b82815481101515612aee57fe5b90600052602060002090600c0201600a0160006101000a81548160ff02191690836009811115612b1a57fe5b0217905550505050565b6060600080905060008060009050600091505b600b80549050821015612bce578473ffffffffffffffffffffffffffffffffffffffff16600b83815481101515612b6a57fe5b90600052602060002090600c020160050160009054906101000a900473ffffffffffffffffffffffffffffffffffffffff1673ffffffffffffffffffffffffffffffffffffffff161415612bc15782806001019350505b8180600101925050612b37565b606083604051908082528060200260200182016040528015612c0a57816020015b612bf76148d8565b815260200190600190039081612bef5790505b509050600092505b600b80549050831015612f4f578573ffffffffffffffffffffffffffffffffffffffff16600b84815481101515612c4557fe5b90600052602060002090600c020160050160009054906101000a900473ffffffffffffffffffffffffffffffffffffffff1673ffffffffffffffffffffffffffffffffffffffff161415612f4257600b83815481101515612ca257fe5b90600052602060002090600c0201610180604051908101604052908160008201548152602001600182015481526020016002820154815260200160038201548152602001600482015481526020016005820160009054906101000a900473ffffffffffffffffffffffffffffffffffffffff1673ffffffffffffffffffffffffffffffffffffffff1673ffffffffffffffffffffffffffffffffffffffff168152602001600682018054600181600116156101000203166002900480601f016020809104026020016040519081016040528092919081815260200182805460018160011615610100020316600290048015612dde5780601f10612db357610100808354040283529160200191612dde565b820191906000526020600020905b815481529060010190602001808311612dc157829003601f168201915b505050505081526020016007820160009054906101000a900473ffffffffffffffffffffffffffffffffffffffff1673ffffffffffffffffffffffffffffffffffffffff1673ffffffffffffffffffffffffffffffffffffffff168152602001600882018054600181600116156101000203166002900480601f016020809104026020016040519081016040528092919081815260200182805460018160011615610100020316600290048015612ed65780601f10612eab57610100808354040283529160200191612ed6565b820191906000526020600020905b815481529060010190602001808311612eb957829003601f168201915b5050505050815260200160098201548152602001600a820160009054906101000a900460ff166009811115612f0757fe5b6009811115612f1257fe5b8152602001600b820154815250508183806001019450815181101515612f3457fe5b906020019060200201819052505b8280600101935050612c12565b80945050505050919050565b6000600c80549050905090565b6000600a80549050905090565b60008114151515612f8557600080fd5b612f8d614779565b6000612f98836140ff565b915091506000826000015114151515612fb057600080fd5b8160e0015173ffffffffffffffffffffffffffffffffffffffff163373ffffffffffffffffffffffffffffffffffffffff16141515612fee57600080fd5b60036009811115612ffb57fe5b826101400151600981111561300c57fe5b101561313f576009600b8281548110151561302357fe5b90600052602060002090600c0201600a0160006101000a81548160ff0219169083600981111561304f57fe5b0217905550600760009054906101000a900473ffffffffffffffffffffffffffffffffffffffff1673ffffffffffffffffffffffffffffffffffffffff1663a9059cbb336130ae8560600151866040015161440690919063ffffffff16565b6040518363ffffffff167c01000000000000000000000000000000000000000000000000000000000281526004016130e7929190615145565b602060405180830381600087803b15801561310157600080fd5b505af1158015613115573d6000803e3d6000fd5b505050506040513d601f19601f820116820180604052506131399190810190614b1b565b5061327b565b6006600981111561314c57fe5b826101400151600981111561315d57fe5b141561327a57600760009054906101000a900473ffffffffffffffffffffffffffffffffffffffff1673ffffffffffffffffffffffffffffffffffffffff1663a9059cbb8360a0015184604001516040518363ffffffff167c01000000000000000000000000000000000000000000000000000000000281526004016131e492919061516e565b602060405180830381600087803b1580156131fe57600080fd5b505af1158015613212573d6000803e3d6000fd5b505050506040513d601f19601f820116820180604052506132369190810190614b1b565b506005600b8281548110151561324857fe5b90600052602060002090600c0201600a0160006101000a81548160ff0219169083600981111561327457fe5b02179055505b5b505050565b6060600080905060008060009050600091505b600b8054905082101561332a578473ffffffffffffffffffffffffffffffffffffffff16600b838154811015156132c657fe5b90600052602060002090600c020160070160009054906101000a900473ffffffffffffffffffffffffffffffffffffffff1673ffffffffffffffffffffffffffffffffffffffff16141561331d5782806001019350505b8180600101925050613293565b60608360405190808252806020026020018201604052801561336657816020015b6133536148d8565b81526020019060019003908161334b5790505b509050600092505b600b805490508310156136ab578573ffffffffffffffffffffffffffffffffffffffff16600b848154811015156133a157fe5b90600052602060002090600c020160070160009054906101000a900473ffffffffffffffffffffffffffffffffffffffff1673ffffffffffffffffffffffffffffffffffffffff16141561369e57600b838154811015156133fe57fe5b90600052602060002090600c0201610180604051908101604052908160008201548152602001600182015481526020016002820154815260200160038201548152602001600482015481526020016005820160009054906101000a900473ffffffffffffffffffffffffffffffffffffffff1673ffffffffffffffffffffffffffffffffffffffff1673ffffffffffffffffffffffffffffffffffffffff168152602001600682018054600181600116156101000203166002900480601f01602080910402602001604051908101604052809291908181526020018280546001816001161561010002031660029004801561353a5780601f1061350f5761010080835404028352916020019161353a565b820191906000526020600020905b81548152906001019060200180831161351d57829003601f168201915b505050505081526020016007820160009054906101000a900473ffffffffffffffffffffffffffffffffffffffff1673ffffffffffffffffffffffffffffffffffffffff1673ffffffffffffffffffffffffffffffffffffffff168152602001600882018054600181600116156101000203166002900480601f0160208091040260200160405190810160405280929190818152602001828054600181600116156101000203166002900480156136325780601f1061360757610100808354040283529160200191613632565b820191906000526020600020905b81548152906001019060200180831161361557829003601f168201915b5050505050815260200160098201548152602001600a820160009054906101000a900460ff16600981111561366357fe5b600981111561366e57fe5b8152602001600b82015481525050818380600101945081518110151561369057fe5b906020019060200201819052505b828060010193505061336e565b80945050505050919050565b600c818154811015156136c657fe5b90600052602060002090600502016000915090508060000154908060010160009054906101000a900473ffffffffffffffffffffffffffffffffffffffff1690806002018054600181600116156101000203166002900480601f01602080910402602001604051908101604052809291908181526020018280546001816001161561010002031660029004801561379e5780601f106137735761010080835404028352916020019161379e565b820191906000526020600020905b81548152906001019060200180831161378157829003601f168201915b505050505090806003018054600181600116156101000203166002900480601f01602080910402602001604051908101604052809291908181526020018280546001816001161561010002031660029004801561383c5780601f106138115761010080835404028352916020019161383c565b820191906000526020600020905b81548152906001019060200180831161381f57829003601f168201915b5050505050908060040154905085565b6000831415151561385c57600080fd5b61386461472c565b61386d8461068f565b905080600001518414151561388157600080fd5b6000821415151561389157600080fd5b600083141580156138a6575080606001518311155b15156138b157600080fd5b600760009054906101000a900473ffffffffffffffffffffffffffffffffffffffff1673ffffffffffffffffffffffffffffffffffffffff166370a08231336040518263ffffffff167c010000000000000000000000000000000000000000000000000000000002815260040161392891906150ca565b60206040518083038186803b15801561394057600080fd5b505afa158015613954573d6000803e3d6000fd5b505050506040513d601f19601f820116820180604052506139789190810190614cd3565b61398f84836040015161442290919063ffffffff16565b1115151561399c57600080fd5b3373ffffffffffffffffffffffffffffffffffffffff16816080015173ffffffffffffffffffffffffffffffffffffffff16141515156139db57600080fd5b6139e3614779565b6139f9600160045461440690919063ffffffff16565b60048190555060045481600001818152505084816020018181525050613a2c84836040015161442290919063ffffffff16565b816040018181525050613a3d614812565b613a4684611547565b905080608001518260600181815250508482608001818152505082608001518260a0019073ffffffffffffffffffffffffffffffffffffffff16908173ffffffffffffffffffffffffffffffffffffffff1681525050338260e0019073ffffffffffffffffffffffffffffffffffffffff16908173ffffffffffffffffffffffffffffffffffffffff1681525050838261012001818152505060008261014001906009811115613af257fe5b90816009811115613aff57fe5b81525050600b829080600181540180825580915050906001820390600052602060002090600c020160009091929091909150600082015181600001556020820151816001015560408201518160020155606082015181600301556080820151816004015560a08201518160050160006101000a81548173ffffffffffffffffffffffffffffffffffffffff021916908373ffffffffffffffffffffffffffffffffffffffff16021790555060c0820151816006019080519060200190613bc6929190614858565b5060e08201518160070160006101000a81548173ffffffffffffffffffffffffffffffffffffffff021916908373ffffffffffffffffffffffffffffffffffffffff160217905550610100820151816008019080519060200190613c2b929190614858565b50610120820151816009015561014082015181600a0160006101000a81548160ff02191690836009811115613c5c57fe5b021790555061016082015181600b0155505050505050505050565b60008414151515613c8757600080fd5b613c8f614779565b6000613c9a866140ff565b915091506000826000015114151515613cb257600080fd5b8160e0015173ffffffffffffffffffffffffffffffffffffffff16613d1b8686868080601f016020809104026020016040519081016040528093929190818152602001838380828437600081840152601f19601f820116905080830192505050505050506108db565b73ffffffffffffffffffffffffffffffffffffffff16141515613d3d57600080fd5b613d45614812565b613d53836101200151611547565b9050806020015173ffffffffffffffffffffffffffffffffffffffff163373ffffffffffffffffffffffffffffffffffffffff16141515613d9357600080fd5b60036009811115613da057fe5b8361014001516009811115613db157fe5b141515613dbd57600080fd5b6004600b83815481101515613dce57fe5b90600052602060002090600c0201600a0160006101000a81548160ff02191690836009811115613dfa57fe5b021790555042600b83815481101515613e0f57fe5b90600052602060002090600c0201600b018190555050505050505050565b60008414151515613e3d57600080fd5b613e45614779565b6000613e50866140ff565b915091506000826000015114151515613e6857600080fd5b8160a0015173ffffffffffffffffffffffffffffffffffffffff16613ed18686868080601f016020809104026020016040519081016040528093929190818152602001838380828437600081840152601f19601f820116905080830192505050505050506108db565b73ffffffffffffffffffffffffffffffffffffffff16141515613ef357600080fd5b613efb614812565b613f09836101200151611547565b9050806020015173ffffffffffffffffffffffffffffffffffffffff163373ffffffffffffffffffffffffffffffffffffffff16141515613f4957600080fd5b60076009811115613f5657fe5b8361014001516009811115613f6757fe5b141515613f7357600080fd5b6008600b83815481101515613f8457fe5b90600052602060002090600c0201600a0160006101000a81548160ff02191690836009811115613fb057fe5b02179055506000613fc484602001516146ce565b9050613ffd8460800151600a83815481101515613fdd57fe5b90600052602060002090600602016003015461440690919063ffffffff16565b600a8281548110151561400c57fe5b906000526020600020906006020160030181905550600760009054906101000a900473ffffffffffffffffffffffffffffffffffffffff1673ffffffffffffffffffffffffffffffffffffffff1663a9059cbb8560e0015186604001516040518363ffffffff167c01000000000000000000000000000000000000000000000000000000000281526004016140a292919061516e565b602060405180830381600087803b1580156140bc57600080fd5b505af11580156140d0573d6000803e3d6000fd5b505050506040513d601f19601f820116820180604052506140f49190810190614b1b565b505050505050505050565b614107614779565b600080600090505b600b805490508110156143ec5783600b8281548110151561412c57fe5b90600052602060002090600c02016000015414156143df57600b8181548110151561415357fe5b90600052602060002090600c02018181610180604051908101604052908160008201548152602001600182015481526020016002820154815260200160038201548152602001600482015481526020016005820160009054906101000a900473ffffffffffffffffffffffffffffffffffffffff1673ffffffffffffffffffffffffffffffffffffffff1673ffffffffffffffffffffffffffffffffffffffff168152602001600682018054600181600116156101000203166002900480601f0160208091040260200160405190810160405280929190818152602001828054600181600116156101000203166002900480156142915780601f1061426657610100808354040283529160200191614291565b820191906000526020600020905b81548152906001019060200180831161427457829003601f168201915b505050505081526020016007820160009054906101000a900473ffffffffffffffffffffffffffffffffffffffff1673ffffffffffffffffffffffffffffffffffffffff1673ffffffffffffffffffffffffffffffffffffffff168152602001600882018054600181600116156101000203166002900480601f0160208091040260200160405190810160405280929190818152602001828054600181600116156101000203166002900480156143895780601f1061435e57610100808354040283529160200191614389565b820191906000526020600020905b81548152906001019060200180831161436c57829003601f168201915b5050505050815260200160098201548152602001600a820160009054906101000a900460ff1660098111156143ba57fe5b60098111156143c557fe5b8152602001600b8201548152505091509250925050614401565b808060010191505061410f565b506143f5614779565b80600080905092509250505b915091565b6000818301905082811015151561441957fe5b80905092915050565b6000808314156144355760009050614454565b818302905081838281151561444657fe5b0414151561445057fe5b8090505b92915050565b61446261472c565b600080600090505b600a8054905081101561469b5783600a8281548110151561448757fe5b906000526020600020906006020160000154141561468e57600a818154811015156144ae57fe5b9060005260206000209060060201818160c0604051908101604052908160008201548152602001600182018054600181600116156101000203166002900480601f01602080910402602001604051908101604052809291908181526020018280546001816001161561010002031660029004801561456d5780601f106145425761010080835404028352916020019161456d565b820191906000526020600020905b81548152906001019060200180831161455057829003601f168201915b5050505050815260200160028201548152602001600382015481526020016004820160009054906101000a900473ffffffffffffffffffffffffffffffffffffffff1673ffffffffffffffffffffffffffffffffffffffff1673ffffffffffffffffffffffffffffffffffffffff168152602001600582018054600181600116156101000203166002900480601f0160208091040260200160405190810160405280929190818152602001828054600181600116156101000203166002900480156146795780601f1061464e57610100808354040283529160200191614679565b820191906000526020600020905b81548152906001019060200180831161465c57829003601f168201915b505050505081525050915092509250506146b0565b808060010191505061446a565b506146a461472c565b80600080905092509250505b915091565b60008282111515156146c357fe5b818303905092915050565b600080600090505b600a805490508110156147215782600a828154811015156146f357fe5b90600052602060002090600602016000015414156147145780915050614727565b80806001019150506146d6565b50600090505b919050565b60c06040519081016040528060008152602001606081526020016000815260200160008152602001600073ffffffffffffffffffffffffffffffffffffffff168152602001606081525090565b610180604051908101604052806000815260200160008152602001600081526020016000815260200160008152602001600073ffffffffffffffffffffffffffffffffffffffff16815260200160608152602001600073ffffffffffffffffffffffffffffffffffffffff16815260200160608152602001600081526020016000600981111561480557fe5b8152602001600081525090565b60a06040519081016040528060008152602001600073ffffffffffffffffffffffffffffffffffffffff1681526020016060815260200160608152602001600081525090565b828054600181600116156101000203166002900490600052602060002090601f016020900481019282601f1061489957805160ff19168380011785556148c7565b828001600101855582156148c7579182015b828111156148c65782518255916020019190600101906148ab565b5b5090506148d49190614971565b5090565b610180604051908101604052806000815260200160008152602001600081526020016000815260200160008152602001600073ffffffffffffffffffffffffffffffffffffffff16815260200160608152602001600073ffffffffffffffffffffffffffffffffffffffff16815260200160608152602001600081526020016000600981111561496457fe5b8152602001600081525090565b61499391905b8082111561498f576000816000905550600101614977565b5090565b90565b60006149a28235615442565b905092915050565b60006149b68251615454565b905092915050565b60006149ca8235615460565b905092915050565b60008083601f84011215156149e657600080fd5b8235905067ffffffffffffffff8111156149ff57600080fd5b602083019150836001820283011115614a1757600080fd5b9250929050565b600082601f8301121515614a3157600080fd5b8135614a44614a3f82615368565b61533b565b91508082526020830160208301858383011115614a6057600080fd5b614a6b8382846154bc565b50505092915050565b600082601f8301121515614a8757600080fd5b8135614a9a614a9582615394565b61533b565b91508082526020830160208301858383011115614ab657600080fd5b614ac18382846154bc565b50505092915050565b6000614ad6823561546a565b905092915050565b6000614aea825161546a565b905092915050565b600060208284031215614b0457600080fd5b6000614b1284828501614996565b91505092915050565b600060208284031215614b2d57600080fd5b6000614b3b848285016149aa565b91505092915050565b60008060408385031215614b5757600080fd5b6000614b65858286016149be565b925050602083013567ffffffffffffffff811115614b8257600080fd5b614b8e85828601614a1e565b9150509250929050565b600080600060608486031215614bad57600080fd5b600084013567ffffffffffffffff811115614bc757600080fd5b614bd386828701614a74565b935050602084013567ffffffffffffffff811115614bf057600080fd5b614bfc86828701614a74565b9250506040614c0d86828701614aca565b9150509250925092565b60008060008060808587031215614c2d57600080fd5b600085013567ffffffffffffffff811115614c4757600080fd5b614c5387828801614a74565b9450506020614c6487828801614aca565b9350506040614c7587828801614aca565b925050606085013567ffffffffffffffff811115614c9257600080fd5b614c9e87828801614a74565b91505092959194509250565b600060208284031215614cbc57600080fd5b6000614cca84828501614aca565b91505092915050565b600060208284031215614ce557600080fd5b6000614cf384828501614ade565b91505092915050565b60008060008060608587031215614d1257600080fd5b6000614d2087828801614aca565b9450506020614d31878288016149be565b935050604085013567ffffffffffffffff811115614d4e57600080fd5b614d5a878288016149d2565b925092505092959194509250565b600080600060608486031215614d7d57600080fd5b6000614d8b86828701614aca565b9350506020614d9c86828701614aca565b9250506040614dad86828701614aca565b9150509250925092565b614dc081615474565b82525050565b614dcf816153f0565b82525050565b6000614de0826153cd565b80845260208401935083602082028501614df9856153c0565b60005b84811015614e32578383038852614e14838351614f05565b9250614e1f826153e3565b9150602088019750600181019050614dfc565b508196508694505050505092915050565b614e4c81615486565b82525050565b6000614e5d826153d8565b808452614e718160208601602086016154cb565b614e7a816154fe565b602085010191505092915050565b600060a083016000830151614ea060008601826150a0565b506020830151614eb36020860182614dc6565b5060408301518482036040860152614ecb8282614e52565b91505060608301518482036060860152614ee58282614e52565b9150506080830151614efa60808601826150a0565b508091505092915050565b600061018083016000830151614f1e60008601826150a0565b506020830151614f3160208601826150a0565b506040830151614f4460408601826150a0565b506060830151614f5760608601826150a0565b506080830151614f6a60808601826150a0565b5060a0830151614f7d60a0860182614dc6565b5060c083015184820360c0860152614f958282614e52565b91505060e0830151614faa60e0860182614dc6565b50610100830151848203610100860152614fc48282614e52565b915050610120830151614fdb6101208601826150a0565b50610140830151614ff0610140860182614e43565b506101608301516150056101608601826150a0565b508091505092915050565b600060c08301600083015161502860008601826150a0565b50602083015184820360208601526150408282614e52565b915050604083015161505560408601826150a0565b50606083015161506860608601826150a0565b50608083015161507b6080860182614dc6565b5060a083015184820360a08601526150938282614e52565b9150508091505092915050565b6150a981615438565b82525050565b60006020820190506150c46000830184614dc6565b92915050565b60006020820190506150df6000830184614db7565b92915050565b60006040820190506150fa6000830185614db7565b6151076020830184614dc6565b9392505050565b60006060820190506151236000830186614db7565b6151306020830185614dc6565b61513d60408301846150a0565b949350505050565b600060408201905061515a6000830185614db7565b61516760208301846150a0565b9392505050565b60006040820190506151836000830185614dc6565b61519060208301846150a0565b9392505050565b600060208201905081810360008301526151b18184614dd5565b905092915050565b600060208201905081810360008301526151d38184614e88565b905092915050565b600060208201905081810360008301526151f58184615010565b905092915050565b600060208201905061521260008301846150a0565b92915050565b600060a08201905061522d60008301886150a0565b61523a6020830187614dc6565b818103604083015261524c8186614e52565b905081810360608301526152608185614e52565b905061526f60808301846150a0565b9695505050505050565b600060c08201905061528e60008301896150a0565b81810360208301526152a08188614e52565b90506152af60408301876150a0565b6152bc60608301866150a0565b6152c96080830185614dc6565b81810360a08301526152db8184614e52565b9050979650505050505050565b600060a0820190506152fd60008301886150a0565b61530a60208301876150a0565b61531760408301866150a0565b6153246060830185614dc6565b6153316080830184614dc6565b9695505050505050565b6000604051905081810181811067ffffffffffffffff8211171561535e57600080fd5b8060405250919050565b600067ffffffffffffffff82111561537f57600080fd5b601f19601f8301169050602081019050919050565b600067ffffffffffffffff8211156153ab57600080fd5b601f19601f8301169050602081019050919050565b6000602082019050919050565b600081519050919050565b600081519050919050565b6000602082019050919050565b60006153fb82615418565b9050919050565b6000600a8210151561541057fe5b819050919050565b600073ffffffffffffffffffffffffffffffffffffffff82169050919050565b6000819050919050565b600061544d82615418565b9050919050565b60008115159050919050565b6000819050919050565b6000819050919050565b600061547f82615498565b9050919050565b600061549182615402565b9050919050565b60006154a3826154aa565b9050919050565b60006154b582615418565b9050919050565b82818337600083830152505050565b60005b838110156154e95780820151818401526020810190506154ce565b838111156154f8576000848401525b50505050565b6000601f19601f830116905091905056fea265627a7a72305820ec35a8726d3773e6b7053dfe8ac06f0c0814017cfd89f9d49a88ac0ca21e9b006c6578706572696d656e74616cf50037",
  "source": "pragma solidity ^0.5.0;\npragma experimental ABIEncoderV2;\n\nimport \"./RUCToken.sol\";\n//import \"./SafeMath.sol\";\n\ncontract RUCMarket {\n    \n  using SafeMath for uint256;\n\n  address payable admin;\n  uint256 public tokenPrice;\n  uint256 public tokensSold;\n\n  uint requestedProducts;\n  uint totalOrderNumber = 0;\n  uint totalProductNumber = 0;\n  uint totalCourierNumber = 0;\n  \n\n  RUCToken token;\n\n  enum State {REQUESTED, PAYED, SELLER_COMFIRMED, SELLER_SENT, \n  BUYER_GOT, COMPLETED, WILL_RETURN, BUYER_SENT, SELLER_GOT, CANCLED}\n\n  struct Order {\n    uint id;\n    uint productId;\n    uint productValue;\n    uint deliverFee;\n    uint number;\n    address seller;\n    string sellAddress;\n    address buyer;\n    string buyerAddress;\n    uint courierId;\n    State state;\n    uint deliverTime; \n  }\n  \n  struct Product {\n    uint id;\n    string name;\n    uint price;\n    uint number;\n    //uint unconfirmedRequests;\n    address seller;\n    string url;\n  }\n  \n  \n  struct Courier {\n      uint id;\n      address accountAddress;\n      string companyName;\n      string publicKey;\n      uint fee;\n  }\n  \n  //mapping (address => AddressInfo) addressTable;\n  //mapping (address => bool) registerTable;\n  mapping (address => bool) certifiedCourier; // for admin to certify courier\n  mapping (address => bool) isCourier;  // for check if a courier double registers\n\n  Product[] public products;\n  Order[] orders;\n  Courier[] public couriers;\n  \n \n  event Purchase(uint _productId, uint _price, uint _number, address _seller, address _buyer);\n  event TokenSell(address _buyer, uint256 _amount);\n  \n  constructor(RUCToken _tokenContract, uint256 _tokenPrice) public {\n    token = _tokenContract;\n    admin = msg.sender;\n    tokenPrice = _tokenPrice;\n  }\n  \n\n/************************ Token Part **************************************************************/\n\n  function buyTokens(uint256 _numberOfTokens) public payable {\n\n    // Require that value is equal to tokens\n    require(msg.value == _numberOfTokens.mul(tokenPrice));\n\n    // Require that the contract has enough tokens\n    require(token.balanceOf(address(this))>= _numberOfTokens);\n\n    // Require that a transfer is successful\n    require(token.transfer(msg.sender, _numberOfTokens));\n\n    // Keep track of tokensSold\n    tokensSold += _numberOfTokens;\n\n    // Trigger Sell Event\n    emit TokenSell(msg.sender, _numberOfTokens);\n  }\n  \n  \n  /************************ Purchase Part **************************************************************/\n  \n  function addCourier(address _courierAddress) public{\n    require(msg.sender == admin);         // only by admin\n    certifiedCourier[_courierAddress] = true;\n  }\n\n  function courierRegister(string memory _companyName, string memory _publicKey, uint _fee) public {\n      require(certifiedCourier[msg.sender]); // require msg.sender to be already certified\n      require(!isCourier[msg.sender]); // prevent double register\n      \n      Courier memory _courier;\n      totalCourierNumber = totalCourierNumber.add(1);\n      _courier.id = totalCourierNumber; //id = totalCourierNumber \n      _courier.accountAddress = msg.sender;\n      _courier.companyName = _companyName;\n      _courier.publicKey = _publicKey;\n      _courier.fee = _fee;\n      \n      couriers.push(_courier);\n      isCourier[msg.sender] = true;\n  }\n  \n  function addProduct(string memory _name, uint _price, uint _number, string memory _url) public {\n    require(_price > 0);\n    require(_number > 0);\n    \n    Product memory _product;\n    totalProductNumber = totalProductNumber.add(1);\n    _product.id = totalProductNumber; //id = totalProductNumber\n    _product.name = _name;\n    _product.price = _price;\n    _product.number = _number;\n    _product.seller = msg.sender;\n    _product.url = _url;\n    products.push(_product);\n  }\n\n  \n  function purchaseRequest(uint _productId, uint _requestNumber, uint _courierId) external {\n    require(_productId != 0);\n    \n    //(Product memory _product, uint _productIndex) = findProductAndIndexById(_productId);\n    Product memory _product = findProductById(_productId);\n    require(_productId == _product.id); //_product does exist\n    //require(_courierId > 0 && _courierId <= couriers.length);\n    require(_courierId !=0);\n    require(_requestNumber != 0 && _requestNumber <= _product.number);\n    require((_product.price.mul(_requestNumber)) <= token.balanceOf(msg.sender));\n    require(_product.seller != msg.sender); // can not buy things from one himself\n    \n    Order memory _order;\n    totalOrderNumber = totalOrderNumber.add(1);\n    _order.id = totalOrderNumber; // order id = totalOrderNumber\n    _order.productId = _productId;\n    _order.productValue = _product.price.mul(_requestNumber); // number * price \n    Courier memory _courier = findCourierById(_courierId);\n    _order.deliverFee = _courier.fee; //deliver fee\n    _order.number = _requestNumber;\n    _order.seller = _product.seller;\n    _order.buyer = msg.sender;\n    _order.courierId = _courierId;\n    _order.state = State.REQUESTED;\n\n    orders.push(_order);\n    \n  }\n  \n  \n  function buyerPayOrder(uint _orderId) external {\n      require(_orderId !=0);\n      \n      (Order memory _order,uint _orderIndex) = findOrderAndIndexById(_orderId);\n      require(_order.id != 0); // order exist\n      \n      require(msg.sender == _order.buyer);\n      require(_order.state == State.REQUESTED);\n      \n      uint totalValue = _order.productValue.add(_order.deliverFee); //totalValue = productValue + deliverFee\n      token.approve(msg.sender, address(this), totalValue);\n      require(token.allowance(msg.sender, address(this)) >= totalValue);\n      token.transferFrom(msg.sender, address(this), totalValue);\n      orders[_orderIndex].state = State.PAYED;\n      \n  }\n  \n  function sellerComfirmOrder(uint _orderId) external {\n      require(_orderId != 0);\n      (Order memory _order,uint _orderIndex) = findOrderAndIndexById(_orderId);\n      require(_order.id != 0); // order exist\n      \n      require(msg.sender == _order.seller );\n      require(_order.state == State.PAYED);  // require preious state\n      (Product memory _product,uint _productIndex) = findProductAndIndexById(_order.productId);\n      require(_order.number <= _product.number);\n      \n      \n      \n      orders[_orderIndex].state = State.SELLER_COMFIRMED; //change state to \"...\"\n      products[_productIndex].number = products[_productIndex].number.sub(_order.number); // update product number\n      \n      emit Purchase( _order.productId, _product.price, _order.number, _order.seller, _order.buyer);\n  }\n  \n  function sellerSendProduct(uint _orderId, bytes32 _hash, bytes calldata _sig) external {\n      require(_orderId != 0);\n      (Order memory _order,uint _orderIndex) = findOrderAndIndexById(_orderId);\n      require(_order.id != 0); // order exist\n      require(msg.sender == _order.seller); //msg.sender == order's seller\n      \n      Courier memory _courier = findCourierById(_order.courierId);\n      require(recover(_hash,_sig) == _courier.accountAddress); // verify signature from courier\n      \n      require(_order.state == State.SELLER_COMFIRMED); // state == SELLER_COMFIRMED\n      \n      token.transfer(_courier.accountAddress, _order.deliverFee); // pay deliver fee\n      orders[_orderIndex].state = State.SELLER_SENT; //change state to \"SELLER_SENT\"\n  }\n  \n  function productDeliveredToBuyer(uint _orderId, bytes32 _hash, bytes calldata _sig) external {\n      require(_orderId != 0);\n      (Order memory _order,uint _orderIndex) = findOrderAndIndexById(_orderId);\n      require(_order.id != 0); // order exist\n      \n      require(recover(_hash,_sig) == _order.buyer); // verify signature from buyer\n      \n      Courier memory _courier = findCourierById(_order.courierId);\n      require(msg.sender == _courier.accountAddress); //msg.sender == order's courier\n      \n      require(_order.state == State.SELLER_SENT); // require previous state\n      \n      //token.transferFrom(address(this), _order.seller, _order.productValue);\n      orders[_orderIndex].state = State.BUYER_GOT;\n      orders[_orderIndex].deliverTime = now; // set the deliverTime as 'now'\n  }\n  \n  function buyerConfirm(uint _orderId) external {\n      require(_orderId != 0);\n      (Order memory _order,uint _orderIndex) = findOrderAndIndexById(_orderId);\n      require(_order.id != 0); // order exist\n      \n      require(msg.sender == _order.buyer); // msg.sender == buyer\n      require(_order.state == State.BUYER_GOT); // require previous state\n      \n      //token.transferFrom(address(this), _order.seller, _order.productValue);\n      token.transfer(_order.seller, _order.productValue);\n      orders[_orderIndex].state = State.COMPLETED;\n  }\n  \n  function sellerGetMoneyFromOrder(uint _orderId) external {\n      require(_orderId != 0);\n      (Order memory _order,uint _orderIndex) = findOrderAndIndexById(_orderId);\n      require(_order.id != 0); // order exist\n      \n      require(msg.sender == _order.seller); //msg.sender == seller\n      require(now > _order.deliverTime.add(1 minutes)); // consideration time is over\n      require(_order.state == State.BUYER_GOT); // Has't been confirmed\n      \n      //token.transferFrom(address(this), _order.seller, _order.productValue);\n      token.transfer(_order.seller, _order.productValue);\n      orders[_orderIndex].state = State.COMPLETED;\n  }\n  \n  function buyerWillRuturnProduct(uint _orderId) external {\n      require(_orderId !=0);\n      \n      (Order memory _order,uint _orderIndex) = findOrderAndIndexById(_orderId);\n      require(_order.id != 0); // order exist\n      \n      require(msg.sender == _order.buyer);\n      require(_order.state == State.BUYER_GOT); // state == BUYER_GOT\n      require(now <= _order.deliverTime.add(1 minutes)); // within the consideration time limit\n      \n      token.approve(msg.sender, address(this), _order.deliverFee);\n      require(token.allowance(msg.sender, address(this)) >= _order.deliverFee);\n      token.transferFrom(msg.sender, address(this), _order.deliverFee);\n      orders[_orderIndex].state = State.WILL_RETURN;\n      \n  }\n  \n  function buyerSendProduct(uint _orderId, bytes32 _hash, bytes calldata _sig) external {\n      require(_orderId != 0);\n      (Order memory _order,uint _orderIndex) = findOrderAndIndexById(_orderId);\n      require(_order.id != 0); // order exist\n      require(msg.sender == _order.buyer); //msg.sender == order's buyer\n      \n      Courier memory _courier = findCourierById(_order.courierId);\n      require(recover(_hash,_sig) == _courier.accountAddress); // verify signature\n      \n      require(_order.state == State.WILL_RETURN); // state == WILL_RETURN\n      \n      token.transfer(_courier.accountAddress, _order.deliverFee); // pay deliver fee\n      orders[_orderIndex].state = State.BUYER_SENT; //change state to \"SELLER_SENT\"\n  }\n  \n  function productDeliveredToSeller(uint _orderId, bytes32 _hash, bytes calldata _sig) external {\n      require(_orderId != 0);\n      (Order memory _order,uint _orderIndex) = findOrderAndIndexById(_orderId);\n      require(_order.id != 0); // order exist\n      \n      require(recover(_hash,_sig) == _order.seller); // verify signature from seller\n      \n      Courier memory _courier = findCourierById(_order.courierId);\n      require(msg.sender == _courier.accountAddress); //msg.sender == order's courier\n\n      require(_order.state == State.BUYER_SENT); // require previous state\n      \n      //token.transferFrom(address(this), _order.seller, _order.productValue);\n      orders[_orderIndex].state = State.SELLER_GOT;\n      //orders[_orderIndex].deliverTime = now; // reset the deliverTime as 'now'\n      \n      //add product number\n      uint _productIndex = findProductIndexById(_order.productId);\n      products[_productIndex].number = products[_productIndex].number.add(_order.number);\n      \n      token.transfer(_order.buyer, _order.productValue); // return the money back to buyer\n  }\n  \n  function cancleByBuyer(uint _orderId) external {\n      require(_orderId != 0);\n      (Order memory _order,uint _orderIndex) = findOrderAndIndexById(_orderId);\n      require(_order.id != 0); // order exist\n      \n      require(msg.sender == _order.buyer); // only buyer call this cancle  \n      \n      /*two cases:\n        1. before seller send products: buyer can get all the money (token) back\n        2. after buyer got the products, before he sends \n        (which is state WILL_RETURN): similer to buyerConfirm()*/\n      if(_order.state < State.SELLER_SENT) { // 1. before seller sent\n          orders[_orderIndex].state = State.CANCLED; // set state as CANCLED\n          token.transfer(msg.sender, _order.productValue.add(_order.deliverFee)); // transfer token back\n      }\n      else if(_order.state == State.WILL_RETURN){\n          token.transfer(_order.seller, _order.productValue);\n          orders[_orderIndex].state = State.COMPLETED;\n      }\n  }\n  \n  function cancleByCourier(uint _orderId) external {\n      /* Situation: \n      courier help qulify the product, and the returning products don't match the requirement.\n      */\n      \n      require(_orderId != 0);\n      (Order memory _order,uint _orderIndex) = findOrderAndIndexById(_orderId);\n      require(_order.id != 0); // order exist\n      \n      Courier memory _courier = findCourierById(_order.courierId);\n      require(msg.sender == _courier.accountAddress); // only courier call this cancle  \n      require(_order.state == State.WILL_RETURN);\n      \n      token.transfer(_order.seller, _order.productValue.add(_order.deliverFee));\n      orders[_orderIndex].state = State.COMPLETED;\n  }\n\n  /****************************** Find and Get methods***********************************/\n    \n  function productsNumber() external view returns(uint){\n    return products.length;\n  }\n\n  function couriersNumber() external view returns(uint){\n    return couriers.length;\n  }\n\n  function findOrderAndIndexById(uint _orderId) internal view returns(Order memory, uint) {\n    for(uint i = 0; i < orders.length; i++) {\n       if(orders[i].id == _orderId){\n         return (orders[i], i);\n       }\n    }\n    \n    Order memory order;\n    \n    return (order, 0);\n  }\n  \n  function findOrderById(uint _orderid) internal view returns(Order memory){\n      for(uint i = 0; i < orders.length; i++){\n          if(orders[i].id == _orderid)\n            return orders[i];\n      }\n      \n      Order memory order;\n      return order;\n  }\n\n  function findOrdersBySeller(address _seller) external view returns(Order[] memory) {\n    uint count = 0;\n    uint i;\n    uint j = 0;\n    for(i = 0; i < orders.length; i++){\n      if(orders[i].seller == _seller){\n        count ++;\n      }\n    }\n\n    Order[] memory results = new Order[](count);\n\n    for(i = 0; i < orders.length; i++){\n      if(orders[i].seller == _seller){\n        results[j++] = orders[i];\n      }\n    }\n\n    return results;\n  }\n  \n  function findOrdersByBuyer(address _buyer) external view returns(Order[] memory) {\n    uint count = 0;\n    uint i;\n    uint j = 0;\n    for(i = 0; i < orders.length; i++){\n      if(orders[i].buyer == _buyer){\n        count ++;\n      }\n    }\n\n    Order[] memory results = new Order[](count);\n\n    for(i = 0; i < orders.length; i++){\n      if(orders[i].buyer == _buyer){\n        results[j++] = orders[i];\n      }\n    }\n      return results;\n  }\n  \n  function findOrdersBycourierId(uint _courierId) external view returns(Order[] memory) {\n    uint count = 0;\n    uint i;\n    uint j = 0;\n    for(i = 0; i < orders.length; i++){\n      if(orders[i].courierId == _courierId){\n        count ++;\n      }\n    }\n\n    Order[] memory results = new Order[](count);\n\n    for(i = 0; i < orders.length; i++){\n      if(orders[i].courierId == _courierId){\n        results[j++] = orders[i];\n      }\n    }\n\n    return results;\n  }\n\n\n\n  function findProductAndIndexById(uint _productId) internal view returns(Product memory, uint) {\n    for(uint i = 0; i < products.length; i++) {\n       if(products[i].id == _productId){\n         return (products[i], i);\n       }\n    }\n    \n    Product memory product;\n    \n    return (product, 0);\n  }\n  \n  function findProductIndexById(uint _productId) internal view returns(uint) {\n    for(uint i = 0; i < products.length; i++) {\n       if(products[i].id == _productId){\n         return i;\n       }\n    }\n    \n    return 0;\n  }\n  \n  function findProductById(uint _productId) public view returns(Product memory) {\n    for(uint i = 0; i < products.length; i++) {\n       if(products[i].id == _productId){\n         return products[i];\n       }\n    }\n    \n    Product memory product;\n    \n    return product;\n  }\n  \n  function findCourierById(uint _courierId) public view returns(Courier memory) {\n    for(uint i = 0; i < couriers.length; i++) {\n       if(couriers[i].id == _courierId){\n         return couriers[i];\n       }\n    }\n    \n    Courier memory courier;\n    \n    return courier;\n  }\n/*********************************Verify Signature*****************************************/\n  function recover(bytes32 hash, bytes memory signature)\n      public\n      pure\n      returns (address)\n    {\n      bytes32 r;\n      bytes32 s;\n      uint8 v;\n\n      // Check the signature length\n      if (signature.length != 65) {\n        return (address(0));\n      }\n\n      // Divide the signature in r, s and v variables\n      // ecrecover takes the signature parameters, and the only way to get them\n      // currently is to use assembly.\n      // solium-disable-next-line security/no-inline-assembly\n      assembly {\n        r := mload(add(signature, 0x20))\n        s := mload(add(signature, 0x40))\n        v := byte(0, mload(add(signature, 0x60)))\n      }\n\n      // Version of signature should be 27 or 28, but 0 and 1 are also possible versions\n      if (v < 27) {\n        v += 27;\n      }\n\n      // If the version is correct return the signer address\n      if (v != 27 && v != 28) {\n        return (address(0));\n      } else {\n        // solium-disable-next-line arg-overflow\n        return ecrecover(hash, v, r, s);\n      }\n    }\n\n}",
  "sourcePath": "/home/elaine/RUCMarket/contracts/RUCMarket.sol",
  "compiler": {
    "name": "solc",
    "version": "0.5.0+commit.1d4f565a.Emscripten.clang"
  },
  "schemaVersion": "3.0.1",
  "updatedAt": "2019-04-19T19:29:09.242Z",
  "devdoc": {
    "methods": {}
  },
  "userdoc": {
    "methods": {
      "addCourier(address)": {
        "notice": "********************** Purchase Part *************************************************************"
      },
      "buyTokens(uint256)": {
        "notice": "********************** Token Part *************************************************************"
      },
      "productsNumber()": {
        "notice": "**************************** Find and Get methods**********************************"
      },
      "recover(bytes32,bytes)": {
        "notice": "*******************************Verify Signature****************************************"
      }
    }
  }
}