{
  "contractName": "RUCMarket",
  "abi": [
    {
      "constant": true,
      "inputs": [],
      "name": "tokensSold",
      "outputs": [
        {
          "name": "",
          "type": "uint256"
        }
      ],
      "payable": false,
      "stateMutability": "view",
      "type": "function",
      "signature": "0x518ab2a8"
    },
    {
      "constant": true,
      "inputs": [],
      "name": "tokenPrice",
      "outputs": [
        {
          "name": "",
          "type": "uint256"
        }
      ],
      "payable": false,
      "stateMutability": "view",
      "type": "function",
      "signature": "0x7ff9b596"
    },
    {
      "constant": true,
      "inputs": [
        {
          "name": "",
          "type": "uint256"
        }
      ],
      "name": "couriers",
      "outputs": [
        {
          "name": "id",
          "type": "uint256"
        },
        {
          "name": "accountAddress",
          "type": "address"
        },
        {
          "name": "companyName",
          "type": "string"
        },
        {
          "name": "fee",
          "type": "uint256"
        }
      ],
      "payable": false,
      "stateMutability": "view",
      "type": "function",
      "signature": "0xe2da3610"
    },
    {
      "inputs": [
        {
          "name": "_tokenContract",
          "type": "address"
        },
        {
          "name": "_tokenPrice",
          "type": "uint256"
        }
      ],
      "payable": false,
      "stateMutability": "nonpayable",
      "type": "constructor",
      "signature": "constructor"
    },
    {
      "anonymous": false,
      "inputs": [
        {
          "indexed": false,
          "name": "_productId",
          "type": "uint256"
        },
        {
          "indexed": false,
          "name": "_price",
          "type": "uint256"
        },
        {
          "indexed": false,
          "name": "_number",
          "type": "uint256"
        },
        {
          "indexed": false,
          "name": "_seller",
          "type": "address"
        },
        {
          "indexed": false,
          "name": "_buyer",
          "type": "address"
        }
      ],
      "name": "Purchase",
      "type": "event",
      "signature": "0xff4fa69114c0677f6a88bfc157c0874ccb1d721fa92a870e1d262dc197face50"
    },
    {
      "anonymous": false,
      "inputs": [
        {
          "indexed": false,
          "name": "_buyer",
          "type": "address"
        },
        {
          "indexed": false,
          "name": "_amount",
          "type": "uint256"
        }
      ],
      "name": "TokenSell",
      "type": "event",
      "signature": "0xce63ca7dc8dfc0313cea1035f873e3706e0161f9895f670682c0dab3969e3620"
    },
    {
      "constant": false,
      "inputs": [
        {
          "name": "_numberOfTokens",
          "type": "uint256"
        }
      ],
      "name": "buyTokens",
      "outputs": [],
      "payable": true,
      "stateMutability": "payable",
      "type": "function",
      "signature": "0x3610724e"
    },
    {
      "constant": true,
      "inputs": [],
      "name": "showMyBalance",
      "outputs": [
        {
          "name": "",
          "type": "uint256"
        }
      ],
      "payable": false,
      "stateMutability": "view",
      "type": "function",
      "signature": "0x52796d42"
    },
    {
      "constant": false,
      "inputs": [],
      "name": "endSale",
      "outputs": [],
      "payable": false,
      "stateMutability": "nonpayable",
      "type": "function",
      "signature": "0x380d831b"
    },
    {
      "constant": false,
      "inputs": [
        {
          "name": "_companyName",
          "type": "string"
        },
        {
          "name": "_fee",
          "type": "uint256"
        }
      ],
      "name": "I_am_courier",
      "outputs": [],
      "payable": false,
      "stateMutability": "nonpayable",
      "type": "function",
      "signature": "0x7229d338"
    },
    {
      "constant": false,
      "inputs": [
        {
          "name": "_name",
          "type": "string"
        },
        {
          "name": "_price",
          "type": "uint256"
        },
        {
          "name": "_number",
          "type": "uint256"
        }
      ],
      "name": "addProduct",
      "outputs": [],
      "payable": false,
      "stateMutability": "nonpayable",
      "type": "function",
      "signature": "0x125b0b34"
    },
    {
      "constant": false,
      "inputs": [
        {
          "name": "_productId",
          "type": "uint256"
        },
        {
          "name": "_requestNumber",
          "type": "uint256"
        },
        {
          "name": "_courierId",
          "type": "uint256"
        }
      ],
      "name": "purchaseRequest",
      "outputs": [],
      "payable": false,
      "stateMutability": "nonpayable",
      "type": "function",
      "signature": "0xef8536fb"
    },
    {
      "constant": false,
      "inputs": [
        {
          "name": "_orderId",
          "type": "uint256"
        }
      ],
      "name": "buyerPayOrder",
      "outputs": [],
      "payable": false,
      "stateMutability": "nonpayable",
      "type": "function",
      "signature": "0x3cb80eb0"
    },
    {
      "constant": false,
      "inputs": [
        {
          "name": "_orderId",
          "type": "uint256"
        }
      ],
      "name": "sellerComfirmOrder",
      "outputs": [],
      "payable": false,
      "stateMutability": "nonpayable",
      "type": "function",
      "signature": "0x374b93c8"
    },
    {
      "constant": false,
      "inputs": [
        {
          "name": "_orderId",
          "type": "uint256"
        }
      ],
      "name": "sellerSendProduct",
      "outputs": [],
      "payable": false,
      "stateMutability": "nonpayable",
      "type": "function",
      "signature": "0x9c317436"
    },
    {
      "constant": false,
      "inputs": [
        {
          "name": "_orderId",
          "type": "uint256"
        }
      ],
      "name": "buyerGetProduct",
      "outputs": [],
      "payable": false,
      "stateMutability": "nonpayable",
      "type": "function",
      "signature": "0xd47b8238"
    },
    {
      "constant": false,
      "inputs": [
        {
          "name": "_orderId",
          "type": "uint256"
        }
      ],
      "name": "buyerConfirm",
      "outputs": [],
      "payable": false,
      "stateMutability": "nonpayable",
      "type": "function",
      "signature": "0x888487cd"
    },
    {
      "constant": false,
      "inputs": [
        {
          "name": "_orderId",
          "type": "uint256"
        }
      ],
      "name": "sellerGetMoneyFromOrder",
      "outputs": [],
      "payable": false,
      "stateMutability": "nonpayable",
      "type": "function",
      "signature": "0x67bd9eea"
    },
    {
      "constant": false,
      "inputs": [
        {
          "name": "_orderId",
          "type": "uint256"
        }
      ],
      "name": "buyerWillRuturnProduct",
      "outputs": [],
      "payable": false,
      "stateMutability": "nonpayable",
      "type": "function",
      "signature": "0x8784b39e"
    },
    {
      "constant": false,
      "inputs": [
        {
          "name": "_orderId",
          "type": "uint256"
        }
      ],
      "name": "buyerSendProduct",
      "outputs": [],
      "payable": false,
      "stateMutability": "nonpayable",
      "type": "function",
      "signature": "0x68ed936e"
    },
    {
      "constant": false,
      "inputs": [
        {
          "name": "_orderId",
          "type": "uint256"
        }
      ],
      "name": "sellerGetProduct",
      "outputs": [],
      "payable": false,
      "stateMutability": "nonpayable",
      "type": "function",
      "signature": "0xf4185bf3"
    },
    {
      "constant": false,
      "inputs": [
        {
          "name": "_orderId",
          "type": "uint256"
        }
      ],
      "name": "cancleByBuyer",
      "outputs": [],
      "payable": false,
      "stateMutability": "nonpayable",
      "type": "function",
      "signature": "0xcd828eb2"
    },
    {
      "constant": false,
      "inputs": [
        {
          "name": "_orderId",
          "type": "uint256"
        }
      ],
      "name": "cancleByCourier",
      "outputs": [],
      "payable": false,
      "stateMutability": "nonpayable",
      "type": "function",
      "signature": "0x234142f8"
    },
    {
      "constant": true,
      "inputs": [
        {
          "name": "_orderid",
          "type": "uint256"
        }
      ],
      "name": "findOrderById",
      "outputs": [
        {
          "components": [
            {
              "name": "id",
              "type": "uint256"
            },
            {
              "name": "productId",
              "type": "uint256"
            },
            {
              "name": "productValue",
              "type": "uint256"
            },
            {
              "name": "deliverFee",
              "type": "uint256"
            },
            {
              "name": "number",
              "type": "uint256"
            },
            {
              "name": "seller",
              "type": "address"
            },
            {
              "name": "buyer",
              "type": "address"
            },
            {
              "name": "courierId",
              "type": "uint256"
            },
            {
              "name": "state",
              "type": "uint8"
            },
            {
              "name": "deliverTime",
              "type": "uint256"
            }
          ],
          "name": "",
          "type": "tuple"
        }
      ],
      "payable": false,
      "stateMutability": "view",
      "type": "function",
      "signature": "0x75b254bf"
    },
    {
      "constant": true,
      "inputs": [
        {
          "name": "_seller",
          "type": "address"
        }
      ],
      "name": "findOrdersBySeller",
      "outputs": [
        {
          "components": [
            {
              "name": "id",
              "type": "uint256"
            },
            {
              "name": "productId",
              "type": "uint256"
            },
            {
              "name": "productValue",
              "type": "uint256"
            },
            {
              "name": "deliverFee",
              "type": "uint256"
            },
            {
              "name": "number",
              "type": "uint256"
            },
            {
              "name": "seller",
              "type": "address"
            },
            {
              "name": "buyer",
              "type": "address"
            },
            {
              "name": "courierId",
              "type": "uint256"
            },
            {
              "name": "state",
              "type": "uint8"
            },
            {
              "name": "deliverTime",
              "type": "uint256"
            }
          ],
          "name": "",
          "type": "tuple[]"
        }
      ],
      "payable": false,
      "stateMutability": "view",
      "type": "function",
      "signature": "0x9e0125e3"
    },
    {
      "constant": true,
      "inputs": [
        {
          "name": "_buyer",
          "type": "address"
        }
      ],
      "name": "findOrdersByBuyer",
      "outputs": [
        {
          "components": [
            {
              "name": "id",
              "type": "uint256"
            },
            {
              "name": "productId",
              "type": "uint256"
            },
            {
              "name": "productValue",
              "type": "uint256"
            },
            {
              "name": "deliverFee",
              "type": "uint256"
            },
            {
              "name": "number",
              "type": "uint256"
            },
            {
              "name": "seller",
              "type": "address"
            },
            {
              "name": "buyer",
              "type": "address"
            },
            {
              "name": "courierId",
              "type": "uint256"
            },
            {
              "name": "state",
              "type": "uint8"
            },
            {
              "name": "deliverTime",
              "type": "uint256"
            }
          ],
          "name": "",
          "type": "tuple[]"
        }
      ],
      "payable": false,
      "stateMutability": "view",
      "type": "function",
      "signature": "0xddf6949f"
    },
    {
      "constant": true,
      "inputs": [
        {
          "name": "_courierId",
          "type": "uint256"
        }
      ],
      "name": "findOrdersBycourierId",
      "outputs": [
        {
          "components": [
            {
              "name": "id",
              "type": "uint256"
            },
            {
              "name": "productId",
              "type": "uint256"
            },
            {
              "name": "productValue",
              "type": "uint256"
            },
            {
              "name": "deliverFee",
              "type": "uint256"
            },
            {
              "name": "number",
              "type": "uint256"
            },
            {
              "name": "seller",
              "type": "address"
            },
            {
              "name": "buyer",
              "type": "address"
            },
            {
              "name": "courierId",
              "type": "uint256"
            },
            {
              "name": "state",
              "type": "uint8"
            },
            {
              "name": "deliverTime",
              "type": "uint256"
            }
          ],
          "name": "",
          "type": "tuple[]"
        }
      ],
      "payable": false,
      "stateMutability": "view",
      "type": "function",
      "signature": "0x875fc626"
    },
    {
      "constant": true,
      "inputs": [
        {
          "name": "_productId",
          "type": "uint256"
        }
      ],
      "name": "findProductById",
      "outputs": [
        {
          "components": [
            {
              "name": "id",
              "type": "uint256"
            },
            {
              "name": "name",
              "type": "string"
            },
            {
              "name": "price",
              "type": "uint256"
            },
            {
              "name": "number",
              "type": "uint256"
            },
            {
              "name": "unconfirmedRequests",
              "type": "uint256"
            },
            {
              "name": "seller",
              "type": "address"
            }
          ],
          "name": "",
          "type": "tuple"
        }
      ],
      "payable": false,
      "stateMutability": "view",
      "type": "function",
      "signature": "0x14082cd2"
    },
    {
      "constant": true,
      "inputs": [
        {
          "name": "_courierId",
          "type": "uint256"
        }
      ],
      "name": "findCourierById",
      "outputs": [
        {
          "components": [
            {
              "name": "id",
              "type": "uint256"
            },
            {
              "name": "accountAddress",
              "type": "address"
            },
            {
              "name": "companyName",
              "type": "string"
            },
            {
              "name": "fee",
              "type": "uint256"
            }
          ],
          "name": "",
          "type": "tuple"
        }
      ],
      "payable": false,
      "stateMutability": "view",
      "type": "function",
      "signature": "0x4090d5d2"
    }
  ],
  "bytecode": "0x60806040526000600455600060055560006006553480156200002057600080fd5b5060405160408062004b268339810180604052620000429190810190620000fe565b81600760006101000a81548173ffffffffffffffffffffffffffffffffffffffff021916908373ffffffffffffffffffffffffffffffffffffffff160217905550336000806101000a81548173ffffffffffffffffffffffffffffffffffffffff021916908373ffffffffffffffffffffffffffffffffffffffff16021790555080600181905550505062000191565b6000620000e0825162000173565b905092915050565b6000620000f6825162000187565b905092915050565b600080604083850312156200011257600080fd5b60006200012285828601620000d2565b92505060206200013585828601620000e8565b9150509250929050565b60006200014c8262000153565b9050919050565b600073ffffffffffffffffffffffffffffffffffffffff82169050919050565b600062000180826200013f565b9050919050565b6000819050919050565b61498580620001a16000396000f3fe608060405260043610610154576000357c0100000000000000000000000000000000000000000000000000000000900463ffffffff168063125b0b341461015957806314082cd214610182578063234142f8146101bf5780633610724e146101e8578063374b93c814610204578063380d831b1461022d5780633cb80eb0146102445780634090d5d21461026d578063518ab2a8146102aa57806352796d42146102d557806367bd9eea1461030057806368ed936e146103295780637229d3381461035257806375b254bf1461037b5780637ff9b596146103b8578063875fc626146103e35780638784b39e14610420578063888487cd146104495780639c317436146104725780639e0125e31461049b578063cd828eb2146104d8578063d47b823814610501578063ddf6949f1461052a578063e2da361014610567578063ef8536fb146105a7578063f4185bf3146105d0575b600080fd5b34801561016557600080fd5b50610180600480360361017b919081019061412f565b6105f9565b005b34801561018e57600080fd5b506101a960048036036101a49190810190614196565b61075f565b6040516101b691906146d1565b60405180910390f35b3480156101cb57600080fd5b506101e660048036036101e19190810190614196565b610913565b005b61020260048036036101fd9190810190614196565b610aff565b005b34801561021057600080fd5b5061022b60048036036102269190810190614196565b610d18565b005b34801561023957600080fd5b50610242610ee4565b005b34801561025057600080fd5b5061026b60048036036102669190810190614196565b61117d565b005b34801561027957600080fd5b50610294600480360361028f9190810190614196565b6114fa565b6040516102a19190614693565b60405180910390f35b3480156102b657600080fd5b506102bf61169a565b6040516102cc91906146f3565b60405180910390f35b3480156102e157600080fd5b506102ea6116a0565b6040516102f791906146f3565b60405180910390f35b34801561030c57600080fd5b5061032760048036036103229190810190614196565b61176e565b005b34801561033557600080fd5b50610350600480360361034b9190810190614196565b611952565b005b34801561035e57600080fd5b50610379600480360361037491908101906140db565b611b28565b005b34801561038757600080fd5b506103a2600480360361039d9190810190614196565b611d02565b6040516103af91906146b5565b60405180910390f35b3480156103c457600080fd5b506103cd611eb6565b6040516103da91906146f3565b60405180910390f35b3480156103ef57600080fd5b5061040a60048036036104059190810190614196565b611ebc565b6040516104179190614671565b60405180910390f35b34801561042c57600080fd5b5061044760048036036104429190810190614196565b612117565b005b34801561045557600080fd5b50610470600480360361046b9190810190614196565b6124a7565b005b34801561047e57600080fd5b5061049960048036036104949190810190614196565b612665565b005b3480156104a757600080fd5b506104c260048036036104bd9190810190614089565b61283b565b6040516104cf9190614671565b60405180910390f35b3480156104e457600080fd5b506104ff60048036036104fa9190810190614196565b612b2e565b005b34801561050d57600080fd5b5061052860048036036105239190810190614196565b612e39565b005b34801561053657600080fd5b50610551600480360361054c9190810190614089565b612f48565b60405161055e9190614671565b60405180910390f35b34801561057357600080fd5b5061058e60048036036105899190810190614196565b61323b565b60405161059e949392919061470e565b60405180910390f35b3480156105b357600080fd5b506105ce60048036036105c991908101906141e8565b613332565b005b3480156105dc57600080fd5b506105f760048036036105f29190810190614196565b613720565b005b60008211151561060857600080fd5b60008111151561061757600080fd5b61061f613d9c565b610635600160055461394b90919063ffffffff16565b6005819055506005548160000181815250508381602001819052508281604001818152505081816060018181525050338160a0019073ffffffffffffffffffffffffffffffffffffffff16908173ffffffffffffffffffffffffffffffffffffffff1681525050600b81908060018154018082558091505090600182039060005260206000209060060201600090919290919091506000820151816000015560208201518160010190805190602001906106f0929190613de9565b5060408201518160020155606082015181600301556080820151816004015560a08201518160050160006101000a81548173ffffffffffffffffffffffffffffffffffffffff021916908373ffffffffffffffffffffffffffffffffffffffff16021790555050505050505050565b610767613d9c565b60008090505b600b805490508110156109005782600b8281548110151561078a57fe5b90600052602060002090600602016000015414156108f357600b818154811015156107b157fe5b906000526020600020906006020160c0604051908101604052908160008201548152602001600182018054600181600116156101000203166002900480601f01602080910402602001604051908101604052809291908181526020018280546001816001161561010002031660029004801561086e5780601f106108435761010080835404028352916020019161086e565b820191906000526020600020905b81548152906001019060200180831161085157829003601f168201915b505050505081526020016002820154815260200160038201548152602001600482015481526020016005820160009054906101000a900473ffffffffffffffffffffffffffffffffffffffff1673ffffffffffffffffffffffffffffffffffffffff1673ffffffffffffffffffffffffffffffffffffffff168152505091505061090e565b808060010191505061076d565b50610909613d9c565b809150505b919050565b6000811415151561092357600080fd5b61092b613e69565b600061093683613967565b91509150600082600001511415151561094e57600080fd5b610956613ef4565b6109638360e001516114fa565b9050806020015173ffffffffffffffffffffffffffffffffffffffff163373ffffffffffffffffffffffffffffffffffffffff161415156109a357600080fd5b600660098111156109b057fe5b83610100015160098111156109c157fe5b1415156109cd57600080fd5b600760009054906101000a900473ffffffffffffffffffffffffffffffffffffffff1673ffffffffffffffffffffffffffffffffffffffff1663a9059cbb8460a00151610a2b8660600151876040015161394b90919063ffffffff16565b6040518363ffffffff167c0100000000000000000000000000000000000000000000000000000000028152600401610a64929190614648565b602060405180830381600087803b158015610a7e57600080fd5b505af1158015610a92573d6000803e3d6000fd5b505050506040513d601f19601f82011682018060405250610ab691908101906140b2565b506005600c83815481101515610ac857fe5b90600052602060002090600a020160080160006101000a81548160ff02191690836009811115610af457fe5b021790555050505050565b610b1460015482613b2a90919063ffffffff16565b34141515610b2157600080fd5b80600760009054906101000a900473ffffffffffffffffffffffffffffffffffffffff1673ffffffffffffffffffffffffffffffffffffffff166370a08231306040518263ffffffff167c0100000000000000000000000000000000000000000000000000000000028152600401610b999190614589565b60206040518083038186803b158015610bb157600080fd5b505afa158015610bc5573d6000803e3d6000fd5b505050506040513d601f19601f82011682018060405250610be991908101906141bf565b10151515610bf657600080fd5b600760009054906101000a900473ffffffffffffffffffffffffffffffffffffffff1673ffffffffffffffffffffffffffffffffffffffff1663a9059cbb33836040518363ffffffff167c0100000000000000000000000000000000000000000000000000000000028152600401610c6f92919061461f565b602060405180830381600087803b158015610c8957600080fd5b505af1158015610c9d573d6000803e3d6000fd5b505050506040513d601f19601f82011682018060405250610cc191908101906140b2565b1515610ccc57600080fd5b806002600082825401925050819055507fce63ca7dc8dfc0313cea1035f873e3706e0161f9895f670682c0dab3969e36203382604051610d0d92919061461f565b60405180910390a150565b60008114151515610d2857600080fd5b610d30613e69565b6000610d3b83613967565b915091506000826000015114151515610d5357600080fd5b8160a0015173ffffffffffffffffffffffffffffffffffffffff163373ffffffffffffffffffffffffffffffffffffffff16141515610d9157600080fd5b60016009811115610d9e57fe5b8261010001516009811115610daf57fe5b141515610dbb57600080fd5b610dc3613d9c565b6000610dd28460200151613b62565b915091508160600151846080015111151515610ded57600080fd5b6002600c84815481101515610dfe57fe5b90600052602060002090600a020160080160006101000a81548160ff02191690836009811115610e2a57fe5b0217905550610e668460800151600b83815481101515610e4657fe5b906000526020600020906006020160030154613d2590919063ffffffff16565b600b82815481101515610e7557fe5b9060005260206000209060060201600301819055507fff4fa69114c0677f6a88bfc157c0874ccb1d721fa92a870e1d262dc197face508460200151836040015186608001518760a001518860c00151604051610ed595949392919061475a565b60405180910390a15050505050565b6000809054906101000a900473ffffffffffffffffffffffffffffffffffffffff1673ffffffffffffffffffffffffffffffffffffffff163373ffffffffffffffffffffffffffffffffffffffff16141515610f3f57600080fd5b600760009054906101000a900473ffffffffffffffffffffffffffffffffffffffff1673ffffffffffffffffffffffffffffffffffffffff1663a9059cbb6000809054906101000a900473ffffffffffffffffffffffffffffffffffffffff16600760009054906101000a900473ffffffffffffffffffffffffffffffffffffffff1673ffffffffffffffffffffffffffffffffffffffff166370a08231306040518263ffffffff167c01000000000000000000000000000000000000000000000000000000000281526004016110169190614589565b60206040518083038186803b15801561102e57600080fd5b505afa158015611042573d6000803e3d6000fd5b505050506040513d601f19601f8201168201806040525061106691908101906141bf565b6040518363ffffffff167c010000000000000000000000000000000000000000000000000000000002815260040161109f92919061461f565b602060405180830381600087803b1580156110b957600080fd5b505af11580156110cd573d6000803e3d6000fd5b505050506040513d601f19601f820116820180604052506110f191908101906140b2565b15156110fc57600080fd5b6000809054906101000a900473ffffffffffffffffffffffffffffffffffffffff1673ffffffffffffffffffffffffffffffffffffffff166108fc3073ffffffffffffffffffffffffffffffffffffffff16319081150290604051600060405180830381858888f1935050505015801561117a573d6000803e3d6000fd5b50565b6000811415151561118d57600080fd5b611195613e69565b60006111a083613967565b9150915060008260000151141515156111b857600080fd5b8160c0015173ffffffffffffffffffffffffffffffffffffffff163373ffffffffffffffffffffffffffffffffffffffff161415156111f657600080fd5b6000600981111561120357fe5b826101000151600981111561121457fe5b14151561122057600080fd5b600061123d8360600151846040015161394b90919063ffffffff16565b9050600760009054906101000a900473ffffffffffffffffffffffffffffffffffffffff1673ffffffffffffffffffffffffffffffffffffffff1663e1f21c673330846040518463ffffffff167c01000000000000000000000000000000000000000000000000000000000281526004016112ba939291906145e8565b602060405180830381600087803b1580156112d457600080fd5b505af11580156112e8573d6000803e3d6000fd5b505050506040513d601f19601f8201168201806040525061130c91908101906140b2565b5080600760009054906101000a900473ffffffffffffffffffffffffffffffffffffffff1673ffffffffffffffffffffffffffffffffffffffff1663dd62ed3e33306040518363ffffffff167c01000000000000000000000000000000000000000000000000000000000281526004016113879291906145bf565b60206040518083038186803b15801561139f57600080fd5b505afa1580156113b3573d6000803e3d6000fd5b505050506040513d601f19601f820116820180604052506113d791908101906141bf565b101515156113e457600080fd5b600760009054906101000a900473ffffffffffffffffffffffffffffffffffffffff1673ffffffffffffffffffffffffffffffffffffffff166323b872dd3330846040518463ffffffff167c010000000000000000000000000000000000000000000000000000000002815260040161145f939291906145e8565b602060405180830381600087803b15801561147957600080fd5b505af115801561148d573d6000803e3d6000fd5b505050506040513d601f19601f820116820180604052506114b191908101906140b2565b506001600c838154811015156114c357fe5b90600052602060002090600a020160080160006101000a81548160ff021916908360098111156114ef57fe5b021790555050505050565b611502613ef4565b60008090505b600d805490508110156116875782600d8281548110151561152557fe5b906000526020600020906004020160000154141561167a57600d8181548110151561154c57fe5b906000526020600020906004020160806040519081016040529081600082015481526020016001820160009054906101000a900473ffffffffffffffffffffffffffffffffffffffff1673ffffffffffffffffffffffffffffffffffffffff1673ffffffffffffffffffffffffffffffffffffffff168152602001600282018054600181600116156101000203166002900480601f01602080910402602001604051908101604052809291908181526020018280546001816001161561010002031660029004801561165f5780601f106116345761010080835404028352916020019161165f565b820191906000526020600020905b81548152906001019060200180831161164257829003601f168201915b50505050508152602001600382015481525050915050611695565b8080600101915050611508565b50611690613ef4565b809150505b919050565b60025481565b6000600760009054906101000a900473ffffffffffffffffffffffffffffffffffffffff1673ffffffffffffffffffffffffffffffffffffffff166370a08231336040518263ffffffff167c010000000000000000000000000000000000000000000000000000000002815260040161171991906145a4565b60206040518083038186803b15801561173157600080fd5b505afa158015611745573d6000803e3d6000fd5b505050506040513d601f19601f8201168201806040525061176991908101906141bf565b905090565b6000811415151561177e57600080fd5b611786613e69565b600061179183613967565b9150915060008260000151141515156117a957600080fd5b8160a0015173ffffffffffffffffffffffffffffffffffffffff163373ffffffffffffffffffffffffffffffffffffffff161415156117e757600080fd5b611800603c83610120015161394b90919063ffffffff16565b4211151561180d57600080fd5b6004600981111561181a57fe5b826101000151600981111561182b57fe5b14151561183757600080fd5b600760009054906101000a900473ffffffffffffffffffffffffffffffffffffffff1673ffffffffffffffffffffffffffffffffffffffff1663a9059cbb8360a0015184604001516040518363ffffffff167c01000000000000000000000000000000000000000000000000000000000281526004016118b8929190614648565b602060405180830381600087803b1580156118d257600080fd5b505af11580156118e6573d6000803e3d6000fd5b505050506040513d601f19601f8201168201806040525061190a91908101906140b2565b506005600c8281548110151561191c57fe5b90600052602060002090600a020160080160006101000a81548160ff0219169083600981111561194857fe5b0217905550505050565b6000811415151561196257600080fd5b61196a613e69565b600061197583613967565b91509150600082600001511415151561198d57600080fd5b611995613ef4565b6119a28360e001516114fa565b9050806020015173ffffffffffffffffffffffffffffffffffffffff163373ffffffffffffffffffffffffffffffffffffffff161415156119e257600080fd5b600660098111156119ef57fe5b8361010001516009811115611a0057fe5b141515611a0c57600080fd5b600760009054906101000a900473ffffffffffffffffffffffffffffffffffffffff1673ffffffffffffffffffffffffffffffffffffffff1663a9059cbb826020015185606001516040518363ffffffff167c0100000000000000000000000000000000000000000000000000000000028152600401611a8d929190614648565b602060405180830381600087803b158015611aa757600080fd5b505af1158015611abb573d6000803e3d6000fd5b505050506040513d601f19601f82011682018060405250611adf91908101906140b2565b506007600c83815481101515611af157fe5b90600052602060002090600a020160080160006101000a81548160ff02191690836009811115611b1d57fe5b021790555050505050565b600a60003373ffffffffffffffffffffffffffffffffffffffff1673ffffffffffffffffffffffffffffffffffffffff16815260200190815260200160002060009054906101000a900460ff16151515611b8157600080fd5b611b89613ef4565b611b9f600160065461394b90919063ffffffff16565b60068190555060065481600001818152505033816020019073ffffffffffffffffffffffffffffffffffffffff16908173ffffffffffffffffffffffffffffffffffffffff168152505082816040018190525081816060018181525050600d81908060018154018082558091505090600182039060005260206000209060040201600090919290919091506000820151816000015560208201518160010160006101000a81548173ffffffffffffffffffffffffffffffffffffffff021916908373ffffffffffffffffffffffffffffffffffffffff1602179055506040820151816002019080519060200190611c97929190613de9565b50606082015181600301555050506001600a60003373ffffffffffffffffffffffffffffffffffffffff1673ffffffffffffffffffffffffffffffffffffffff16815260200190815260200160002060006101000a81548160ff021916908315150217905550505050565b611d0a613e69565b60008090505b600c80549050811015611ea35782600c82815481101515611d2d57fe5b90600052602060002090600a0201600001541415611e9657600c81815481101515611d5457fe5b90600052602060002090600a0201610140604051908101604052908160008201548152602001600182015481526020016002820154815260200160038201548152602001600482015481526020016005820160009054906101000a900473ffffffffffffffffffffffffffffffffffffffff1673ffffffffffffffffffffffffffffffffffffffff1673ffffffffffffffffffffffffffffffffffffffff1681526020016006820160009054906101000a900473ffffffffffffffffffffffffffffffffffffffff1673ffffffffffffffffffffffffffffffffffffffff1673ffffffffffffffffffffffffffffffffffffffff168152602001600782015481526020016008820160009054906101000a900460ff166009811115611e7557fe5b6009811115611e8057fe5b8152602001600982015481525050915050611eb1565b8080600101915050611d10565b50611eac613e69565b809150505b919050565b60015481565b6060600080905060008060009050600091505b600c80549050821015611f1a5784600c83815481101515611eec57fe5b90600052602060002090600a0201600701541415611f0d5782806001019350505b8180600101925050611ecf565b606083604051908082528060200260200182016040528015611f5657816020015b611f43613f33565b815260200190600190039081611f3b5790505b509050600092505b600c8054905083101561210b5785600c84815481101515611f7b57fe5b90600052602060002090600a02016007015414156120fe57600c83815481101515611fa257fe5b90600052602060002090600a0201610140604051908101604052908160008201548152602001600182015481526020016002820154815260200160038201548152602001600482015481526020016005820160009054906101000a900473ffffffffffffffffffffffffffffffffffffffff1673ffffffffffffffffffffffffffffffffffffffff1673ffffffffffffffffffffffffffffffffffffffff1681526020016006820160009054906101000a900473ffffffffffffffffffffffffffffffffffffffff1673ffffffffffffffffffffffffffffffffffffffff1673ffffffffffffffffffffffffffffffffffffffff168152602001600782015481526020016008820160009054906101000a900460ff1660098111156120c357fe5b60098111156120ce57fe5b815260200160098201548152505081838060010194508151811015156120f057fe5b906020019060200201819052505b8280600101935050611f5e565b80945050505050919050565b6000811415151561212757600080fd5b61212f613e69565b600061213a83613967565b91509150600082600001511415151561215257600080fd5b8160c0015173ffffffffffffffffffffffffffffffffffffffff163373ffffffffffffffffffffffffffffffffffffffff1614151561219057600080fd5b6004600981111561219d57fe5b82610100015160098111156121ae57fe5b1415156121ba57600080fd5b6121d3603c83610120015161394b90919063ffffffff16565b42111515156121e157600080fd5b600760009054906101000a900473ffffffffffffffffffffffffffffffffffffffff1673ffffffffffffffffffffffffffffffffffffffff1663e1f21c67333085606001516040518463ffffffff167c0100000000000000000000000000000000000000000000000000000000028152600401612260939291906145e8565b602060405180830381600087803b15801561227a57600080fd5b505af115801561228e573d6000803e3d6000fd5b505050506040513d601f19601f820116820180604052506122b291908101906140b2565b508160600151600760009054906101000a900473ffffffffffffffffffffffffffffffffffffffff1673ffffffffffffffffffffffffffffffffffffffff1663dd62ed3e33306040518363ffffffff167c01000000000000000000000000000000000000000000000000000000000281526004016123319291906145bf565b60206040518083038186803b15801561234957600080fd5b505afa15801561235d573d6000803e3d6000fd5b505050506040513d601f19601f8201168201806040525061238191908101906141bf565b1015151561238e57600080fd5b600760009054906101000a900473ffffffffffffffffffffffffffffffffffffffff1673ffffffffffffffffffffffffffffffffffffffff166323b872dd333085606001516040518463ffffffff167c010000000000000000000000000000000000000000000000000000000002815260040161240d939291906145e8565b602060405180830381600087803b15801561242757600080fd5b505af115801561243b573d6000803e3d6000fd5b505050506040513d601f19601f8201168201806040525061245f91908101906140b2565b506006600c8281548110151561247157fe5b90600052602060002090600a020160080160006101000a81548160ff0219169083600981111561249d57fe5b0217905550505050565b600081141515156124b757600080fd5b6124bf613e69565b60006124ca83613967565b9150915060008260000151141515156124e257600080fd5b8160c0015173ffffffffffffffffffffffffffffffffffffffff163373ffffffffffffffffffffffffffffffffffffffff1614151561252057600080fd5b6004600981111561252d57fe5b826101000151600981111561253e57fe5b14151561254a57600080fd5b600760009054906101000a900473ffffffffffffffffffffffffffffffffffffffff1673ffffffffffffffffffffffffffffffffffffffff1663a9059cbb8360a0015184604001516040518363ffffffff167c01000000000000000000000000000000000000000000000000000000000281526004016125cb929190614648565b602060405180830381600087803b1580156125e557600080fd5b505af11580156125f9573d6000803e3d6000fd5b505050506040513d601f19601f8201168201806040525061261d91908101906140b2565b506005600c8281548110151561262f57fe5b90600052602060002090600a020160080160006101000a81548160ff0219169083600981111561265b57fe5b0217905550505050565b6000811415151561267557600080fd5b61267d613e69565b600061268883613967565b9150915060008260000151141515156126a057600080fd5b6126a8613ef4565b6126b58360e001516114fa565b9050806020015173ffffffffffffffffffffffffffffffffffffffff163373ffffffffffffffffffffffffffffffffffffffff161415156126f557600080fd5b6002600981111561270257fe5b836101000151600981111561271357fe5b14151561271f57600080fd5b600760009054906101000a900473ffffffffffffffffffffffffffffffffffffffff1673ffffffffffffffffffffffffffffffffffffffff1663a9059cbb826020015185606001516040518363ffffffff167c01000000000000000000000000000000000000000000000000000000000281526004016127a0929190614648565b602060405180830381600087803b1580156127ba57600080fd5b505af11580156127ce573d6000803e3d6000fd5b505050506040513d601f19601f820116820180604052506127f291908101906140b2565b506003600c8381548110151561280457fe5b90600052602060002090600a020160080160006101000a81548160ff0219169083600981111561283057fe5b021790555050505050565b6060600080905060008060009050600091505b600c805490508210156128e5578473ffffffffffffffffffffffffffffffffffffffff16600c8381548110151561288157fe5b90600052602060002090600a020160050160009054906101000a900473ffffffffffffffffffffffffffffffffffffffff1673ffffffffffffffffffffffffffffffffffffffff1614156128d85782806001019350505b818060010192505061284e565b60608360405190808252806020026020018201604052801561292157816020015b61290e613f33565b8152602001906001900390816129065790505b509050600092505b600c80549050831015612b22578573ffffffffffffffffffffffffffffffffffffffff16600c8481548110151561295c57fe5b90600052602060002090600a020160050160009054906101000a900473ffffffffffffffffffffffffffffffffffffffff1673ffffffffffffffffffffffffffffffffffffffff161415612b1557600c838154811015156129b957fe5b90600052602060002090600a0201610140604051908101604052908160008201548152602001600182015481526020016002820154815260200160038201548152602001600482015481526020016005820160009054906101000a900473ffffffffffffffffffffffffffffffffffffffff1673ffffffffffffffffffffffffffffffffffffffff1673ffffffffffffffffffffffffffffffffffffffff1681526020016006820160009054906101000a900473ffffffffffffffffffffffffffffffffffffffff1673ffffffffffffffffffffffffffffffffffffffff1673ffffffffffffffffffffffffffffffffffffffff168152602001600782015481526020016008820160009054906101000a900460ff166009811115612ada57fe5b6009811115612ae557fe5b81526020016009820154815250508183806001019450815181101515612b0757fe5b906020019060200201819052505b8280600101935050612929565b80945050505050919050565b60008114151515612b3e57600080fd5b612b46613e69565b6000612b5183613967565b915091506000826000015114151515612b6957600080fd5b8160c0015173ffffffffffffffffffffffffffffffffffffffff163373ffffffffffffffffffffffffffffffffffffffff16141515612ba757600080fd5b60036009811115612bb457fe5b8261010001516009811115612bc557fe5b1015612cf8576009600c82815481101515612bdc57fe5b90600052602060002090600a020160080160006101000a81548160ff02191690836009811115612c0857fe5b0217905550600760009054906101000a900473ffffffffffffffffffffffffffffffffffffffff1673ffffffffffffffffffffffffffffffffffffffff1663a9059cbb33612c678560600151866040015161394b90919063ffffffff16565b6040518363ffffffff167c0100000000000000000000000000000000000000000000000000000000028152600401612ca092919061461f565b602060405180830381600087803b158015612cba57600080fd5b505af1158015612cce573d6000803e3d6000fd5b505050506040513d601f19601f82011682018060405250612cf291908101906140b2565b50612e34565b60066009811115612d0557fe5b8261010001516009811115612d1657fe5b1415612e3357600760009054906101000a900473ffffffffffffffffffffffffffffffffffffffff1673ffffffffffffffffffffffffffffffffffffffff1663a9059cbb8360a0015184604001516040518363ffffffff167c0100000000000000000000000000000000000000000000000000000000028152600401612d9d929190614648565b602060405180830381600087803b158015612db757600080fd5b505af1158015612dcb573d6000803e3d6000fd5b505050506040513d601f19601f82011682018060405250612def91908101906140b2565b506005600c82815481101515612e0157fe5b90600052602060002090600a020160080160006101000a81548160ff02191690836009811115612e2d57fe5b02179055505b5b505050565b60008114151515612e4957600080fd5b612e51613e69565b6000612e5c83613967565b915091506000826000015114151515612e7457600080fd5b8160c0015173ffffffffffffffffffffffffffffffffffffffff163373ffffffffffffffffffffffffffffffffffffffff16141515612eb257600080fd5b60036009811115612ebf57fe5b8261010001516009811115612ed057fe5b141515612edc57600080fd5b6004600c82815481101515612eed57fe5b90600052602060002090600a020160080160006101000a81548160ff02191690836009811115612f1957fe5b021790555042600c82815481101515612f2e57fe5b90600052602060002090600a020160090181905550505050565b6060600080905060008060009050600091505b600c80549050821015612ff2578473ffffffffffffffffffffffffffffffffffffffff16600c83815481101515612f8e57fe5b90600052602060002090600a020160060160009054906101000a900473ffffffffffffffffffffffffffffffffffffffff1673ffffffffffffffffffffffffffffffffffffffff161415612fe55782806001019350505b8180600101925050612f5b565b60608360405190808252806020026020018201604052801561302e57816020015b61301b613f33565b8152602001906001900390816130135790505b509050600092505b600c8054905083101561322f578573ffffffffffffffffffffffffffffffffffffffff16600c8481548110151561306957fe5b90600052602060002090600a020160060160009054906101000a900473ffffffffffffffffffffffffffffffffffffffff1673ffffffffffffffffffffffffffffffffffffffff16141561322257600c838154811015156130c657fe5b90600052602060002090600a0201610140604051908101604052908160008201548152602001600182015481526020016002820154815260200160038201548152602001600482015481526020016005820160009054906101000a900473ffffffffffffffffffffffffffffffffffffffff1673ffffffffffffffffffffffffffffffffffffffff1673ffffffffffffffffffffffffffffffffffffffff1681526020016006820160009054906101000a900473ffffffffffffffffffffffffffffffffffffffff1673ffffffffffffffffffffffffffffffffffffffff1673ffffffffffffffffffffffffffffffffffffffff168152602001600782015481526020016008820160009054906101000a900460ff1660098111156131e757fe5b60098111156131f257fe5b8152602001600982015481525050818380600101945081518110151561321457fe5b906020019060200201819052505b8280600101935050613036565b80945050505050919050565b600d8181548110151561324a57fe5b90600052602060002090600402016000915090508060000154908060010160009054906101000a900473ffffffffffffffffffffffffffffffffffffffff1690806002018054600181600116156101000203166002900480601f0160208091040260200160405190810160405280929190818152602001828054600181600116156101000203166002900480156133225780601f106132f757610100808354040283529160200191613322565b820191906000526020600020905b81548152906001019060200180831161330557829003601f168201915b5050505050908060030154905084565b6000831415151561334257600080fd5b61334a613d9c565b6133538461075f565b905080600001518414151561336757600080fd5b6000821415151561337757600080fd5b6000831415801561338c575080606001518311155b151561339757600080fd5b600760009054906101000a900473ffffffffffffffffffffffffffffffffffffffff1673ffffffffffffffffffffffffffffffffffffffff166370a08231336040518263ffffffff167c010000000000000000000000000000000000000000000000000000000002815260040161340e91906145a4565b60206040518083038186803b15801561342657600080fd5b505afa15801561343a573d6000803e3d6000fd5b505050506040513d601f19601f8201168201806040525061345e91908101906141bf565b613475848360400151613b2a90919063ffffffff16565b1115151561348257600080fd5b3373ffffffffffffffffffffffffffffffffffffffff168160a0015173ffffffffffffffffffffffffffffffffffffffff16141515156134c157600080fd5b6134c9613e69565b6134df600160045461394b90919063ffffffff16565b60048190555060045481600001818152505084816020018181525050613512848360400151613b2a90919063ffffffff16565b816040018181525050613523613ef4565b61352c846114fa565b90508060600151826060018181525050848260800181815250508260a001518260a0019073ffffffffffffffffffffffffffffffffffffffff16908173ffffffffffffffffffffffffffffffffffffffff1681525050338260c0019073ffffffffffffffffffffffffffffffffffffffff16908173ffffffffffffffffffffffffffffffffffffffff1681525050838260e0018181525050600082610100019060098111156135d757fe5b908160098111156135e457fe5b81525050600c829080600181540180825580915050906001820390600052602060002090600a020160009091929091909150600082015181600001556020820151816001015560408201518160020155606082015181600301556080820151816004015560a08201518160050160006101000a81548173ffffffffffffffffffffffffffffffffffffffff021916908373ffffffffffffffffffffffffffffffffffffffff16021790555060c08201518160060160006101000a81548173ffffffffffffffffffffffffffffffffffffffff021916908373ffffffffffffffffffffffffffffffffffffffff16021790555060e082015181600701556101008201518160080160006101000a81548160ff0219169083600981111561370557fe5b02179055506101208201518160090155505050505050505050565b6000811415151561373057600080fd5b613738613e69565b600061374383613967565b91509150600082600001511415151561375b57600080fd5b8160a0015173ffffffffffffffffffffffffffffffffffffffff163373ffffffffffffffffffffffffffffffffffffffff1614151561379957600080fd5b600760098111156137a657fe5b82610100015160098111156137b757fe5b1415156137c357600080fd5b6008600c828154811015156137d457fe5b90600052602060002090600a020160080160006101000a81548160ff0219169083600981111561380057fe5b021790555060006138148360200151613d3e565b905061384d8360800151600b8381548110151561382d57fe5b90600052602060002090600602016003015461394b90919063ffffffff16565b600b8281548110151561385c57fe5b906000526020600020906006020160030181905550600760009054906101000a900473ffffffffffffffffffffffffffffffffffffffff1673ffffffffffffffffffffffffffffffffffffffff1663a9059cbb8460c0015185604001516040518363ffffffff167c01000000000000000000000000000000000000000000000000000000000281526004016138f2929190614648565b602060405180830381600087803b15801561390c57600080fd5b505af1158015613920573d6000803e3d6000fd5b505050506040513d601f19601f8201168201806040525061394491908101906140b2565b5050505050565b6000818301905082811015151561395e57fe5b80905092915050565b61396f613e69565b600080600090505b600c80549050811015613b105783600c8281548110151561399457fe5b90600052602060002090600a0201600001541415613b0357600c818154811015156139bb57fe5b90600052602060002090600a02018181610140604051908101604052908160008201548152602001600182015481526020016002820154815260200160038201548152602001600482015481526020016005820160009054906101000a900473ffffffffffffffffffffffffffffffffffffffff1673ffffffffffffffffffffffffffffffffffffffff1673ffffffffffffffffffffffffffffffffffffffff1681526020016006820160009054906101000a900473ffffffffffffffffffffffffffffffffffffffff1673ffffffffffffffffffffffffffffffffffffffff1673ffffffffffffffffffffffffffffffffffffffff168152602001600782015481526020016008820160009054906101000a900460ff166009811115613ade57fe5b6009811115613ae957fe5b815260200160098201548152505091509250925050613b25565b8080600101915050613977565b50613b19613e69565b80600080905092509250505b915091565b600080831415613b3d5760009050613b5c565b8183029050818382811515613b4e57fe5b04141515613b5857fe5b8090505b92915050565b613b6a613d9c565b600080600090505b600b80549050811015613d0b5783600b82815481101515613b8f57fe5b9060005260206000209060060201600001541415613cfe57600b81815481101515613bb657fe5b9060005260206000209060060201818160c0604051908101604052908160008201548152602001600182018054600181600116156101000203166002900480601f016020809104026020016040519081016040528092919081815260200182805460018160011615610100020316600290048015613c755780601f10613c4a57610100808354040283529160200191613c75565b820191906000526020600020905b815481529060010190602001808311613c5857829003601f168201915b505050505081526020016002820154815260200160038201548152602001600482015481526020016005820160009054906101000a900473ffffffffffffffffffffffffffffffffffffffff1673ffffffffffffffffffffffffffffffffffffffff1673ffffffffffffffffffffffffffffffffffffffff168152505091509250925050613d20565b8080600101915050613b72565b50613d14613d9c565b80600080905092509250505b915091565b6000828211151515613d3357fe5b818303905092915050565b600080600090505b600b80549050811015613d915782600b82815481101515613d6357fe5b9060005260206000209060060201600001541415613d845780915050613d97565b8080600101915050613d46565b50600090505b919050565b60c0604051908101604052806000815260200160608152602001600081526020016000815260200160008152602001600073ffffffffffffffffffffffffffffffffffffffff1681525090565b828054600181600116156101000203166002900490600052602060002090601f016020900481019282601f10613e2a57805160ff1916838001178555613e58565b82800160010185558215613e58579182015b82811115613e57578251825591602001919060010190613e3c565b5b509050613e659190613fbe565b5090565b610140604051908101604052806000815260200160008152602001600081526020016000815260200160008152602001600073ffffffffffffffffffffffffffffffffffffffff168152602001600073ffffffffffffffffffffffffffffffffffffffff1681526020016000815260200160006009811115613ee757fe5b8152602001600081525090565b60806040519081016040528060008152602001600073ffffffffffffffffffffffffffffffffffffffff16815260200160608152602001600081525090565b610140604051908101604052806000815260200160008152602001600081526020016000815260200160008152602001600073ffffffffffffffffffffffffffffffffffffffff168152602001600073ffffffffffffffffffffffffffffffffffffffff1681526020016000815260200160006009811115613fb157fe5b8152602001600081525090565b613fe091905b80821115613fdc576000816000905550600101613fc4565b5090565b90565b6000613fef8235614888565b905092915050565b6000614003825161489a565b905092915050565b600082601f830112151561401e57600080fd5b813561403161402c826147da565b6147ad565b9150808252602083016020830185838301111561404d57600080fd5b6140588382846148f8565b50505092915050565b600061406d82356148a6565b905092915050565b600061408182516148a6565b905092915050565b60006020828403121561409b57600080fd5b60006140a984828501613fe3565b91505092915050565b6000602082840312156140c457600080fd5b60006140d284828501613ff7565b91505092915050565b600080604083850312156140ee57600080fd5b600083013567ffffffffffffffff81111561410857600080fd5b6141148582860161400b565b925050602061412585828601614061565b9150509250929050565b60008060006060848603121561414457600080fd5b600084013567ffffffffffffffff81111561415e57600080fd5b61416a8682870161400b565b935050602061417b86828701614061565b925050604061418c86828701614061565b9150509250925092565b6000602082840312156141a857600080fd5b60006141b684828501614061565b91505092915050565b6000602082840312156141d157600080fd5b60006141df84828501614075565b91505092915050565b6000806000606084860312156141fd57600080fd5b600061420b86828701614061565b935050602061421c86828701614061565b925050604061422d86828701614061565b9150509250925092565b614240816148b0565b82525050565b61424f81614836565b82525050565b600061426082614813565b80845260208401935061427283614806565b60005b828110156142a557614288868351614425565b61429182614829565b915061014086019550600181019050614275565b50849250505092915050565b6142ba816148c2565b82525050565b60006142cb8261481e565b8084526142df816020860160208601614907565b6142e88161493a565b602085010191505092915050565b600060808301600083015161430e600086018261457a565b5060208301516143216020860182614246565b506040830151848203604086015261433982826142c0565b915050606083015161434e606086018261457a565b508091505092915050565b61014082016000820151614370600085018261457a565b506020820151614383602085018261457a565b506040820151614396604085018261457a565b5060608201516143a9606085018261457a565b5060808201516143bc608085018261457a565b5060a08201516143cf60a0850182614246565b5060c08201516143e260c0850182614246565b5060e08201516143f560e085018261457a565b5061010082015161440a6101008501826142b1565b5061012082015161441f61012085018261457a565b50505050565b6101408201600082015161443c600085018261457a565b50602082015161444f602085018261457a565b506040820151614462604085018261457a565b506060820151614475606085018261457a565b506080820151614488608085018261457a565b5060a082015161449b60a0850182614246565b5060c08201516144ae60c0850182614246565b5060e08201516144c160e085018261457a565b506101008201516144d66101008501826142b1565b506101208201516144eb61012085018261457a565b50505050565b600060c083016000830151614509600086018261457a565b506020830151848203602086015261452182826142c0565b9150506040830151614536604086018261457a565b506060830151614549606086018261457a565b50608083015161455c608086018261457a565b5060a083015161456f60a0860182614246565b508091505092915050565b6145838161487e565b82525050565b600060208201905061459e6000830184614246565b92915050565b60006020820190506145b96000830184614237565b92915050565b60006040820190506145d46000830185614237565b6145e16020830184614246565b9392505050565b60006060820190506145fd6000830186614237565b61460a6020830185614246565b614617604083018461457a565b949350505050565b60006040820190506146346000830185614237565b614641602083018461457a565b9392505050565b600060408201905061465d6000830185614246565b61466a602083018461457a565b9392505050565b6000602082019050818103600083015261468b8184614255565b905092915050565b600060208201905081810360008301526146ad81846142f6565b905092915050565b6000610140820190506146cb6000830184614359565b92915050565b600060208201905081810360008301526146eb81846144f1565b905092915050565b6000602082019050614708600083018461457a565b92915050565b6000608082019050614723600083018761457a565b6147306020830186614246565b818103604083015261474281856142c0565b9050614751606083018461457a565b95945050505050565b600060a08201905061476f600083018861457a565b61477c602083018761457a565b614789604083018661457a565b6147966060830185614246565b6147a36080830184614246565b9695505050505050565b6000604051905081810181811067ffffffffffffffff821117156147d057600080fd5b8060405250919050565b600067ffffffffffffffff8211156147f157600080fd5b601f19601f8301169050602081019050919050565b6000602082019050919050565b600081519050919050565b600081519050919050565b6000602082019050919050565b60006148418261485e565b9050919050565b6000600a8210151561485657fe5b819050919050565b600073ffffffffffffffffffffffffffffffffffffffff82169050919050565b6000819050919050565b60006148938261485e565b9050919050565b60008115159050919050565b6000819050919050565b60006148bb826148d4565b9050919050565b60006148cd82614848565b9050919050565b60006148df826148e6565b9050919050565b60006148f18261485e565b9050919050565b82818337600083830152505050565b60005b8381101561492557808201518184015260208101905061490a565b83811115614934576000848401525b50505050565b6000601f19601f830116905091905056fea265627a7a723058202d47f838d6388d37030859ca5dbb58e65a962784852366ba23b4ccdbe2f4b3366c6578706572696d656e74616cf50037",
  "source": "pragma solidity ^0.5.0;\npragma experimental ABIEncoderV2;\n\nimport \"./RUCToken.sol\";\n//import \"./SafeMath.sol\";\n\ncontract RUCMarket {\n    \n  using SafeMath for uint256;\n\n  address payable admin;\n  uint256 public tokenPrice;\n  uint256 public tokensSold;\n\n  uint requestedProducts;\n  uint totalOrderNumber = 0;\n  uint totalProductNumber = 0;\n  uint totalCourierNumber = 0;\n  \n\n  RUCToken token;\n\n  enum State {REQUESTED, PAYED, SELLER_COMFIRMED, SELLER_SENT, \n  BUYER_GOT, COMPLETED, WILL_RETURN, BUYER_SENT, SELLER_GOT, CANCLED}\n\n  struct Order {\n    uint id;\n    uint productId;\n    uint productValue;\n    uint deliverFee;\n    uint number;\n    address seller;\n    address buyer;\n    uint courierId;\n    State state;\n    uint deliverTime; \n  }\n  \n  struct Product {\n    uint id;\n    string name;\n    uint price;\n    uint number;\n    uint unconfirmedRequests;\n    //address[] buyers;\n    //mapping (address => bool) isConfirmed;\n    address seller;\n    //Order[] orders;\n  }\n  \n  struct AddressInfo {\n      string firstName;\n      string lastName;\n      string phoneNumber;\n      string zipCode;\n      string street;\n      string province;\n  }\n  \n  struct Courier {\n      uint id;\n      address accountAddress;\n      string companyName;\n      uint fee;\n  }\n  \n  mapping (address => AddressInfo) addressTable;\n  mapping (address => bool) registerTable;\n  mapping (address => bool) isCourier;\n\n  Product[] products;\n  Order[] orders;\n  Courier[] public couriers;\n  \n \n  event Purchase(uint _productId, uint _price, uint _number, address _seller, address _buyer);\n  event TokenSell(address _buyer, uint256 _amount);\n  \n  constructor(RUCToken _tokenContract, uint256 _tokenPrice) public {\n    token = _tokenContract;\n    admin = msg.sender;\n    tokenPrice = _tokenPrice;\n  }\n  \n\n/************************ Token Part **************************************************************/\n\n  function buyTokens(uint256 _numberOfTokens) public payable {\n\n    // Require that value is equal to tokens\n    require(msg.value == _numberOfTokens.mul(tokenPrice));\n\n    // Require that the contract has enough tokens\n    require(token.balanceOf(address(this))>= _numberOfTokens);\n\n    // Require that a transfer is successful\n    require(token.transfer(msg.sender, _numberOfTokens));\n\n    // Keep track of tokensSold\n    tokensSold += _numberOfTokens;\n\n    // Trigger Sell Event\n    emit TokenSell(msg.sender, _numberOfTokens);\n  }\n  \n  function showMyBalance() public view returns(uint){\n    return  token.balanceOf(msg.sender); \n  }\n  \n  function endSale() public {\n    require(msg.sender == admin);\n    require(token.transfer(admin, token.balanceOf(address(this))));\n\n    // Just transfer the balance to admin\n    admin.transfer(address(this).balance);\n  }\n  \n  /************************ Purchase Part **************************************************************/\n  \n  /*function register(\n      string memory _firstName, \n      string memory _lastName, \n      string memory _phoneNumber, \n      string memory _zipCode, \n      string memory _street, \n      string memory _province) \n      public{\n          require(!registerTable[msg.sender]);\n          \n          AddressInfo memory addressInfo;\n          \n          addressInfo.firstName = _firstName;\n          addressInfo.lastName = _lastName;\n          addressInfo.phoneNumber = _phoneNumber;\n          addressInfo.zipCode = _zipCode;\n          addressInfo.street = _street;\n          addressInfo.province = _province;\n          \n          addressTable[msg.sender] = addressInfo;\n          \n          registerTable[msg.sender] = true;\n      \n  }*/\n  \n  /*\n  string firstName;\n      string lastName;\n      byte[11] phoneNumber;\n      byte[6] zipCode;\n      string street;\n      string province;\n  */\n  /*function modifyAddressInfo(\n      string memory _firstName, \n      string memory _lastName, \n      string memory _phoneNumber, \n      string memory _zipCode, \n      string memory _street, \n      string memory _province) \n      public {\n          require(registerTable[msg.sender]);\n          \n          AddressInfo memory addressInfo;\n          \n          addressInfo.firstName = _firstName;\n          addressInfo.lastName = _lastName;\n          addressInfo.phoneNumber = _phoneNumber;\n          addressInfo.zipCode = _zipCode;\n          addressInfo.street = _street;\n          addressInfo.province = _province;\n          \n          addressTable[msg.sender] = addressInfo;\n          \n  }*/\n  \n  function I_am_courier(string memory _companyName, uint _fee) public {\n      require(!isCourier[msg.sender]); // prevent double register\n      \n      Courier memory _courier;\n      totalCourierNumber = totalCourierNumber.add(1);\n      _courier.id = totalCourierNumber; //id = totalCourierNumber \n      _courier.accountAddress = msg.sender;\n      _courier.companyName = _companyName;\n      _courier.fee = _fee;\n      \n      couriers.push(_courier);\n      isCourier[msg.sender] = true;\n  }\n  // how to pass parameter : string? \n  function addProduct(string memory _name, uint _price, uint _number) public {\n    require(_price > 0);\n    require(_number > 0);\n    \n    Product memory _product;\n    totalProductNumber = totalProductNumber.add(1);\n    _product.id = totalProductNumber; //id = totalProductNumber\n    _product.name = _name;\n    _product.price = _price;\n    _product.number = _number;\n    _product.seller = msg.sender;\n    \n    products.push(_product);\n  }\n\n  \n  function purchaseRequest(uint _productId, uint _requestNumber, uint _courierId) external {\n    require(_productId != 0);\n    \n    //(Product memory _product, uint _productIndex) = findProductAndIndexById(_productId);\n    Product memory _product = findProductById(_productId);\n    require(_productId == _product.id); //_product does exist\n    //require(_courierId > 0 && _courierId <= couriers.length);\n    require(_courierId !=0);\n    require(_requestNumber != 0 && _requestNumber <= _product.number);\n    require((_product.price.mul(_requestNumber)) <= token.balanceOf(msg.sender));\n    require(_product.seller != msg.sender); // can not buy things from one himself\n    \n    Order memory _order;\n    totalOrderNumber = totalOrderNumber.add(1);\n    _order.id = totalOrderNumber; // order id = totalOrderNumber\n    _order.productId = _productId;\n    _order.productValue = _product.price.mul(_requestNumber); // number * price \n    Courier memory _courier = findCourierById(_courierId);\n    _order.deliverFee = _courier.fee; //deliver fee\n    _order.number = _requestNumber;\n    _order.seller = _product.seller;\n    _order.buyer = msg.sender;\n    _order.courierId = _courierId;\n    _order.state = State.REQUESTED;\n\n    orders.push(_order);\n\n   // products[_productIndex].number = products[_productIndex].number.sub(_requestNumber);\n    \n  }\n  \n  \n  function buyerPayOrder(uint _orderId) external {\n      require(_orderId !=0);\n      \n      (Order memory _order,uint _orderIndex) = findOrderAndIndexById(_orderId);\n      require(_order.id != 0); // order exist\n      \n      require(msg.sender == _order.buyer);\n      require(_order.state == State.REQUESTED);\n      \n      uint totalValue = _order.productValue.add(_order.deliverFee); //totalValue = productValue + deliverFee\n      token.approve(msg.sender, address(this), totalValue);\n      require(token.allowance(msg.sender, address(this)) >= totalValue);\n      token.transferFrom(msg.sender, address(this), totalValue);\n      orders[_orderIndex].state = State.PAYED;\n      \n  }\n  \n  function sellerComfirmOrder(uint _orderId) external {\n      require(_orderId != 0);\n      (Order memory _order,uint _orderIndex) = findOrderAndIndexById(_orderId);\n      require(_order.id != 0); // order exist\n      \n      require(msg.sender == _order.seller );\n      require(_order.state == State.PAYED);  // require preious state\n      (Product memory _product,uint _productIndex) = findProductAndIndexById(_order.productId);\n      require(_order.number <= _product.number);\n      \n      \n      \n      orders[_orderIndex].state = State.SELLER_COMFIRMED; //change state to \"...\"\n      products[_productIndex].number = products[_productIndex].number.sub(_order.number); // update product number\n      \n      emit Purchase( _order.productId, _product.price, _order.number, _order.seller, _order.buyer);\n  }\n  \n  function sellerSendProduct(uint _orderId) external {\n      require(_orderId != 0);\n      (Order memory _order,uint _orderIndex) = findOrderAndIndexById(_orderId);\n      require(_order.id != 0); // order exist\n      \n      Courier memory _courier = findCourierById(_order.courierId);\n      require(msg.sender == _courier.accountAddress); //msg.sender == order's courier\n      require(_order.state == State.SELLER_COMFIRMED); // state == SELLER_COMFIRMED\n      \n      token.transfer(_courier.accountAddress, _order.deliverFee); // pay deliver fee\n      orders[_orderIndex].state = State.SELLER_SENT; //change state to \"SELLER_SENT\"\n  }\n  \n  function buyerGetProduct(uint _orderId) external {\n      require(_orderId != 0);\n      (Order memory _order,uint _orderIndex) = findOrderAndIndexById(_orderId);\n      require(_order.id != 0); // order exist\n      \n      require(msg.sender == _order.buyer); // msg.sender == buyer\n      require(_order.state == State.SELLER_SENT); // require previous state\n      \n      //token.transferFrom(address(this), _order.seller, _order.productValue);\n      orders[_orderIndex].state = State.BUYER_GOT;\n      orders[_orderIndex].deliverTime = now; // set the deliverTime as 'now'\n  }\n  \n  function buyerConfirm(uint _orderId) external {\n      require(_orderId != 0);\n      (Order memory _order,uint _orderIndex) = findOrderAndIndexById(_orderId);\n      require(_order.id != 0); // order exist\n      \n      require(msg.sender == _order.buyer); // msg.sender == buyer\n      require(_order.state == State.BUYER_GOT); // require previous state\n      \n      //token.transferFrom(address(this), _order.seller, _order.productValue);\n      token.transfer(_order.seller, _order.productValue);\n      orders[_orderIndex].state = State.COMPLETED;\n  }\n  \n  function sellerGetMoneyFromOrder(uint _orderId) external {\n      require(_orderId != 0);\n      (Order memory _order,uint _orderIndex) = findOrderAndIndexById(_orderId);\n      require(_order.id != 0); // order exist\n      \n      require(msg.sender == _order.seller); //msg.sender == seller\n      require(now > _order.deliverTime.add(1 minutes)); // consideration time is over\n      require(_order.state == State.BUYER_GOT); // Has't been confirmed\n      \n      //token.transferFrom(address(this), _order.seller, _order.productValue);\n      token.transfer(_order.seller, _order.productValue);\n      orders[_orderIndex].state = State.COMPLETED;\n  }\n  \n  function buyerWillRuturnProduct(uint _orderId) external {\n      require(_orderId !=0);\n      \n      (Order memory _order,uint _orderIndex) = findOrderAndIndexById(_orderId);\n      require(_order.id != 0); // order exist\n      \n      require(msg.sender == _order.buyer);\n      require(_order.state == State.BUYER_GOT); // state == BUYER_GOT\n      require(now <= _order.deliverTime.add(1 minutes)); // within the consideration time limit\n      \n      token.approve(msg.sender, address(this), _order.deliverFee);\n      require(token.allowance(msg.sender, address(this)) >= _order.deliverFee);\n      token.transferFrom(msg.sender, address(this), _order.deliverFee);\n      orders[_orderIndex].state = State.WILL_RETURN;\n      \n  }\n  \n  function buyerSendProduct(uint _orderId) external {\n      require(_orderId != 0);\n      (Order memory _order,uint _orderIndex) = findOrderAndIndexById(_orderId);\n      require(_order.id != 0); // order exist\n      \n      Courier memory _courier = findCourierById(_order.courierId);\n      require(msg.sender == _courier.accountAddress); //msg.sender == order's courier\n      require(_order.state == State.WILL_RETURN); // state == WILL_RETURN\n      \n      token.transfer(_courier.accountAddress, _order.deliverFee); // pay deliver fee\n      orders[_orderIndex].state = State.BUYER_SENT; //change state to \"SELLER_SENT\"\n  }\n  \n  function sellerGetProduct(uint _orderId) external {\n      require(_orderId != 0);\n      (Order memory _order,uint _orderIndex) = findOrderAndIndexById(_orderId);\n      require(_order.id != 0); // order exist\n      \n      require(msg.sender == _order.seller); // msg.sender == seller\n      require(_order.state == State.BUYER_SENT); // require previous state\n      \n      //token.transferFrom(address(this), _order.seller, _order.productValue);\n      orders[_orderIndex].state = State.SELLER_GOT;\n      //orders[_orderIndex].deliverTime = now; // reset the deliverTime as 'now'\n      \n      //add product number\n      uint _productIndex = findProductIndexById(_order.productId);\n      products[_productIndex].number = products[_productIndex].number.add(_order.number);\n      \n      token.transfer(_order.buyer, _order.productValue); // return the money back to buyer\n  }\n  \n  function cancleByBuyer(uint _orderId) external {\n      require(_orderId != 0);\n      (Order memory _order,uint _orderIndex) = findOrderAndIndexById(_orderId);\n      require(_order.id != 0); // order exist\n      \n      require(msg.sender == _order.buyer); // only buyer call this cancle  \n      \n      /*two cases:\n        1. before seller send products: buyer can get all the money (token) back\n        2. after buyer got the products, before he sends \n        (which is state WILL_RETURN): similer to buyerConfirm()*/\n      if(_order.state < State.SELLER_SENT) { // 1. before seller sent\n          orders[_orderIndex].state = State.CANCLED; // set state as CANCLED\n          token.transfer(msg.sender, _order.productValue.add(_order.deliverFee)); // transfer token back\n      }\n      else if(_order.state == State.WILL_RETURN){\n          token.transfer(_order.seller, _order.productValue);\n          orders[_orderIndex].state = State.COMPLETED;\n      }\n  }\n  \n  function cancleByCourier(uint _orderId) external {\n      /* Situation: \n      courier help qulify the product, and the returning products don't match the requirement.\n      */\n      \n      require(_orderId != 0);\n      (Order memory _order,uint _orderIndex) = findOrderAndIndexById(_orderId);\n      require(_order.id != 0); // order exist\n      \n      Courier memory _courier = findCourierById(_order.courierId);\n      require(msg.sender == _courier.accountAddress); // only courier call this cancle  \n      require(_order.state == State.WILL_RETURN);\n      \n      token.transfer(_order.seller, _order.productValue.add(_order.deliverFee));\n      orders[_orderIndex].state = State.COMPLETED;\n  }\n  /****************************** Find and Get methods***********************************/\n  /*\n  function getProductName(uint _productId) external view returns(string memory) {\n    Product memory _product = findProductById(_productId);\n    return _product.name;\n  }\n\n  function getProductPrice(uint _productId) external view returns(uint) {\n    Product memory _product = findProductById(_productId);\n    return _product.price;\n  }\n\n  function getProductNumber(uint _productId) external view returns(uint) {\n    Product memory _product = findProductById(_productId);\n    return _product.number;\n  }\n\n  function getProductSeller(uint _productId) external view returns(address) {\n    Product memory _product = findProductById(_productId);\n    return _product.seller;\n  }*/\n  \n  function findOrderAndIndexById(uint _orderId) internal view returns(Order memory, uint) {\n    for(uint i = 0; i < orders.length; i++) {\n       if(orders[i].id == _orderId){\n         return (orders[i], i);\n       }\n    }\n    \n    Order memory order;\n    \n    return (order, 0);\n  }\n  \n  function findOrderById(uint _orderid) public view returns(Order memory){\n      for(uint i = 0; i < orders.length; i++){\n          if(orders[i].id == _orderid)\n            return orders[i];\n      }\n      \n      Order memory order;\n      return order;\n  }\n\n  function findOrdersBySeller(address _seller) external view returns(Order[] memory) {\n    uint count = 0;\n    uint i;\n    uint j = 0;\n    for(i = 0; i < orders.length; i++){\n      if(orders[i].seller == _seller){\n        count ++;\n      }\n    }\n\n    Order[] memory results = new Order[](count);\n\n    for(i = 0; i < orders.length; i++){\n      if(orders[i].seller == _seller){\n        results[j++] = orders[i];\n      }\n    }\n\n    return results;\n  }\n  \n  function findOrdersByBuyer(address _buyer) external view returns(Order[] memory) {\n    uint count = 0;\n    uint i;\n    uint j = 0;\n    for(i = 0; i < orders.length; i++){\n      if(orders[i].buyer == _buyer){\n        count ++;\n      }\n    }\n\n    Order[] memory results = new Order[](count);\n\n    for(i = 0; i < orders.length; i++){\n      if(orders[i].buyer == _buyer){\n        results[j++] = orders[i];\n      }\n    }\n      return results;\n  }\n  \n  function findOrdersBycourierId(uint _courierId) external view returns(Order[] memory) {\n    uint count = 0;\n    uint i;\n    uint j = 0;\n    for(i = 0; i < orders.length; i++){\n      if(orders[i].courierId == _courierId){\n        count ++;\n      }\n    }\n\n    Order[] memory results = new Order[](count);\n\n    for(i = 0; i < orders.length; i++){\n      if(orders[i].courierId == _courierId){\n        results[j++] = orders[i];\n      }\n    }\n\n    return results;\n  }\n\n\n\n  function findProductAndIndexById(uint _productId) internal view returns(Product memory, uint) {\n    for(uint i = 0; i < products.length; i++) {\n       if(products[i].id == _productId){\n         return (products[i], i);\n       }\n    }\n    \n    Product memory product;\n    \n    return (product, 0);\n  }\n  \n  function findProductIndexById(uint _productId) internal view returns(uint) {\n    for(uint i = 0; i < products.length; i++) {\n       if(products[i].id == _productId){\n         return i;\n       }\n    }\n    \n    return 0;\n  }\n  \n  function findProductById(uint _productId) public view returns(Product memory) {\n    for(uint i = 0; i < products.length; i++) {\n       if(products[i].id == _productId){\n         return products[i];\n       }\n    }\n    \n    Product memory product;\n    \n    return product;\n  }\n  \n  function findCourierById(uint _courierId) public view returns(Courier memory) {\n    for(uint i = 0; i < couriers.length; i++) {\n       if(couriers[i].id == _courierId){\n         return couriers[i];\n       }\n    }\n    \n    Courier memory courier;\n    \n    return courier;\n  }\n \n}",
  "sourcePath": "/home/elaine/RUCMarket/contracts/RUCMarket.sol",
  "compiler": {
    "name": "solc",
    "version": "0.5.0+commit.1d4f565a.Emscripten.clang"
  },
  "schemaVersion": "3.0.1",
  "updatedAt": "2019-04-14T03:13:39.915Z",
  "devdoc": {
    "methods": {}
  },
  "userdoc": {
    "methods": {
      "I_am_courier(string,uint256)": {
        "notice": "********************** Purchase Part *************************************************************"
      },
      "buyTokens(uint256)": {
        "notice": "********************** Token Part *************************************************************"
      }
    }
  }
}